{
  "_format": "hh-sol-artifact-1",
  "contractName": "FRST721A",
  "sourceName": "contracts/FRST721A.sol",
  "abi": [
    {
      "inputs": [],
      "name": "ApprovalCallerNotOwnerNorApproved",
      "type": "error"
    },
    {
      "inputs": [],
      "name": "ApprovalQueryForNonexistentToken",
      "type": "error"
    },
    {
      "inputs": [],
      "name": "BalanceQueryForZeroAddress",
      "type": "error"
    },
    {
      "inputs": [],
      "name": "MintERC2309QuantityExceedsLimit",
      "type": "error"
    },
    {
      "inputs": [],
      "name": "MintToZeroAddress",
      "type": "error"
    },
    {
      "inputs": [],
      "name": "MintZeroQuantity",
      "type": "error"
    },
    {
      "inputs": [],
      "name": "NotCompatibleWithSpotMints",
      "type": "error"
    },
    {
      "inputs": [
        {
          "internalType": "address",
          "name": "operator",
          "type": "address"
        }
      ],
      "name": "OperatorNotAllowed",
      "type": "error"
    },
    {
      "inputs": [],
      "name": "OwnerQueryForNonexistentToken",
      "type": "error"
    },
    {
      "inputs": [],
      "name": "OwnershipNotInitializedForExtraData",
      "type": "error"
    },
    {
      "inputs": [],
      "name": "SequentialMintExceedsLimit",
      "type": "error"
    },
    {
      "inputs": [],
      "name": "SequentialUpToTooSmall",
      "type": "error"
    },
    {
      "inputs": [],
      "name": "SpotMintTokenIdTooSmall",
      "type": "error"
    },
    {
      "inputs": [],
      "name": "TokenAlreadyExists",
      "type": "error"
    },
    {
      "inputs": [],
      "name": "TransferCallerNotOwnerNorApproved",
      "type": "error"
    },
    {
      "inputs": [],
      "name": "TransferFromIncorrectOwner",
      "type": "error"
    },
    {
      "inputs": [],
      "name": "TransferToNonERC721ReceiverImplementer",
      "type": "error"
    },
    {
      "inputs": [],
      "name": "TransferToZeroAddress",
      "type": "error"
    },
    {
      "inputs": [],
      "name": "URIQueryForNonexistentToken",
      "type": "error"
    },
    {
      "anonymous": false,
      "inputs": [
        {
          "indexed": true,
          "internalType": "address",
          "name": "owner",
          "type": "address"
        },
        {
          "indexed": true,
          "internalType": "address",
          "name": "approved",
          "type": "address"
        },
        {
          "indexed": true,
          "internalType": "uint256",
          "name": "tokenId",
          "type": "uint256"
        }
      ],
      "name": "Approval",
      "type": "event"
    },
    {
      "anonymous": false,
      "inputs": [
        {
          "indexed": true,
          "internalType": "address",
          "name": "owner",
          "type": "address"
        },
        {
          "indexed": true,
          "internalType": "address",
          "name": "operator",
          "type": "address"
        },
        {
          "indexed": false,
          "internalType": "bool",
          "name": "approved",
          "type": "bool"
        }
      ],
      "name": "ApprovalForAll",
      "type": "event"
    },
    {
      "anonymous": false,
      "inputs": [
        {
          "indexed": true,
          "internalType": "uint256",
          "name": "fromTokenId",
          "type": "uint256"
        },
        {
          "indexed": false,
          "internalType": "uint256",
          "name": "toTokenId",
          "type": "uint256"
        },
        {
          "indexed": true,
          "internalType": "address",
          "name": "from",
          "type": "address"
        },
        {
          "indexed": true,
          "internalType": "address",
          "name": "to",
          "type": "address"
        }
      ],
      "name": "ConsecutiveTransfer",
      "type": "event"
    },
    {
      "anonymous": false,
      "inputs": [
        {
          "indexed": false,
          "internalType": "uint8",
          "name": "version",
          "type": "uint8"
        }
      ],
      "name": "Initialized",
      "type": "event"
    },
    {
      "anonymous": false,
      "inputs": [
        {
          "indexed": false,
          "internalType": "address",
          "name": "sender",
          "type": "address"
        },
        {
          "indexed": false,
          "internalType": "uint256",
          "name": "tokenId_",
          "type": "uint256"
        }
      ],
      "name": "Minted",
      "type": "event"
    },
    {
      "anonymous": false,
      "inputs": [
        {
          "indexed": true,
          "internalType": "address",
          "name": "previousOwner",
          "type": "address"
        },
        {
          "indexed": true,
          "internalType": "address",
          "name": "newOwner",
          "type": "address"
        }
      ],
      "name": "OwnershipTransferred",
      "type": "event"
    },
    {
      "anonymous": false,
      "inputs": [
        {
          "indexed": true,
          "internalType": "address",
          "name": "from",
          "type": "address"
        },
        {
          "indexed": true,
          "internalType": "address",
          "name": "to",
          "type": "address"
        },
        {
          "indexed": true,
          "internalType": "uint256",
          "name": "tokenId",
          "type": "uint256"
        }
      ],
      "name": "Transfer",
      "type": "event"
    },
    {
      "inputs": [],
      "name": "MAX_TOKENS",
      "outputs": [
        {
          "internalType": "uint256",
          "name": "",
          "type": "uint256"
        }
      ],
      "stateMutability": "view",
      "type": "function"
    },
    {
      "inputs": [
        {
          "internalType": "uint256",
          "name": "newCap",
          "type": "uint256"
        }
      ],
      "name": "adjustCap",
      "outputs": [],
      "stateMutability": "nonpayable",
      "type": "function"
    },
    {
      "inputs": [
        {
          "internalType": "address",
          "name": "operator",
          "type": "address"
        },
        {
          "internalType": "uint256",
          "name": "tokenId",
          "type": "uint256"
        }
      ],
      "name": "approve",
      "outputs": [],
      "stateMutability": "payable",
      "type": "function"
    },
    {
      "inputs": [
        {
          "internalType": "address",
          "name": "owner",
          "type": "address"
        }
      ],
      "name": "balanceOf",
      "outputs": [
        {
          "internalType": "uint256",
          "name": "",
          "type": "uint256"
        }
      ],
      "stateMutability": "view",
      "type": "function"
    },
    {
      "inputs": [],
      "name": "baseURI",
      "outputs": [
        {
          "internalType": "string",
          "name": "",
          "type": "string"
        }
      ],
      "stateMutability": "view",
      "type": "function"
    },
    {
      "inputs": [],
      "name": "contractURI",
      "outputs": [
        {
          "internalType": "string",
          "name": "",
          "type": "string"
        }
      ],
      "stateMutability": "view",
      "type": "function"
    },
    {
      "inputs": [
        {
          "internalType": "address[]",
          "name": "accounts",
          "type": "address[]"
        },
        {
          "internalType": "uint32[]",
          "name": "percentAllocations",
          "type": "uint32[]"
        },
        {
          "internalType": "uint32",
          "name": "distributorFee",
          "type": "uint32"
        }
      ],
      "name": "createSplit",
      "outputs": [],
      "stateMutability": "nonpayable",
      "type": "function"
    },
    {
      "inputs": [
        {
          "internalType": "address",
          "name": "account",
          "type": "address"
        },
        {
          "internalType": "uint256",
          "name": "withdrawETH",
          "type": "uint256"
        },
        {
          "internalType": "contract ERC20[]",
          "name": "tokens",
          "type": "address[]"
        },
        {
          "internalType": "address[]",
          "name": "accounts",
          "type": "address[]"
        },
        {
          "internalType": "uint32[]",
          "name": "percentAllocations",
          "type": "uint32[]"
        },
        {
          "internalType": "uint32",
          "name": "distributorFee",
          "type": "uint32"
        },
        {
          "internalType": "address",
          "name": "distributorAddress",
          "type": "address"
        }
      ],
      "name": "distributeAndWithdraw",
      "outputs": [],
      "stateMutability": "nonpayable",
      "type": "function"
    },
    {
      "inputs": [
        {
          "internalType": "contract ERC20",
          "name": "token",
          "type": "address"
        },
        {
          "internalType": "address[]",
          "name": "accounts",
          "type": "address[]"
        },
        {
          "internalType": "uint32[]",
          "name": "percentAllocations",
          "type": "uint32[]"
        },
        {
          "internalType": "uint32",
          "name": "distributorFee",
          "type": "uint32"
        },
        {
          "internalType": "address",
          "name": "distributorAddress",
          "type": "address"
        }
      ],
      "name": "distributeERC20",
      "outputs": [],
      "stateMutability": "nonpayable",
      "type": "function"
    },
    {
      "inputs": [
        {
          "internalType": "address[]",
          "name": "accounts",
          "type": "address[]"
        },
        {
          "internalType": "uint32[]",
          "name": "percentAllocations",
          "type": "uint32[]"
        },
        {
          "internalType": "uint32",
          "name": "distributorFee",
          "type": "uint32"
        },
        {
          "internalType": "address",
          "name": "distributorAddress",
          "type": "address"
        }
      ],
      "name": "distributeETH",
      "outputs": [],
      "stateMutability": "nonpayable",
      "type": "function"
    },
    {
      "inputs": [],
      "name": "flipSaleState",
      "outputs": [],
      "stateMutability": "nonpayable",
      "type": "function"
    },
    {
      "inputs": [
        {
          "internalType": "uint256",
          "name": "tokenId",
          "type": "uint256"
        }
      ],
      "name": "getApproved",
      "outputs": [
        {
          "internalType": "address",
          "name": "",
          "type": "address"
        }
      ],
      "stateMutability": "view",
      "type": "function"
    },
    {
      "inputs": [],
      "name": "hasAdjustableCap",
      "outputs": [
        {
          "internalType": "bool",
          "name": "",
          "type": "bool"
        }
      ],
      "stateMutability": "view",
      "type": "function"
    },
    {
      "inputs": [
        {
          "internalType": "address",
          "name": "_owner",
          "type": "address"
        },
        {
          "components": [
            {
              "internalType": "string",
              "name": "name",
              "type": "string"
            },
            {
              "internalType": "string",
              "name": "symbol",
              "type": "string"
            },
            {
              "internalType": "bool",
              "name": "hasAdjustableCap",
              "type": "bool"
            },
            {
              "internalType": "uint256",
              "name": "maxTokens",
              "type": "uint256"
            },
            {
              "internalType": "uint256",
              "name": "tokenPrice",
              "type": "uint256"
            },
            {
              "internalType": "uint256",
              "name": "maxTokenPurchase",
              "type": "uint256"
            },
            {
              "internalType": "bytes32",
              "name": "presaleMerkleRoot",
              "type": "bytes32"
            },
            {
              "internalType": "uint256",
              "name": "presaleStart",
              "type": "uint256"
            },
            {
              "internalType": "uint256",
              "name": "presaleEnd",
              "type": "uint256"
            },
            {
              "internalType": "uint256",
              "name": "saleStart",
              "type": "uint256"
            },
            {
              "internalType": "uint256",
              "name": "saleEnd",
              "type": "uint256"
            },
            {
              "internalType": "uint256",
              "name": "royaltyBPS",
              "type": "uint256"
            }
          ],
          "internalType": "struct EditionConfig",
          "name": "_editionConfig",
          "type": "tuple"
        },
        {
          "components": [
            {
              "internalType": "string",
              "name": "contractURI",
              "type": "string"
            },
            {
              "internalType": "string",
              "name": "metadataURI",
              "type": "string"
            },
            {
              "internalType": "bytes",
              "name": "metadataRendererInit",
              "type": "bytes"
            },
            {
              "internalType": "address",
              "name": "parentIP",
              "type": "address"
            }
          ],
          "internalType": "struct MetadataConfig",
          "name": "_metadataConfig",
          "type": "tuple"
        },
        {
          "components": [
            {
              "internalType": "address",
              "name": "tokenAddress",
              "type": "address"
            },
            {
              "internalType": "uint88",
              "name": "minBalance",
              "type": "uint88"
            },
            {
              "internalType": "enum SaleType",
              "name": "saleType",
              "type": "uint8"
            }
          ],
          "internalType": "struct TokenGateConfig",
          "name": "_tokenGateConfig",
          "type": "tuple"
        },
        {
          "internalType": "address",
          "name": "_metadataRenderer",
          "type": "address"
        },
        {
          "internalType": "address",
          "name": "_splitMain",
          "type": "address"
        }
      ],
      "name": "initialize",
      "outputs": [],
      "stateMutability": "nonpayable",
      "type": "function"
    },
    {
      "inputs": [
        {
          "internalType": "address",
          "name": "owner",
          "type": "address"
        },
        {
          "internalType": "address",
          "name": "operator",
          "type": "address"
        }
      ],
      "name": "isApprovedForAll",
      "outputs": [
        {
          "internalType": "bool",
          "name": "",
          "type": "bool"
        }
      ],
      "stateMutability": "view",
      "type": "function"
    },
    {
      "inputs": [],
      "name": "maxTokenPurchase",
      "outputs": [
        {
          "internalType": "uint256",
          "name": "",
          "type": "uint256"
        }
      ],
      "stateMutability": "view",
      "type": "function"
    },
    {
      "inputs": [],
      "name": "metadataRenderer",
      "outputs": [
        {
          "internalType": "address",
          "name": "",
          "type": "address"
        }
      ],
      "stateMutability": "view",
      "type": "function"
    },
    {
      "inputs": [
        {
          "internalType": "uint256",
          "name": "numberOfTokens",
          "type": "uint256"
        }
      ],
      "name": "mint",
      "outputs": [],
      "stateMutability": "payable",
      "type": "function"
    },
    {
      "inputs": [
        {
          "internalType": "address[]",
          "name": "recipients",
          "type": "address[]"
        }
      ],
      "name": "mintAirdrop",
      "outputs": [],
      "stateMutability": "nonpayable",
      "type": "function"
    },
    {
      "inputs": [
        {
          "internalType": "uint256",
          "name": "quantity",
          "type": "uint256"
        },
        {
          "internalType": "uint256",
          "name": "maxQuantity",
          "type": "uint256"
        },
        {
          "internalType": "uint256",
          "name": "pricePerToken",
          "type": "uint256"
        },
        {
          "internalType": "bytes32[]",
          "name": "merkleProof",
          "type": "bytes32[]"
        }
      ],
      "name": "mintPresale",
      "outputs": [],
      "stateMutability": "payable",
      "type": "function"
    },
    {
      "inputs": [],
      "name": "name",
      "outputs": [
        {
          "internalType": "string",
          "name": "",
          "type": "string"
        }
      ],
      "stateMutability": "view",
      "type": "function"
    },
    {
      "inputs": [],
      "name": "operatorFilterRegistry",
      "outputs": [
        {
          "internalType": "contract IOperatorFilterRegistry",
          "name": "",
          "type": "address"
        }
      ],
      "stateMutability": "view",
      "type": "function"
    },
    {
      "inputs": [],
      "name": "owner",
      "outputs": [
        {
          "internalType": "address",
          "name": "",
          "type": "address"
        }
      ],
      "stateMutability": "view",
      "type": "function"
    },
    {
      "inputs": [
        {
          "internalType": "uint256",
          "name": "tokenId",
          "type": "uint256"
        }
      ],
      "name": "ownerOf",
      "outputs": [
        {
          "internalType": "address",
          "name": "",
          "type": "address"
        }
      ],
      "stateMutability": "view",
      "type": "function"
    },
    {
      "inputs": [],
      "name": "parentIP",
      "outputs": [
        {
          "internalType": "address",
          "name": "",
          "type": "address"
        }
      ],
      "stateMutability": "view",
      "type": "function"
    },
    {
      "inputs": [],
      "name": "presaleEnd",
      "outputs": [
        {
          "internalType": "uint256",
          "name": "",
          "type": "uint256"
        }
      ],
      "stateMutability": "view",
      "type": "function"
    },
    {
      "inputs": [],
      "name": "presaleStart",
      "outputs": [
        {
          "internalType": "uint256",
          "name": "",
          "type": "uint256"
        }
      ],
      "stateMutability": "view",
      "type": "function"
    },
    {
      "inputs": [],
      "name": "renounceOwnership",
      "outputs": [],
      "stateMutability": "nonpayable",
      "type": "function"
    },
    {
      "inputs": [
        {
          "internalType": "uint256",
          "name": "numReserved",
          "type": "uint256"
        }
      ],
      "name": "reserveFRST",
      "outputs": [],
      "stateMutability": "nonpayable",
      "type": "function"
    },
    {
      "inputs": [],
      "name": "royaltyBPS",
      "outputs": [
        {
          "internalType": "uint256",
          "name": "",
          "type": "uint256"
        }
      ],
      "stateMutability": "view",
      "type": "function"
    },
    {
      "inputs": [
        {
          "internalType": "uint256",
          "name": "tokenId",
          "type": "uint256"
        },
        {
          "internalType": "uint256",
          "name": "salePrice",
          "type": "uint256"
        }
      ],
      "name": "royaltyInfo",
      "outputs": [
        {
          "internalType": "address",
          "name": "receiver",
          "type": "address"
        },
        {
          "internalType": "uint256",
          "name": "royaltyAmount",
          "type": "uint256"
        }
      ],
      "stateMutability": "view",
      "type": "function"
    },
    {
      "inputs": [
        {
          "internalType": "address",
          "name": "from",
          "type": "address"
        },
        {
          "internalType": "address",
          "name": "to",
          "type": "address"
        },
        {
          "internalType": "uint256",
          "name": "tokenId",
          "type": "uint256"
        }
      ],
      "name": "safeTransferFrom",
      "outputs": [],
      "stateMutability": "payable",
      "type": "function"
    },
    {
      "inputs": [
        {
          "internalType": "address",
          "name": "from",
          "type": "address"
        },
        {
          "internalType": "address",
          "name": "to",
          "type": "address"
        },
        {
          "internalType": "uint256",
          "name": "tokenId",
          "type": "uint256"
        },
        {
          "internalType": "bytes",
          "name": "_data",
          "type": "bytes"
        }
      ],
      "name": "safeTransferFrom",
      "outputs": [],
      "stateMutability": "payable",
      "type": "function"
    },
    {
      "inputs": [],
      "name": "saleEnd",
      "outputs": [
        {
          "internalType": "uint256",
          "name": "",
          "type": "uint256"
        }
      ],
      "stateMutability": "view",
      "type": "function"
    },
    {
      "inputs": [],
      "name": "saleIsActive",
      "outputs": [
        {
          "internalType": "bool",
          "name": "_saleIsActive",
          "type": "bool"
        }
      ],
      "stateMutability": "view",
      "type": "function"
    },
    {
      "inputs": [],
      "name": "saleIsPaused",
      "outputs": [
        {
          "internalType": "bool",
          "name": "",
          "type": "bool"
        }
      ],
      "stateMutability": "view",
      "type": "function"
    },
    {
      "inputs": [],
      "name": "saleStart",
      "outputs": [
        {
          "internalType": "uint256",
          "name": "",
          "type": "uint256"
        }
      ],
      "stateMutability": "view",
      "type": "function"
    },
    {
      "inputs": [
        {
          "internalType": "address",
          "name": "operator",
          "type": "address"
        },
        {
          "internalType": "bool",
          "name": "approved",
          "type": "bool"
        }
      ],
      "name": "setApprovalForAll",
      "outputs": [],
      "stateMutability": "nonpayable",
      "type": "function"
    },
    {
      "inputs": [
        {
          "internalType": "string",
          "name": "uri",
          "type": "string"
        }
      ],
      "name": "setBaseURI",
      "outputs": [],
      "stateMutability": "nonpayable",
      "type": "function"
    },
    {
      "inputs": [
        {
          "internalType": "string",
          "name": "uri",
          "type": "string"
        }
      ],
      "name": "setContractURI",
      "outputs": [],
      "stateMutability": "nonpayable",
      "type": "function"
    },
    {
      "inputs": [
        {
          "internalType": "address",
          "name": "_metadataRenderer",
          "type": "address"
        }
      ],
      "name": "setMetadataRenderer",
      "outputs": [],
      "stateMutability": "nonpayable",
      "type": "function"
    },
    {
      "inputs": [
        {
          "internalType": "bytes32",
          "name": "_presaleMerkleRoot",
          "type": "bytes32"
        }
      ],
      "name": "setPresaleMerkleRoot",
      "outputs": [],
      "stateMutability": "nonpayable",
      "type": "function"
    },
    {
      "inputs": [],
      "name": "splitMain",
      "outputs": [
        {
          "internalType": "address",
          "name": "",
          "type": "address"
        }
      ],
      "stateMutability": "view",
      "type": "function"
    },
    {
      "inputs": [],
      "name": "splitWallet",
      "outputs": [
        {
          "internalType": "address",
          "name": "",
          "type": "address"
        }
      ],
      "stateMutability": "view",
      "type": "function"
    },
    {
      "inputs": [
        {
          "internalType": "bytes4",
          "name": "interfaceId",
          "type": "bytes4"
        }
      ],
      "name": "supportsInterface",
      "outputs": [
        {
          "internalType": "bool",
          "name": "",
          "type": "bool"
        }
      ],
      "stateMutability": "view",
      "type": "function"
    },
    {
      "inputs": [],
      "name": "symbol",
      "outputs": [
        {
          "internalType": "string",
          "name": "",
          "type": "string"
        }
      ],
      "stateMutability": "view",
      "type": "function"
    },
    {
      "inputs": [],
      "name": "tokenGateConfig",
      "outputs": [
        {
          "internalType": "address",
          "name": "tokenAddress",
          "type": "address"
        },
        {
          "internalType": "uint88",
          "name": "minBalance",
          "type": "uint88"
        },
        {
          "internalType": "enum SaleType",
          "name": "saleType",
          "type": "uint8"
        }
      ],
      "stateMutability": "view",
      "type": "function"
    },
    {
      "inputs": [],
      "name": "tokenPrice",
      "outputs": [
        {
          "internalType": "uint256",
          "name": "",
          "type": "uint256"
        }
      ],
      "stateMutability": "view",
      "type": "function"
    },
    {
      "inputs": [
        {
          "internalType": "uint256",
          "name": "tokenId",
          "type": "uint256"
        }
      ],
      "name": "tokenURI",
      "outputs": [
        {
          "internalType": "string",
          "name": "",
          "type": "string"
        }
      ],
      "stateMutability": "view",
      "type": "function"
    },
    {
      "inputs": [],
      "name": "totalSupply",
      "outputs": [
        {
          "internalType": "uint256",
          "name": "",
          "type": "uint256"
        }
      ],
      "stateMutability": "view",
      "type": "function"
    },
    {
      "inputs": [
        {
          "internalType": "address",
          "name": "from",
          "type": "address"
        },
        {
          "internalType": "address",
          "name": "to",
          "type": "address"
        },
        {
          "internalType": "uint256",
          "name": "tokenId",
          "type": "uint256"
        }
      ],
      "name": "transferFrom",
      "outputs": [],
      "stateMutability": "payable",
      "type": "function"
    },
    {
      "inputs": [
        {
          "internalType": "address",
          "name": "newOwner",
          "type": "address"
        }
      ],
      "name": "transferOwnership",
      "outputs": [],
      "stateMutability": "nonpayable",
      "type": "function"
    },
    {
      "inputs": [
        {
          "internalType": "uint256",
          "name": "transferETH",
          "type": "uint256"
        },
        {
          "internalType": "contract ERC20[]",
          "name": "tokens",
          "type": "address[]"
        }
      ],
      "name": "transferToSplit",
      "outputs": [],
      "stateMutability": "nonpayable",
      "type": "function"
    },
    {
      "inputs": [
        {
          "internalType": "bool",
          "name": "enable",
          "type": "bool"
        },
        {
          "internalType": "address",
          "name": "operatorFilter",
          "type": "address"
        }
      ],
      "name": "updateOperatorFilter",
      "outputs": [],
      "stateMutability": "nonpayable",
      "type": "function"
    },
    {
      "inputs": [
        {
          "internalType": "uint256",
          "name": "newStart",
          "type": "uint256"
        },
        {
          "internalType": "uint256",
          "name": "newEnd",
          "type": "uint256"
        }
      ],
      "name": "updatePresaleStartEnd",
      "outputs": [],
      "stateMutability": "nonpayable",
      "type": "function"
    },
    {
      "inputs": [
        {
          "internalType": "uint256",
          "name": "newStart",
          "type": "uint256"
        },
        {
          "internalType": "uint256",
          "name": "newEnd",
          "type": "uint256"
        }
      ],
      "name": "updateSaleStartEnd",
      "outputs": [],
      "stateMutability": "nonpayable",
      "type": "function"
    },
    {
      "inputs": [],
      "name": "withdraw",
      "outputs": [],
      "stateMutability": "nonpayable",
      "type": "function"
    }
  ],
  "bytecode": "0x60806040523480156200001157600080fd5b506200001d3362000023565b6200007f565b600980546001600160a01b038381166201000081810262010000600160b01b031985161790945560405193909204169182907f8be0079c531659141344cd1fd0a4f28419497f9722a3daafe3b4186f6b6457e090600090a35050565b613fcd806200008f6000396000f3fe6080604052600436106103755760003560e01c8063727a612e116101d1578063c10b935811610102578063e6c350c1116100a0578063f0cc8b621161006f578063f0cc8b62146109bd578063f2fde38b146109dd578063f47c84c5146109fd578063fd4fe8a814610a1357600080fd5b8063e6c350c114610959578063e8a3d48514610973578063e985e9c514610988578063eb8d2444146109a857600080fd5b8063c87b56dd116100dc578063c87b56dd146108e3578063c9ef5eee14610903578063d58d458a14610923578063de8801e51461094357600080fd5b8063c10b93581461088d578063c4559d5a146108a3578063c5953170146108c357600080fd5b8063a0712d681161016f578063b0ccc31e11610149578063b0ccc31e14610822578063b88d4fde14610844578063b94356de14610857578063b9c9d93a1461087757600080fd5b8063a0712d68146107d9578063a22cb465146107ec578063ab0bcc411461080c57600080fd5b80638da5cb5b116101ab5780638da5cb5b1461075f578063931cf0f414610783578063938e3d7b146107a457806395d89b41146107c457600080fd5b8063727a612e1461071657806379ab7c8e146107295780637ff9b5961461074957600080fd5b806328d7b276116102ab5780635799dbdd11610249578063703199701161022357806370319970146106a157806370a08231146106c1578063713b9787146106e1578063715018a61461070157600080fd5b80635799dbdd1461064c5780636352211e1461066c5780636c0360eb1461068c57600080fd5b806334918dfd1161028557806334918dfd146105ef5780633ccfd60b1461060457806342842e0e1461061957806355f804b31461062c57600080fd5b806328d7b276146105705780632a55205a146105905780632d75fea6146105cf57600080fd5b80630e769b2b116103185780631dbdedbd116102f25780631dbdedbd146104db578063229f3e291461052757806323b872dd1461053d578063284a44a81461055057600080fd5b80630e769b2b1461048257806317dc2587146104a257806318160ddd146104c257600080fd5b806306fdde031161035457806306fdde03146103f1578063081812fc14610413578063095ea7b31461044b57806309aa3dcf1461045e57600080fd5b80625f16fb1461037a578063015893c51461039c57806301ffc9a7146103bc575b600080fd5b34801561038657600080fd5b5061039a610395366004612f90565b610a33565b005b3480156103a857600080fd5b5061039a6103b7366004613037565b610b10565b3480156103c857600080fd5b506103dc6103d73660046130cd565b610c8a565b60405190151581526020015b60405180910390f35b3480156103fd57600080fd5b50610406610cb5565b6040516103e8919061313a565b34801561041f57600080fd5b5061043361042e36600461314d565b610d47565b6040516001600160a01b0390911681526020016103e8565b61039a610459366004613166565b610d8b565b34801561046a57600080fd5b50610474600c5481565b6040519081526020016103e8565b34801561048e57600080fd5b50601754610433906001600160a01b031681565b3480156104ae57600080fd5b5061039a6104bd366004613192565b610da4565b3480156104ce57600080fd5b5060015460005403610474565b3480156104e757600080fd5b50600854610518906001600160a01b03811690600160a01b81046001600160581b031690600160f81b900460ff1683565b6040516103e8939291906131ca565b34801561053357600080fd5b5061047460155481565b61039a61054b366004613215565b610db7565b34801561055c57600080fd5b5061039a61056b36600461334d565b610f59565b34801561057c57600080fd5b5061039a61058b36600461314d565b611002565b34801561059c57600080fd5b506105b06105ab366004613192565b61100f565b604080516001600160a01b0390931683526020830191909152016103e8565b3480156105db57600080fd5b5061039a6105ea36600461343a565b6110bc565b3480156105fb57600080fd5b5061039a6112aa565b34801561061057600080fd5b5061039a6112c6565b61039a610627366004613215565b6113d4565b34801561063857600080fd5b5061039a6106473660046134f0565b6113ef565b34801561065857600080fd5b5061039a610667366004613192565b611407565b34801561067857600080fd5b5061043361068736600461314d565b61141a565b34801561069857600080fd5b50610406611425565b3480156106ad57600080fd5b50601254610433906001600160a01b031681565b3480156106cd57600080fd5b506104746106dc366004613524565b6114b3565b3480156106ed57600080fd5b50601854610433906001600160a01b031681565b34801561070d57600080fd5b5061039a611501565b61039a610724366004613541565b611515565b34801561073557600080fd5b5061039a6107443660046135a1565b611911565b34801561075557600080fd5b50610474600b5481565b34801561076b57600080fd5b506009546201000090046001600160a01b0316610433565b34801561078f57600080fd5b506009546103dc90600160b01b900460ff1681565b3480156107b057600080fd5b5061039a6107bf3660046134f0565b611997565b3480156107d057600080fd5b506104066119ab565b61039a6107e736600461314d565b6119ba565b3480156107f857600080fd5b5061039a6108073660046135dd565b611d44565b34801561081857600080fd5b50610474600d5481565b34801561082e57600080fd5b506104336daaeb6d7670e522a718067333cd4e81565b61039a61085236600461360b565b611d58565b34801561086357600080fd5b5061039a61087236600461314d565b611d9c565b34801561088357600080fd5b5061047460135481565b34801561089957600080fd5b50610474600e5481565b3480156108af57600080fd5b5061039a6108be366004613676565b611e0c565b3480156108cf57600080fd5b5061039a6108de366004613709565b611edc565b3480156108ef57600080fd5b506104066108fe36600461314d565b611fd0565b34801561090f57600080fd5b5061039a61091e366004613891565b612083565b34801561092f57600080fd5b5061039a61093e36600461314d565b612385565b34801561094f57600080fd5b5061047460145481565b34801561096557600080fd5b50600f546103dc9060ff1681565b34801561097f57600080fd5b50610406612447565b34801561099457600080fd5b506103dc6109a3366004613a02565b6124e7565b3480156109b457600080fd5b506103dc612515565b3480156109c957600080fd5b50601954610433906001600160a01b031681565b3480156109e957600080fd5b5061039a6109f8366004613524565b61253d565b348015610a0957600080fd5b50610474600a5481565b348015610a1f57600080fd5b5061039a610a2e366004613524565b6125b3565b6000610a476018546001600160a01b031690565b6001600160a01b031603610a765760405162461bcd60e51b8152600401610a6d90613a20565b60405180910390fd5b610a7f876125dd565b6017546001600160a01b03166001600160a01b03166315811302610aab6018546001600160a01b031690565b898989898989896040518963ffffffff1660e01b8152600401610ad5989796959493929190613ad1565b600060405180830381600087803b158015610aef57600080fd5b505af1158015610b03573d6000803e3d6000fd5b5050505050505050505050565b610b186126dc565b6000610b2c6017546001600160a01b031690565b6001600160a01b031603610b765760405162461bcd60e51b815260206004820152601160248201527014dc1b1a5d13585a5b881b9bdd081cd95d607a1b6044820152606401610a6d565b6000610b8a6018546001600160a01b031690565b6001600160a01b031614610bd85760405162461bcd60e51b815260206004820152601560248201527414dc1b1a5d08185b1c9958591e4818dc99585d1959605a1b6044820152606401610a6d565b6000610bec6017546001600160a01b031690565b6001600160a01b0316637601f7828787878787336040518763ffffffff1660e01b8152600401610c2196959493929190613b33565b6020604051808303816000875af1158015610c40573d6000803e3d6000fd5b505050506040513d601f19601f82011682018060405250810190610c649190613b84565b601880546001600160a01b0319166001600160a01b03831617905590505b505050505050565b600063152a902d60e11b6001600160e01b031983161480610caf5750610caf8261273d565b92915050565b606060028054610cc490613ba1565b80601f0160208091040260200160405190810160405280929190818152602001828054610cf090613ba1565b8015610d3d5780601f10610d1257610100808354040283529160200191610d3d565b820191906000526020600020905b815481529060010190602001808311610d2057829003601f168201915b5050505050905090565b6000610d528261278b565b610d6f576040516333d1c03960e21b815260040160405180910390fd5b506000908152600660205260409020546001600160a01b031690565b81610d95816127b2565b610d9f838361286b565b505050565b610dac6126dc565b600d91909155600e55565b6000610dc28261290b565b9050836001600160a01b0316816001600160a01b031614610df55760405162a1148160e81b815260040160405180910390fd5b60008281526006602052604090208054338082146001600160a01b03881690911417610e4257610e2586336124e7565b610e4257604051632ce44b5f60e11b815260040160405180910390fd5b6001600160a01b038516610e6957604051633a954ecd60e21b815260040160405180910390fd5b610e768686866001612979565b8015610e8157600082555b6001600160a01b038681166000908152600560205260408082208054600019019055918716808252919020805460010190554260a01b17600160e11b17600085815260046020526040812091909155600160e11b84169003610f1357600184016000818152600460205260408120549003610f11576000548114610f115760008181526004602052604090208490555b505b83856001600160a01b0316876001600160a01b03167fddf252ad1be2c89b69c2b068fc378daa952ba7f163c4a11628f55a4df523b3ef60405160405180910390a4610c82565b6000610f6d6018546001600160a01b031690565b6001600160a01b031603610f935760405162461bcd60e51b8152600401610a6d90613a20565b8715610fa757610fa7868686868686611e0c565b60005b8751811015610feb57610fdb888281518110610fc857610fc8613bdb565b6020026020010151888888888888610a33565b610fe481613c07565b9050610faa565b50610ff7898989612993565b505050505050505050565b61100a6126dc565b601655565b60008061101b8461278b565b61105b5760405162461bcd60e51b81526020600482015260116024820152702737b732bc34b9ba32b73a103a37b5b2b760791b6044820152606401610a6d565b6018546001600160a01b03161561107f576018546001600160a01b03169150611094565b6009546201000090046001600160a01b031691505b6000612710601354856110a79190613c20565b6110b19190613c37565b9150505b9250929050565b6110c46126dc565b60405163c3c5a54760e01b81523060048201819052906daaeb6d7670e522a718067333cd4e9063c3c5a547906024016020604051808303816000875af1158015611112573d6000803e3d6000fd5b505050506040513d601f19601f820116820180604052508101906111369190613c59565b1580156111405750825b156111ba57604051633e9f1edf60e11b81526001600160a01b038083166004830152831660248201526daaeb6d7670e522a718067333cd4e90637d3e3dbe906044015b600060405180830381600087803b15801561119d57600080fd5b505af11580156111b1573d6000803e3d6000fd5b50505050505050565b821561120257604051632cc5350560e21b81526001600160a01b038083166004830152831660248201526daaeb6d7670e522a718067333cd4e9063b314d41490604401611183565b60405163034a0dc160e41b81526001600160a01b0382166004820152600060248201526daaeb6d7670e522a718067333cd4e906334a0dc1090604401600060405180830381600087803b15801561125857600080fd5b505af115801561126c573d6000803e3d6000fd5b5050604051631761612360e11b81526001600160a01b03841660048201526daaeb6d7670e522a718067333cd4e9250632ec2c2469150602401611183565b6112b26126dc565b600f805460ff19811660ff90911615179055565b6112ce6126dc565b60006112e26018546001600160a01b031690565b6001600160a01b0316146113445760405162461bcd60e51b8152602060048201526024808201527f43616e6e6f74207769746864726177207769746820616e2061637469766520736044820152631c1b1a5d60e21b6064820152608401610a6d565b604051600090339047908381818185875af1925050503d8060008114611386576040519150601f19603f3d011682016040523d82523d6000602084013e61138b565b606091505b50509050806113d15760405162461bcd60e51b8152602060048201526012602482015271436f756c64206e6f7420776974686472617760701b6044820152606401610a6d565b50565b610d9f83838360405180602001604052806000815250611d58565b6113f76126dc565b60106114038282613cbc565b5050565b61140f6126dc565b601491909155601555565b6000610caf8261290b565b6010805461143290613ba1565b80601f016020809104026020016040519081016040528092919081815260200182805461145e90613ba1565b80156114ab5780601f10611480576101008083540402835291602001916114ab565b820191906000526020600020905b81548152906001019060200180831161148e57829003601f168201915b505050505081565b60006001600160a01b0382166114dc576040516323d3ad8160e21b815260040160405180910390fd5b506001600160a01b03166000908152600560205260409020546001600160401b031690565b6115096126dc565b61151360006129c7565b565b6008546001906001600160a01b03161580159061157e57506000600854600160f81b900460ff16600281111561154d5761154d6131b4565b148061157e575080801561157e57506001600854600160f81b900460ff16600281111561157c5761157c6131b4565b145b806115af5750801580156115af57506002600854600160f81b900460ff1660028111156115ad576115ad6131b4565b145b1561167b576008546040516370a0823160e01b8152336004820152600160a01b82046001600160581b0316916001600160a01b0316906370a08231906024016020604051808303816000875af115801561160d573d6000803e3d6000fd5b505050506040513d601f19601f820116820180604052508101906116319190613d7b565b101561167b5760405162461bcd60e51b81526020600482015260196024820152783237903737ba1037bbb7103932b8bab4b932b2103a37b5b2b760391b6044820152606401610a6d565b601454421015801561168f57506015544211155b6116c95760405162461bcd60e51b815260206004820152600b60248201526a6e6f742070726573616c6560a81b6044820152606401610a6d565b600054600f5460ff161561171f5760405162461bcd60e51b815260206004820152601b60248201527f53616c65206d7573742062652061637469766520746f206d696e7400000000006044820152606401610a6d565b600a5461172c8883613d94565b111561174a5760405162461bcd60e51b8152600401610a6d90613da7565b6117cd848480806020026020016040519081016040528093929190818152602001838360200280828437600092019190915250506016546040516bffffffffffffffffffffffff193360601b166020820152603481018c9052605481018b9052909250607401905060405160208183030381529060405280519060200120612a23565b6118085760405162461bcd60e51b815260206004820152600c60248201526b1b9bdd08185c1c1c9bdd995960a21b6044820152606401610a6d565b6118128786613c20565b3410156118565760405162461bcd60e51b8152602060048201526012602482015271496e73756666696369656e742066756e647360701b6044820152606401610a6d565b8587611861336114b3565b61186b9190613d94565b11156118ab5760405162461bcd60e51b815260206004820152600f60248201526e6d696e74656420746f6f206d616e7960881b6044820152606401610a6d565b6118b53388612a39565b60005b878110156119075760408051338152602081018490526001909301927f30385c845b448a36257a6a1716e6ad2e1bc2cbe333cde1e69fe849ad6511adfe910160405180910390a16001016118b8565b5050505050505050565b60006119256018546001600160a01b031690565b6001600160a01b03160361194b5760405162461bcd60e51b8152600401610a6d90613a20565b811561195957611959612a53565b60005b8151811015610d9f5761198782828151811061197a5761197a613bdb565b60200260200101516125dd565b61199081613c07565b905061195c565b61199f6126dc565b60116114038282613cbc565b606060038054610cc490613ba1565b6008546000906001600160a01b031615801590611a2357506000600854600160f81b900460ff1660028111156119f2576119f26131b4565b1480611a235750808015611a2357506001600854600160f81b900460ff166002811115611a2157611a216131b4565b145b80611a54575080158015611a5457506002600854600160f81b900460ff166002811115611a5257611a526131b4565b145b15611b20576008546040516370a0823160e01b8152336004820152600160a01b82046001600160581b0316916001600160a01b0316906370a08231906024016020604051808303816000875af1158015611ab2573d6000803e3d6000fd5b505050506040513d601f19601f82011682018060405250810190611ad69190613d7b565b1015611b205760405162461bcd60e51b81526020600482015260196024820152783237903737ba1037bbb7103932b8bab4b932b2103a37b5b2b760391b6044820152606401610a6d565b600054600d544210801590611b375750600e544211155b611b7b5760405162461bcd60e51b815260206004820152601560248201527429b0b632b99030b932903737ba1030b1ba34bb329760591b6044820152606401610a6d565b600f5460ff1615611bce5760405162461bcd60e51b815260206004820152601b60248201527f53616c65206d7573742062652061637469766520746f206d696e7400000000006044820152606401610a6d565b600a54611bdb8483613d94565b1115611bf95760405162461bcd60e51b8152600401610a6d90613da7565b600a54811115611c365760405162461bcd60e51b815260206004820152600860248201526714d3d3110813d55560c21b6044820152606401610a6d565b82600b54611c449190613c20565b341015611c885760405162461bcd60e51b8152602060048201526012602482015271496e73756666696369656e742066756e647360701b6044820152606401610a6d565b600c5415611ce257600c54831115611ce25760405162461bcd60e51b815260206004820152601c60248201527f4578636565646564206d6178206e756d62657220706572206d696e74000000006044820152606401610a6d565b611cec3384612a39565b60005b83811015611d3e5760408051338152602081018490526001909301927f30385c845b448a36257a6a1716e6ad2e1bc2cbe333cde1e69fe849ad6511adfe910160405180910390a1600101611cef565b50505050565b81611d4e816127b2565b610d9f8383612b07565b611d63848484610db7565b6001600160a01b0383163b15611d3e57611d7f84848484612b73565b611d3e576040516368d2bf6b60e11b815260040160405180910390fd5b611da46126dc565b600054600a54611db48383613d94565b10611dd15760405162461bcd60e51b8152600401610a6d90613da7565b60005b82811015610d9f57611dfa33611dea8385613d94565b611df5906001613d94565b612a39565b80611e0481613c07565b915050611dd4565b6000611e206018546001600160a01b031690565b6001600160a01b031603611e465760405162461bcd60e51b8152600401610a6d90613a20565b611e4e612a53565b6017546001600160a01b03166001600160a01b031663e61cb05e611e7a6018546001600160a01b031690565b8888888888886040518863ffffffff1660e01b8152600401611ea29796959493929190613ddc565b600060405180830381600087803b158015611ebc57600080fd5b505af1158015611ed0573d6000803e3d6000fd5b50505050505050505050565b611ee46126dc565b600054600a548190611ef68483613d94565b1115611f145760405162461bcd60e51b8152600401610a6d90613da7565b8183015b80831015611fc957611f538585848603818110611f3757611f37613bdb565b9050602002016020810190611f4c9190613524565b6001612a39565b7f30385c845b448a36257a6a1716e6ad2e1bc2cbe333cde1e69fe849ad6511adfe8585848603818110611f8857611f88613bdb565b9050602002016020810190611f9d9190613524565b604080516001600160a01b039092168252602082018690520160405180910390a1600190920191611f18565b5050505050565b6060611fdb8261278b565b611ff857604051630a14c4b560e41b815260040160405180910390fd5b6012546001600160a01b03161561207a5760125460405163c87b56dd60e01b8152600481018490526001600160a01b039091169063c87b56dd90602401600060405180830381865afa158015612052573d6000803e3d6000fd5b505050506040513d6000823e601f3d908101601f19168201604052610caf9190810190613e35565b610caf82612c5f565b600954610100900460ff16158080156120a35750600954600160ff909116105b806120bd5750303b1580156120bd575060095460ff166001145b6121205760405162461bcd60e51b815260206004820152602e60248201527f496e697469616c697a61626c653a20636f6e747261637420697320616c72656160448201526d191e481a5b9a5d1a585b1a5e995960921b6064820152608401610a6d565b6009805460ff191660011790558015612143576009805461ff0019166101001790555b61214c876129c7565b855160029061215b9082613cbc565b50602086015160039061216e9082613cbc565b5060008055606080870151600a556080870151600b5560a0870151600c55610120870151600d55610140870151600e5561016087015160135560408088015160098054911515600160b01b0260ff60b01b1990921691909117905590860151601980546001600160a01b039283166001600160a01b03199182161790915560178054868416921691909117905585516008805460208901516001600160581b0316600160a01b026001600160f81b031990911692909316919091179190911780825591860151869282906001600160f81b0316600160f81b836002811115612258576122586131b4565b0217905550505060c086015160165560e08601516014556101008601516015556001600160a01b0383161580159061229557506000856040015151115b1561231357601280546001600160a01b0319166001600160a01b03851690811790915560408681015190516342b53ffd60e11b815263856a7ffa916122dc9160040161313a565b600060405180830381600087803b1580156122f657600080fd5b505af115801561230a573d6000803e3d6000fd5b50505050612337565b84516011906123229082613cbc565b5060208501516010906123359082613cbc565b505b80156111b1576009805461ff0019169055604051600181527f7f26b83ff96e1f2b6a682f133852f6798a09c465da95921460cefb38474024989060200160405180910390a150505050505050565b61238d6126dc565b600954600160b01b900460ff166123f45760405162461bcd60e51b815260206004820152602560248201527f63616e6e6f742061646a7573742073697a65206f66207468697320636f6c6c6560448201526431ba34b7b760d91b6064820152608401610a6d565b806123fe60005490565b11156124425760405162461bcd60e51b8152602060048201526013602482015272063616e6e6f742064656372656173652063617606c1b6044820152606401610a6d565b600a55565b6012546060906001600160a01b03166124675760118054610cc490613ba1565b601260009054906101000a90046001600160a01b03166001600160a01b031663e8a3d4856040518163ffffffff1660e01b8152600401600060405180830381865afa1580156124ba573d6000803e3d6000fd5b505050506040513d6000823e601f3d908101601f191682016040526124e29190810190613e35565b905090565b6001600160a01b03918216600090815260076020908152604080832093909416825291909152205460ff1690565b6000600d54421015801561252b5750600e544211155b80156124e2575050600f5460ff161590565b6125456126dc565b6001600160a01b0381166125aa5760405162461bcd60e51b815260206004820152602660248201527f4f776e61626c653a206e6577206f776e657220697320746865207a65726f206160448201526564647265737360d01b6064820152608401610a6d565b6113d1816129c7565b6125bb6126dc565b601280546001600160a01b0319166001600160a01b0392909216919091179055565b6040516370a0823160e01b81523060048201526000906001600160a01b038316906370a0823190602401602060405180830381865afa158015612624573d6000803e3d6000fd5b505050506040513d601f19601f820116820180604052508101906126489190613d7b565b9050816001600160a01b031663a9059cbb61266b6018546001600160a01b031690565b6040516001600160e01b031960e084901b1681526001600160a01b039091166004820152602481018490526044016020604051808303816000875af11580156126b8573d6000803e3d6000fd5b505050506040513d601f19601f82011682018060405250810190610d9f9190613c59565b6009546001600160a01b03620100009091041633146115135760405162461bcd60e51b815260206004820181905260248201527f4f776e61626c653a2063616c6c6572206973206e6f7420746865206f776e65726044820152606401610a6d565b60006301ffc9a760e01b6001600160e01b03198316148061276e57506380ac58cd60e01b6001600160e01b03198316145b80610caf5750506001600160e01b031916635b5e139f60e01b1490565b6000805482108015610caf575050600090815260046020526040902054600160e01b161590565b6daaeb6d7670e522a718067333cd4e3b156113d157604051633185c44d60e21b81523060048201526001600160a01b03821660248201526daaeb6d7670e522a718067333cd4e9063c617113490604401602060405180830381865afa15801561281f573d6000803e3d6000fd5b505050506040513d601f19601f820116820180604052508101906128439190613c59565b6113d157604051633b79c77360e21b81526001600160a01b0382166004820152602401610a6d565b60006128768261141a565b9050336001600160a01b038216146128af5761289281336124e7565b6128af576040516367d9dca160e11b815260040160405180910390fd5b60008281526006602052604080822080546001600160a01b0319166001600160a01b0387811691821790925591518593918516917f8c5be1e5ebec7d5bd14f71427d1e84f3dd0314c0f7b2291e5b200ac8c7c3b92591a4505050565b6000816000548110156129605760008181526004602052604081205490600160e01b8216900361295e575b80600003612957575060001901600081815260046020526040902054612936565b9392505050565b505b604051636f96cda160e11b815260040160405180910390fd5b836001600160a01b0381163314611fc957611fc9336127b2565b601754604051636e5f691960e01b81526001600160a01b0390911690636e5f69199061118390869086908690600401613eab565b600980546001600160a01b038381166201000081810262010000600160b01b031985161790945560405193909204169182907f8be0079c531659141344cd1fd0a4f28419497f9722a3daafe3b4186f6b6457e090600090a35050565b600082612a308584612ce2565b14949350505050565b611403828260405180602001604052806000815250612d2f565b6000612a676018546001600160a01b031690565b6001600160a01b03164760405160006040518083038185875af1925050503d8060008114612ab1576040519150601f19603f3d011682016040523d82523d6000602084013e612ab6565b606091505b50509050806113d15760405162461bcd60e51b815260206004820152601f60248201527f436f756c64206e6f74207472616e736665722045544820746f2073706c6974006044820152606401610a6d565b3360008181526007602090815260408083206001600160a01b03871680855290835292819020805460ff191686151590811790915590519081529192917f17307eab39ab6107e8899845ad3d59bd9653f200f220920489ca2b5937696c31910160405180910390a35050565b604051630a85bd0160e11b81526000906001600160a01b0385169063150b7a0290612ba8903390899088908890600401613f0e565b6020604051808303816000875af1925050508015612be3575060408051601f3d908101601f19168201909252612be091810190613f4b565b60015b612c41573d808015612c11576040519150601f19603f3d011682016040523d82523d6000602084013e612c16565b606091505b508051600003612c39576040516368d2bf6b60e11b815260040160405180910390fd5b805181602001fd5b6001600160e01b031916630a85bd0160e11b1490505b949350505050565b6060612c6a8261278b565b612c8757604051630a14c4b560e41b815260040160405180910390fd5b6000612c91612d95565b90508051600003612cb15760405180602001604052806000815250612957565b80612cbb84612da4565b604051602001612ccc929190613f68565b6040516020818303038152906040529392505050565b600081815b8451811015612d2757612d1382868381518110612d0657612d06613bdb565b6020026020010151612ddc565b915080612d1f81613c07565b915050612ce7565b509392505050565b612d398383612e08565b6001600160a01b0383163b15610d9f576000548281035b612d636000868380600101945086612b73565b612d80576040516368d2bf6b60e11b815260040160405180910390fd5b818110612d50578160005414611fc957600080fd5b606060108054610cc490613ba1565b604080516080019081905280825b600183039250600a81066030018353600a900480612db25750819003601f19909101908152919050565b6000818310612df8576000828152602084905260409020612957565b5060009182526020526040902090565b6000805490829003612e2d5760405163b562e8dd60e01b815260040160405180910390fd5b612e3a6000848385612979565b6001600160a01b03831660008181526005602090815260408083208054680100000000000000018802019055848352600490915281206001851460e11b4260a01b178317905582840190839083907fddf252ad1be2c89b69c2b068fc378daa952ba7f163c4a11628f55a4df523b3ef8180a4600183015b818114612ee957808360007fddf252ad1be2c89b69c2b068fc378daa952ba7f163c4a11628f55a4df523b3ef600080a4600101612eb1565b5081600003612f0a57604051622e076360e81b815260040160405180910390fd5b60005550505050565b6001600160a01b03811681146113d157600080fd5b60008083601f840112612f3a57600080fd5b5081356001600160401b03811115612f5157600080fd5b6020830191508360208260051b85010111156110b557600080fd5b803563ffffffff81168114612f8057600080fd5b919050565b8035612f8081612f13565b600080600080600080600060a0888a031215612fab57600080fd5b8735612fb681612f13565b965060208801356001600160401b0380821115612fd257600080fd5b612fde8b838c01612f28565b909850965060408a0135915080821115612ff757600080fd5b506130048a828b01612f28565b9095509350613017905060608901612f6c565b9150608088013561302781612f13565b8091505092959891949750929550565b60008060008060006060868803121561304f57600080fd5b85356001600160401b038082111561306657600080fd5b61307289838a01612f28565b9097509550602088013591508082111561308b57600080fd5b5061309888828901612f28565b90945092506130ab905060408701612f6c565b90509295509295909350565b6001600160e01b0319811681146113d157600080fd5b6000602082840312156130df57600080fd5b8135612957816130b7565b60005b838110156131055781810151838201526020016130ed565b50506000910152565b600081518084526131268160208601602086016130ea565b601f01601f19169290920160200192915050565b602081526000612957602083018461310e565b60006020828403121561315f57600080fd5b5035919050565b6000806040838503121561317957600080fd5b823561318481612f13565b946020939093013593505050565b600080604083850312156131a557600080fd5b50508035926020909101359150565b634e487b7160e01b600052602160045260246000fd5b6001600160a01b03841681526001600160581b0383166020820152606081016003831061320757634e487b7160e01b600052602160045260246000fd5b826040830152949350505050565b60008060006060848603121561322a57600080fd5b833561323581612f13565b9250602084013561324581612f13565b929592945050506040919091013590565b634e487b7160e01b600052604160045260246000fd5b60405161018081016001600160401b038111828210171561328f5761328f613256565b60405290565b604051601f8201601f191681016001600160401b03811182821017156132bd576132bd613256565b604052919050565b600082601f8301126132d657600080fd5b813560206001600160401b038211156132f1576132f1613256565b8160051b613300828201613295565b928352848101820192828101908785111561331a57600080fd5b83870192505b8483101561334257823561333381612f13565b82529183019190830190613320565b979650505050505050565b600080600080600080600080600060e08a8c03121561336b57600080fd5b893561337681612f13565b985060208a0135975060408a01356001600160401b038082111561339957600080fd5b6133a58d838e016132c5565b985060608c01359150808211156133bb57600080fd5b6133c78d838e01612f28565b909850965060808c01359150808211156133e057600080fd5b506133ed8c828d01612f28565b9095509350613400905060a08b01612f6c565b915060c08a013561341081612f13565b809150509295985092959850929598565b80151581146113d157600080fd5b8035612f8081613421565b6000806040838503121561344d57600080fd5b823561345881613421565b9150602083013561346881612f13565b809150509250929050565b60006001600160401b0382111561348c5761348c613256565b50601f01601f191660200190565b600082601f8301126134ab57600080fd5b81356134be6134b982613473565b613295565b8181528460208386010111156134d357600080fd5b816020850160208301376000918101602001919091529392505050565b60006020828403121561350257600080fd5b81356001600160401b0381111561351857600080fd5b612c578482850161349a565b60006020828403121561353657600080fd5b813561295781612f13565b60008060008060006080868803121561355957600080fd5b85359450602086013593506040860135925060608601356001600160401b0381111561358457600080fd5b61359088828901612f28565b969995985093965092949392505050565b600080604083850312156135b457600080fd5b8235915060208301356001600160401b038111156135d157600080fd5b6110b1858286016132c5565b600080604083850312156135f057600080fd5b82356135fb81612f13565b9150602083013561346881613421565b6000806000806080858703121561362157600080fd5b843561362c81612f13565b9350602085013561363c81612f13565b92506040850135915060608501356001600160401b0381111561365e57600080fd5b61366a8782880161349a565b91505092959194509250565b6000806000806000806080878903121561368f57600080fd5b86356001600160401b03808211156136a657600080fd5b6136b28a838b01612f28565b909850965060208901359150808211156136cb57600080fd5b506136d889828a01612f28565b90955093506136eb905060408801612f6c565b915060608701356136fb81612f13565b809150509295509295509295565b6000806020838503121561371c57600080fd5b82356001600160401b0381111561373257600080fd5b61373e85828601612f28565b90969095509350505050565b60006080828403121561375c57600080fd5b604051608081016001600160401b03828210818311171561377f5761377f613256565b81604052829350843591508082111561379757600080fd5b6137a38683870161349a565b835260208501359150808211156137b957600080fd5b6137c58683870161349a565b602084015260408501359150808211156137de57600080fd5b506137eb8582860161349a565b60408301525060608301356137ff81612f13565b6060919091015292915050565b60006060828403121561381e57600080fd5b604051606081018181106001600160401b038211171561384057613840613256565b604052905080823561385181612f13565b815260208301356001600160581b038116811461386d57600080fd5b602082015260408301356003811061388457600080fd5b6040919091015292915050565b60008060008060008061010080888a0312156138ac57600080fd5b87356138b781612f13565b965060208801356001600160401b03808211156138d357600080fd5b90890190610180828c0312156138e857600080fd5b6138f061326c565b8235828111156138ff57600080fd5b61390b8d82860161349a565b82525060208301358281111561392057600080fd5b61392c8d82860161349a565b60208301525061393e6040840161342f565b6040820152606083013560608201526080830135608082015260a083013560a082015260c083013560c082015260e083013560e082015283830135848201526101209350838301358482015261014093508383013584820152610160935083830135848201528098505060408a01359250808311156139bc57600080fd5b50506139ca89828a0161374a565b9450506139da886060890161380c565b92506139e860c08801612f85565b91506139f660e08801612f85565b90509295509295509295565b60008060408385031215613a1557600080fd5b823561345881612f13565b60208082526015908201527414dc1b1a5d081b9bdd0818dc99585d1959081e595d605a1b604082015260600190565b8183526000602080850194508260005b85811015613a8d578135613a7281612f13565b6001600160a01b031687529582019590820190600101613a5f565b509495945050505050565b8183526000602080850194508260005b85811015613a8d5763ffffffff613abe83612f6c565b1687529582019590820190600101613aa8565b600060018060a01b03808b168352808a16602084015260c06040840152613afc60c08401898b613a4f565b8381036060850152613b0f81888a613a98565b63ffffffff969096166080850152509290921660a090910152509695505050505050565b608081526000613b4760808301888a613a4f565b8281036020840152613b5a818789613a98565b63ffffffff95909516604084015250506001600160a01b0391909116606090910152949350505050565b600060208284031215613b9657600080fd5b815161295781612f13565b600181811c90821680613bb557607f821691505b602082108103613bd557634e487b7160e01b600052602260045260246000fd5b50919050565b634e487b7160e01b600052603260045260246000fd5b634e487b7160e01b600052601160045260246000fd5b600060018201613c1957613c19613bf1565b5060010190565b8082028115828204841417610caf57610caf613bf1565b600082613c5457634e487b7160e01b600052601260045260246000fd5b500490565b600060208284031215613c6b57600080fd5b815161295781613421565b601f821115610d9f57600081815260208120601f850160051c81016020861015613c9d5750805b601f850160051c820191505b81811015610c8257828155600101613ca9565b81516001600160401b03811115613cd557613cd5613256565b613ce981613ce38454613ba1565b84613c76565b602080601f831160018114613d1e5760008415613d065750858301515b600019600386901b1c1916600185901b178555610c82565b600085815260208120601f198616915b82811015613d4d57888601518255948401946001909101908401613d2e565b5085821015613d6b5787850151600019600388901b60f8161c191681555b5050505050600190811b01905550565b600060208284031215613d8d57600080fd5b5051919050565b80820180821115610caf57610caf613bf1565b6020808252818101527f507572636861736520776f756c6420657863656564206d617820737570706c79604082015260600190565b600060018060a01b03808a16835260a06020840152613dff60a08401898b613a4f565b8381036040850152613e1281888a613a98565b63ffffffff96909616606085015250929092166080909101525095945050505050565b600060208284031215613e4757600080fd5b81516001600160401b03811115613e5d57600080fd5b8201601f81018413613e6e57600080fd5b8051613e7c6134b982613473565b818152856020838501011115613e9157600080fd5b613ea28260208301602086016130ea565b95945050505050565b6001600160a01b038481168252602080830185905260606040840181905284519084018190526000928583019290916080860190855b81811015613eff578551851683529483019491830191600101613ee1565b50909998505050505050505050565b6001600160a01b0385811682528416602082015260408101839052608060608201819052600090613f419083018461310e565b9695505050505050565b600060208284031215613f5d57600080fd5b8151612957816130b7565b60008351613f7a8184602088016130ea565b835190830190613f8e8183602088016130ea565b0194935050505056fea2646970667358221220b945ea8dcefe131471cc0f6be78dfee6104ba9e8b59f94223f53ff1649e1a51564736f6c63430008110033",
  "linkReferences": {},
  "deployedLinkReferences": {}
}