{
  "_format": "hh-sol-artifact-1",
  "contractName": "FRSTMetadataRenderer",
  "sourceName": "contracts/FRSTMetadataRenderer.sol",
  "abi": [
    {
      "inputs": [
        {
          "internalType": "contract ISharedNFTLogic",
          "name": "_sharedNFTLogic",
          "type": "address"
        }
      ],
      "stateMutability": "nonpayable",
      "type": "constructor"
    },
    {
      "inputs": [],
      "name": "Access_OnlyAdmin",
      "type": "error"
    },
    {
      "anonymous": false,
      "inputs": [
        {
          "indexed": true,
          "internalType": "address",
          "name": "target",
          "type": "address"
        },
        {
          "indexed": false,
          "internalType": "address",
          "name": "sender",
          "type": "address"
        },
        {
          "indexed": false,
          "internalType": "string",
          "name": "newArtist",
          "type": "string"
        }
      ],
      "name": "ArtistUpdated",
      "type": "event"
    },
    {
      "anonymous": false,
      "inputs": [
        {
          "indexed": true,
          "internalType": "address",
          "name": "target",
          "type": "address"
        },
        {
          "indexed": false,
          "internalType": "address",
          "name": "sender",
          "type": "address"
        },
        {
          "indexed": false,
          "internalType": "string",
          "name": "artworkUri",
          "type": "string"
        },
        {
          "indexed": false,
          "internalType": "string",
          "name": "artworkMimeType",
          "type": "string"
        },
        {
          "indexed": false,
          "internalType": "string",
          "name": "artworkNft",
          "type": "string"
        }
      ],
      "name": "ArtworkUpdated",
      "type": "event"
    },
    {
      "anonymous": false,
      "inputs": [
        {
          "indexed": true,
          "internalType": "address",
          "name": "target",
          "type": "address"
        },
        {
          "indexed": false,
          "internalType": "address",
          "name": "sender",
          "type": "address"
        },
        {
          "indexed": false,
          "internalType": "string",
          "name": "license",
          "type": "string"
        },
        {
          "indexed": false,
          "internalType": "string",
          "name": "externalUrl",
          "type": "string"
        },
        {
          "indexed": false,
          "internalType": "string",
          "name": "isrc",
          "type": "string"
        },
        {
          "indexed": false,
          "internalType": "string",
          "name": "genre",
          "type": "string"
        }
      ],
      "name": "AudioQualitativeUpdated",
      "type": "event"
    },
    {
      "anonymous": false,
      "inputs": [
        {
          "indexed": true,
          "internalType": "address",
          "name": "target",
          "type": "address"
        },
        {
          "indexed": false,
          "internalType": "address",
          "name": "sender",
          "type": "address"
        },
        {
          "indexed": false,
          "internalType": "string",
          "name": "key",
          "type": "string"
        },
        {
          "indexed": false,
          "internalType": "uint256",
          "name": "bpm",
          "type": "uint256"
        },
        {
          "indexed": false,
          "internalType": "uint256",
          "name": "duration",
          "type": "uint256"
        },
        {
          "indexed": false,
          "internalType": "string",
          "name": "audioMimeType",
          "type": "string"
        },
        {
          "indexed": false,
          "internalType": "uint256",
          "name": "trackNumber",
          "type": "uint256"
        }
      ],
      "name": "AudioQuantitativeUpdated",
      "type": "event"
    },
    {
      "anonymous": false,
      "inputs": [
        {
          "indexed": true,
          "internalType": "address",
          "name": "target",
          "type": "address"
        },
        {
          "indexed": false,
          "internalType": "address",
          "name": "sender",
          "type": "address"
        },
        {
          "components": [
            {
              "internalType": "string",
              "name": "name",
              "type": "string"
            },
            {
              "internalType": "string",
              "name": "collaboratorType",
              "type": "string"
            }
          ],
          "indexed": false,
          "internalType": "struct IOnChainMetadata.Credit[]",
          "name": "credits",
          "type": "tuple[]"
        }
      ],
      "name": "CreditsUpdated",
      "type": "event"
    },
    {
      "anonymous": false,
      "inputs": [
        {
          "indexed": true,
          "internalType": "address",
          "name": "target",
          "type": "address"
        },
        {
          "indexed": false,
          "internalType": "address",
          "name": "sender",
          "type": "address"
        },
        {
          "indexed": false,
          "internalType": "string",
          "name": "newDescription",
          "type": "string"
        }
      ],
      "name": "DescriptionUpdated",
      "type": "event"
    },
    {
      "anonymous": false,
      "inputs": [
        {
          "indexed": true,
          "internalType": "address",
          "name": "target",
          "type": "address"
        },
        {
          "indexed": false,
          "internalType": "string",
          "name": "description",
          "type": "string"
        },
        {
          "indexed": false,
          "internalType": "string",
          "name": "imageURI",
          "type": "string"
        },
        {
          "indexed": false,
          "internalType": "string",
          "name": "animationURI",
          "type": "string"
        }
      ],
      "name": "EditionInitialized",
      "type": "event"
    },
    {
      "anonymous": false,
      "inputs": [
        {
          "indexed": true,
          "internalType": "address",
          "name": "target",
          "type": "address"
        },
        {
          "indexed": false,
          "internalType": "address",
          "name": "sender",
          "type": "address"
        },
        {
          "indexed": false,
          "internalType": "string",
          "name": "losslessAudio",
          "type": "string"
        }
      ],
      "name": "LosslessAudioUpdated",
      "type": "event"
    },
    {
      "anonymous": false,
      "inputs": [
        {
          "indexed": false,
          "internalType": "address",
          "name": "target",
          "type": "address"
        },
        {
          "indexed": false,
          "internalType": "address",
          "name": "sender",
          "type": "address"
        },
        {
          "indexed": false,
          "internalType": "string",
          "name": "lyrics",
          "type": "string"
        },
        {
          "indexed": false,
          "internalType": "string",
          "name": "lyricsNft",
          "type": "string"
        }
      ],
      "name": "LyricsUpdated",
      "type": "event"
    },
    {
      "anonymous": false,
      "inputs": [
        {
          "indexed": true,
          "internalType": "address",
          "name": "target",
          "type": "address"
        },
        {
          "indexed": false,
          "internalType": "address",
          "name": "sender",
          "type": "address"
        },
        {
          "indexed": false,
          "internalType": "string",
          "name": "imageURI",
          "type": "string"
        },
        {
          "indexed": false,
          "internalType": "string",
          "name": "animationURI",
          "type": "string"
        }
      ],
      "name": "MediaURIsUpdated",
      "type": "event"
    },
    {
      "anonymous": false,
      "inputs": [
        {
          "indexed": true,
          "internalType": "address",
          "name": "target",
          "type": "address"
        },
        {
          "indexed": false,
          "internalType": "address",
          "name": "sender",
          "type": "address"
        },
        {
          "indexed": false,
          "internalType": "string",
          "name": "artworkUri",
          "type": "string"
        },
        {
          "indexed": false,
          "internalType": "string",
          "name": "artworkMimeType",
          "type": "string"
        },
        {
          "indexed": false,
          "internalType": "string",
          "name": "artworkNft",
          "type": "string"
        }
      ],
      "name": "ProjectArtworkUpdated",
      "type": "event"
    },
    {
      "anonymous": false,
      "inputs": [
        {
          "indexed": true,
          "internalType": "address",
          "name": "target",
          "type": "address"
        },
        {
          "indexed": false,
          "internalType": "address",
          "name": "sender",
          "type": "address"
        },
        {
          "indexed": false,
          "internalType": "string",
          "name": "title",
          "type": "string"
        },
        {
          "indexed": false,
          "internalType": "string",
          "name": "description",
          "type": "string"
        },
        {
          "indexed": false,
          "internalType": "string",
          "name": "recordLabel",
          "type": "string"
        },
        {
          "indexed": false,
          "internalType": "string",
          "name": "publisher",
          "type": "string"
        },
        {
          "indexed": false,
          "internalType": "string",
          "name": "locationCreated",
          "type": "string"
        },
        {
          "indexed": false,
          "internalType": "string",
          "name": "releaseDate",
          "type": "string"
        },
        {
          "indexed": false,
          "internalType": "string",
          "name": "projectType",
          "type": "string"
        },
        {
          "indexed": false,
          "internalType": "string",
          "name": "upc",
          "type": "string"
        }
      ],
      "name": "ProjectPublishingDataUpdated",
      "type": "event"
    },
    {
      "anonymous": false,
      "inputs": [
        {
          "indexed": true,
          "internalType": "address",
          "name": "target",
          "type": "address"
        },
        {
          "indexed": false,
          "internalType": "address",
          "name": "sender",
          "type": "address"
        },
        {
          "indexed": false,
          "internalType": "string",
          "name": "title",
          "type": "string"
        },
        {
          "indexed": false,
          "internalType": "string",
          "name": "description",
          "type": "string"
        },
        {
          "indexed": false,
          "internalType": "string",
          "name": "recordLabel",
          "type": "string"
        },
        {
          "indexed": false,
          "internalType": "string",
          "name": "publisher",
          "type": "string"
        },
        {
          "indexed": false,
          "internalType": "string",
          "name": "locationCreated",
          "type": "string"
        },
        {
          "indexed": false,
          "internalType": "string",
          "name": "releaseDate",
          "type": "string"
        }
      ],
      "name": "PublishingDataUpdated",
      "type": "event"
    },
    {
      "anonymous": false,
      "inputs": [
        {
          "indexed": false,
          "internalType": "address",
          "name": "target",
          "type": "address"
        },
        {
          "indexed": false,
          "internalType": "address",
          "name": "sender",
          "type": "address"
        },
        {
          "components": [
            {
              "components": [
                {
                  "components": [
                    {
                      "internalType": "string",
                      "name": "losslessAudio",
                      "type": "string"
                    },
                    {
                      "components": [
                        {
                          "internalType": "string",
                          "name": "artistName",
                          "type": "string"
                        },
                        {
                          "components": [
                            {
                              "internalType": "string",
                              "name": "key",
                              "type": "string"
                            },
                            {
                              "internalType": "uint256",
                              "name": "bpm",
                              "type": "uint256"
                            },
                            {
                              "internalType": "uint256",
                              "name": "duration",
                              "type": "uint256"
                            },
                            {
                              "internalType": "string",
                              "name": "audioMimeType",
                              "type": "string"
                            },
                            {
                              "internalType": "uint256",
                              "name": "trackNumber",
                              "type": "uint256"
                            }
                          ],
                          "internalType": "struct IOnChainMetadata.AudioQuantitative",
                          "name": "audioQuantitative",
                          "type": "tuple"
                        },
                        {
                          "components": [
                            {
                              "internalType": "string",
                              "name": "license",
                              "type": "string"
                            },
                            {
                              "internalType": "string",
                              "name": "externalUrl",
                              "type": "string"
                            },
                            {
                              "internalType": "string",
                              "name": "isrc",
                              "type": "string"
                            },
                            {
                              "internalType": "string",
                              "name": "genre",
                              "type": "string"
                            }
                          ],
                          "internalType": "struct IOnChainMetadata.AudioQualitative",
                          "name": "audioQualitative",
                          "type": "tuple"
                        }
                      ],
                      "internalType": "struct IOnChainMetadata.SongDetails",
                      "name": "songDetails",
                      "type": "tuple"
                    },
                    {
                      "components": [
                        {
                          "internalType": "string",
                          "name": "lyrics",
                          "type": "string"
                        },
                        {
                          "internalType": "string",
                          "name": "lyricsNft",
                          "type": "string"
                        }
                      ],
                      "internalType": "struct IOnChainMetadata.Lyrics",
                      "name": "lyrics",
                      "type": "tuple"
                    }
                  ],
                  "internalType": "struct IOnChainMetadata.Audio",
                  "name": "audio",
                  "type": "tuple"
                },
                {
                  "components": [
                    {
                      "internalType": "string",
                      "name": "artworkUri",
                      "type": "string"
                    },
                    {
                      "internalType": "string",
                      "name": "artworkMimeType",
                      "type": "string"
                    },
                    {
                      "internalType": "string",
                      "name": "artworkNft",
                      "type": "string"
                    }
                  ],
                  "internalType": "struct IOnChainMetadata.Artwork",
                  "name": "artwork",
                  "type": "tuple"
                },
                {
                  "components": [
                    {
                      "internalType": "string",
                      "name": "artworkUri",
                      "type": "string"
                    },
                    {
                      "internalType": "string",
                      "name": "artworkMimeType",
                      "type": "string"
                    },
                    {
                      "internalType": "string",
                      "name": "artworkNft",
                      "type": "string"
                    }
                  ],
                  "internalType": "struct IOnChainMetadata.Artwork",
                  "name": "visualizer",
                  "type": "tuple"
                }
              ],
              "internalType": "struct IOnChainMetadata.SongContent",
              "name": "song",
              "type": "tuple"
            },
            {
              "components": [
                {
                  "internalType": "string",
                  "name": "title",
                  "type": "string"
                },
                {
                  "internalType": "string",
                  "name": "description",
                  "type": "string"
                },
                {
                  "internalType": "string",
                  "name": "recordLabel",
                  "type": "string"
                },
                {
                  "internalType": "string",
                  "name": "publisher",
                  "type": "string"
                },
                {
                  "internalType": "string",
                  "name": "locationCreated",
                  "type": "string"
                },
                {
                  "internalType": "string",
                  "name": "releaseDate",
                  "type": "string"
                }
              ],
              "internalType": "struct IOnChainMetadata.PublishingData",
              "name": "songPublishingData",
              "type": "tuple"
            }
          ],
          "indexed": false,
          "internalType": "struct IOnChainMetadata.SongMetadata",
          "name": "songMetadata",
          "type": "tuple"
        },
        {
          "components": [
            {
              "components": [
                {
                  "internalType": "string",
                  "name": "title",
                  "type": "string"
                },
                {
                  "internalType": "string",
                  "name": "description",
                  "type": "string"
                },
                {
                  "internalType": "string",
                  "name": "recordLabel",
                  "type": "string"
                },
                {
                  "internalType": "string",
                  "name": "publisher",
                  "type": "string"
                },
                {
                  "internalType": "string",
                  "name": "locationCreated",
                  "type": "string"
                },
                {
                  "internalType": "string",
                  "name": "releaseDate",
                  "type": "string"
                }
              ],
              "internalType": "struct IOnChainMetadata.PublishingData",
              "name": "publishingData",
              "type": "tuple"
            },
            {
              "components": [
                {
                  "internalType": "string",
                  "name": "artworkUri",
                  "type": "string"
                },
                {
                  "internalType": "string",
                  "name": "artworkMimeType",
                  "type": "string"
                },
                {
                  "internalType": "string",
                  "name": "artworkNft",
                  "type": "string"
                }
              ],
              "internalType": "struct IOnChainMetadata.Artwork",
              "name": "artwork",
              "type": "tuple"
            },
            {
              "internalType": "string",
              "name": "projectType",
              "type": "string"
            },
            {
              "internalType": "string",
              "name": "upc",
              "type": "string"
            }
          ],
          "indexed": false,
          "internalType": "struct IOnChainMetadata.ProjectMetadata",
          "name": "projectMetadata",
          "type": "tuple"
        },
        {
          "indexed": false,
          "internalType": "string[]",
          "name": "tags",
          "type": "string[]"
        },
        {
          "components": [
            {
              "internalType": "string",
              "name": "name",
              "type": "string"
            },
            {
              "internalType": "string",
              "name": "collaboratorType",
              "type": "string"
            }
          ],
          "indexed": false,
          "internalType": "struct IOnChainMetadata.Credit[]",
          "name": "credits",
          "type": "tuple[]"
        }
      ],
      "name": "SongUpdated",
      "type": "event"
    },
    {
      "anonymous": false,
      "inputs": [
        {
          "indexed": true,
          "internalType": "address",
          "name": "target",
          "type": "address"
        },
        {
          "indexed": false,
          "internalType": "address",
          "name": "sender",
          "type": "address"
        },
        {
          "indexed": false,
          "internalType": "string[]",
          "name": "tags",
          "type": "string[]"
        }
      ],
      "name": "TagsUpdated",
      "type": "event"
    },
    {
      "anonymous": false,
      "inputs": [
        {
          "indexed": true,
          "internalType": "address",
          "name": "target",
          "type": "address"
        },
        {
          "indexed": false,
          "internalType": "address",
          "name": "sender",
          "type": "address"
        },
        {
          "indexed": false,
          "internalType": "string",
          "name": "artworkUri",
          "type": "string"
        },
        {
          "indexed": false,
          "internalType": "string",
          "name": "artworkMimeType",
          "type": "string"
        },
        {
          "indexed": false,
          "internalType": "string",
          "name": "artworkNft",
          "type": "string"
        }
      ],
      "name": "VisualizerUpdated",
      "type": "event"
    },
    {
      "inputs": [
        {
          "internalType": "address",
          "name": "target",
          "type": "address"
        },
        {
          "components": [
            {
              "components": [
                {
                  "components": [
                    {
                      "internalType": "string",
                      "name": "losslessAudio",
                      "type": "string"
                    },
                    {
                      "components": [
                        {
                          "internalType": "string",
                          "name": "artistName",
                          "type": "string"
                        },
                        {
                          "components": [
                            {
                              "internalType": "string",
                              "name": "key",
                              "type": "string"
                            },
                            {
                              "internalType": "uint256",
                              "name": "bpm",
                              "type": "uint256"
                            },
                            {
                              "internalType": "uint256",
                              "name": "duration",
                              "type": "uint256"
                            },
                            {
                              "internalType": "string",
                              "name": "audioMimeType",
                              "type": "string"
                            },
                            {
                              "internalType": "uint256",
                              "name": "trackNumber",
                              "type": "uint256"
                            }
                          ],
                          "internalType": "struct IOnChainMetadata.AudioQuantitative",
                          "name": "audioQuantitative",
                          "type": "tuple"
                        },
                        {
                          "components": [
                            {
                              "internalType": "string",
                              "name": "license",
                              "type": "string"
                            },
                            {
                              "internalType": "string",
                              "name": "externalUrl",
                              "type": "string"
                            },
                            {
                              "internalType": "string",
                              "name": "isrc",
                              "type": "string"
                            },
                            {
                              "internalType": "string",
                              "name": "genre",
                              "type": "string"
                            }
                          ],
                          "internalType": "struct IOnChainMetadata.AudioQualitative",
                          "name": "audioQualitative",
                          "type": "tuple"
                        }
                      ],
                      "internalType": "struct IOnChainMetadata.SongDetails",
                      "name": "songDetails",
                      "type": "tuple"
                    },
                    {
                      "components": [
                        {
                          "internalType": "string",
                          "name": "lyrics",
                          "type": "string"
                        },
                        {
                          "internalType": "string",
                          "name": "lyricsNft",
                          "type": "string"
                        }
                      ],
                      "internalType": "struct IOnChainMetadata.Lyrics",
                      "name": "lyrics",
                      "type": "tuple"
                    }
                  ],
                  "internalType": "struct IOnChainMetadata.Audio",
                  "name": "audio",
                  "type": "tuple"
                },
                {
                  "components": [
                    {
                      "internalType": "string",
                      "name": "artworkUri",
                      "type": "string"
                    },
                    {
                      "internalType": "string",
                      "name": "artworkMimeType",
                      "type": "string"
                    },
                    {
                      "internalType": "string",
                      "name": "artworkNft",
                      "type": "string"
                    }
                  ],
                  "internalType": "struct IOnChainMetadata.Artwork",
                  "name": "artwork",
                  "type": "tuple"
                },
                {
                  "components": [
                    {
                      "internalType": "string",
                      "name": "artworkUri",
                      "type": "string"
                    },
                    {
                      "internalType": "string",
                      "name": "artworkMimeType",
                      "type": "string"
                    },
                    {
                      "internalType": "string",
                      "name": "artworkNft",
                      "type": "string"
                    }
                  ],
                  "internalType": "struct IOnChainMetadata.Artwork",
                  "name": "visualizer",
                  "type": "tuple"
                }
              ],
              "internalType": "struct IOnChainMetadata.SongContent",
              "name": "song",
              "type": "tuple"
            },
            {
              "components": [
                {
                  "internalType": "string",
                  "name": "title",
                  "type": "string"
                },
                {
                  "internalType": "string",
                  "name": "description",
                  "type": "string"
                },
                {
                  "internalType": "string",
                  "name": "recordLabel",
                  "type": "string"
                },
                {
                  "internalType": "string",
                  "name": "publisher",
                  "type": "string"
                },
                {
                  "internalType": "string",
                  "name": "locationCreated",
                  "type": "string"
                },
                {
                  "internalType": "string",
                  "name": "releaseDate",
                  "type": "string"
                }
              ],
              "internalType": "struct IOnChainMetadata.PublishingData",
              "name": "songPublishingData",
              "type": "tuple"
            }
          ],
          "internalType": "struct IOnChainMetadata.SongMetadata",
          "name": "_songMetadata",
          "type": "tuple"
        },
        {
          "components": [
            {
              "components": [
                {
                  "internalType": "string",
                  "name": "title",
                  "type": "string"
                },
                {
                  "internalType": "string",
                  "name": "description",
                  "type": "string"
                },
                {
                  "internalType": "string",
                  "name": "recordLabel",
                  "type": "string"
                },
                {
                  "internalType": "string",
                  "name": "publisher",
                  "type": "string"
                },
                {
                  "internalType": "string",
                  "name": "locationCreated",
                  "type": "string"
                },
                {
                  "internalType": "string",
                  "name": "releaseDate",
                  "type": "string"
                }
              ],
              "internalType": "struct IOnChainMetadata.PublishingData",
              "name": "publishingData",
              "type": "tuple"
            },
            {
              "components": [
                {
                  "internalType": "string",
                  "name": "artworkUri",
                  "type": "string"
                },
                {
                  "internalType": "string",
                  "name": "artworkMimeType",
                  "type": "string"
                },
                {
                  "internalType": "string",
                  "name": "artworkNft",
                  "type": "string"
                }
              ],
              "internalType": "struct IOnChainMetadata.Artwork",
              "name": "artwork",
              "type": "tuple"
            },
            {
              "internalType": "string",
              "name": "projectType",
              "type": "string"
            },
            {
              "internalType": "string",
              "name": "upc",
              "type": "string"
            }
          ],
          "internalType": "struct IOnChainMetadata.ProjectMetadata",
          "name": "_projectMetadata",
          "type": "tuple"
        },
        {
          "internalType": "string[]",
          "name": "_tags",
          "type": "string[]"
        },
        {
          "components": [
            {
              "internalType": "string",
              "name": "name",
              "type": "string"
            },
            {
              "internalType": "string",
              "name": "collaboratorType",
              "type": "string"
            }
          ],
          "internalType": "struct IOnChainMetadata.Credit[]",
          "name": "_credits",
          "type": "tuple[]"
        }
      ],
      "name": "bulkUpdate",
      "outputs": [],
      "stateMutability": "nonpayable",
      "type": "function"
    },
    {
      "inputs": [],
      "name": "contractURI",
      "outputs": [
        {
          "internalType": "string",
          "name": "",
          "type": "string"
        }
      ],
      "stateMutability": "view",
      "type": "function"
    },
    {
      "inputs": [
        {
          "internalType": "bytes",
          "name": "data",
          "type": "bytes"
        }
      ],
      "name": "initializeWithData",
      "outputs": [],
      "stateMutability": "nonpayable",
      "type": "function"
    },
    {
      "inputs": [
        {
          "internalType": "address",
          "name": "",
          "type": "address"
        }
      ],
      "name": "projectMetadatas",
      "outputs": [
        {
          "components": [
            {
              "internalType": "string",
              "name": "title",
              "type": "string"
            },
            {
              "internalType": "string",
              "name": "description",
              "type": "string"
            },
            {
              "internalType": "string",
              "name": "recordLabel",
              "type": "string"
            },
            {
              "internalType": "string",
              "name": "publisher",
              "type": "string"
            },
            {
              "internalType": "string",
              "name": "locationCreated",
              "type": "string"
            },
            {
              "internalType": "string",
              "name": "releaseDate",
              "type": "string"
            }
          ],
          "internalType": "struct IOnChainMetadata.PublishingData",
          "name": "publishingData",
          "type": "tuple"
        },
        {
          "components": [
            {
              "internalType": "string",
              "name": "artworkUri",
              "type": "string"
            },
            {
              "internalType": "string",
              "name": "artworkMimeType",
              "type": "string"
            },
            {
              "internalType": "string",
              "name": "artworkNft",
              "type": "string"
            }
          ],
          "internalType": "struct IOnChainMetadata.Artwork",
          "name": "artwork",
          "type": "tuple"
        },
        {
          "internalType": "string",
          "name": "projectType",
          "type": "string"
        },
        {
          "internalType": "string",
          "name": "upc",
          "type": "string"
        }
      ],
      "stateMutability": "view",
      "type": "function"
    },
    {
      "inputs": [],
      "name": "sharedNFTLogic",
      "outputs": [
        {
          "internalType": "contract ISharedNFTLogic",
          "name": "",
          "type": "address"
        }
      ],
      "stateMutability": "view",
      "type": "function"
    },
    {
      "inputs": [
        {
          "internalType": "address",
          "name": "",
          "type": "address"
        }
      ],
      "name": "songMetadatas",
      "outputs": [
        {
          "components": [
            {
              "components": [
                {
                  "internalType": "string",
                  "name": "losslessAudio",
                  "type": "string"
                },
                {
                  "components": [
                    {
                      "internalType": "string",
                      "name": "artistName",
                      "type": "string"
                    },
                    {
                      "components": [
                        {
                          "internalType": "string",
                          "name": "key",
                          "type": "string"
                        },
                        {
                          "internalType": "uint256",
                          "name": "bpm",
                          "type": "uint256"
                        },
                        {
                          "internalType": "uint256",
                          "name": "duration",
                          "type": "uint256"
                        },
                        {
                          "internalType": "string",
                          "name": "audioMimeType",
                          "type": "string"
                        },
                        {
                          "internalType": "uint256",
                          "name": "trackNumber",
                          "type": "uint256"
                        }
                      ],
                      "internalType": "struct IOnChainMetadata.AudioQuantitative",
                      "name": "audioQuantitative",
                      "type": "tuple"
                    },
                    {
                      "components": [
                        {
                          "internalType": "string",
                          "name": "license",
                          "type": "string"
                        },
                        {
                          "internalType": "string",
                          "name": "externalUrl",
                          "type": "string"
                        },
                        {
                          "internalType": "string",
                          "name": "isrc",
                          "type": "string"
                        },
                        {
                          "internalType": "string",
                          "name": "genre",
                          "type": "string"
                        }
                      ],
                      "internalType": "struct IOnChainMetadata.AudioQualitative",
                      "name": "audioQualitative",
                      "type": "tuple"
                    }
                  ],
                  "internalType": "struct IOnChainMetadata.SongDetails",
                  "name": "songDetails",
                  "type": "tuple"
                },
                {
                  "components": [
                    {
                      "internalType": "string",
                      "name": "lyrics",
                      "type": "string"
                    },
                    {
                      "internalType": "string",
                      "name": "lyricsNft",
                      "type": "string"
                    }
                  ],
                  "internalType": "struct IOnChainMetadata.Lyrics",
                  "name": "lyrics",
                  "type": "tuple"
                }
              ],
              "internalType": "struct IOnChainMetadata.Audio",
              "name": "audio",
              "type": "tuple"
            },
            {
              "components": [
                {
                  "internalType": "string",
                  "name": "artworkUri",
                  "type": "string"
                },
                {
                  "internalType": "string",
                  "name": "artworkMimeType",
                  "type": "string"
                },
                {
                  "internalType": "string",
                  "name": "artworkNft",
                  "type": "string"
                }
              ],
              "internalType": "struct IOnChainMetadata.Artwork",
              "name": "artwork",
              "type": "tuple"
            },
            {
              "components": [
                {
                  "internalType": "string",
                  "name": "artworkUri",
                  "type": "string"
                },
                {
                  "internalType": "string",
                  "name": "artworkMimeType",
                  "type": "string"
                },
                {
                  "internalType": "string",
                  "name": "artworkNft",
                  "type": "string"
                }
              ],
              "internalType": "struct IOnChainMetadata.Artwork",
              "name": "visualizer",
              "type": "tuple"
            }
          ],
          "internalType": "struct IOnChainMetadata.SongContent",
          "name": "song",
          "type": "tuple"
        },
        {
          "components": [
            {
              "internalType": "string",
              "name": "title",
              "type": "string"
            },
            {
              "internalType": "string",
              "name": "description",
              "type": "string"
            },
            {
              "internalType": "string",
              "name": "recordLabel",
              "type": "string"
            },
            {
              "internalType": "string",
              "name": "publisher",
              "type": "string"
            },
            {
              "internalType": "string",
              "name": "locationCreated",
              "type": "string"
            },
            {
              "internalType": "string",
              "name": "releaseDate",
              "type": "string"
            }
          ],
          "internalType": "struct IOnChainMetadata.PublishingData",
          "name": "songPublishingData",
          "type": "tuple"
        }
      ],
      "stateMutability": "view",
      "type": "function"
    },
    {
      "inputs": [
        {
          "internalType": "uint256",
          "name": "tokenId",
          "type": "uint256"
        }
      ],
      "name": "tokenURI",
      "outputs": [
        {
          "internalType": "string",
          "name": "",
          "type": "string"
        }
      ],
      "stateMutability": "view",
      "type": "function"
    },
    {
      "inputs": [
        {
          "internalType": "uint256",
          "name": "tokenId",
          "type": "uint256"
        },
        {
          "internalType": "address",
          "name": "target",
          "type": "address"
        }
      ],
      "name": "tokenURITarget",
      "outputs": [
        {
          "internalType": "string",
          "name": "",
          "type": "string"
        }
      ],
      "stateMutability": "view",
      "type": "function"
    },
    {
      "inputs": [
        {
          "internalType": "address",
          "name": "target",
          "type": "address"
        },
        {
          "components": [
            {
              "internalType": "string",
              "name": "name",
              "type": "string"
            },
            {
              "internalType": "string",
              "name": "collaboratorType",
              "type": "string"
            }
          ],
          "internalType": "struct IOnChainMetadata.Credit[]",
          "name": "_credits",
          "type": "tuple[]"
        }
      ],
      "name": "updateCredits",
      "outputs": [],
      "stateMutability": "nonpayable",
      "type": "function"
    },
    {
      "inputs": [
        {
          "internalType": "address",
          "name": "target",
          "type": "address"
        },
        {
          "internalType": "string",
          "name": "newDescription",
          "type": "string"
        }
      ],
      "name": "updateDescription",
      "outputs": [],
      "stateMutability": "nonpayable",
      "type": "function"
    },
    {
      "inputs": [
        {
          "internalType": "address",
          "name": "target",
          "type": "address"
        },
        {
          "internalType": "string",
          "name": "imageURI",
          "type": "string"
        },
        {
          "internalType": "string",
          "name": "animationURI",
          "type": "string"
        }
      ],
      "name": "updateMediaURIs",
      "outputs": [],
      "stateMutability": "nonpayable",
      "type": "function"
    },
    {
      "inputs": [
        {
          "internalType": "address",
          "name": "target",
          "type": "address"
        },
        {
          "internalType": "string[]",
          "name": "tags",
          "type": "string[]"
        }
      ],
      "name": "updateTags",
      "outputs": [],
      "stateMutability": "nonpayable",
      "type": "function"
    }
  ],
  "bytecode": "0x60a06040523480156200001157600080fd5b50604051620040c1380380620040c1833981016040819052620000349162000046565b6001600160a01b031660805262000078565b6000602082840312156200005957600080fd5b81516001600160a01b03811681146200007157600080fd5b9392505050565b60805161401f620000a2600039600081816101b2015281816110df015261239a015261401f6000f3fe608060405234801561001057600080fd5b50600436106100b45760003560e01c8063b80adf2511610071578063b80adf2514610146578063c87b56dd14610166578063d1fe4b3d14610179578063d5159df71461018c578063d67e9d93146101ad578063e8a3d485146101ec57600080fd5b80631821cdde146100b95780632f17b8f0146100ce578063856a7ffa146100e15780638bbb2cf2146100f4578063af9bb79714610107578063afb5b68414610133575b600080fd5b6100cc6100c7366004612b1f565b6101f4565b005b6100cc6100dc366004612ef6565b61064b565b6100cc6100ef366004612f6b565b61078a565b6100cc610102366004612fbb565b61083c565b61011a61011536600461300a565b610955565b60405161012a949392919061315e565b60405180910390f35b6100cc6101413660046131b6565b610fcb565b6101596101543660046131fb565b6110db565b60405161012a919061322b565b61015961017436600461323e565b611215565b6100cc610187366004613257565b611222565b61019f61019a36600461300a565b61147b565b60405161012a929190613440565b6101d47f000000000000000000000000000000000000000000000000000000000000000081565b6040516001600160a01b03909116815260200161012a565b6101596121dc565b856001600160a01b03811633148015906102815750336001600160a01b0316816001600160a01b0316638da5cb5b6040518163ffffffff1660e01b8152600401602060405180830381865afa158015610251573d6000803e3d6000fd5b505050506040513d601f19601f820116820180604052508101906102759190613465565b6001600160a01b031614155b1561029f576040516302bd6bd160e01b815260040160405180910390fd5b6001600160a01b0387166000908152602081905260409020865180518051899392918391829081906102d1908261350b565b5060208201518051600183019081906102ea908261350b565b506020820151805160018301908190610303908261350b565b5060208201516001820155604082015160028201556060820151600382019061032c908261350b565b50608091909101516004909101556040820151805160068301908190610352908261350b565b5060208201516001820190610367908261350b565b506040820151600282019061037c908261350b565b5060608201516003820190610391908261350b565b5050505060408301518051909150600b83019081906103b0908261350b565b50602082015160018201906103c5908261350b565b5050505060208301518051909150600d83019081906103e4908261350b565b50602082015160018201906103f9908261350b565b506040820151600282019061040e908261350b565b5050506040820151805160108301908190610429908261350b565b506020820151600182019061043e908261350b565b5060408201516002820190610453908261350b565b505050506020830151805190915060138301908190610472908261350b565b5060208201516001820190610487908261350b565b506040820151600282019061049c908261350b565b50606082015160038201906104b1908261350b565b50608082015160048201906104c6908261350b565b5060a082015160058201906104db908261350b565b505050506001600160a01b0388166000908152600160205260409020865180518893508290819061050c908261350b565b5060208201516001820190610521908261350b565b5060408201516002820190610536908261350b565b506060820151600382019061054b908261350b565b5060808201516004820190610560908261350b565b5060a08201516005820190610575908261350b565b5050506020820151805160068301908190610590908261350b565b50602082015160018201906105a5908261350b565b50604082015160028201906105ba908261350b565b505050604082015160098201906105d1908261350b565b506060820151600a8201906105e6908261350b565b509050506105f48785610fcb565b6105ff878484611222565b7fd8dc0881ec840ecce080f25893fc6ed26eb14e3cb10bdf02b5536bff243a1efa8733888888888860405161063a979695949392919061372d565b60405180910390a150505050505050565b826001600160a01b03811633148015906106d85750336001600160a01b0316816001600160a01b0316638da5cb5b6040518163ffffffff1660e01b8152600401602060405180830381865afa1580156106a8573d6000803e3d6000fd5b505050506040513d601f19601f820116820180604052508101906106cc9190613465565b6001600160a01b031614155b156106f6576040516302bd6bd160e01b815260040160405180910390fd5b6001600160a01b0384166000908152602081905260409020600d0161071b848261350b565b506001600160a01b038416600090815260208190526040902061073e838261350b565b50836001600160a01b03167fc4c1b9223fcebe5f35b9030d3df655018c40e88d70b8a3c63ed851c5d972210f33858560405161077c93929190613823565b60405180910390a250505050565b6000806000838060200190518101906107a391906138a8565b33600090815260208190526040902092955090935091506014016107c7848261350b565b503360009081526020819052604090206107e1828261350b565b50336000908152602081905260409020600d016107fe838261350b565b50336001600160a01b03167ff889a5cdc62274389379cbfade0f225b1d30b7395177fd6aeaab61662b1c6edf84848460405161077c93929190613925565b816001600160a01b03811633148015906108c95750336001600160a01b0316816001600160a01b0316638da5cb5b6040518163ffffffff1660e01b8152600401602060405180830381865afa158015610899573d6000803e3d6000fd5b505050506040513d601f19601f820116820180604052508101906108bd9190613465565b6001600160a01b031614155b156108e7576040516302bd6bd160e01b815260040160405180910390fd5b6001600160a01b038316600090815260208190526040902060140161090c838261350b565b50826001600160a01b03167f36195b44a3184513e02477929207751ea9d67026b917ed74d374a7f9e8c5e4d1338460405161094892919061395e565b60405180910390a2505050565b6001602052806000526040600020600091509050806000016040518060c001604052908160008201805461098890613482565b80601f01602080910402602001604051908101604052809291908181526020018280546109b490613482565b8015610a015780601f106109d657610100808354040283529160200191610a01565b820191906000526020600020905b8154815290600101906020018083116109e457829003601f168201915b50505050508152602001600182018054610a1a90613482565b80601f0160208091040260200160405190810160405280929190818152602001828054610a4690613482565b8015610a935780601f10610a6857610100808354040283529160200191610a93565b820191906000526020600020905b815481529060010190602001808311610a7657829003601f168201915b50505050508152602001600282018054610aac90613482565b80601f0160208091040260200160405190810160405280929190818152602001828054610ad890613482565b8015610b255780601f10610afa57610100808354040283529160200191610b25565b820191906000526020600020905b815481529060010190602001808311610b0857829003601f168201915b50505050508152602001600382018054610b3e90613482565b80601f0160208091040260200160405190810160405280929190818152602001828054610b6a90613482565b8015610bb75780601f10610b8c57610100808354040283529160200191610bb7565b820191906000526020600020905b815481529060010190602001808311610b9a57829003601f168201915b50505050508152602001600482018054610bd090613482565b80601f0160208091040260200160405190810160405280929190818152602001828054610bfc90613482565b8015610c495780601f10610c1e57610100808354040283529160200191610c49565b820191906000526020600020905b815481529060010190602001808311610c2c57829003601f168201915b50505050508152602001600582018054610c6290613482565b80601f0160208091040260200160405190810160405280929190818152602001828054610c8e90613482565b8015610cdb5780601f10610cb057610100808354040283529160200191610cdb565b820191906000526020600020905b815481529060010190602001808311610cbe57829003601f168201915b5050505050815250509080600601604051806060016040529081600082018054610d0490613482565b80601f0160208091040260200160405190810160405280929190818152602001828054610d3090613482565b8015610d7d5780601f10610d5257610100808354040283529160200191610d7d565b820191906000526020600020905b815481529060010190602001808311610d6057829003601f168201915b50505050508152602001600182018054610d9690613482565b80601f0160208091040260200160405190810160405280929190818152602001828054610dc290613482565b8015610e0f5780601f10610de457610100808354040283529160200191610e0f565b820191906000526020600020905b815481529060010190602001808311610df257829003601f168201915b50505050508152602001600282018054610e2890613482565b80601f0160208091040260200160405190810160405280929190818152602001828054610e5490613482565b8015610ea15780601f10610e7657610100808354040283529160200191610ea1565b820191906000526020600020905b815481529060010190602001808311610e8457829003601f168201915b50505050508152505090806009018054610eba90613482565b80601f0160208091040260200160405190810160405280929190818152602001828054610ee690613482565b8015610f335780601f10610f0857610100808354040283529160200191610f33565b820191906000526020600020905b815481529060010190602001808311610f1657829003601f168201915b50505050509080600a018054610f4890613482565b80601f0160208091040260200160405190810160405280929190818152602001828054610f7490613482565b8015610fc15780601f10610f9657610100808354040283529160200191610fc1565b820191906000526020600020905b815481529060010190602001808311610fa457829003601f168201915b5050505050905084565b816001600160a01b03811633148015906110585750336001600160a01b0316816001600160a01b0316638da5cb5b6040518163ffffffff1660e01b8152600401602060405180830381865afa158015611028573d6000803e3d6000fd5b505050506040513d601f19601f8201168201806040525081019061104c9190613465565b6001600160a01b031614155b15611076576040516302bd6bd160e01b815260040160405180910390fd5b6001600160a01b0383166000908152600260209081526040909120835161109f9285019061247e565b50826001600160a01b03167f70deccfc75f688d1fad2a661e4818b3a9939f15bd374bb3b28c5d8b013446b723384604051610948929190613982565b60607f00000000000000000000000000000000000000000000000000000000000000006001600160a01b0316630464320b836001600160a01b03166306fdde036040518163ffffffff1660e01b8152600401600060405180830381865afa15801561114a573d6000803e3d6000fd5b505050506040513d6000823e601f3d908101601f1916820160405261117291908101906139a6565b6001600160a01b038516600090815260208181526040808320600183528184206003845282852060029094529382902091516001600160e01b031960e088901b1681526111c995948b949293909291600401613c99565b600060405180830381865afa1580156111e6573d6000803e3d6000fd5b505050506040513d6000823e601f3d908101601f1916820160405261120e91908101906139a6565b9392505050565b60603361120e83826110db565b826001600160a01b03811633148015906112af5750336001600160a01b0316816001600160a01b0316638da5cb5b6040518163ffffffff1660e01b8152600401602060405180830381865afa15801561127f573d6000803e3d6000fd5b505050506040513d601f19601f820116820180604052508101906112a39190613465565b6001600160a01b031614155b156112cd576040516302bd6bd160e01b815260040160405180910390fd5b6001600160a01b03841660009081526003602052604081206112ee916124d4565b60005b8281101561143d576001600160a01b038516600090815260036020526040908190208151808301909252908086868581811061132f5761132f613e10565b90506020028101906113419190613e26565b61134b9080613e46565b8080601f01602080910402602001604051908101604052809392919081815260200183838082843760009201919091525050509082525060200186868581811061139757611397613e10565b90506020028101906113a99190613e26565b6113b7906020810190613e46565b8080601f0160208091040260200160405190810160405280939291908181526020018383808284376000920182905250939094525050835460018101855593815260209020825192936002020191829150611412908261350b565b5060208201516001820190611427908261350b565b505050808061143590613e8c565b9150506112f1565b50836001600160a01b03167f96e9933dcda4e1f454ca4daf8783c1a245e683873ee5c52bf9df39e5bebb971533858560405161077c93929190613eb3565b60006020819052908152604090819020815160c0810190925280549091908290829060608201908390829082906114b190613482565b80601f01602080910402602001604051908101604052809291908181526020018280546114dd90613482565b801561152a5780601f106114ff5761010080835404028352916020019161152a565b820191906000526020600020905b81548152906001019060200180831161150d57829003601f168201915b505050505081526020016001820160405180606001604052908160008201805461155390613482565b80601f016020809104026020016040519081016040528092919081815260200182805461157f90613482565b80156115cc5780601f106115a1576101008083540402835291602001916115cc565b820191906000526020600020905b8154815290600101906020018083116115af57829003601f168201915b50505050508152602001600182016040518060a00160405290816000820180546115f590613482565b80601f016020809104026020016040519081016040528092919081815260200182805461162190613482565b801561166e5780601f106116435761010080835404028352916020019161166e565b820191906000526020600020905b81548152906001019060200180831161165157829003601f168201915b50505050508152602001600182015481526020016002820154815260200160038201805461169b90613482565b80601f01602080910402602001604051908101604052809291908181526020018280546116c790613482565b80156117145780601f106116e957610100808354040283529160200191611714565b820191906000526020600020905b8154815290600101906020018083116116f757829003601f168201915b5050505050815260200160048201548152505081526020016006820160405180608001604052908160008201805461174b90613482565b80601f016020809104026020016040519081016040528092919081815260200182805461177790613482565b80156117c45780601f10611799576101008083540402835291602001916117c4565b820191906000526020600020905b8154815290600101906020018083116117a757829003601f168201915b505050505081526020016001820180546117dd90613482565b80601f016020809104026020016040519081016040528092919081815260200182805461180990613482565b80156118565780601f1061182b57610100808354040283529160200191611856565b820191906000526020600020905b81548152906001019060200180831161183957829003601f168201915b5050505050815260200160028201805461186f90613482565b80601f016020809104026020016040519081016040528092919081815260200182805461189b90613482565b80156118e85780601f106118bd576101008083540402835291602001916118e8565b820191906000526020600020905b8154815290600101906020018083116118cb57829003601f168201915b5050505050815260200160038201805461190190613482565b80601f016020809104026020016040519081016040528092919081815260200182805461192d90613482565b801561197a5780601f1061194f5761010080835404028352916020019161197a565b820191906000526020600020905b81548152906001019060200180831161195d57829003601f168201915b505050505081525050815250508152602001600b82016040518060400160405290816000820180546119ab90613482565b80601f01602080910402602001604051908101604052809291908181526020018280546119d790613482565b8015611a245780601f106119f957610100808354040283529160200191611a24565b820191906000526020600020905b815481529060010190602001808311611a0757829003601f168201915b50505050508152602001600182018054611a3d90613482565b80601f0160208091040260200160405190810160405280929190818152602001828054611a6990613482565b8015611ab65780601f10611a8b57610100808354040283529160200191611ab6565b820191906000526020600020905b815481529060010190602001808311611a9957829003601f168201915b505050505081525050815250508152602001600d8201604051806060016040529081600082018054611ae790613482565b80601f0160208091040260200160405190810160405280929190818152602001828054611b1390613482565b8015611b605780601f10611b3557610100808354040283529160200191611b60565b820191906000526020600020905b815481529060010190602001808311611b4357829003601f168201915b50505050508152602001600182018054611b7990613482565b80601f0160208091040260200160405190810160405280929190818152602001828054611ba590613482565b8015611bf25780601f10611bc757610100808354040283529160200191611bf2565b820191906000526020600020905b815481529060010190602001808311611bd557829003601f168201915b50505050508152602001600282018054611c0b90613482565b80601f0160208091040260200160405190810160405280929190818152602001828054611c3790613482565b8015611c845780601f10611c5957610100808354040283529160200191611c84565b820191906000526020600020905b815481529060010190602001808311611c6757829003601f168201915b505050505081525050815260200160108201604051806060016040529081600082018054611cb190613482565b80601f0160208091040260200160405190810160405280929190818152602001828054611cdd90613482565b8015611d2a5780601f10611cff57610100808354040283529160200191611d2a565b820191906000526020600020905b815481529060010190602001808311611d0d57829003601f168201915b50505050508152602001600182018054611d4390613482565b80601f0160208091040260200160405190810160405280929190818152602001828054611d6f90613482565b8015611dbc5780601f10611d9157610100808354040283529160200191611dbc565b820191906000526020600020905b815481529060010190602001808311611d9f57829003601f168201915b50505050508152602001600282018054611dd590613482565b80601f0160208091040260200160405190810160405280929190818152602001828054611e0190613482565b8015611e4e5780601f10611e2357610100808354040283529160200191611e4e565b820191906000526020600020905b815481529060010190602001808311611e3157829003601f168201915b5050505050815250508152505090806013016040518060c0016040529081600082018054611e7b90613482565b80601f0160208091040260200160405190810160405280929190818152602001828054611ea790613482565b8015611ef45780601f10611ec957610100808354040283529160200191611ef4565b820191906000526020600020905b815481529060010190602001808311611ed757829003601f168201915b50505050508152602001600182018054611f0d90613482565b80601f0160208091040260200160405190810160405280929190818152602001828054611f3990613482565b8015611f865780601f10611f5b57610100808354040283529160200191611f86565b820191906000526020600020905b815481529060010190602001808311611f6957829003601f168201915b50505050508152602001600282018054611f9f90613482565b80601f0160208091040260200160405190810160405280929190818152602001828054611fcb90613482565b80156120185780601f10611fed57610100808354040283529160200191612018565b820191906000526020600020905b815481529060010190602001808311611ffb57829003601f168201915b5050505050815260200160038201805461203190613482565b80601f016020809104026020016040519081016040528092919081815260200182805461205d90613482565b80156120aa5780601f1061207f576101008083540402835291602001916120aa565b820191906000526020600020905b81548152906001019060200180831161208d57829003601f168201915b505050505081526020016004820180546120c390613482565b80601f01602080910402602001604051908101604052809291908181526020018280546120ef90613482565b801561213c5780601f106121115761010080835404028352916020019161213c565b820191906000526020600020905b81548152906001019060200180831161211f57829003601f168201915b5050505050815260200160058201805461215590613482565b80601f016020809104026020016040519081016040528092919081815260200182805461218190613482565b80156121ce5780601f106121a3576101008083540402835291602001916121ce565b820191906000526020600020905b8154815290600101906020018083116121b157829003601f168201915b505050505081525050905082565b604080516020808201835260008083523380825291819052928320600d018054606094929392919061220d90613482565b90501115612251576001600160a01b03821660009081526020818152604091829020915161223f92600d019101613f4b565b60405160208183030381529060405290505b6001600160a01b0382166000908152602081905260408120600501805482919061227a90613482565b90501190506000816122f157836001600160a01b03166306fdde036040518163ffffffff1660e01b8152600401600060405180830381865afa1580156122c4573d6000803e3d6000fd5b505050506040513d6000823e601f3d908101601f191682016040526122ec91908101906139a6565b612396565b6001600160a01b0384166000908152602081905260409020601301805461231790613482565b80601f016020809104026020016040519081016040528092919081815260200182805461234390613482565b80156123905780601f1061236557610100808354040283529160200191612390565b820191906000526020600020905b81548152906001019060200180831161237357829003601f168201915b50505050505b90507f00000000000000000000000000000000000000000000000000000000000000006001600160a01b031663d01fde8c82600080886001600160a01b03166001600160a01b031681526020019081526020016000206013016001018660405160200161240593929190613f6d565b6040516020818303038152906040526040518263ffffffff1660e01b8152600401612430919061322b565b600060405180830381865afa15801561244d573d6000803e3d6000fd5b505050506040513d6000823e601f3d908101601f1916820160405261247591908101906139a6565b94505050505090565b8280548282559060005260206000209081019282156124c4579160200282015b828111156124c457825182906124b4908261350b565b509160200191906001019061249e565b506124d09291506124f8565b5090565b50805460008255600202906000526020600020908101906124f59190612515565b50565b808211156124d057600061250c8282612540565b506001016124f8565b808211156124d05760006125298282612540565b612537600183016000612540565b50600201612515565b50805461254c90613482565b6000825580601f1061255c575050565b601f0160209004906000526020600020908101906124f591905b808211156124d05760008155600101612576565b6001600160a01b03811681146124f557600080fd5b634e487b7160e01b600052604160045260246000fd5b604051608081016001600160401b03811182821017156125d7576125d761259f565b60405290565b604080519081016001600160401b03811182821017156125d7576125d761259f565b604051606081016001600160401b03811182821017156125d7576125d761259f565b60405160c081016001600160401b03811182821017156125d7576125d761259f565b60405160a081016001600160401b03811182821017156125d7576125d761259f565b604051601f8201601f191681016001600160401b038111828210171561268d5761268d61259f565b604052919050565b60006001600160401b038211156126ae576126ae61259f565b50601f01601f191660200190565b60006126cf6126ca84612695565b612665565b90508281528383830111156126e357600080fd5b828260208301376000602084830101529392505050565b600082601f83011261270b57600080fd5b61120e838335602085016126bc565b60006080828403121561272c57600080fd5b6127346125b5565b905081356001600160401b038082111561274d57600080fd5b612759858386016126fa565b8352602084013591508082111561276f57600080fd5b61277b858386016126fa565b6020840152604084013591508082111561279457600080fd5b6127a0858386016126fa565b604084015260608401359150808211156127b957600080fd5b506127c6848285016126fa565b60608301525092915050565b6000604082840312156127e457600080fd5b6127ec6125dd565b905081356001600160401b038082111561280557600080fd5b612811858386016126fa565b8352602084013591508082111561282757600080fd5b50612834848285016126fa565b60208301525092915050565b60006060828403121561285257600080fd5b61285a6125ff565b905081356001600160401b038082111561287357600080fd5b61287f858386016126fa565b8352602084013591508082111561289557600080fd5b6128a1858386016126fa565b602084015260408401359150808211156128ba57600080fd5b506128c7848285016126fa565b60408301525092915050565b600060c082840312156128e557600080fd5b6128ed612621565b905081356001600160401b038082111561290657600080fd5b612912858386016126fa565b8352602084013591508082111561292857600080fd5b612934858386016126fa565b6020840152604084013591508082111561294d57600080fd5b612959858386016126fa565b6040840152606084013591508082111561297257600080fd5b61297e858386016126fa565b6060840152608084013591508082111561299757600080fd5b6129a3858386016126fa565b608084015260a08401359150808211156129bc57600080fd5b506129c9848285016126fa565b60a08301525092915050565b6000608082840312156129e757600080fd5b6129ef6125b5565b905081356001600160401b0380821115612a0857600080fd5b612a14858386016128d3565b83526020840135915080821115612a2a57600080fd5b61277b85838601612840565b600082601f830112612a4757600080fd5b813560206001600160401b0380831115612a6357612a6361259f565b8260051b612a72838201612665565b9384528581018301938381019088861115612a8c57600080fd5b84880192505b85831015612ac857823584811115612aaa5760008081fd5b612ab88a87838c01016126fa565b8352509184019190840190612a92565b98975050505050505050565b60008083601f840112612ae657600080fd5b5081356001600160401b03811115612afd57600080fd5b6020830191508360208260051b8501011115612b1857600080fd5b9250929050565b60008060008060008060a08789031215612b3857600080fd5b612b42873561258a565b863595506001600160401b0360208801351115612b5e57600080fd5b602087013587016040818a031215612b7557600080fd5b612b7d6125dd565b6001600160401b0382351115612b9257600080fd5b6060823583018b031215612ba557600080fd5b612bad6125ff565b6001600160401b0383358401351115612bc557600080fd5b823583018035016060818d031215612bdc57600080fd5b612be46125ff565b6001600160401b0382351115612bf957600080fd5b612c068d833584016126fa565b81526001600160401b0360208301351115612c2057600080fd5b6060602083013583018e031215612c3657600080fd5b612c3e6125ff565b6001600160401b0360208401358401351115612c5957600080fd5b612c6c8e602085013585018035016126fa565b81526001600160401b03602080850135850101351115612c8b57600080fd5b60a0602084810135850190810135018f031215612ca757600080fd5b612caf612643565b6001600160401b0360208581013586019081013501351115612cd057600080fd5b612ce98f602086810135870190810135018035016126fa565b8152602084810135850180820135018082013591830191909152604080820135908301526001600160401b036060909101351115612d2657600080fd5b612d428f602086810135870190810135016060810135016126fa565b6060820152602084810135850180820135810160809081013590840152908301919091526001600160401b036040909101351115612d7f57600080fd5b612d958e6020850135850160408101350161271a565b6040820152806020830152506001600160401b0360408301351115612db957600080fd5b612dc98d604084013584016127d2565b60408201528252506001600160401b0383358401602001351115612dec57600080fd5b612dff8b84358501602081013501612840565b60208201526001600160401b0360408435850101351115612e1f57600080fd5b612e328b84358501604081013501612840565b604082015281526001600160401b0360208301351115612e5157600080fd5b612e618a602084013584016128d3565b60208201529550506001600160401b0360408801351115612e8157600080fd5b612e9188604089013589016129d5565b93506001600160401b0360608801351115612eab57600080fd5b612ebb8860608901358901612a36565b92506001600160401b0360808801351115612ed557600080fd5b612ee58860808901358901612ad4565b969995985093965091949293915050565b600080600060608486031215612f0b57600080fd5b8335612f168161258a565b925060208401356001600160401b0380821115612f3257600080fd5b612f3e878388016126fa565b93506040860135915080821115612f5457600080fd5b50612f61868287016126fa565b9150509250925092565b600060208284031215612f7d57600080fd5b81356001600160401b03811115612f9357600080fd5b8201601f81018413612fa457600080fd5b612fb3848235602084016126bc565b949350505050565b60008060408385031215612fce57600080fd5b8235612fd98161258a565b915060208301356001600160401b03811115612ff457600080fd5b613000858286016126fa565b9150509250929050565b60006020828403121561301c57600080fd5b813561120e8161258a565b60005b8381101561304257818101518382015260200161302a565b50506000910152565b60008151808452613063816020860160208601613027565b601f01601f19169290920160200192915050565b6000815160c0845261308c60c085018261304b565b9050602083015184820360208601526130a5828261304b565b915050604083015184820360408601526130bf828261304b565b915050606083015184820360608601526130d9828261304b565b915050608083015184820360808601526130f3828261304b565b91505060a083015184820360a086015261310d828261304b565b95945050505050565b600081516060845261312b606085018261304b565b905060208301518482036020860152613144828261304b565b9150506040830151848203604086015261310d828261304b565b6080815260006131716080830187613077565b82810360208401526131838187613116565b90508281036040840152613197818661304b565b905082810360608401526131ab818561304b565b979650505050505050565b600080604083850312156131c957600080fd5b82356131d48161258a565b915060208301356001600160401b038111156131ef57600080fd5b61300085828601612a36565b6000806040838503121561320e57600080fd5b8235915060208301356132208161258a565b809150509250929050565b60208152600061120e602083018461304b565b60006020828403121561325057600080fd5b5035919050565b60008060006040848603121561326c57600080fd5b83356132778161258a565b925060208401356001600160401b0381111561329257600080fd5b61329e86828701612ad4565b9497909650939450505050565b60008151608084526132c0608085018261304b565b9050602083015184820360208601526132d9828261304b565b915050604083015184820360408601526132f3828261304b565b9150506060830151848203606086015261310d828261304b565b6000815160408452613322604085018261304b565b90506020830151848203602086015261310d828261304b565b6000606082518185528051828387015261335860c087018261304b565b9050602080830151605f19808985030160808a0152815186855261337e8786018261304b565b90508383015185820385870152805160a0835261339e60a084018261304b565b9050858201518684015260408083015181850152898301518483038b8601526133c7838261304b565b9a505060808301516080850152808601519550878a03818901526133eb8a876132ab565b988101518d8a03860160a08f01529899506134068a8a61330d565b9950868c015198508c8a03878e015261341f8a8a613116565b9950808c015198508c8a03818e0152505050505050505061310d8282613116565b604081526000613453604083018561333b565b828103602084015261310d8185613077565b60006020828403121561347757600080fd5b815161120e8161258a565b600181811c9082168061349657607f821691505b6020821081036134b657634e487b7160e01b600052602260045260246000fd5b50919050565b601f82111561350657600081815260208120601f850160051c810160208610156134e35750805b601f850160051c820191505b81811015613502578281556001016134ef565b5050505b505050565b81516001600160401b038111156135245761352461259f565b613538816135328454613482565b846134bc565b602080601f83116001811461356d57600084156135555750858301515b600019600386901b1c1916600185901b178555613502565b600085815260208120601f198616915b8281101561359c5788860151825594840194600190910190840161357d565b50858210156135ba5787850151600019600388901b60f8161c191681555b5050505050600190811b01905550565b600081518084526020808501808196508360051b8101915082860160005b8581101561361257828403895261360084835161304b565b988501989350908401906001016135e8565b5091979650505050505050565b6000808335601e1984360301811261363657600080fd5b83016020810192503590506001600160401b0381111561365557600080fd5b803603821315612b1857600080fd5b81835281816020850137506000828201602090810191909152601f909101601f19169091010190565b81835260006020808501808196508560051b81019150846000805b8881101561371f578385038a528235603e198936030181126136c8578283fd5b880160406136d6828061361f565b8289526136e6838a018284613664565b925050506136f68883018361361f565b92508782038989015261370a828483613664565b9c89019c9750505092860192506001016136a8565b509298975050505050505050565b6001600160a01b0388811682528716602082015260c0604080830182905287519183015260009061376261010084018261333b565b9050602088015160bf198483030160e085015261377f8282613077565b915050828103606084015286516080825261379d6080830182613077565b9050602088015182820360208401526137b68282613116565b915050604088015182820360408401526137d0828261304b565b915050606088015182820360608401526137ea828261304b565b92505050828103608084015261380081876135ca565b905082810360a084015261381581858761368d565b9a9950505050505050505050565b6001600160a01b03841681526060602082018190526000906138479083018561304b565b8281036040840152613859818561304b565b9695505050505050565b600082601f83011261387457600080fd5b81516138826126ca82612695565b81815284602083860101111561389757600080fd5b612fb3826020830160208701613027565b6000806000606084860312156138bd57600080fd5b83516001600160401b03808211156138d457600080fd5b6138e087838801613863565b945060208601519150808211156138f657600080fd5b61390287838801613863565b9350604086015191508082111561391857600080fd5b50612f6186828701613863565b606081526000613938606083018661304b565b828103602084015261394a818661304b565b90508281036040840152613859818561304b565b6001600160a01b0383168152604060208201819052600090612fb39083018461304b565b6001600160a01b0383168152604060208201819052600090612fb3908301846135ca565b6000602082840312156139b857600080fd5b81516001600160401b038111156139ce57600080fd5b612fb384828501613863565b600081546139e781613482565b808552602060018381168015613a045760018114613a1e57613a4c565b60ff1985168884015283151560051b880183019550613a4c565b866000528260002060005b85811015613a445781548a8201860152908301908401613a29565b890184019650505b505050505092915050565b608082526000613a6a60808401836139da565b8381036020850152613a7f81600185016139da565b90508381036040850152613a9681600285016139da565b90508381036060850152612fb381600385016139da565b604082526000613ac060408401836139da565b8381036020850152612fb381600185016139da565b606082526000613ae860608401836139da565b8381036020850152613afd81600185016139da565b90508381036040850152612fb381600285016139da565b60c082526000613b2760c08401836139da565b8381036020850152613b3c81600185016139da565b90508381036040850152613b5381600285016139da565b90508381036060850152613b6a81600385016139da565b90508381036080850152613b8181600485016139da565b905083810360a0850152612fb381600585016139da565b608082526000613bab6080840183613b14565b8381036020850152613bc08160068501613ad5565b90508381036040850152613bd781600985016139da565b90508381036060850152612fb381600a85016139da565b600082825480855260208086019550808260051b840101856000528160002060005b84811015613c4057858303601f19018952613c2b8383613aad565b98840198925060029190910190600101613c10565b5090979650505050505050565b600081548084526020808501808196508360051b81019150856000528260002060005b85811015613612578284038952613c8784836139da565b98850198935060019182019101613c70565b60c081526000613cac60c083018961304b565b87602084015282810360408401526040815260608060408301528060a0830152613cda6101008301896139da565b609f19808483030160c0850152828252613cf983830160018c016139da565b828103602084015260a08152613d1560a0820160028d016139da565b60038c0154602083015260048c0154604083015281810385830152613d3d8160058e016139da565b905060068c015460808301528381036040850152613d5e8160078e01613a57565b93505050808483030160e085015250613d7a81600b8b01613aad565b9050603f19808483030183850152613d9582600d8c01613ad5565b91508084830301608085015250613daf8160108b01613ad5565b90508281036020840152613dc68160138b01613b14565b9250508382038185015250613ddb8187613b98565b90508281036080840152613def8186613bee565b905082810360a0840152613e038185613c4d565b9998505050505050505050565b634e487b7160e01b600052603260045260246000fd5b60008235603e19833603018112613e3c57600080fd5b9190910192915050565b6000808335601e19843603018112613e5d57600080fd5b8301803591506001600160401b03821115613e7757600080fd5b602001915036819003821315612b1857600080fd5b600060018201613eac57634e487b7160e01b600052601160045260246000fd5b5060010190565b6001600160a01b038416815260406020820181905260009061310d908301848661368d565b60008154613ee581613482565b60018281168015613efd5760018114613f1257613f41565b60ff1984168752821515830287019450613f41565b8560005260208060002060005b85811015613f385781548a820152908401908201613f1f565b50505082870194505b5050505092915050565b6c1116101134b6b0b3b2911d101160991b8152600061120e600d830184613ed8565b693d913730b6b2911d101160b11b81528351600090613f9381600a850160208901613027565b72111610113232b9b1b934b83a34b7b7111d101160691b600a91840191820152613fc0601d820186613ed8565b90508351613fd2818360208801613027565b61227d60f01b91019081526002019594505050505056fea2646970667358221220e234c1d4dcdbb9a76fdc6aedf4a1cb98649fa513788adac4bacb04aa7f41773e64736f6c63430008110033",
  "linkReferences": {},
  "deployedLinkReferences": {}
}