{
  "_format": "hh-sol-artifact-1",
  "contractName": "FRSTSDK",
  "sourceName": "contracts/FRSTSDK.sol",
  "abi": [
    {
      "inputs": [
        {
          "internalType": "address",
          "name": "_FRST721AImplementation",
          "type": "address"
        },
        {
          "internalType": "address",
          "name": "_FRST4907AImplementation",
          "type": "address"
        },
        {
          "internalType": "address",
          "name": "_FRSTCrescendoImplementation",
          "type": "address"
        },
        {
          "internalType": "address",
          "name": "_FRSTVaultImplementation",
          "type": "address"
        },
        {
          "internalType": "address",
          "name": "_FRSTStakingImplementation",
          "type": "address"
        },
        {
          "internalType": "address",
          "name": "_metadataRenderer",
          "type": "address"
        },
        {
          "internalType": "address",
          "name": "_contractRegistry",
          "type": "address"
        },
        {
          "internalType": "address",
          "name": "_SplitMain",
          "type": "address"
        },
        {
          "internalType": "address",
          "name": "_ZKEditionImplementation",
          "type": "address"
        }
      ],
      "stateMutability": "nonpayable",
      "type": "constructor"
    },
    {
      "anonymous": false,
      "inputs": [
        {
          "indexed": false,
          "internalType": "address",
          "name": "FRST4907A",
          "type": "address"
        }
      ],
      "name": "DeployFRST4907A",
      "type": "event"
    },
    {
      "anonymous": false,
      "inputs": [
        {
          "indexed": false,
          "internalType": "address",
          "name": "FRST721A",
          "type": "address"
        }
      ],
      "name": "DeployFRST721A",
      "type": "event"
    },
    {
      "anonymous": false,
      "inputs": [
        {
          "indexed": false,
          "internalType": "address",
          "name": "FRSTCrescendo",
          "type": "address"
        }
      ],
      "name": "DeployFRSTCrescendo",
      "type": "event"
    },
    {
      "anonymous": false,
      "inputs": [
        {
          "indexed": false,
          "internalType": "address",
          "name": "FRSTStaking",
          "type": "address"
        }
      ],
      "name": "DeployFRSTStaking",
      "type": "event"
    },
    {
      "anonymous": false,
      "inputs": [
        {
          "indexed": false,
          "internalType": "address",
          "name": "FRSTVault",
          "type": "address"
        }
      ],
      "name": "DeployFRSTVault",
      "type": "event"
    },
    {
      "anonymous": false,
      "inputs": [
        {
          "indexed": false,
          "internalType": "address",
          "name": "ZKEdition",
          "type": "address"
        }
      ],
      "name": "DeployZKEdition",
      "type": "event"
    },
    {
      "anonymous": false,
      "inputs": [
        {
          "indexed": true,
          "internalType": "address",
          "name": "previousOwner",
          "type": "address"
        },
        {
          "indexed": true,
          "internalType": "address",
          "name": "newOwner",
          "type": "address"
        }
      ],
      "name": "OwnershipTransferred",
      "type": "event"
    },
    {
      "inputs": [],
      "name": "FRST4907AImplementation",
      "outputs": [
        {
          "internalType": "address",
          "name": "",
          "type": "address"
        }
      ],
      "stateMutability": "view",
      "type": "function"
    },
    {
      "inputs": [],
      "name": "FRST721AImplementation",
      "outputs": [
        {
          "internalType": "address",
          "name": "",
          "type": "address"
        }
      ],
      "stateMutability": "view",
      "type": "function"
    },
    {
      "inputs": [],
      "name": "FRSTCrescendoImplementation",
      "outputs": [
        {
          "internalType": "address",
          "name": "",
          "type": "address"
        }
      ],
      "stateMutability": "view",
      "type": "function"
    },
    {
      "inputs": [],
      "name": "FRSTStakingImplementation",
      "outputs": [
        {
          "internalType": "address",
          "name": "",
          "type": "address"
        }
      ],
      "stateMutability": "view",
      "type": "function"
    },
    {
      "inputs": [],
      "name": "FRSTVaultImplementation",
      "outputs": [
        {
          "internalType": "address",
          "name": "",
          "type": "address"
        }
      ],
      "stateMutability": "view",
      "type": "function"
    },
    {
      "inputs": [],
      "name": "SplitMain",
      "outputs": [
        {
          "internalType": "address",
          "name": "",
          "type": "address"
        }
      ],
      "stateMutability": "view",
      "type": "function"
    },
    {
      "inputs": [],
      "name": "ZKEditionImplementation",
      "outputs": [
        {
          "internalType": "address",
          "name": "",
          "type": "address"
        }
      ],
      "stateMutability": "view",
      "type": "function"
    },
    {
      "inputs": [],
      "name": "contractRegistry",
      "outputs": [
        {
          "internalType": "address",
          "name": "",
          "type": "address"
        }
      ],
      "stateMutability": "view",
      "type": "function"
    },
    {
      "inputs": [
        {
          "components": [
            {
              "internalType": "string",
              "name": "name",
              "type": "string"
            },
            {
              "internalType": "string",
              "name": "symbol",
              "type": "string"
            },
            {
              "internalType": "bool",
              "name": "hasAdjustableCap",
              "type": "bool"
            },
            {
              "internalType": "uint256",
              "name": "maxTokens",
              "type": "uint256"
            },
            {
              "internalType": "uint256",
              "name": "tokenPrice",
              "type": "uint256"
            },
            {
              "internalType": "uint256",
              "name": "maxTokenPurchase",
              "type": "uint256"
            },
            {
              "internalType": "bytes32",
              "name": "presaleMerkleRoot",
              "type": "bytes32"
            },
            {
              "internalType": "uint256",
              "name": "presaleStart",
              "type": "uint256"
            },
            {
              "internalType": "uint256",
              "name": "presaleEnd",
              "type": "uint256"
            },
            {
              "internalType": "uint256",
              "name": "saleStart",
              "type": "uint256"
            },
            {
              "internalType": "uint256",
              "name": "saleEnd",
              "type": "uint256"
            },
            {
              "internalType": "uint256",
              "name": "royaltyBPS",
              "type": "uint256"
            }
          ],
          "internalType": "struct EditionConfig",
          "name": "_editionConfig",
          "type": "tuple"
        },
        {
          "components": [
            {
              "internalType": "string",
              "name": "contractURI",
              "type": "string"
            },
            {
              "internalType": "string",
              "name": "metadataURI",
              "type": "string"
            },
            {
              "internalType": "bytes",
              "name": "metadataRendererInit",
              "type": "bytes"
            },
            {
              "internalType": "address",
              "name": "parentIP",
              "type": "address"
            }
          ],
          "internalType": "struct MetadataConfig",
          "name": "_metadataConfig",
          "type": "tuple"
        },
        {
          "components": [
            {
              "internalType": "address",
              "name": "tokenAddress",
              "type": "address"
            },
            {
              "internalType": "uint88",
              "name": "minBalance",
              "type": "uint88"
            },
            {
              "internalType": "enum SaleType",
              "name": "saleType",
              "type": "uint8"
            }
          ],
          "internalType": "struct TokenGateConfig",
          "name": "_tokenGateConfig",
          "type": "tuple"
        }
      ],
      "name": "deployFRST4907A",
      "outputs": [
        {
          "internalType": "address",
          "name": "clone",
          "type": "address"
        }
      ],
      "stateMutability": "nonpayable",
      "type": "function"
    },
    {
      "inputs": [
        {
          "components": [
            {
              "internalType": "string",
              "name": "name",
              "type": "string"
            },
            {
              "internalType": "string",
              "name": "symbol",
              "type": "string"
            },
            {
              "internalType": "bool",
              "name": "hasAdjustableCap",
              "type": "bool"
            },
            {
              "internalType": "uint256",
              "name": "maxTokens",
              "type": "uint256"
            },
            {
              "internalType": "uint256",
              "name": "tokenPrice",
              "type": "uint256"
            },
            {
              "internalType": "uint256",
              "name": "maxTokenPurchase",
              "type": "uint256"
            },
            {
              "internalType": "bytes32",
              "name": "presaleMerkleRoot",
              "type": "bytes32"
            },
            {
              "internalType": "uint256",
              "name": "presaleStart",
              "type": "uint256"
            },
            {
              "internalType": "uint256",
              "name": "presaleEnd",
              "type": "uint256"
            },
            {
              "internalType": "uint256",
              "name": "saleStart",
              "type": "uint256"
            },
            {
              "internalType": "uint256",
              "name": "saleEnd",
              "type": "uint256"
            },
            {
              "internalType": "uint256",
              "name": "royaltyBPS",
              "type": "uint256"
            }
          ],
          "internalType": "struct EditionConfig",
          "name": "_editionConfig",
          "type": "tuple"
        },
        {
          "components": [
            {
              "internalType": "string",
              "name": "contractURI",
              "type": "string"
            },
            {
              "internalType": "string",
              "name": "metadataURI",
              "type": "string"
            },
            {
              "internalType": "bytes",
              "name": "metadataRendererInit",
              "type": "bytes"
            },
            {
              "internalType": "address",
              "name": "parentIP",
              "type": "address"
            }
          ],
          "internalType": "struct MetadataConfig",
          "name": "_metadataConfig",
          "type": "tuple"
        },
        {
          "components": [
            {
              "internalType": "address",
              "name": "tokenAddress",
              "type": "address"
            },
            {
              "internalType": "uint88",
              "name": "minBalance",
              "type": "uint88"
            },
            {
              "internalType": "enum SaleType",
              "name": "saleType",
              "type": "uint8"
            }
          ],
          "internalType": "struct TokenGateConfig",
          "name": "_tokenGateConfig",
          "type": "tuple"
        }
      ],
      "name": "deployFRST721A",
      "outputs": [
        {
          "internalType": "address",
          "name": "clone",
          "type": "address"
        }
      ],
      "stateMutability": "nonpayable",
      "type": "function"
    },
    {
      "inputs": [
        {
          "components": [
            {
              "internalType": "string",
              "name": "name",
              "type": "string"
            },
            {
              "internalType": "string",
              "name": "symbol",
              "type": "string"
            },
            {
              "internalType": "uint256",
              "name": "initialPrice",
              "type": "uint256"
            },
            {
              "internalType": "uint256",
              "name": "step1",
              "type": "uint256"
            },
            {
              "internalType": "uint256",
              "name": "step2",
              "type": "uint256"
            },
            {
              "internalType": "uint256",
              "name": "hitch",
              "type": "uint256"
            },
            {
              "internalType": "uint256",
              "name": "takeRateBPS",
              "type": "uint256"
            },
            {
              "internalType": "uint256",
              "name": "unlockDate",
              "type": "uint256"
            },
            {
              "internalType": "uint256",
              "name": "saleStart",
              "type": "uint256"
            },
            {
              "internalType": "uint256",
              "name": "royaltyBPS",
              "type": "uint256"
            }
          ],
          "internalType": "struct CrescendoConfig",
          "name": "_config",
          "type": "tuple"
        },
        {
          "components": [
            {
              "internalType": "string",
              "name": "contractURI",
              "type": "string"
            },
            {
              "internalType": "string",
              "name": "metadataURI",
              "type": "string"
            },
            {
              "internalType": "bytes",
              "name": "metadataRendererInit",
              "type": "bytes"
            },
            {
              "internalType": "address",
              "name": "parentIP",
              "type": "address"
            }
          ],
          "internalType": "struct MetadataConfig",
          "name": "_metadataConfig",
          "type": "tuple"
        }
      ],
      "name": "deployFRSTCrescendo",
      "outputs": [
        {
          "internalType": "address",
          "name": "clone",
          "type": "address"
        }
      ],
      "stateMutability": "nonpayable",
      "type": "function"
    },
    {
      "inputs": [
        {
          "internalType": "address",
          "name": "_nft",
          "type": "address"
        },
        {
          "internalType": "address",
          "name": "_token",
          "type": "address"
        },
        {
          "internalType": "uint256",
          "name": "_vaultDuration",
          "type": "uint256"
        },
        {
          "internalType": "uint256",
          "name": "_totalSupply",
          "type": "uint256"
        }
      ],
      "name": "deployFRSTStaking",
      "outputs": [
        {
          "internalType": "address",
          "name": "clone",
          "type": "address"
        }
      ],
      "stateMutability": "nonpayable",
      "type": "function"
    },
    {
      "inputs": [
        {
          "internalType": "address",
          "name": "_vaultDistributionTokenAddress",
          "type": "address"
        },
        {
          "internalType": "address",
          "name": "_nftVaultKeyAddress",
          "type": "address"
        },
        {
          "internalType": "uint256",
          "name": "_nftTotalSupply",
          "type": "uint256"
        },
        {
          "internalType": "uint256",
          "name": "_unlockDate",
          "type": "uint256"
        }
      ],
      "name": "deployFRSTVault",
      "outputs": [
        {
          "internalType": "address",
          "name": "clone",
          "type": "address"
        }
      ],
      "stateMutability": "nonpayable",
      "type": "function"
    },
    {
      "inputs": [
        {
          "components": [
            {
              "internalType": "string",
              "name": "name",
              "type": "string"
            },
            {
              "internalType": "string",
              "name": "symbol",
              "type": "string"
            },
            {
              "internalType": "bool",
              "name": "hasAdjustableCap",
              "type": "bool"
            },
            {
              "internalType": "uint256",
              "name": "maxTokens",
              "type": "uint256"
            },
            {
              "internalType": "uint256",
              "name": "tokenPrice",
              "type": "uint256"
            },
            {
              "internalType": "uint256",
              "name": "maxTokenPurchase",
              "type": "uint256"
            },
            {
              "internalType": "bytes32",
              "name": "presaleMerkleRoot",
              "type": "bytes32"
            },
            {
              "internalType": "uint256",
              "name": "presaleStart",
              "type": "uint256"
            },
            {
              "internalType": "uint256",
              "name": "presaleEnd",
              "type": "uint256"
            },
            {
              "internalType": "uint256",
              "name": "saleStart",
              "type": "uint256"
            },
            {
              "internalType": "uint256",
              "name": "saleEnd",
              "type": "uint256"
            },
            {
              "internalType": "uint256",
              "name": "royaltyBPS",
              "type": "uint256"
            }
          ],
          "internalType": "struct EditionConfig",
          "name": "_editionConfig",
          "type": "tuple"
        },
        {
          "components": [
            {
              "internalType": "string",
              "name": "contractURI",
              "type": "string"
            },
            {
              "internalType": "string",
              "name": "metadataURI",
              "type": "string"
            },
            {
              "internalType": "bytes",
              "name": "metadataRendererInit",
              "type": "bytes"
            },
            {
              "internalType": "address",
              "name": "parentIP",
              "type": "address"
            }
          ],
          "internalType": "struct MetadataConfig",
          "name": "_metadataConfig",
          "type": "tuple"
        },
        {
          "components": [
            {
              "internalType": "address",
              "name": "tokenAddress",
              "type": "address"
            },
            {
              "internalType": "uint88",
              "name": "minBalance",
              "type": "uint88"
            },
            {
              "internalType": "enum SaleType",
              "name": "saleType",
              "type": "uint8"
            }
          ],
          "internalType": "struct TokenGateConfig",
          "name": "_tokenGateConfig",
          "type": "tuple"
        },
        {
          "internalType": "address",
          "name": "zkVerifier",
          "type": "address"
        }
      ],
      "name": "deployZKEdition",
      "outputs": [
        {
          "internalType": "address",
          "name": "clone",
          "type": "address"
        }
      ],
      "stateMutability": "nonpayable",
      "type": "function"
    },
    {
      "inputs": [],
      "name": "metadataRenderer",
      "outputs": [
        {
          "internalType": "address",
          "name": "",
          "type": "address"
        }
      ],
      "stateMutability": "view",
      "type": "function"
    },
    {
      "inputs": [],
      "name": "owner",
      "outputs": [
        {
          "internalType": "address",
          "name": "",
          "type": "address"
        }
      ],
      "stateMutability": "view",
      "type": "function"
    },
    {
      "inputs": [],
      "name": "renounceOwnership",
      "outputs": [],
      "stateMutability": "nonpayable",
      "type": "function"
    },
    {
      "inputs": [
        {
          "internalType": "address",
          "name": "newOwner",
          "type": "address"
        }
      ],
      "name": "transferOwnership",
      "outputs": [],
      "stateMutability": "nonpayable",
      "type": "function"
    }
  ],
  "bytecode": "0x60806040523480156200001157600080fd5b50604051620019a9380380620019a983398101604081905262000034916200014d565b6200003f33620000e0565b600180546001600160a01b03199081166001600160a01b039b8c1617909155600280548216998b1699909917909855600380548916978a1697909717909655600480548816958916959095179094556005805487169388169390931790925560078054861691871691909117905560088054851691861691909117905560098054841691851691909117905560068054909216921691909117905562000208565b600080546001600160a01b038381166001600160a01b0319831681178455604051919092169283917f8be0079c531659141344cd1fd0a4f28419497f9722a3daafe3b4186f6b6457e09190a35050565b80516001600160a01b03811681146200014857600080fd5b919050565b60008060008060008060008060006101208a8c0312156200016d57600080fd5b620001788a62000130565b98506200018860208b0162000130565b97506200019860408b0162000130565b9650620001a860608b0162000130565b9550620001b860808b0162000130565b9450620001c860a08b0162000130565b9350620001d860c08b0162000130565b9250620001e860e08b0162000130565b9150620001f96101008b0162000130565b90509295985092959850929598565b61179180620002186000396000f3fe608060405234801561001057600080fd5b50600436106101165760003560e01c8063abf410e5116100a2578063e295877c11610071578063e295877c14610223578063e8c1dd6b14610236578063eef702e914610249578063f2fde38b1461025c578063f4c1b1361461026f57600080fd5b8063abf410e5146101d7578063b60bf6ab146101ea578063c6ab865c146101fd578063d0ae315a1461021057600080fd5b80636d6f81c8116100e95780636d6f81c8146101835780637031997014610196578063715018a6146101a95780638101a86e146101b35780638da5cb5b146101c657600080fd5b8063069265231461011b57806333a4b97a1461014a57806343d193d91461015d5780636c35f9cc14610170575b600080fd5b60025461012e906001600160a01b031681565b6040516001600160a01b03909116815260200160405180910390f35b61012e610158366004611163565b610282565b61012e61016b3660046111d8565b610420565b60035461012e906001600160a01b031681565b60015461012e906001600160a01b031681565b60075461012e906001600160a01b031681565b6101b16105c4565b005b61012e6101c1366004611163565b6105d8565b6000546001600160a01b031661012e565b60085461012e906001600160a01b031681565b60055461012e906001600160a01b031681565b60045461012e906001600160a01b031681565b60065461012e906001600160a01b031681565b61012e61023136600461121a565b61076a565b61012e6102443660046112a0565b6108fe565b60095461012e906001600160a01b031681565b6101b161026a3660046113ad565b610a99565b61012e61027d3660046111d8565b610b17565b60015460009061029a906001600160a01b0316610cb0565b6007546009546040519293506000926001600160a01b03808616936102d09333938b938b938b939082169291169060240161157e565b60408051601f198184030181529181526020820180516001600160e01b03166364f7af7760e11b1790525161030591906115e4565b6000604051808303816000865af19150503d8060008114610342576040519150601f19603f3d011682016040523d82523d6000602084013e610347565b606091505b505090508061035557600080fd5b6008805460405163ede4973960e01b81523360048201526001600160a01b03858116602483015260606044830152606482019390935267465253543732314160c01b608482015291169063ede497399060a401600060405180830381600087803b1580156103c257600080fd5b505af11580156103d6573d6000803e3d6000fd5b50506040516001600160a01b03851681527f71a28dc1f6ee790c95fdb6066ef840b0b1cb335fc7adbfeb16b09ac87120fd32925060200190505b60405180910390a1509392505050565b600454600090610438906001600160a01b0316610cb0565b6040513360248201526001600160a01b03878116604483015286811660648301526084820186905260a4820185905291925060009183169060c40160408051601f198184030181529181526020820180516001600160e01b03166314d6c7d760e31b179052516104a891906115e4565b6000604051808303816000865af19150503d80600081146104e5576040519150601f19603f3d011682016040523d82523d6000602084013e6104ea565b606091505b50509050806104f857600080fd5b60085460405163ede4973960e01b81523360048201526001600160a01b038481166024830152606060448301526009606483015268119494d515985d5b1d60ba1b60848301529091169063ede497399060a401600060405180830381600087803b15801561056557600080fd5b505af1158015610579573d6000803e3d6000fd5b50506040516001600160a01b03851681527fc03bc44e43bafc456cd509e7c93adf36c01da5b69194ca067e5faf2732abc92c925060200190505b60405180910390a150949350505050565b6105cc610d4a565b6105d66000610da4565b565b6002546000906105f0906001600160a01b0316610cb0565b6007546009546040519293506000926001600160a01b03808616936106269333938b938b938b939082169291169060240161157e565b60408051601f198184030181529181526020820180516001600160e01b03166364f7af7760e11b1790525161065b91906115e4565b6000604051808303816000865af19150503d8060008114610698576040519150601f19603f3d011682016040523d82523d6000602084013e61069d565b606091505b50509050806106ab57600080fd5b60085460405163ede4973960e01b81523360048201526001600160a01b03848116602483015260606044830152600960648301526846525354343930374160b81b60848301529091169063ede497399060a401600060405180830381600087803b15801561071857600080fd5b505af115801561072c573d6000803e3d6000fd5b50506040516001600160a01b03851681527f3a413a7d2bc61322f7560eb6b61bccfcc8fdfb4a9f588aff00137c6505b20db992506020019050610410565b600654600090610782906001600160a01b0316610cb0565b6007546009546040519293506000926001600160a01b03808616936107ba9333938c938c938c93908216929116908b90602401611600565b60408051601f198184030181529181526020820180516001600160e01b0316637385777f60e11b179052516107ef91906115e4565b6000604051808303816000865af19150503d806000811461082c576040519150601f19603f3d011682016040523d82523d6000602084013e610831565b606091505b505090508061083f57600080fd5b60085460405163ede4973960e01b81523360048201526001600160a01b0384811660248301526060604483015260096064830152682d25a2b234ba34b7b760b91b60848301529091169063ede497399060a401600060405180830381600087803b1580156108ac57600080fd5b505af11580156108c0573d6000803e3d6000fd5b50506040516001600160a01b03851681527f49451ac6869c0fa590f484823265bd786e5c483c78431c2fc0cc2f7f939678e4925060200190506105b3565b600354600090610916906001600160a01b0316610cb0565b6007546009546040519293506000926001600160a01b03808616936109489333938a938a93811692169060240161166e565b60408051601f198184030181529181526020820180516001600160e01b0316624ee2bb60e71b1790525161097c91906115e4565b6000604051808303816000865af19150503d80600081146109b9576040519150601f19603f3d011682016040523d82523d6000602084013e6109be565b606091505b50509050806109cc57600080fd5b60085460405163ede4973960e01b81523360048201526001600160a01b03848116602483015260606044830152600d60648301526c465253544372657363656e646f60981b60848301529091169063ede497399060a401600060405180830381600087803b158015610a3d57600080fd5b505af1158015610a51573d6000803e3d6000fd5b50506040516001600160a01b03851681527f7238101059c29453bfc5bb56ccbdd649c9973e132b978c21428d5290730379249250602001905060405180910390a15092915050565b610aa1610d4a565b6001600160a01b038116610b0b5760405162461bcd60e51b815260206004820152602660248201527f4f776e61626c653a206e6577206f776e657220697320746865207a65726f206160448201526564647265737360d01b60648201526084015b60405180910390fd5b610b1481610da4565b50565b600554600090610b2f906001600160a01b0316610cb0565b6040513360248201526001600160a01b03878116604483015286811660648301526084820186905260a4820185905291925060009183169060c40160408051601f198184030181529181526020820180516001600160e01b03166314d6c7d760e31b17905251610b9f91906115e4565b6000604051808303816000865af19150503d8060008114610bdc576040519150601f19603f3d011682016040523d82523d6000602084013e610be1565b606091505b5050905080610bef57600080fd5b60085460405163ede4973960e01b81523360048201526001600160a01b03848116602483015260606044830152600b60648301526a465253545374616b696e6760a81b60848301529091169063ede497399060a401600060405180830381600087803b158015610c5e57600080fd5b505af1158015610c72573d6000803e3d6000fd5b50506040516001600160a01b03851681527ff46c3a9bd5e96f6acb401575f2c06fb0b113fcc540688a03f37520f2e5fc4227925060200190506105b3565b6000763d602d80600a3d3981f3363d3d373d3d3d363d730000008260601b60e81c176000526e5af43d82803e903d91602b57fd5bf38260781b17602052603760096000f090506001600160a01b038116610d455760405162461bcd60e51b8152602060048201526016602482015275115490cc4c4d8dce8818dc99585d194819985a5b195960521b6044820152606401610b02565b919050565b6000546001600160a01b031633146105d65760405162461bcd60e51b815260206004820181905260248201527f4f776e61626c653a2063616c6c6572206973206e6f7420746865206f776e65726044820152606401610b02565b600080546001600160a01b038381166001600160a01b0319831681178455604051919092169283917f8be0079c531659141344cd1fd0a4f28419497f9722a3daafe3b4186f6b6457e09190a35050565b634e487b7160e01b600052604160045260246000fd5b604051610180810167ffffffffffffffff81118282101715610e2e57610e2e610df4565b60405290565b6040516080810167ffffffffffffffff81118282101715610e2e57610e2e610df4565b604051610140810167ffffffffffffffff81118282101715610e2e57610e2e610df4565b600067ffffffffffffffff80841115610e9657610e96610df4565b604051601f8501601f19908116603f01168101908282118183101715610ebe57610ebe610df4565b81604052809350858152868686011115610ed757600080fd5b858560208301376000602087830101525050509392505050565b600082601f830112610f0257600080fd5b610f1183833560208501610e7b565b9392505050565b80358015158114610d4557600080fd5b60006101808284031215610f3b57600080fd5b610f43610e0a565b9050813567ffffffffffffffff80821115610f5d57600080fd5b610f6985838601610ef1565b83526020840135915080821115610f7f57600080fd5b50610f8c84828501610ef1565b602083015250610f9e60408301610f18565b6040820152606082013560608201526080820135608082015260a082013560a082015260c082013560c082015260e082013560e082015261010080830135818301525061012080830135818301525061014080830135818301525061016080830135818301525092915050565b80356001600160a01b0381168114610d4557600080fd5b60006080828403121561103457600080fd5b61103c610e34565b9050813567ffffffffffffffff8082111561105657600080fd5b61106285838601610ef1565b8352602084013591508082111561107857600080fd5b61108485838601610ef1565b6020840152604084013591508082111561109d57600080fd5b508201601f810184136110af57600080fd5b6110be84823560208401610e7b565b6040830152506110d06060830161100b565b606082015292915050565b6000606082840312156110ed57600080fd5b6040516060810181811067ffffffffffffffff8211171561111057611110610df4565b60405290508061111f8361100b565b815260208301356affffffffffffffffffffff8116811461113f57600080fd5b602082015260408301356003811061115657600080fd5b6040919091015292915050565b600080600060a0848603121561117857600080fd5b833567ffffffffffffffff8082111561119057600080fd5b61119c87838801610f28565b945060208601359150808211156111b257600080fd5b506111bf86828701611022565b9250506111cf85604086016110db565b90509250925092565b600080600080608085870312156111ee57600080fd5b6111f78561100b565b93506112056020860161100b565b93969395505050506040820135916060013590565b60008060008060c0858703121561123057600080fd5b843567ffffffffffffffff8082111561124857600080fd5b61125488838901610f28565b9550602087013591508082111561126a57600080fd5b5061127787828801611022565b93505061128786604087016110db565b915061129560a0860161100b565b905092959194509250565b600080604083850312156112b357600080fd5b823567ffffffffffffffff808211156112cb57600080fd5b9084019061014082870312156112e057600080fd5b6112e8610e57565b8235828111156112f757600080fd5b61130388828601610ef1565b82525060208301358281111561131857600080fd5b61132488828601610ef1565b60208301525060408301356040820152606083013560608201526080830135608082015260a083013560a082015260c083013560c082015260e083013560e082015261010080840135818301525061012080840135818301525080945050602085013591508082111561139657600080fd5b506113a385828601611022565b9150509250929050565b6000602082840312156113bf57600080fd5b610f118261100b565b60005b838110156113e35781810151838201526020016113cb565b50506000910152565b600081518084526114048160208601602086016113c8565b601f01601f19169290920160200192915050565b6000610180825181855261142e828601826113ec565b9150506020830151848203602086015261144882826113ec565b915050604083015161145e604086018215159052565b50606083810151908501526080808401519085015260a0808401519085015260c0808401519085015260e080840151908501526101008084015190850152610120808401519085015261014080840151908501526101609283015192909301919091525090565b60008151608084526114da60808501826113ec565b9050602083015184820360208601526114f382826113ec565b9150506040830151848203604086015261150d82826113ec565b6060948501516001600160a01b03169590940194909452509092915050565b80516001600160a01b031682526020808201516affffffffffffffffffffff169083015260408101516003811061157357634e487b7160e01b600052602160045260246000fd5b806040840152505050565b6001600160a01b038781168252610100602083018190526000916115a48483018a611418565b915083820360408501526115b882896114c5565b92506115c7606085018861152c565b80861660c085015280851660e08501525050979650505050505050565b600082516115f68184602087016113c8565b9190910192915050565b6001600160a01b038881168252610120602083018190526000916116268483018b611418565b9150838203604085015261163a828a6114c5565b9250611649606085018961152c565b95861660c08401525092841660e0820152921661010090920191909152949350505050565b60018060a01b038616815260a06020820152600085516101408060a085015261169b6101e08501836113ec565b91506020880151609f198584030160c08601526116b883826113ec565b925050604088015160e08501526060880151610100818187015260808a01519150610120828188015260a08b01518488015260c08b015161016088015260e08b0151610180880152818b01516101a0880152808b01516101c088015250505050828103604084015261172a81876114c5565b91505061174260608301856001600160a01b03169052565b6001600160a01b0383166080830152969550505050505056fea2646970667358221220dea5f48bb1946839469b208e9d82351060b2721590507abcc70d50ed4c0344bc64736f6c63430008110033",
  "linkReferences": {},
  "deployedLinkReferences": {}
}