{
  "_format": "hh-sol-artifact-1",
  "contractName": "FRSTCrescendo",
  "sourceName": "contracts/FRSTCrescendo.sol",
  "abi": [
    {
      "anonymous": false,
      "inputs": [
        {
          "indexed": true,
          "internalType": "address",
          "name": "owner",
          "type": "address"
        },
        {
          "indexed": true,
          "internalType": "address",
          "name": "operator",
          "type": "address"
        },
        {
          "indexed": false,
          "internalType": "bool",
          "name": "approved",
          "type": "bool"
        }
      ],
      "name": "ApprovalForAll",
      "type": "event"
    },
    {
      "anonymous": false,
      "inputs": [
        {
          "indexed": true,
          "internalType": "address",
          "name": "sender",
          "type": "address"
        },
        {
          "indexed": false,
          "internalType": "uint256",
          "name": "amount",
          "type": "uint256"
        },
        {
          "indexed": false,
          "internalType": "uint256",
          "name": "id",
          "type": "uint256"
        },
        {
          "indexed": false,
          "internalType": "uint256",
          "name": "reimbursement",
          "type": "uint256"
        }
      ],
      "name": "CurvedBurn",
      "type": "event"
    },
    {
      "anonymous": false,
      "inputs": [
        {
          "indexed": true,
          "internalType": "address",
          "name": "sender",
          "type": "address"
        },
        {
          "indexed": false,
          "internalType": "uint256",
          "name": "amount",
          "type": "uint256"
        },
        {
          "indexed": false,
          "internalType": "uint256",
          "name": "id",
          "type": "uint256"
        },
        {
          "indexed": false,
          "internalType": "uint256",
          "name": "deposit",
          "type": "uint256"
        }
      ],
      "name": "CurvedMint",
      "type": "event"
    },
    {
      "anonymous": false,
      "inputs": [
        {
          "indexed": false,
          "internalType": "uint8",
          "name": "version",
          "type": "uint8"
        }
      ],
      "name": "Initialized",
      "type": "event"
    },
    {
      "anonymous": false,
      "inputs": [
        {
          "indexed": true,
          "internalType": "address",
          "name": "previousOwner",
          "type": "address"
        },
        {
          "indexed": true,
          "internalType": "address",
          "name": "newOwner",
          "type": "address"
        }
      ],
      "name": "OwnershipTransferred",
      "type": "event"
    },
    {
      "anonymous": false,
      "inputs": [
        {
          "indexed": true,
          "internalType": "address",
          "name": "operator",
          "type": "address"
        },
        {
          "indexed": true,
          "internalType": "address",
          "name": "from",
          "type": "address"
        },
        {
          "indexed": true,
          "internalType": "address",
          "name": "to",
          "type": "address"
        },
        {
          "indexed": false,
          "internalType": "uint256[]",
          "name": "ids",
          "type": "uint256[]"
        },
        {
          "indexed": false,
          "internalType": "uint256[]",
          "name": "amounts",
          "type": "uint256[]"
        }
      ],
      "name": "TransferBatch",
      "type": "event"
    },
    {
      "anonymous": false,
      "inputs": [
        {
          "indexed": true,
          "internalType": "address",
          "name": "operator",
          "type": "address"
        },
        {
          "indexed": true,
          "internalType": "address",
          "name": "from",
          "type": "address"
        },
        {
          "indexed": true,
          "internalType": "address",
          "name": "to",
          "type": "address"
        },
        {
          "indexed": false,
          "internalType": "uint256",
          "name": "id",
          "type": "uint256"
        },
        {
          "indexed": false,
          "internalType": "uint256",
          "name": "amount",
          "type": "uint256"
        }
      ],
      "name": "TransferSingle",
      "type": "event"
    },
    {
      "anonymous": false,
      "inputs": [
        {
          "indexed": false,
          "internalType": "string",
          "name": "value",
          "type": "string"
        },
        {
          "indexed": true,
          "internalType": "uint256",
          "name": "id",
          "type": "uint256"
        }
      ],
      "name": "URI",
      "type": "event"
    },
    {
      "inputs": [
        {
          "internalType": "address",
          "name": "",
          "type": "address"
        },
        {
          "internalType": "uint256",
          "name": "",
          "type": "uint256"
        }
      ],
      "name": "balanceOf",
      "outputs": [
        {
          "internalType": "uint256",
          "name": "",
          "type": "uint256"
        }
      ],
      "stateMutability": "view",
      "type": "function"
    },
    {
      "inputs": [
        {
          "internalType": "address[]",
          "name": "owners",
          "type": "address[]"
        },
        {
          "internalType": "uint256[]",
          "name": "ids",
          "type": "uint256[]"
        }
      ],
      "name": "balanceOfBatch",
      "outputs": [
        {
          "internalType": "uint256[]",
          "name": "balances",
          "type": "uint256[]"
        }
      ],
      "stateMutability": "view",
      "type": "function"
    },
    {
      "inputs": [
        {
          "internalType": "uint256",
          "name": "id",
          "type": "uint256"
        }
      ],
      "name": "buy",
      "outputs": [],
      "stateMutability": "payable",
      "type": "function"
    },
    {
      "inputs": [
        {
          "internalType": "uint256",
          "name": "amount",
          "type": "uint256"
        },
        {
          "internalType": "uint256",
          "name": "id",
          "type": "uint256"
        }
      ],
      "name": "calculateCurvedBurnReturn",
      "outputs": [
        {
          "internalType": "uint256",
          "name": "",
          "type": "uint256"
        }
      ],
      "stateMutability": "view",
      "type": "function"
    },
    {
      "inputs": [
        {
          "internalType": "uint256",
          "name": "amount",
          "type": "uint256"
        },
        {
          "internalType": "uint256",
          "name": "id",
          "type": "uint256"
        }
      ],
      "name": "calculateCurvedMintReturn",
      "outputs": [
        {
          "internalType": "uint256",
          "name": "",
          "type": "uint256"
        }
      ],
      "stateMutability": "view",
      "type": "function"
    },
    {
      "inputs": [],
      "name": "contractURI",
      "outputs": [
        {
          "internalType": "string",
          "name": "",
          "type": "string"
        }
      ],
      "stateMutability": "view",
      "type": "function"
    },
    {
      "inputs": [
        {
          "internalType": "address[]",
          "name": "accounts",
          "type": "address[]"
        },
        {
          "internalType": "uint32[]",
          "name": "percentAllocations",
          "type": "uint32[]"
        },
        {
          "internalType": "uint32",
          "name": "distributorFee",
          "type": "uint32"
        }
      ],
      "name": "createSplit",
      "outputs": [],
      "stateMutability": "nonpayable",
      "type": "function"
    },
    {
      "inputs": [
        {
          "internalType": "address",
          "name": "account",
          "type": "address"
        },
        {
          "internalType": "uint256",
          "name": "withdrawETH",
          "type": "uint256"
        },
        {
          "internalType": "contract ERC20[]",
          "name": "tokens",
          "type": "address[]"
        },
        {
          "internalType": "address[]",
          "name": "accounts",
          "type": "address[]"
        },
        {
          "internalType": "uint32[]",
          "name": "percentAllocations",
          "type": "uint32[]"
        },
        {
          "internalType": "uint32",
          "name": "distributorFee",
          "type": "uint32"
        },
        {
          "internalType": "address",
          "name": "distributorAddress",
          "type": "address"
        }
      ],
      "name": "distributeAndWithdraw",
      "outputs": [],
      "stateMutability": "nonpayable",
      "type": "function"
    },
    {
      "inputs": [
        {
          "internalType": "address",
          "name": "account",
          "type": "address"
        },
        {
          "internalType": "uint256",
          "name": "withdrawETH",
          "type": "uint256"
        },
        {
          "internalType": "contract ERC20[]",
          "name": "tokens",
          "type": "address[]"
        },
        {
          "internalType": "address[]",
          "name": "accounts",
          "type": "address[]"
        },
        {
          "internalType": "uint32[]",
          "name": "percentAllocations",
          "type": "uint32[]"
        },
        {
          "internalType": "uint32",
          "name": "distributorFee",
          "type": "uint32"
        },
        {
          "internalType": "address",
          "name": "distributorAddress",
          "type": "address"
        }
      ],
      "name": "distributeAndWithdrawFund",
      "outputs": [],
      "stateMutability": "nonpayable",
      "type": "function"
    },
    {
      "inputs": [
        {
          "internalType": "contract ERC20",
          "name": "token",
          "type": "address"
        },
        {
          "internalType": "address[]",
          "name": "accounts",
          "type": "address[]"
        },
        {
          "internalType": "uint32[]",
          "name": "percentAllocations",
          "type": "uint32[]"
        },
        {
          "internalType": "uint32",
          "name": "distributorFee",
          "type": "uint32"
        },
        {
          "internalType": "address",
          "name": "distributorAddress",
          "type": "address"
        }
      ],
      "name": "distributeERC20",
      "outputs": [],
      "stateMutability": "nonpayable",
      "type": "function"
    },
    {
      "inputs": [
        {
          "internalType": "address[]",
          "name": "accounts",
          "type": "address[]"
        },
        {
          "internalType": "uint32[]",
          "name": "percentAllocations",
          "type": "uint32[]"
        },
        {
          "internalType": "uint32",
          "name": "distributorFee",
          "type": "uint32"
        },
        {
          "internalType": "address",
          "name": "distributorAddress",
          "type": "address"
        }
      ],
      "name": "distributeETH",
      "outputs": [],
      "stateMutability": "nonpayable",
      "type": "function"
    },
    {
      "inputs": [],
      "name": "flipSaleState",
      "outputs": [],
      "stateMutability": "nonpayable",
      "type": "function"
    },
    {
      "inputs": [],
      "name": "hitch",
      "outputs": [
        {
          "internalType": "uint256",
          "name": "",
          "type": "uint256"
        }
      ],
      "stateMutability": "view",
      "type": "function"
    },
    {
      "inputs": [
        {
          "internalType": "address",
          "name": "_owner",
          "type": "address"
        },
        {
          "components": [
            {
              "internalType": "string",
              "name": "name",
              "type": "string"
            },
            {
              "internalType": "string",
              "name": "symbol",
              "type": "string"
            },
            {
              "internalType": "uint256",
              "name": "initialPrice",
              "type": "uint256"
            },
            {
              "internalType": "uint256",
              "name": "step1",
              "type": "uint256"
            },
            {
              "internalType": "uint256",
              "name": "step2",
              "type": "uint256"
            },
            {
              "internalType": "uint256",
              "name": "hitch",
              "type": "uint256"
            },
            {
              "internalType": "uint256",
              "name": "takeRateBPS",
              "type": "uint256"
            },
            {
              "internalType": "uint256",
              "name": "unlockDate",
              "type": "uint256"
            },
            {
              "internalType": "uint256",
              "name": "saleStart",
              "type": "uint256"
            },
            {
              "internalType": "uint256",
              "name": "royaltyBPS",
              "type": "uint256"
            }
          ],
          "internalType": "struct CrescendoConfig",
          "name": "_config",
          "type": "tuple"
        },
        {
          "components": [
            {
              "internalType": "string",
              "name": "contractURI",
              "type": "string"
            },
            {
              "internalType": "string",
              "name": "metadataURI",
              "type": "string"
            },
            {
              "internalType": "bytes",
              "name": "metadataRendererInit",
              "type": "bytes"
            },
            {
              "internalType": "address",
              "name": "parentIP",
              "type": "address"
            }
          ],
          "internalType": "struct MetadataConfig",
          "name": "_metadataConfig",
          "type": "tuple"
        },
        {
          "internalType": "address",
          "name": "_metadataRenderer",
          "type": "address"
        },
        {
          "internalType": "address",
          "name": "_splitMain",
          "type": "address"
        }
      ],
      "name": "initialize",
      "outputs": [],
      "stateMutability": "nonpayable",
      "type": "function"
    },
    {
      "inputs": [
        {
          "internalType": "address",
          "name": "",
          "type": "address"
        },
        {
          "internalType": "address",
          "name": "",
          "type": "address"
        }
      ],
      "name": "isApprovedForAll",
      "outputs": [
        {
          "internalType": "bool",
          "name": "",
          "type": "bool"
        }
      ],
      "stateMutability": "view",
      "type": "function"
    },
    {
      "inputs": [],
      "name": "liquidity",
      "outputs": [
        {
          "internalType": "uint256",
          "name": "",
          "type": "uint256"
        }
      ],
      "stateMutability": "view",
      "type": "function"
    },
    {
      "inputs": [],
      "name": "metadataRenderer",
      "outputs": [
        {
          "internalType": "address",
          "name": "",
          "type": "address"
        }
      ],
      "stateMutability": "view",
      "type": "function"
    },
    {
      "inputs": [],
      "name": "name",
      "outputs": [
        {
          "internalType": "string",
          "name": "",
          "type": "string"
        }
      ],
      "stateMutability": "view",
      "type": "function"
    },
    {
      "inputs": [],
      "name": "owner",
      "outputs": [
        {
          "internalType": "address",
          "name": "",
          "type": "address"
        }
      ],
      "stateMutability": "view",
      "type": "function"
    },
    {
      "inputs": [],
      "name": "parentIP",
      "outputs": [
        {
          "internalType": "address",
          "name": "",
          "type": "address"
        }
      ],
      "stateMutability": "view",
      "type": "function"
    },
    {
      "inputs": [],
      "name": "renounceOwnership",
      "outputs": [],
      "stateMutability": "nonpayable",
      "type": "function"
    },
    {
      "inputs": [],
      "name": "reserveAmt",
      "outputs": [
        {
          "internalType": "uint256",
          "name": "",
          "type": "uint256"
        }
      ],
      "stateMutability": "view",
      "type": "function"
    },
    {
      "inputs": [],
      "name": "royaltyBPS",
      "outputs": [
        {
          "internalType": "uint256",
          "name": "",
          "type": "uint256"
        }
      ],
      "stateMutability": "view",
      "type": "function"
    },
    {
      "inputs": [
        {
          "internalType": "uint256",
          "name": "tokenId",
          "type": "uint256"
        },
        {
          "internalType": "uint256",
          "name": "salePrice",
          "type": "uint256"
        }
      ],
      "name": "royaltyInfo",
      "outputs": [
        {
          "internalType": "address",
          "name": "receiver",
          "type": "address"
        },
        {
          "internalType": "uint256",
          "name": "royaltyAmount",
          "type": "uint256"
        }
      ],
      "stateMutability": "view",
      "type": "function"
    },
    {
      "inputs": [
        {
          "internalType": "address",
          "name": "from",
          "type": "address"
        },
        {
          "internalType": "address",
          "name": "to",
          "type": "address"
        },
        {
          "internalType": "uint256[]",
          "name": "ids",
          "type": "uint256[]"
        },
        {
          "internalType": "uint256[]",
          "name": "amounts",
          "type": "uint256[]"
        },
        {
          "internalType": "bytes",
          "name": "data",
          "type": "bytes"
        }
      ],
      "name": "safeBatchTransferFrom",
      "outputs": [],
      "stateMutability": "nonpayable",
      "type": "function"
    },
    {
      "inputs": [
        {
          "internalType": "address",
          "name": "from",
          "type": "address"
        },
        {
          "internalType": "address",
          "name": "to",
          "type": "address"
        },
        {
          "internalType": "uint256",
          "name": "id",
          "type": "uint256"
        },
        {
          "internalType": "uint256",
          "name": "amount",
          "type": "uint256"
        },
        {
          "internalType": "bytes",
          "name": "data",
          "type": "bytes"
        }
      ],
      "name": "safeTransferFrom",
      "outputs": [],
      "stateMutability": "nonpayable",
      "type": "function"
    },
    {
      "inputs": [],
      "name": "saleIsActive",
      "outputs": [
        {
          "internalType": "bool",
          "name": "_saleIsActive",
          "type": "bool"
        }
      ],
      "stateMutability": "view",
      "type": "function"
    },
    {
      "inputs": [],
      "name": "saleIsPaused",
      "outputs": [
        {
          "internalType": "bool",
          "name": "",
          "type": "bool"
        }
      ],
      "stateMutability": "view",
      "type": "function"
    },
    {
      "inputs": [],
      "name": "saleStart",
      "outputs": [
        {
          "internalType": "uint256",
          "name": "",
          "type": "uint256"
        }
      ],
      "stateMutability": "view",
      "type": "function"
    },
    {
      "inputs": [
        {
          "internalType": "uint256",
          "name": "id",
          "type": "uint256"
        }
      ],
      "name": "sell",
      "outputs": [],
      "stateMutability": "nonpayable",
      "type": "function"
    },
    {
      "inputs": [
        {
          "internalType": "address",
          "name": "operator",
          "type": "address"
        },
        {
          "internalType": "bool",
          "name": "approved",
          "type": "bool"
        }
      ],
      "name": "setApprovalForAll",
      "outputs": [],
      "stateMutability": "nonpayable",
      "type": "function"
    },
    {
      "inputs": [
        {
          "internalType": "address",
          "name": "_metadataRenderer",
          "type": "address"
        }
      ],
      "name": "setMetadataRenderer",
      "outputs": [],
      "stateMutability": "nonpayable",
      "type": "function"
    },
    {
      "inputs": [],
      "name": "splitMain",
      "outputs": [
        {
          "internalType": "address",
          "name": "",
          "type": "address"
        }
      ],
      "stateMutability": "view",
      "type": "function"
    },
    {
      "inputs": [],
      "name": "splitWallet",
      "outputs": [
        {
          "internalType": "address",
          "name": "",
          "type": "address"
        }
      ],
      "stateMutability": "view",
      "type": "function"
    },
    {
      "inputs": [],
      "name": "step1",
      "outputs": [
        {
          "internalType": "uint256",
          "name": "",
          "type": "uint256"
        }
      ],
      "stateMutability": "view",
      "type": "function"
    },
    {
      "inputs": [],
      "name": "step2",
      "outputs": [
        {
          "internalType": "uint256",
          "name": "",
          "type": "uint256"
        }
      ],
      "stateMutability": "view",
      "type": "function"
    },
    {
      "inputs": [
        {
          "internalType": "bytes4",
          "name": "interfaceId",
          "type": "bytes4"
        }
      ],
      "name": "supportsInterface",
      "outputs": [
        {
          "internalType": "bool",
          "name": "",
          "type": "bool"
        }
      ],
      "stateMutability": "view",
      "type": "function"
    },
    {
      "inputs": [],
      "name": "symbol",
      "outputs": [
        {
          "internalType": "string",
          "name": "",
          "type": "string"
        }
      ],
      "stateMutability": "view",
      "type": "function"
    },
    {
      "inputs": [],
      "name": "takeRateBPS",
      "outputs": [
        {
          "internalType": "uint256",
          "name": "",
          "type": "uint256"
        }
      ],
      "stateMutability": "view",
      "type": "function"
    },
    {
      "inputs": [
        {
          "internalType": "uint256",
          "name": "id",
          "type": "uint256"
        }
      ],
      "name": "totalSupply",
      "outputs": [
        {
          "internalType": "uint256",
          "name": "",
          "type": "uint256"
        }
      ],
      "stateMutability": "view",
      "type": "function"
    },
    {
      "inputs": [],
      "name": "totalWithdrawn",
      "outputs": [
        {
          "internalType": "uint256",
          "name": "",
          "type": "uint256"
        }
      ],
      "stateMutability": "view",
      "type": "function"
    },
    {
      "inputs": [
        {
          "internalType": "uint256",
          "name": "transferETH",
          "type": "uint256"
        },
        {
          "internalType": "contract ERC20[]",
          "name": "tokens",
          "type": "address[]"
        }
      ],
      "name": "transferFundToSplit",
      "outputs": [],
      "stateMutability": "nonpayable",
      "type": "function"
    },
    {
      "inputs": [
        {
          "internalType": "address",
          "name": "newOwner",
          "type": "address"
        }
      ],
      "name": "transferOwnership",
      "outputs": [],
      "stateMutability": "nonpayable",
      "type": "function"
    },
    {
      "inputs": [
        {
          "internalType": "uint256",
          "name": "transferETH",
          "type": "uint256"
        },
        {
          "internalType": "contract ERC20[]",
          "name": "tokens",
          "type": "address[]"
        }
      ],
      "name": "transferToSplit",
      "outputs": [],
      "stateMutability": "nonpayable",
      "type": "function"
    },
    {
      "inputs": [],
      "name": "unlockDate",
      "outputs": [
        {
          "internalType": "uint256",
          "name": "",
          "type": "uint256"
        }
      ],
      "stateMutability": "view",
      "type": "function"
    },
    {
      "inputs": [
        {
          "internalType": "string",
          "name": "contractURI_",
          "type": "string"
        }
      ],
      "name": "updateContractURI",
      "outputs": [],
      "stateMutability": "nonpayable",
      "type": "function"
    },
    {
      "inputs": [
        {
          "internalType": "string",
          "name": "uri_",
          "type": "string"
        }
      ],
      "name": "updateUri",
      "outputs": [],
      "stateMutability": "nonpayable",
      "type": "function"
    },
    {
      "inputs": [
        {
          "internalType": "uint256",
          "name": "",
          "type": "uint256"
        }
      ],
      "name": "uri",
      "outputs": [
        {
          "internalType": "string",
          "name": "",
          "type": "string"
        }
      ],
      "stateMutability": "view",
      "type": "function"
    },
    {
      "inputs": [],
      "name": "withdraw",
      "outputs": [],
      "stateMutability": "nonpayable",
      "type": "function"
    },
    {
      "inputs": [],
      "name": "withdrawFund",
      "outputs": [],
      "stateMutability": "nonpayable",
      "type": "function"
    }
  ],
  "bytecode": "0x60806040526000600e553480156200001657600080fd5b50620000223362000028565b62000084565b600280546001600160a01b038381166201000081810262010000600160b01b031985161790945560405193909204169182907f8be0079c531659141344cd1fd0a4f28419497f9722a3daafe3b4186f6b6457e090600090a35050565b613c8480620000946000396000f3fe6080604052600436106102c75760003560e01c80638da5cb5b11610175578063d40a71fb116100dc578063e985e9c511610095578063f0cc8b621161006f578063f0cc8b6214610872578063f242432a14610892578063f2fde38b146108b2578063fd4fe8a8146108d257600080fd5b8063e985e9c514610802578063eb8d24441461083d578063ee37778d1461085257600080fd5b8063d40a71fb14610775578063d96a094a1461078b578063e07fa3c11461079e578063e4849b32146107b3578063e6c350c1146107d3578063e8a3d485146107ed57600080fd5b8063a3111abd1161012e578063a3111abd146106c7578063ab0bcc41146106e7578063af548ffb146106fd578063b9c9d93a14610712578063bd85b03914610728578063c4559d5a1461075557600080fd5b80638da5cb5b146106185780638f4ed3331461063c57806390619fa81461065257806394a11aea1461067257806395d89b4114610692578063a22cb465146106a757600080fd5b806334918dfd11610234578063570b3c6a116101ed578063713b9787116101c7578063713b9787146105a3578063715018a6146105c357806379ab7c8e146105d85780637e5b1e24146105f857600080fd5b8063570b3c6a1461054d57806369ac57211461056d578063703199701461058357600080fd5b806334918dfd146104b4578063350aa191146104c95780633ccfd60b146104df57806343a58f06146104f45780634b3197131461050a5780634e1273f41461052057600080fd5b80630e89341c116102865780630e89341c146103e05780631a6865021461040057806327715d8014610415578063284a44a8146104355780632a55205a146104555780632eb2c2d61461049457600080fd5b80625f16fb146102cc578062fdd58e146102ee578063015893c51461033657806301ffc9a71461035657806306fdde03146103865780630e769b2b146103a8575b600080fd5b3480156102d857600080fd5b506102ec6102e7366004612a6a565b6108f2565b005b3480156102fa57600080fd5b50610323610309366004612b11565b600060208181529281526040808220909352908152205481565b6040519081526020015b60405180910390f35b34801561034257600080fd5b506102ec610351366004612b3d565b6109cf565b34801561036257600080fd5b50610376610371366004612bd3565b610b49565b604051901515815260200161032d565b34801561039257600080fd5b5061039b610b74565b60405161032d9190612c40565b3480156103b457600080fd5b506012546103c8906001600160a01b031681565b6040516001600160a01b03909116815260200161032d565b3480156103ec57600080fd5b5061039b6103fb366004612c53565b610c06565b34801561040c57600080fd5b50610323610d1d565b34801561042157600080fd5b506102ec610430366004612e3a565b610d4c565b34801561044157600080fd5b506102ec610450366004612ff6565b610fd1565b34801561046157600080fd5b506104756104703660046130ca565b61107a565b604080516001600160a01b03909316835260208301919091520161032d565b3480156104a057600080fd5b506102ec6104af36600461312d565b6110fc565b3480156104c057600080fd5b506102ec61139f565b3480156104d557600080fd5b50610323600a5481565b3480156104eb57600080fd5b506102ec6113bb565b34801561050057600080fd5b5061032360095481565b34801561051657600080fd5b50610323600e5481565b34801561052c57600080fd5b5061054061053b3660046131eb565b611499565b60405161032d9190613256565b34801561055957600080fd5b506102ec61056836600461329a565b6115cd565b34801561057957600080fd5b5061032360115481565b34801561058f57600080fd5b506014546103c8906001600160a01b031681565b3480156105af57600080fd5b506013546103c8906001600160a01b031681565b3480156105cf57600080fd5b506102ec6115e1565b3480156105e457600080fd5b506102ec6105f33660046132d6565b6115f5565b34801561060457600080fd5b506102ec61061336600461329a565b611680565b34801561062457600080fd5b506002546201000090046001600160a01b03166103c8565b34801561064857600080fd5b5061032360085481565b34801561065e57600080fd5b506102ec61066d3660046132d6565b611694565b34801561067e57600080fd5b506102ec61068d366004612ff6565b61172f565b34801561069e57600080fd5b5061039b611851565b3480156106b357600080fd5b506102ec6106c2366004613320565b611860565b3480156106d357600080fd5b506103236106e23660046130ca565b6118cc565b3480156106f357600080fd5b50610323600f5481565b34801561070957600080fd5b50610323611925565b34801561071e57600080fd5b50610323600b5481565b34801561073457600080fd5b50610323610743366004612c53565b6000908152600c602052604090205490565b34801561076157600080fd5b506102ec610770366004613359565b611951565b34801561078157600080fd5b5061032360075481565b6102ec610799366004612c53565b611a15565b3480156107aa57600080fd5b506102ec611cbe565b3480156107bf57600080fd5b506102ec6107ce366004612c53565b611dba565b3480156107df57600080fd5b506010546103769060ff1681565b3480156107f957600080fd5b5061039b612051565b34801561080e57600080fd5b5061037661081d3660046133ec565b600160209081526000928352604080842090915290825290205460ff1681565b34801561084957600080fd5b506103766120ed565b34801561085e57600080fd5b5061032361086d3660046130ca565b612107565b34801561087e57600080fd5b506015546103c8906001600160a01b031681565b34801561089e57600080fd5b506102ec6108ad36600461341a565b612187565b3480156108be57600080fd5b506102ec6108cd366004613495565b612379565b3480156108de57600080fd5b506102ec6108ed366004613495565b6123ef565b60006109066013546001600160a01b031690565b6001600160a01b0316036109355760405162461bcd60e51b815260040161092c906134b2565b60405180910390fd5b61093e87612419565b6012546001600160a01b03166001600160a01b0316631581130261096a6013546001600160a01b031690565b898989898989896040518963ffffffff1660e01b8152600401610994989796959493929190613563565b600060405180830381600087803b1580156109ae57600080fd5b505af11580156109c2573d6000803e3d6000fd5b5050505050505050505050565b6109d7612518565b60006109eb6012546001600160a01b031690565b6001600160a01b031603610a355760405162461bcd60e51b815260206004820152601160248201527014dc1b1a5d13585a5b881b9bdd081cd95d607a1b604482015260640161092c565b6000610a496013546001600160a01b031690565b6001600160a01b031614610a975760405162461bcd60e51b815260206004820152601560248201527414dc1b1a5d08185b1c9958591e4818dc99585d1959605a1b604482015260640161092c565b6000610aab6012546001600160a01b031690565b6001600160a01b0316637601f7828787878787336040518763ffffffff1660e01b8152600401610ae0969594939291906135c5565b6020604051808303816000875af1158015610aff573d6000803e3d6000fd5b505050506040513d601f19601f82011682018060405250810190610b239190613616565b601380546001600160a01b0319166001600160a01b03831617905590505b505050505050565b600063152a902d60e11b6001600160e01b031983161480610b6e5750610b6e82612579565b92915050565b606060038054610b8390613633565b80601f0160208091040260200160405190810160405280929190818152602001828054610baf90613633565b8015610bfc5780601f10610bd157610100808354040283529160200191610bfc565b820191906000526020600020905b815481529060010190602001808311610bdf57829003601f168201915b5050505050905090565b6014546060906001600160a01b031615610c8b5760145460405163c87b56dd60e01b8152600160048201526001600160a01b039091169063c87b56dd90602401600060405180830381865afa158015610c63573d6000803e3d6000fd5b505050506040513d6000823e601f3d908101601f19168201604052610b6e919081019061366d565b60058054610c9890613633565b80601f0160208091040260200160405190810160405280929190818152602001828054610cc490613633565b8015610d115780601f10610ce657610100808354040283529160200191610d11565b820191906000526020600020905b815481529060010190602001808311610cf457829003601f168201915b50505050509050919050565b6000612710600e5447610d3091906136f9565b600a54610d3d919061370c565b610d479190613723565b905090565b600254610100900460ff1615808015610d6c5750600254600160ff909116105b80610d865750303b158015610d86575060025460ff166001145b610de95760405162461bcd60e51b815260206004820152602e60248201527f496e697469616c697a61626c653a20636f6e747261637420697320616c72656160448201526d191e481a5b9a5d1a585b1a5e995960921b606482015260840161092c565b6002805460ff191660011790558015610e0c576002805461ff0019166101001790555b610e15866125c7565b604085015160008052600d6020527f81955a0a11e65eac625c29e8882660bae4e165a75d72780094acae8ece9a29ee556060850151600755608085015160085560a085015160095560c0850151600a5560e08501516011558451600390610e7c908261378b565b506020850151600490610e8f908261378b565b50610100850151600f55610120850151600b55601280546001600160a01b038085166001600160a01b03199283161790925560608601516015805491841691909216179055831615801590610ee957506000846040015151115b15610f6757601480546001600160a01b0319166001600160a01b03851690811790915560408581015190516342b53ffd60e11b815263856a7ffa91610f3091600401612c40565b600060405180830381600087803b158015610f4a57600080fd5b505af1158015610f5e573d6000803e3d6000fd5b50505050610f84565b8351600690610f76908261378b565b50610f848460200151612623565b8015610b41576002805461ff0019169055604051600181527f7f26b83ff96e1f2b6a682f133852f6798a09c465da95921460cefb38474024989060200160405180910390a1505050505050565b6000610fe56013546001600160a01b031690565b6001600160a01b03160361100b5760405162461bcd60e51b815260040161092c906134b2565b871561101f5761101f868686868686611951565b60005b8751811015611063576110538882815181106110405761104061384a565b60200260200101518888888888886108f2565b61105c81613860565b9050611022565b5061106f89898961262f565b505050505050505050565b600080831561109b5760405162461bcd60e51b815260040161092c90613879565b6013546001600160a01b0316156110bf576013546001600160a01b031691506110d4565b6002546201000090046001600160a01b031691505b6000612710600b54856110e7919061370c565b6110f19190613723565b9150505b9250929050565b84831461113d5760405162461bcd60e51b815260206004820152600f60248201526e0988a9c8ea890be9a92a69a82a8869608b1b604482015260640161092c565b336001600160a01b038916148061117757506001600160a01b038816600090815260016020908152604080832033845290915290205460ff165b6111b45760405162461bcd60e51b815260206004820152600e60248201526d1393d517d055551213d49256915160921b604482015260640161092c565b60008060005b8781101561126f578888828181106111d4576111d461384a565b9050602002013592508686828181106111ef576111ef61384a565b6001600160a01b038e166000908152602081815260408083208984528252822080549390910294909401359550859392509061122c9084906138b0565b90915550506001600160a01b038a16600090815260208181526040808320868452909152812080548492906112629084906136f9565b90915550506001016111ba565b50886001600160a01b03168a6001600160a01b0316336001600160a01b03167f4a39dc06d4c0dbc64b70af90fd698a233a518aa5d07e595d983b8c0526c8f7fb8b8b8b8b6040516112c394939291906138f5565b60405180910390a46001600160a01b0389163b1561136a5760405163bc197c8160e01b808252906001600160a01b038b169063bc197c81906113179033908f908e908e908e908e908e908e90600401613945565b6020604051808303816000875af1158015611336573d6000803e3d6000fd5b505050506040513d601f19601f8201168201806040525081019061135a91906139a9565b6001600160e01b03191614611377565b6001600160a01b03891615155b6113935760405162461bcd60e51b815260040161092c906139c6565b50505050505050505050565b6113a7612518565b6010805460ff19811660ff90911615179055565b6113c3612518565b60006113d76013546001600160a01b031690565b6001600160a01b0316146113fd5760405162461bcd60e51b815260040161092c906139f0565b6000600e5461140a610d1d565b61141491906138b0565b905080600e600082825461142891906136f9565b9091555050604051600090339083908381818185875af1925050503d806000811461146f576040519150601f19603f3d011682016040523d82523d6000602084013e611474565b606091505b50509050806114955760405162461bcd60e51b815260040161092c90613a34565b5050565b60608382146114dc5760405162461bcd60e51b815260206004820152600f60248201526e0988a9c8ea890be9a92a69a82a8869608b1b604482015260640161092c565b836001600160401b038111156114f4576114f4612c6c565b60405190808252806020026020018201604052801561151d578160200160208202803683370190505b50905060005b848110156115c4576000808787848181106115405761154061384a565b90506020020160208101906115559190613495565b6001600160a01b03166001600160a01b0316815260200190815260200160002060008585848181106115895761158961384a565b905060200201358152602001908152602001600020548282815181106115b1576115b161384a565b6020908102919091010152600101611523565b50949350505050565b6115d5612518565b6115de81612623565b50565b6115e9612518565b6115f360006125c7565b565b60006116096013546001600160a01b031690565b6001600160a01b03160361162f5760405162461bcd60e51b815260040161092c906134b2565b811561163d5761163d61269a565b60005b815181101561167b5761166b82828151811061165e5761165e61384a565b6020026020010151612419565b61167481613860565b9050611640565b505050565b611688612518565b6006611495828261378b565b60006116a86013546001600160a01b031690565b6001600160a01b0316036116ce5760405162461bcd60e51b815260040161092c906134b2565b6011544210156116f05760405162461bcd60e51b815260040161092c90613a62565b81156116fe576116fe61276d565b60005b815181101561167b5761171f82828151811061165e5761165e61384a565b61172881613860565b9050611701565b60006117436013546001600160a01b031690565b6001600160a01b0316036117695760405162461bcd60e51b815260040161092c906134b2565b60115442101561178b5760405162461bcd60e51b815260040161092c90613a62565b87156118205761179961276d565b6012546001600160a01b03166001600160a01b031663e61cb05e6117c56013546001600160a01b031690565b8888888888886040518863ffffffff1660e01b81526004016117ed9796959493929190613a99565b600060405180830381600087803b15801561180757600080fd5b505af115801561181b573d6000803e3d6000fd5b505050505b60005b8751811015611063576118418882815181106110405761104061384a565b61184a81613860565b9050611823565b606060048054610b8390613633565b3360008181526001602090815260408083206001600160a01b03871680855290835292819020805460ff191686151590811790915590519081529192917f17307eab39ab6107e8899845ad3d59bd9653f200f220920489ca2b5937696c31910160405180910390a35050565b6000826001146119105760405162461bcd60e51b815260206004820152600f60248201526e6d617820616d6f756e74206973203160881b604482015260640161092c565b506000908152600d6020526040902054919050565b6000612710600e544761193891906136f9565b600a54611947906127106138b0565b610d3d919061370c565b60006119656013546001600160a01b031690565b6001600160a01b03160361198b5760405162461bcd60e51b815260040161092c906134b2565b61199361269a565b6012546001600160a01b03166001600160a01b031663e61cb05e6119bf6013546001600160a01b031690565b8888888888886040518863ffffffff1660e01b81526004016119e79796959493929190613a99565b600060405180830381600087803b158015611a0157600080fd5b505af1158015611393573d6000803e3d6000fd5b600f54421015611a635760405162461bcd60e51b815260206004820152601960248201527829b0b632b99030b932903737ba1030b1ba34bb32903cb2ba1760391b604482015260640161092c565b6011544210611ab45760405162461bcd60e51b815260206004820152601b60248201527f53616c657320617265206e6f206c6f6e676572206163746976652e0000000000604482015260640161092c565b60105460ff1615611ad75760405162461bcd60e51b815260040161092c90613af2565b6000611ae46001836118cc565b905080341015611b2b5760405162461bcd60e51b8152602060048201526012602482015271496e73756666696369656e742066756e647360701b604482015260640161092c565b8115611b495760405162461bcd60e51b815260040161092c90613879565b6000611b5582346138b0565b1115611bcc57600033611b6883346138b0565b604051600081818185875af1925050503d8060008114611ba4576040519150601f19603f3d011682016040523d82523d6000602084013e611ba9565b606091505b5050905080611bca5760405162461bcd60e51b815260040161092c90613a34565b505b611be83383600160405180602001604052806000815250612821565b6000828152600c60205260408120805460019290611c079084906136f9565b909155505060408051600181526020810184905290810182905233907f25ba90957e661d6984db35cb313f752c45b1b67a3252e45d3f260a00fff0d7199060600160405180910390a26009546000838152600c60205260409020541015611c94576007546000838152600d602052604081208054909190611c899084906136f9565b909155506114959050565b6008546000838152600d602052604081208054909190611cb59084906136f9565b90915550505050565b611cc6612518565b601154421015611ce85760405162461bcd60e51b815260040161092c90613a62565b6000611cfc6013546001600160a01b031690565b6001600160a01b031614611d225760405162461bcd60e51b815260040161092c906139f0565b604051600090339047908381818185875af1925050503d8060008114611d64576040519150601f19603f3d011682016040523d82523d6000602084013e611d69565b606091505b50509050806115de5760405162461bcd60e51b815260206004820152601760248201527f436f756c64206e6f742077697468647261772066756e64000000000000000000604482015260640161092c565b600f54421015611e085760405162461bcd60e51b815260206004820152601960248201527829b0b632b99030b932903737ba1030b1ba34bb32903cb2ba1760391b604482015260640161092c565b6011544210611e595760405162461bcd60e51b815260206004820152601b60248201527f53616c657320617265206e6f206c6f6e676572206163746976652e0000000000604482015260640161092c565b60105460ff1615611e7c5760405162461bcd60e51b815260040161092c90613af2565b8015611e9a5760405162461bcd60e51b815260040161092c90613879565b6000611ea7600183612107565b33600090815260208181526040808320868452909152902054909150611f065760405162461bcd60e51b81526020600482015260146024820152731b5d5cdd081bdddb881b999d081d1bc81cd95b1b60621b604482015260640161092c565b611f1233836001612969565b6000828152600c60205260408120805460019290611f319084906138b0565b9091555050604051600090339083908381818185875af1925050503d8060008114611f78576040519150601f19603f3d011682016040523d82523d6000602084013e611f7d565b606091505b5050905080611f9e5760405162461bcd60e51b815260040161092c90613a34565b60408051600181526020810185905290810183905233907f68294b5fb4234239b694f5ef768a13b93132c838ecd88673e56a4caa8089b9199060600160405180910390a26009546000848152600c60205260409020541015612026576007546000848152600d60205260408120805490919061201b9084906138b0565b9091555061167b9050565b6008546000848152600d6020526040812080549091906120479084906138b0565b9091555050505050565b6014546060906001600160a01b0316156120e057601460009054906101000a90046001600160a01b03166001600160a01b031663e8a3d4856040518163ffffffff1660e01b8152600401600060405180830381865afa1580156120b8573d6000803e3d6000fd5b505050506040513d6000823e601f3d908101601f19168201604052610d47919081019061366d565b60068054610b8390613633565b6000600f544210158015610d4757505060105460ff161590565b60008260011461214b5760405162461bcd60e51b815260206004820152600f60248201526e6d617820616d6f756e74206973203160881b604482015260640161092c565b6000828152600d6020526040902054600a54612710919061216c90836138b0565b612176919061370c565b6121809190613723565b9392505050565b336001600160a01b03871614806121c157506001600160a01b038616600090815260016020908152604080832033845290915290205460ff165b6121fe5760405162461bcd60e51b815260206004820152600e60248201526d1393d517d055551213d49256915160921b604482015260640161092c565b6001600160a01b0386166000908152602081815260408083208784529091528120805485929061222f9084906138b0565b90915550506001600160a01b038516600090815260208181526040808320878452909152812080548592906122659084906136f9565b909155505060408051858152602081018590526001600160a01b03808816929089169133917fc3d58168c5ae7397731d063d5bbf3d657854427343f4c083240f7aacaa2d0f62910160405180910390a46001600160a01b0385163b156123505760405163f23a6e6160e01b808252906001600160a01b0387169063f23a6e61906122fd9033908b908a908a908a908a90600401613b34565b6020604051808303816000875af115801561231c573d6000803e3d6000fd5b505050506040513d601f19601f8201168201806040525081019061234091906139a9565b6001600160e01b0319161461235d565b6001600160a01b03851615155b610b415760405162461bcd60e51b815260040161092c906139c6565b612381612518565b6001600160a01b0381166123e65760405162461bcd60e51b815260206004820152602660248201527f4f776e61626c653a206e6577206f776e657220697320746865207a65726f206160448201526564647265737360d01b606482015260840161092c565b6115de816125c7565b6123f7612518565b601480546001600160a01b0319166001600160a01b0392909216919091179055565b6040516370a0823160e01b81523060048201526000906001600160a01b038316906370a0823190602401602060405180830381865afa158015612460573d6000803e3d6000fd5b505050506040513d601f19601f820116820180604052508101906124849190613b7b565b9050816001600160a01b031663a9059cbb6124a76013546001600160a01b031690565b6040516001600160e01b031960e084901b1681526001600160a01b039091166004820152602481018490526044016020604051808303816000875af11580156124f4573d6000803e3d6000fd5b505050506040513d601f19601f8201168201806040525081019061167b9190613b94565b6002546001600160a01b03620100009091041633146115f35760405162461bcd60e51b815260206004820181905260248201527f4f776e61626c653a2063616c6c6572206973206e6f7420746865206f776e6572604482015260640161092c565b60006301ffc9a760e01b6001600160e01b0319831614806125aa5750636cdb3d1360e11b6001600160e01b03198316145b80610b6e5750506001600160e01b0319166303a24d0760e21b1490565b600280546001600160a01b038381166201000081810262010000600160b01b031985161790945560405193909204169182907f8be0079c531659141344cd1fd0a4f28419497f9722a3daafe3b4186f6b6457e090600090a35050565b6005611495828261378b565b601254604051636e5f691960e01b81526001600160a01b0390911690636e5f69199061266390869086908690600401613bb1565b600060405180830381600087803b15801561267d57600080fd5b505af1158015612691573d6000803e3d6000fd5b50505050505050565b6000600e546126a7610d1d565b6126b191906138b0565b905080600e60008282546126c591906136f9565b90915550506013546040516000916001600160a01b03169083908381818185875af1925050503d8060008114612717576040519150601f19603f3d011682016040523d82523d6000602084013e61271c565b606091505b50509050806114955760405162461bcd60e51b815260206004820152601f60248201527f436f756c64206e6f74207472616e736665722045544820746f2073706c697400604482015260640161092c565b60006127816013546001600160a01b031690565b6001600160a01b03164760405160006040518083038185875af1925050503d80600081146127cb576040519150601f19603f3d011682016040523d82523d6000602084013e6127d0565b606091505b50509050806115de5760405162461bcd60e51b815260206004820152601f60248201527f436f756c64206e6f74207472616e736665722045544820746f2073706c697400604482015260640161092c565b6001600160a01b038416600090815260208181526040808320868452909152812080548492906128529084906136f9565b909155505060408051848152602081018490526001600160a01b0386169160009133917fc3d58168c5ae7397731d063d5bbf3d657854427343f4c083240f7aacaa2d0f62910160405180910390a46001600160a01b0384163b1561293a5760405163f23a6e6160e01b808252906001600160a01b0386169063f23a6e61906128e7903390600090899089908990600401613c14565b6020604051808303816000875af1158015612906573d6000803e3d6000fd5b505050506040513d601f19601f8201168201806040525081019061292a91906139a9565b6001600160e01b03191614612947565b6001600160a01b03841615155b6129635760405162461bcd60e51b815260040161092c906139c6565b50505050565b6001600160a01b0383166000908152602081815260408083208584529091528120805483929061299a9084906138b0565b909155505060408051838152602081018390526000916001600160a01b0386169133917fc3d58168c5ae7397731d063d5bbf3d657854427343f4c083240f7aacaa2d0f62910160405180910390a4505050565b6001600160a01b03811681146115de57600080fd5b60008083601f840112612a1457600080fd5b5081356001600160401b03811115612a2b57600080fd5b6020830191508360208260051b85010111156110f557600080fd5b803563ffffffff81168114612a5a57600080fd5b919050565b8035612a5a816129ed565b600080600080600080600060a0888a031215612a8557600080fd5b8735612a90816129ed565b965060208801356001600160401b0380821115612aac57600080fd5b612ab88b838c01612a02565b909850965060408a0135915080821115612ad157600080fd5b50612ade8a828b01612a02565b9095509350612af1905060608901612a46565b91506080880135612b01816129ed565b8091505092959891949750929550565b60008060408385031215612b2457600080fd5b8235612b2f816129ed565b946020939093013593505050565b600080600080600060608688031215612b5557600080fd5b85356001600160401b0380821115612b6c57600080fd5b612b7889838a01612a02565b90975095506020880135915080821115612b9157600080fd5b50612b9e88828901612a02565b9094509250612bb1905060408701612a46565b90509295509295909350565b6001600160e01b0319811681146115de57600080fd5b600060208284031215612be557600080fd5b813561218081612bbd565b60005b83811015612c0b578181015183820152602001612bf3565b50506000910152565b60008151808452612c2c816020860160208601612bf0565b601f01601f19169290920160200192915050565b6020815260006121806020830184612c14565b600060208284031215612c6557600080fd5b5035919050565b634e487b7160e01b600052604160045260246000fd5b604051608081016001600160401b0381118282101715612ca457612ca4612c6c565b60405290565b60405161014081016001600160401b0381118282101715612ca457612ca4612c6c565b604051601f8201601f191681016001600160401b0381118282101715612cf557612cf5612c6c565b604052919050565b60006001600160401b03821115612d1657612d16612c6c565b50601f01601f191660200190565b6000612d37612d3284612cfd565b612ccd565b9050828152838383011115612d4b57600080fd5b828260208301376000602084830101529392505050565b600082601f830112612d7357600080fd5b61218083833560208501612d24565b600060808284031215612d9457600080fd5b612d9c612c82565b905081356001600160401b0380821115612db557600080fd5b612dc185838601612d62565b83526020840135915080821115612dd757600080fd5b612de385838601612d62565b60208401526040840135915080821115612dfc57600080fd5b508201601f81018413612e0e57600080fd5b612e1d84823560208401612d24565b604083015250612e2f60608301612a5f565b606082015292915050565b600080600080600060a08688031215612e5257600080fd5b8535612e5d816129ed565b945060208601356001600160401b0380821115612e7957600080fd5b90870190610140828a031215612e8e57600080fd5b612e96612caa565b823582811115612ea557600080fd5b612eb18b828601612d62565b825250602083013582811115612ec657600080fd5b612ed28b828601612d62565b60208301525060408301356040820152606083013560608201526080830135608082015260a083013560a082015260c083013560c082015260e083013560e0820152610100808401358183015250610120808401358183015250809650506040880135915080821115612f4457600080fd5b50612f5188828901612d82565b935050612f6060608701612a5f565b9150612bb160808701612a5f565b600082601f830112612f7f57600080fd5b813560206001600160401b03821115612f9a57612f9a612c6c565b8160051b612fa9828201612ccd565b9283528481018201928281019087851115612fc357600080fd5b83870192505b84831015612feb578235612fdc816129ed565b82529183019190830190612fc9565b979650505050505050565b600080600080600080600080600060e08a8c03121561301457600080fd5b893561301f816129ed565b985060208a0135975060408a01356001600160401b038082111561304257600080fd5b61304e8d838e01612f6e565b985060608c013591508082111561306457600080fd5b6130708d838e01612a02565b909850965060808c013591508082111561308957600080fd5b506130968c828d01612a02565b90955093506130a9905060a08b01612a46565b915060c08a01356130b9816129ed565b809150509295985092959850929598565b600080604083850312156130dd57600080fd5b50508035926020909101359150565b60008083601f8401126130fe57600080fd5b5081356001600160401b0381111561311557600080fd5b6020830191508360208285010111156110f557600080fd5b60008060008060008060008060a0898b03121561314957600080fd5b8835613154816129ed565b97506020890135613164816129ed565b965060408901356001600160401b038082111561318057600080fd5b61318c8c838d01612a02565b909850965060608b01359150808211156131a557600080fd5b6131b18c838d01612a02565b909650945060808b01359150808211156131ca57600080fd5b506131d78b828c016130ec565b999c989b5096995094979396929594505050565b6000806000806040858703121561320157600080fd5b84356001600160401b038082111561321857600080fd5b61322488838901612a02565b9096509450602087013591508082111561323d57600080fd5b5061324a87828801612a02565b95989497509550505050565b6020808252825182820181905260009190848201906040850190845b8181101561328e57835183529284019291840191600101613272565b50909695505050505050565b6000602082840312156132ac57600080fd5b81356001600160401b038111156132c257600080fd5b6132ce84828501612d62565b949350505050565b600080604083850312156132e957600080fd5b8235915060208301356001600160401b0381111561330657600080fd5b6110f185828601612f6e565b80151581146115de57600080fd5b6000806040838503121561333357600080fd5b823561333e816129ed565b9150602083013561334e81613312565b809150509250929050565b6000806000806000806080878903121561337257600080fd5b86356001600160401b038082111561338957600080fd5b6133958a838b01612a02565b909850965060208901359150808211156133ae57600080fd5b506133bb89828a01612a02565b90955093506133ce905060408801612a46565b915060608701356133de816129ed565b809150509295509295509295565b600080604083850312156133ff57600080fd5b823561340a816129ed565b9150602083013561334e816129ed565b60008060008060008060a0878903121561343357600080fd5b863561343e816129ed565b9550602087013561344e816129ed565b9450604087013593506060870135925060808701356001600160401b0381111561347757600080fd5b61348389828a016130ec565b979a9699509497509295939492505050565b6000602082840312156134a757600080fd5b8135612180816129ed565b60208082526015908201527414dc1b1a5d081b9bdd0818dc99585d1959081e595d605a1b604082015260600190565b8183526000602080850194508260005b8581101561351f578135613504816129ed565b6001600160a01b0316875295820195908201906001016134f1565b509495945050505050565b8183526000602080850194508260005b8581101561351f5763ffffffff61355083612a46565b168752958201959082019060010161353a565b600060018060a01b03808b168352808a16602084015260c0604084015261358e60c08401898b6134e1565b83810360608501526135a181888a61352a565b63ffffffff969096166080850152509290921660a090910152509695505050505050565b6080815260006135d960808301888a6134e1565b82810360208401526135ec81878961352a565b63ffffffff95909516604084015250506001600160a01b0391909116606090910152949350505050565b60006020828403121561362857600080fd5b8151612180816129ed565b600181811c9082168061364757607f821691505b60208210810361366757634e487b7160e01b600052602260045260246000fd5b50919050565b60006020828403121561367f57600080fd5b81516001600160401b0381111561369557600080fd5b8201601f810184136136a657600080fd5b80516136b4612d3282612cfd565b8181528560208385010111156136c957600080fd5b6136da826020830160208601612bf0565b95945050505050565b634e487b7160e01b600052601160045260246000fd5b80820180821115610b6e57610b6e6136e3565b8082028115828204841417610b6e57610b6e6136e3565b60008261374057634e487b7160e01b600052601260045260246000fd5b500490565b601f82111561167b57600081815260208120601f850160051c8101602086101561376c5750805b601f850160051c820191505b81811015610b4157828155600101613778565b81516001600160401b038111156137a4576137a4612c6c565b6137b8816137b28454613633565b84613745565b602080601f8311600181146137ed57600084156137d55750858301515b600019600386901b1c1916600185901b178555610b41565b600085815260208120601f198616915b8281101561381c578886015182559484019460019091019084016137fd565b508582101561383a5787850151600019600388901b60f8161c191681555b5050505050600190811b01905550565b634e487b7160e01b600052603260045260246000fd5b600060018201613872576138726136e3565b5060010190565b6020808252601a908201527f63757272656e746c79206f6e6c79206f6e652065646974696f6e000000000000604082015260600190565b81810381811115610b6e57610b6e6136e3565b81835260006001600160fb1b038311156138dc57600080fd5b8260051b80836020870137939093016020019392505050565b6040815260006139096040830186886138c3565b8281036020840152612feb8185876138c3565b81835281816020850137506000828201602090810191909152601f909101601f19169091010190565b6001600160a01b0389811682528816602082015260a060408201819052600090613972908301888a6138c3565b82810360608401526139858187896138c3565b9050828103608084015261399a81858761391c565b9b9a5050505050505050505050565b6000602082840312156139bb57600080fd5b815161218081612bbd565b60208082526010908201526f155394d0519157d49150d2541251539560821b604082015260600190565b60208082526024908201527f43616e6e6f74207769746864726177207769746820616e2061637469766520736040820152631c1b1a5d60e21b606082015260800190565b6020808252601490820152732330b4b632b2103a379039b2b7321032ba3432b960611b604082015260600190565b60208082526019908201527f4372657363656e646f206973207374696c6c206c6f636b656400000000000000604082015260600190565b600060018060a01b03808a16835260a06020840152613abc60a08401898b6134e1565b8381036040850152613acf81888a61352a565b63ffffffff96909616606085015250929092166080909101525095945050505050565b60208082526022908201527f53616c65206d7573742062652061637469766520746f20627579206f722073656040820152611b1b60f21b606082015260800190565b6001600160a01b03878116825286166020820152604081018590526060810184905260a060808201819052600090613b6f908301848661391c565b98975050505050505050565b600060208284031215613b8d57600080fd5b5051919050565b600060208284031215613ba657600080fd5b815161218081613312565b6001600160a01b038481168252602080830185905260606040840181905284519084018190526000928583019290916080860190855b81811015613c05578551851683529483019491830191600101613be7565b50909998505050505050505050565b6001600160a01b03868116825285166020820152604081018490526060810183905260a060808201819052600090612feb90830184612c1456fea264697066735822122086f622f87c55930c8914fc1991e5e1fca75b83812769d26f859776464125980164736f6c63430008110033",
  "linkReferences": {},
  "deployedLinkReferences": {}
}