{
  "_format": "hh-sol-artifact-1",
  "contractName": "FRST4907A",
  "sourceName": "contracts/FRST4907A.sol",
  "abi": [
    {
      "inputs": [],
      "name": "ApprovalCallerNotOwnerNorApproved",
      "type": "error"
    },
    {
      "inputs": [],
      "name": "ApprovalQueryForNonexistentToken",
      "type": "error"
    },
    {
      "inputs": [],
      "name": "ApproveToCaller",
      "type": "error"
    },
    {
      "inputs": [],
      "name": "BalanceQueryForZeroAddress",
      "type": "error"
    },
    {
      "inputs": [],
      "name": "MintERC2309QuantityExceedsLimit",
      "type": "error"
    },
    {
      "inputs": [],
      "name": "MintToZeroAddress",
      "type": "error"
    },
    {
      "inputs": [],
      "name": "MintZeroQuantity",
      "type": "error"
    },
    {
      "inputs": [
        {
          "internalType": "address",
          "name": "operator",
          "type": "address"
        }
      ],
      "name": "OperatorNotAllowed",
      "type": "error"
    },
    {
      "inputs": [],
      "name": "OwnerQueryForNonexistentToken",
      "type": "error"
    },
    {
      "inputs": [],
      "name": "OwnershipNotInitializedForExtraData",
      "type": "error"
    },
    {
      "inputs": [],
      "name": "SetUserCallerNotOwnerNorApproved",
      "type": "error"
    },
    {
      "inputs": [],
      "name": "TransferCallerNotOwnerNorApproved",
      "type": "error"
    },
    {
      "inputs": [],
      "name": "TransferFromIncorrectOwner",
      "type": "error"
    },
    {
      "inputs": [],
      "name": "TransferToNonERC721ReceiverImplementer",
      "type": "error"
    },
    {
      "inputs": [],
      "name": "TransferToZeroAddress",
      "type": "error"
    },
    {
      "inputs": [],
      "name": "URIQueryForNonexistentToken",
      "type": "error"
    },
    {
      "anonymous": false,
      "inputs": [
        {
          "indexed": true,
          "internalType": "address",
          "name": "owner",
          "type": "address"
        },
        {
          "indexed": true,
          "internalType": "address",
          "name": "approved",
          "type": "address"
        },
        {
          "indexed": true,
          "internalType": "uint256",
          "name": "tokenId",
          "type": "uint256"
        }
      ],
      "name": "Approval",
      "type": "event"
    },
    {
      "anonymous": false,
      "inputs": [
        {
          "indexed": true,
          "internalType": "address",
          "name": "owner",
          "type": "address"
        },
        {
          "indexed": true,
          "internalType": "address",
          "name": "operator",
          "type": "address"
        },
        {
          "indexed": false,
          "internalType": "bool",
          "name": "approved",
          "type": "bool"
        }
      ],
      "name": "ApprovalForAll",
      "type": "event"
    },
    {
      "anonymous": false,
      "inputs": [
        {
          "indexed": true,
          "internalType": "uint256",
          "name": "fromTokenId",
          "type": "uint256"
        },
        {
          "indexed": false,
          "internalType": "uint256",
          "name": "toTokenId",
          "type": "uint256"
        },
        {
          "indexed": true,
          "internalType": "address",
          "name": "from",
          "type": "address"
        },
        {
          "indexed": true,
          "internalType": "address",
          "name": "to",
          "type": "address"
        }
      ],
      "name": "ConsecutiveTransfer",
      "type": "event"
    },
    {
      "anonymous": false,
      "inputs": [
        {
          "indexed": false,
          "internalType": "uint8",
          "name": "version",
          "type": "uint8"
        }
      ],
      "name": "Initialized",
      "type": "event"
    },
    {
      "anonymous": false,
      "inputs": [
        {
          "indexed": false,
          "internalType": "address",
          "name": "sender",
          "type": "address"
        },
        {
          "indexed": false,
          "internalType": "uint256",
          "name": "tokenId_",
          "type": "uint256"
        }
      ],
      "name": "Minted",
      "type": "event"
    },
    {
      "anonymous": false,
      "inputs": [
        {
          "indexed": true,
          "internalType": "address",
          "name": "previousOwner",
          "type": "address"
        },
        {
          "indexed": true,
          "internalType": "address",
          "name": "newOwner",
          "type": "address"
        }
      ],
      "name": "OwnershipTransferred",
      "type": "event"
    },
    {
      "anonymous": false,
      "inputs": [
        {
          "indexed": true,
          "internalType": "address",
          "name": "from",
          "type": "address"
        },
        {
          "indexed": true,
          "internalType": "address",
          "name": "to",
          "type": "address"
        },
        {
          "indexed": true,
          "internalType": "uint256",
          "name": "tokenId",
          "type": "uint256"
        }
      ],
      "name": "Transfer",
      "type": "event"
    },
    {
      "anonymous": false,
      "inputs": [
        {
          "indexed": true,
          "internalType": "uint256",
          "name": "tokenId",
          "type": "uint256"
        },
        {
          "indexed": true,
          "internalType": "address",
          "name": "user",
          "type": "address"
        },
        {
          "indexed": false,
          "internalType": "uint64",
          "name": "expires",
          "type": "uint64"
        }
      ],
      "name": "UpdateUser",
      "type": "event"
    },
    {
      "inputs": [],
      "name": "MAX_TOKENS",
      "outputs": [
        {
          "internalType": "uint256",
          "name": "",
          "type": "uint256"
        }
      ],
      "stateMutability": "view",
      "type": "function"
    },
    {
      "inputs": [
        {
          "internalType": "uint256",
          "name": "newCap",
          "type": "uint256"
        }
      ],
      "name": "adjustCap",
      "outputs": [],
      "stateMutability": "nonpayable",
      "type": "function"
    },
    {
      "inputs": [
        {
          "internalType": "address",
          "name": "operator",
          "type": "address"
        },
        {
          "internalType": "uint256",
          "name": "tokenId",
          "type": "uint256"
        }
      ],
      "name": "approve",
      "outputs": [],
      "stateMutability": "nonpayable",
      "type": "function"
    },
    {
      "inputs": [
        {
          "internalType": "address",
          "name": "owner",
          "type": "address"
        }
      ],
      "name": "balanceOf",
      "outputs": [
        {
          "internalType": "uint256",
          "name": "",
          "type": "uint256"
        }
      ],
      "stateMutability": "view",
      "type": "function"
    },
    {
      "inputs": [],
      "name": "baseURI",
      "outputs": [
        {
          "internalType": "string",
          "name": "",
          "type": "string"
        }
      ],
      "stateMutability": "view",
      "type": "function"
    },
    {
      "inputs": [],
      "name": "contractURI",
      "outputs": [
        {
          "internalType": "string",
          "name": "",
          "type": "string"
        }
      ],
      "stateMutability": "view",
      "type": "function"
    },
    {
      "inputs": [
        {
          "internalType": "address[]",
          "name": "accounts",
          "type": "address[]"
        },
        {
          "internalType": "uint32[]",
          "name": "percentAllocations",
          "type": "uint32[]"
        },
        {
          "internalType": "uint32",
          "name": "distributorFee",
          "type": "uint32"
        }
      ],
      "name": "createSplit",
      "outputs": [],
      "stateMutability": "nonpayable",
      "type": "function"
    },
    {
      "inputs": [
        {
          "internalType": "address",
          "name": "account",
          "type": "address"
        },
        {
          "internalType": "uint256",
          "name": "withdrawETH",
          "type": "uint256"
        },
        {
          "internalType": "contract ERC20[]",
          "name": "tokens",
          "type": "address[]"
        },
        {
          "internalType": "address[]",
          "name": "accounts",
          "type": "address[]"
        },
        {
          "internalType": "uint32[]",
          "name": "percentAllocations",
          "type": "uint32[]"
        },
        {
          "internalType": "uint32",
          "name": "distributorFee",
          "type": "uint32"
        },
        {
          "internalType": "address",
          "name": "distributorAddress",
          "type": "address"
        }
      ],
      "name": "distributeAndWithdraw",
      "outputs": [],
      "stateMutability": "nonpayable",
      "type": "function"
    },
    {
      "inputs": [
        {
          "internalType": "contract ERC20",
          "name": "token",
          "type": "address"
        },
        {
          "internalType": "address[]",
          "name": "accounts",
          "type": "address[]"
        },
        {
          "internalType": "uint32[]",
          "name": "percentAllocations",
          "type": "uint32[]"
        },
        {
          "internalType": "uint32",
          "name": "distributorFee",
          "type": "uint32"
        },
        {
          "internalType": "address",
          "name": "distributorAddress",
          "type": "address"
        }
      ],
      "name": "distributeERC20",
      "outputs": [],
      "stateMutability": "nonpayable",
      "type": "function"
    },
    {
      "inputs": [
        {
          "internalType": "address[]",
          "name": "accounts",
          "type": "address[]"
        },
        {
          "internalType": "uint32[]",
          "name": "percentAllocations",
          "type": "uint32[]"
        },
        {
          "internalType": "uint32",
          "name": "distributorFee",
          "type": "uint32"
        },
        {
          "internalType": "address",
          "name": "distributorAddress",
          "type": "address"
        }
      ],
      "name": "distributeETH",
      "outputs": [],
      "stateMutability": "nonpayable",
      "type": "function"
    },
    {
      "inputs": [],
      "name": "flipSaleState",
      "outputs": [],
      "stateMutability": "nonpayable",
      "type": "function"
    },
    {
      "inputs": [
        {
          "internalType": "uint256",
          "name": "tokenId",
          "type": "uint256"
        }
      ],
      "name": "getApproved",
      "outputs": [
        {
          "internalType": "address",
          "name": "",
          "type": "address"
        }
      ],
      "stateMutability": "view",
      "type": "function"
    },
    {
      "inputs": [],
      "name": "hasAdjustableCap",
      "outputs": [
        {
          "internalType": "bool",
          "name": "",
          "type": "bool"
        }
      ],
      "stateMutability": "view",
      "type": "function"
    },
    {
      "inputs": [
        {
          "internalType": "address",
          "name": "_owner",
          "type": "address"
        },
        {
          "components": [
            {
              "internalType": "string",
              "name": "name",
              "type": "string"
            },
            {
              "internalType": "string",
              "name": "symbol",
              "type": "string"
            },
            {
              "internalType": "bool",
              "name": "hasAdjustableCap",
              "type": "bool"
            },
            {
              "internalType": "uint256",
              "name": "maxTokens",
              "type": "uint256"
            },
            {
              "internalType": "uint256",
              "name": "tokenPrice",
              "type": "uint256"
            },
            {
              "internalType": "uint256",
              "name": "maxTokenPurchase",
              "type": "uint256"
            },
            {
              "internalType": "bytes32",
              "name": "presaleMerkleRoot",
              "type": "bytes32"
            },
            {
              "internalType": "uint256",
              "name": "presaleStart",
              "type": "uint256"
            },
            {
              "internalType": "uint256",
              "name": "presaleEnd",
              "type": "uint256"
            },
            {
              "internalType": "uint256",
              "name": "saleStart",
              "type": "uint256"
            },
            {
              "internalType": "uint256",
              "name": "saleEnd",
              "type": "uint256"
            },
            {
              "internalType": "uint256",
              "name": "royaltyBPS",
              "type": "uint256"
            }
          ],
          "internalType": "struct EditionConfig",
          "name": "_editionConfig",
          "type": "tuple"
        },
        {
          "components": [
            {
              "internalType": "string",
              "name": "contractURI",
              "type": "string"
            },
            {
              "internalType": "string",
              "name": "metadataURI",
              "type": "string"
            },
            {
              "internalType": "bytes",
              "name": "metadataRendererInit",
              "type": "bytes"
            },
            {
              "internalType": "address",
              "name": "parentIP",
              "type": "address"
            }
          ],
          "internalType": "struct MetadataConfig",
          "name": "_metadataConfig",
          "type": "tuple"
        },
        {
          "components": [
            {
              "internalType": "address",
              "name": "tokenAddress",
              "type": "address"
            },
            {
              "internalType": "uint88",
              "name": "minBalance",
              "type": "uint88"
            },
            {
              "internalType": "enum SaleType",
              "name": "saleType",
              "type": "uint8"
            }
          ],
          "internalType": "struct TokenGateConfig",
          "name": "_tokenGateConfig",
          "type": "tuple"
        },
        {
          "internalType": "address",
          "name": "_metadataRenderer",
          "type": "address"
        },
        {
          "internalType": "address",
          "name": "_splitMain",
          "type": "address"
        }
      ],
      "name": "initialize",
      "outputs": [],
      "stateMutability": "nonpayable",
      "type": "function"
    },
    {
      "inputs": [
        {
          "internalType": "address",
          "name": "owner",
          "type": "address"
        },
        {
          "internalType": "address",
          "name": "operator",
          "type": "address"
        }
      ],
      "name": "isApprovedForAll",
      "outputs": [
        {
          "internalType": "bool",
          "name": "",
          "type": "bool"
        }
      ],
      "stateMutability": "view",
      "type": "function"
    },
    {
      "inputs": [],
      "name": "maxTokenPurchase",
      "outputs": [
        {
          "internalType": "uint256",
          "name": "",
          "type": "uint256"
        }
      ],
      "stateMutability": "view",
      "type": "function"
    },
    {
      "inputs": [],
      "name": "metadataRenderer",
      "outputs": [
        {
          "internalType": "address",
          "name": "",
          "type": "address"
        }
      ],
      "stateMutability": "view",
      "type": "function"
    },
    {
      "inputs": [
        {
          "internalType": "uint256",
          "name": "numberOfTokens",
          "type": "uint256"
        }
      ],
      "name": "mint",
      "outputs": [],
      "stateMutability": "payable",
      "type": "function"
    },
    {
      "inputs": [
        {
          "internalType": "address[]",
          "name": "recipients",
          "type": "address[]"
        }
      ],
      "name": "mintAirdrop",
      "outputs": [],
      "stateMutability": "nonpayable",
      "type": "function"
    },
    {
      "inputs": [
        {
          "internalType": "uint256",
          "name": "quantity",
          "type": "uint256"
        },
        {
          "internalType": "uint256",
          "name": "maxQuantity",
          "type": "uint256"
        },
        {
          "internalType": "uint256",
          "name": "pricePerToken",
          "type": "uint256"
        },
        {
          "internalType": "bytes32[]",
          "name": "merkleProof",
          "type": "bytes32[]"
        }
      ],
      "name": "mintPresale",
      "outputs": [],
      "stateMutability": "payable",
      "type": "function"
    },
    {
      "inputs": [],
      "name": "name",
      "outputs": [
        {
          "internalType": "string",
          "name": "",
          "type": "string"
        }
      ],
      "stateMutability": "view",
      "type": "function"
    },
    {
      "inputs": [],
      "name": "operatorFilterRegistry",
      "outputs": [
        {
          "internalType": "contract IOperatorFilterRegistry",
          "name": "",
          "type": "address"
        }
      ],
      "stateMutability": "view",
      "type": "function"
    },
    {
      "inputs": [],
      "name": "owner",
      "outputs": [
        {
          "internalType": "address",
          "name": "",
          "type": "address"
        }
      ],
      "stateMutability": "view",
      "type": "function"
    },
    {
      "inputs": [
        {
          "internalType": "uint256",
          "name": "tokenId",
          "type": "uint256"
        }
      ],
      "name": "ownerOf",
      "outputs": [
        {
          "internalType": "address",
          "name": "",
          "type": "address"
        }
      ],
      "stateMutability": "view",
      "type": "function"
    },
    {
      "inputs": [],
      "name": "parentIP",
      "outputs": [
        {
          "internalType": "address",
          "name": "",
          "type": "address"
        }
      ],
      "stateMutability": "view",
      "type": "function"
    },
    {
      "inputs": [],
      "name": "presaleEnd",
      "outputs": [
        {
          "internalType": "uint256",
          "name": "",
          "type": "uint256"
        }
      ],
      "stateMutability": "view",
      "type": "function"
    },
    {
      "inputs": [],
      "name": "presaleStart",
      "outputs": [
        {
          "internalType": "uint256",
          "name": "",
          "type": "uint256"
        }
      ],
      "stateMutability": "view",
      "type": "function"
    },
    {
      "inputs": [],
      "name": "renounceOwnership",
      "outputs": [],
      "stateMutability": "nonpayable",
      "type": "function"
    },
    {
      "inputs": [
        {
          "internalType": "uint256",
          "name": "numReserved",
          "type": "uint256"
        }
      ],
      "name": "reserveFRST",
      "outputs": [],
      "stateMutability": "nonpayable",
      "type": "function"
    },
    {
      "inputs": [],
      "name": "royaltyBPS",
      "outputs": [
        {
          "internalType": "uint256",
          "name": "",
          "type": "uint256"
        }
      ],
      "stateMutability": "view",
      "type": "function"
    },
    {
      "inputs": [
        {
          "internalType": "uint256",
          "name": "tokenId",
          "type": "uint256"
        },
        {
          "internalType": "uint256",
          "name": "salePrice",
          "type": "uint256"
        }
      ],
      "name": "royaltyInfo",
      "outputs": [
        {
          "internalType": "address",
          "name": "receiver",
          "type": "address"
        },
        {
          "internalType": "uint256",
          "name": "royaltyAmount",
          "type": "uint256"
        }
      ],
      "stateMutability": "view",
      "type": "function"
    },
    {
      "inputs": [
        {
          "internalType": "address",
          "name": "from",
          "type": "address"
        },
        {
          "internalType": "address",
          "name": "to",
          "type": "address"
        },
        {
          "internalType": "uint256",
          "name": "tokenId",
          "type": "uint256"
        }
      ],
      "name": "safeTransferFrom",
      "outputs": [],
      "stateMutability": "nonpayable",
      "type": "function"
    },
    {
      "inputs": [
        {
          "internalType": "address",
          "name": "from",
          "type": "address"
        },
        {
          "internalType": "address",
          "name": "to",
          "type": "address"
        },
        {
          "internalType": "uint256",
          "name": "tokenId",
          "type": "uint256"
        },
        {
          "internalType": "bytes",
          "name": "_data",
          "type": "bytes"
        }
      ],
      "name": "safeTransferFrom",
      "outputs": [],
      "stateMutability": "nonpayable",
      "type": "function"
    },
    {
      "inputs": [],
      "name": "saleEnd",
      "outputs": [
        {
          "internalType": "uint256",
          "name": "",
          "type": "uint256"
        }
      ],
      "stateMutability": "view",
      "type": "function"
    },
    {
      "inputs": [],
      "name": "saleIsActive",
      "outputs": [
        {
          "internalType": "bool",
          "name": "_saleIsActive",
          "type": "bool"
        }
      ],
      "stateMutability": "view",
      "type": "function"
    },
    {
      "inputs": [],
      "name": "saleIsPaused",
      "outputs": [
        {
          "internalType": "bool",
          "name": "",
          "type": "bool"
        }
      ],
      "stateMutability": "view",
      "type": "function"
    },
    {
      "inputs": [],
      "name": "saleStart",
      "outputs": [
        {
          "internalType": "uint256",
          "name": "",
          "type": "uint256"
        }
      ],
      "stateMutability": "view",
      "type": "function"
    },
    {
      "inputs": [
        {
          "internalType": "address",
          "name": "operator",
          "type": "address"
        },
        {
          "internalType": "bool",
          "name": "approved",
          "type": "bool"
        }
      ],
      "name": "setApprovalForAll",
      "outputs": [],
      "stateMutability": "nonpayable",
      "type": "function"
    },
    {
      "inputs": [
        {
          "internalType": "string",
          "name": "uri",
          "type": "string"
        }
      ],
      "name": "setBaseURI",
      "outputs": [],
      "stateMutability": "nonpayable",
      "type": "function"
    },
    {
      "inputs": [
        {
          "internalType": "string",
          "name": "uri",
          "type": "string"
        }
      ],
      "name": "setContractURI",
      "outputs": [],
      "stateMutability": "nonpayable",
      "type": "function"
    },
    {
      "inputs": [
        {
          "internalType": "address",
          "name": "_metadataRenderer",
          "type": "address"
        }
      ],
      "name": "setMetadataRenderer",
      "outputs": [],
      "stateMutability": "nonpayable",
      "type": "function"
    },
    {
      "inputs": [
        {
          "internalType": "bytes32",
          "name": "_presaleMerkleRoot",
          "type": "bytes32"
        }
      ],
      "name": "setPresaleMerkleRoot",
      "outputs": [],
      "stateMutability": "nonpayable",
      "type": "function"
    },
    {
      "inputs": [
        {
          "internalType": "uint256",
          "name": "tokenId",
          "type": "uint256"
        },
        {
          "internalType": "address",
          "name": "user",
          "type": "address"
        },
        {
          "internalType": "uint64",
          "name": "expires",
          "type": "uint64"
        }
      ],
      "name": "setUser",
      "outputs": [],
      "stateMutability": "nonpayable",
      "type": "function"
    },
    {
      "inputs": [],
      "name": "splitMain",
      "outputs": [
        {
          "internalType": "address",
          "name": "",
          "type": "address"
        }
      ],
      "stateMutability": "view",
      "type": "function"
    },
    {
      "inputs": [],
      "name": "splitWallet",
      "outputs": [
        {
          "internalType": "address",
          "name": "",
          "type": "address"
        }
      ],
      "stateMutability": "view",
      "type": "function"
    },
    {
      "inputs": [
        {
          "internalType": "bytes4",
          "name": "interfaceId",
          "type": "bytes4"
        }
      ],
      "name": "supportsInterface",
      "outputs": [
        {
          "internalType": "bool",
          "name": "",
          "type": "bool"
        }
      ],
      "stateMutability": "view",
      "type": "function"
    },
    {
      "inputs": [],
      "name": "symbol",
      "outputs": [
        {
          "internalType": "string",
          "name": "",
          "type": "string"
        }
      ],
      "stateMutability": "view",
      "type": "function"
    },
    {
      "inputs": [],
      "name": "tokenGateConfig",
      "outputs": [
        {
          "internalType": "address",
          "name": "tokenAddress",
          "type": "address"
        },
        {
          "internalType": "uint88",
          "name": "minBalance",
          "type": "uint88"
        },
        {
          "internalType": "enum SaleType",
          "name": "saleType",
          "type": "uint8"
        }
      ],
      "stateMutability": "view",
      "type": "function"
    },
    {
      "inputs": [],
      "name": "tokenPrice",
      "outputs": [
        {
          "internalType": "uint256",
          "name": "",
          "type": "uint256"
        }
      ],
      "stateMutability": "view",
      "type": "function"
    },
    {
      "inputs": [
        {
          "internalType": "uint256",
          "name": "tokenId",
          "type": "uint256"
        }
      ],
      "name": "tokenURI",
      "outputs": [
        {
          "internalType": "string",
          "name": "",
          "type": "string"
        }
      ],
      "stateMutability": "view",
      "type": "function"
    },
    {
      "inputs": [],
      "name": "totalSupply",
      "outputs": [
        {
          "internalType": "uint256",
          "name": "",
          "type": "uint256"
        }
      ],
      "stateMutability": "view",
      "type": "function"
    },
    {
      "inputs": [
        {
          "internalType": "address",
          "name": "from",
          "type": "address"
        },
        {
          "internalType": "address",
          "name": "to",
          "type": "address"
        },
        {
          "internalType": "uint256",
          "name": "tokenId",
          "type": "uint256"
        }
      ],
      "name": "transferFrom",
      "outputs": [],
      "stateMutability": "nonpayable",
      "type": "function"
    },
    {
      "inputs": [
        {
          "internalType": "address",
          "name": "newOwner",
          "type": "address"
        }
      ],
      "name": "transferOwnership",
      "outputs": [],
      "stateMutability": "nonpayable",
      "type": "function"
    },
    {
      "inputs": [
        {
          "internalType": "uint256",
          "name": "transferETH",
          "type": "uint256"
        },
        {
          "internalType": "contract ERC20[]",
          "name": "tokens",
          "type": "address[]"
        }
      ],
      "name": "transferToSplit",
      "outputs": [],
      "stateMutability": "nonpayable",
      "type": "function"
    },
    {
      "inputs": [
        {
          "internalType": "bool",
          "name": "enable",
          "type": "bool"
        },
        {
          "internalType": "address",
          "name": "operatorFilter",
          "type": "address"
        }
      ],
      "name": "updateOperatorFilter",
      "outputs": [],
      "stateMutability": "nonpayable",
      "type": "function"
    },
    {
      "inputs": [
        {
          "internalType": "uint256",
          "name": "newStart",
          "type": "uint256"
        },
        {
          "internalType": "uint256",
          "name": "newEnd",
          "type": "uint256"
        }
      ],
      "name": "updatePresaleStartEnd",
      "outputs": [],
      "stateMutability": "nonpayable",
      "type": "function"
    },
    {
      "inputs": [
        {
          "internalType": "uint256",
          "name": "newStart",
          "type": "uint256"
        },
        {
          "internalType": "uint256",
          "name": "newEnd",
          "type": "uint256"
        }
      ],
      "name": "updateSaleStartEnd",
      "outputs": [],
      "stateMutability": "nonpayable",
      "type": "function"
    },
    {
      "inputs": [
        {
          "internalType": "uint256",
          "name": "tokenId",
          "type": "uint256"
        }
      ],
      "name": "userExpires",
      "outputs": [
        {
          "internalType": "uint256",
          "name": "",
          "type": "uint256"
        }
      ],
      "stateMutability": "view",
      "type": "function"
    },
    {
      "inputs": [
        {
          "internalType": "uint256",
          "name": "tokenId",
          "type": "uint256"
        }
      ],
      "name": "userOf",
      "outputs": [
        {
          "internalType": "address",
          "name": "",
          "type": "address"
        }
      ],
      "stateMutability": "view",
      "type": "function"
    },
    {
      "inputs": [],
      "name": "withdraw",
      "outputs": [],
      "stateMutability": "nonpayable",
      "type": "function"
    }
  ],
  "bytecode": "0x60806040523480156200001157600080fd5b506200001d3362000023565b6200007f565b600980546001600160a01b038381166201000081810262010000600160b01b031985161790945560405193909204169182907f8be0079c531659141344cd1fd0a4f28419497f9722a3daafe3b4186f6b6457e090600090a35050565b614237806200008f6000396000f3fe6080604052600436106103965760003560e01c80637ff9b596116101dc578063c4559d5a11610102578063e6c350c1116100a0578063f0cc8b621161006f578063f0cc8b6214610a96578063f2fde38b14610ab6578063f47c84c514610ad6578063fd4fe8a814610aec57600080fd5b8063e6c350c114610a32578063e8a3d48514610a4c578063e985e9c514610a61578063eb8d244414610a8157600080fd5b8063c9ef5eee116100dc578063c9ef5eee146109bc578063d58d458a146109dc578063de8801e5146109fc578063e030565e14610a1257600080fd5b8063c4559d5a1461095c578063c59531701461097c578063c87b56dd1461099c57600080fd5b8063a22cb4651161017a578063b94356de11610149578063b94356de146108dc578063b9c9d93a146108fc578063c10b935814610912578063c2f1f14a1461092857600080fd5b8063a22cb46514610864578063ab0bcc4114610884578063b0ccc31e1461089a578063b88d4fde146108bc57600080fd5b8063931cf0f4116101b6578063931cf0f4146107fb578063938e3d7b1461081c57806395d89b411461083c578063a0712d681461085157600080fd5b80637ff9b596146107915780638da5cb5b146107a75780638fc88c48146107cb57600080fd5b80632a55205a116102c15780636352211e1161025f578063713b97871161022e578063713b978714610729578063715018a614610749578063727a612e1461075e57806379ab7c8e1461077157600080fd5b80636352211e146106b45780636c0360eb146106d457806370319970146106e957806370a082311461070957600080fd5b80633ccfd60b1161029b5780633ccfd60b1461063f57806342842e0e1461065457806355f804b3146106745780635799dbdd1461069457600080fd5b80632a55205a146105cb5780632d75fea61461060a57806334918dfd1461062a57600080fd5b80630e769b2b11610339578063229f3e2911610308578063229f3e291461055557806323b872dd1461056b578063284a44a81461058b57806328d7b276146105ab57600080fd5b80630e769b2b146104b057806317dc2587146104d057806318160ddd146104f05780631dbdedbd1461050957600080fd5b806306fdde031161037557806306fdde0314610412578063081812fc14610434578063095ea7b31461046c57806309aa3dcf1461048c57600080fd5b80625f16fb1461039b578063015893c5146103bd57806301ffc9a7146103dd575b600080fd5b3480156103a757600080fd5b506103bb6103b63660046131ac565b610b0c565b005b3480156103c957600080fd5b506103bb6103d8366004613253565b610be9565b3480156103e957600080fd5b506103fd6103f83660046132e9565b610d63565b60405190151581526020015b60405180910390f35b34801561041e57600080fd5b50610427610d74565b6040516104099190613356565b34801561044057600080fd5b5061045461044f366004613369565b610e06565b6040516001600160a01b039091168152602001610409565b34801561047857600080fd5b506103bb610487366004613382565b610e4a565b34801561049857600080fd5b506104a2600c5481565b604051908152602001610409565b3480156104bc57600080fd5b50601754610454906001600160a01b031681565b3480156104dc57600080fd5b506103bb6104eb3660046133ae565b610e58565b3480156104fc57600080fd5b50600154600054036104a2565b34801561051557600080fd5b50600854610546906001600160a01b03811690600160a01b81046001600160581b031690600160f81b900460ff1683565b604051610409939291906133e6565b34801561056157600080fd5b506104a260155481565b34801561057757600080fd5b506103bb610586366004613431565b610e6b565b34801561059757600080fd5b506103bb6105a6366004613569565b61100d565b3480156105b757600080fd5b506103bb6105c6366004613369565b6110b6565b3480156105d757600080fd5b506105eb6105e63660046133ae565b6110c3565b604080516001600160a01b039093168352602083019190915201610409565b34801561061657600080fd5b506103bb610625366004613656565b611170565b34801561063657600080fd5b506103bb611378565b34801561064b57600080fd5b506103bb611394565b34801561066057600080fd5b506103bb61066f366004613431565b6114a2565b34801561068057600080fd5b506103bb61068f36600461370c565b6114bd565b3480156106a057600080fd5b506103bb6106af3660046133ae565b6114d1565b3480156106c057600080fd5b506104546106cf366004613369565b6114e4565b3480156106e057600080fd5b506104276114ef565b3480156106f557600080fd5b50601254610454906001600160a01b031681565b34801561071557600080fd5b506104a2610724366004613740565b61157d565b34801561073557600080fd5b50601854610454906001600160a01b031681565b34801561075557600080fd5b506103bb6115cb565b6103bb61076c36600461375d565b6115df565b34801561077d57600080fd5b506103bb61078c3660046137bd565b6119db565b34801561079d57600080fd5b506104a2600b5481565b3480156107b357600080fd5b506009546201000090046001600160a01b0316610454565b3480156107d757600080fd5b506104a26107e6366004613369565b6000908152601a602052604090205460a01c90565b34801561080757600080fd5b506009546103fd90600160b01b900460ff1681565b34801561082857600080fd5b506103bb61083736600461370c565b611a61565b34801561084857600080fd5b50610427611a75565b6103bb61085f366004613369565b611a84565b34801561087057600080fd5b506103bb61087f3660046137f9565b611e0e565b34801561089057600080fd5b506104a2600d5481565b3480156108a657600080fd5b506104546daaeb6d7670e522a718067333cd4e81565b3480156108c857600080fd5b506103bb6108d7366004613827565b611e18565b3480156108e857600080fd5b506103bb6108f7366004613369565b611e5c565b34801561090857600080fd5b506104a260135481565b34801561091e57600080fd5b506104a2600e5481565b34801561093457600080fd5b50610454610943366004613369565b6000908152601a60205260409020544260a01b81110290565b34801561096857600080fd5b506103bb610977366004613892565b611ecc565b34801561098857600080fd5b506103bb610997366004613925565b611f9c565b3480156109a857600080fd5b506104276109b7366004613369565b612090565b3480156109c857600080fd5b506103bb6109d7366004613aad565b61209b565b3480156109e857600080fd5b506103bb6109f7366004613369565b61239d565b348015610a0857600080fd5b506104a260145481565b348015610a1e57600080fd5b506103bb610a2d366004613c1e565b61245f565b348015610a3e57600080fd5b50600f546103fd9060ff1681565b348015610a5857600080fd5b5061042761252f565b348015610a6d57600080fd5b506103fd610a7c366004613c6c565b6125cf565b348015610a8d57600080fd5b506103fd6125fd565b348015610aa257600080fd5b50601954610454906001600160a01b031681565b348015610ac257600080fd5b506103bb610ad1366004613740565b612625565b348015610ae257600080fd5b506104a2600a5481565b348015610af857600080fd5b506103bb610b07366004613740565b61269b565b6000610b206018546001600160a01b031690565b6001600160a01b031603610b4f5760405162461bcd60e51b8152600401610b4690613c8a565b60405180910390fd5b610b58876126c5565b6017546001600160a01b03166001600160a01b03166315811302610b846018546001600160a01b031690565b898989898989896040518963ffffffff1660e01b8152600401610bae989796959493929190613d3b565b600060405180830381600087803b158015610bc857600080fd5b505af1158015610bdc573d6000803e3d6000fd5b5050505050505050505050565b610bf16127c4565b6000610c056017546001600160a01b031690565b6001600160a01b031603610c4f5760405162461bcd60e51b815260206004820152601160248201527014dc1b1a5d13585a5b881b9bdd081cd95d607a1b6044820152606401610b46565b6000610c636018546001600160a01b031690565b6001600160a01b031614610cb15760405162461bcd60e51b815260206004820152601560248201527414dc1b1a5d08185b1c9958591e4818dc99585d1959605a1b6044820152606401610b46565b6000610cc56017546001600160a01b031690565b6001600160a01b0316637601f7828787878787336040518763ffffffff1660e01b8152600401610cfa96959493929190613d9d565b6020604051808303816000875af1158015610d19573d6000803e3d6000fd5b505050506040513d601f19601f82011682018060405250810190610d3d9190613dee565b601880546001600160a01b0319166001600160a01b03831617905590505b505050505050565b6000610d6e82612825565b92915050565b606060028054610d8390613e0b565b80601f0160208091040260200160405190810160405280929190818152602001828054610daf90613e0b565b8015610dfc5780601f10610dd157610100808354040283529160200191610dfc565b820191906000526020600020905b815481529060010190602001808311610ddf57829003601f168201915b5050505050905090565b6000610e118261284d565b610e2e576040516333d1c03960e21b815260040160405180910390fd5b506000908152600660205260409020546001600160a01b031690565b610e548282612874565b5050565b610e606127c4565b600d91909155600e55565b6000610e7682612888565b9050836001600160a01b0316816001600160a01b031614610ea95760405162a1148160e81b815260040160405180910390fd5b60008281526006602052604090208054338082146001600160a01b03881690911417610ef657610ed986336125cf565b610ef657604051632ce44b5f60e11b815260040160405180910390fd5b6001600160a01b038516610f1d57604051633a954ecd60e21b815260040160405180910390fd5b610f2a86868660016128f6565b8015610f3557600082555b6001600160a01b038681166000908152600560205260408082208054600019019055918716808252919020805460010190554260a01b17600160e11b17600085815260046020526040812091909155600160e11b84169003610fc757600184016000818152600460205260408120549003610fc5576000548114610fc55760008181526004602052604090208490555b505b83856001600160a01b0316876001600160a01b03167fddf252ad1be2c89b69c2b068fc378daa952ba7f163c4a11628f55a4df523b3ef60405160405180910390a4610d5b565b60006110216018546001600160a01b031690565b6001600160a01b0316036110475760405162461bcd60e51b8152600401610b4690613c8a565b871561105b5761105b868686868686611ecc565b60005b875181101561109f5761108f88828151811061107c5761107c613e45565b6020026020010151888888888888610b0c565b61109881613e71565b905061105e565b506110ab898989612902565b505050505050505050565b6110be6127c4565b601655565b6000806110cf8461284d565b61110f5760405162461bcd60e51b81526020600482015260116024820152702737b732bc34b9ba32b73a103a37b5b2b760791b6044820152606401610b46565b6018546001600160a01b031615611133576018546001600160a01b03169150611148565b6009546201000090046001600160a01b031691505b60006127106013548561115b9190613e8a565b6111659190613ea1565b9150505b9250929050565b6111786127c4565b60405163c3c5a54760e01b81523060048201819052906daaeb6d7670e522a718067333cd4e9063c3c5a547906024016020604051808303816000875af11580156111c6573d6000803e3d6000fd5b505050506040513d601f19601f820116820180604052508101906111ea9190613ec3565b1580156111f45750825b1561126e57604051633e9f1edf60e11b81526001600160a01b038083166004830152831660248201526daaeb6d7670e522a718067333cd4e90637d3e3dbe906044015b600060405180830381600087803b15801561125157600080fd5b505af1158015611265573d6000803e3d6000fd5b50505050505050565b82156112b657604051632cc5350560e21b81526001600160a01b038083166004830152831660248201526daaeb6d7670e522a718067333cd4e9063b314d41490604401611237565b60405163034a0dc160e41b81526001600160a01b0382166004820152600060248201526daaeb6d7670e522a718067333cd4e906334a0dc1090604401600060405180830381600087803b15801561130c57600080fd5b505af1158015611320573d6000803e3d6000fd5b5050604051631761612360e11b81526001600160a01b03841660048201526daaeb6d7670e522a718067333cd4e9250632ec2c2469150602401600060405180830381600087803b15801561125157600080fd5b505050565b6113806127c4565b600f805460ff19811660ff90911615179055565b61139c6127c4565b60006113b06018546001600160a01b031690565b6001600160a01b0316146114125760405162461bcd60e51b8152602060048201526024808201527f43616e6e6f74207769746864726177207769746820616e2061637469766520736044820152631c1b1a5d60e21b6064820152608401610b46565b604051600090339047908381818185875af1925050503d8060008114611454576040519150601f19603f3d011682016040523d82523d6000602084013e611459565b606091505b505090508061149f5760405162461bcd60e51b8152602060048201526012602482015271436f756c64206e6f7420776974686472617760701b6044820152606401610b46565b50565b61137383838360405180602001604052806000815250611e18565b6114c56127c4565b6010610e548282613f26565b6114d96127c4565b601491909155601555565b6000610d6e82612888565b601080546114fc90613e0b565b80601f016020809104026020016040519081016040528092919081815260200182805461152890613e0b565b80156115755780601f1061154a57610100808354040283529160200191611575565b820191906000526020600020905b81548152906001019060200180831161155857829003601f168201915b505050505081565b60006001600160a01b0382166115a6576040516323d3ad8160e21b815260040160405180910390fd5b506001600160a01b03166000908152600560205260409020546001600160401b031690565b6115d36127c4565b6115dd6000612936565b565b6008546001906001600160a01b03161580159061164857506000600854600160f81b900460ff166002811115611617576116176133d0565b1480611648575080801561164857506001600854600160f81b900460ff166002811115611646576116466133d0565b145b8061167957508015801561167957506002600854600160f81b900460ff166002811115611677576116776133d0565b145b15611745576008546040516370a0823160e01b8152336004820152600160a01b82046001600160581b0316916001600160a01b0316906370a08231906024016020604051808303816000875af11580156116d7573d6000803e3d6000fd5b505050506040513d601f19601f820116820180604052508101906116fb9190613fe5565b10156117455760405162461bcd60e51b81526020600482015260196024820152783237903737ba1037bbb7103932b8bab4b932b2103a37b5b2b760391b6044820152606401610b46565b601454421015801561175957506015544211155b6117935760405162461bcd60e51b815260206004820152600b60248201526a6e6f742070726573616c6560a81b6044820152606401610b46565b600054600f5460ff16156117e95760405162461bcd60e51b815260206004820152601b60248201527f53616c65206d7573742062652061637469766520746f206d696e7400000000006044820152606401610b46565b600a546117f68883613ffe565b11156118145760405162461bcd60e51b8152600401610b4690614011565b611897848480806020026020016040519081016040528093929190818152602001838360200280828437600092019190915250506016546040516bffffffffffffffffffffffff193360601b166020820152603481018c9052605481018b9052909250607401905060405160208183030381529060405280519060200120612992565b6118d25760405162461bcd60e51b815260206004820152600c60248201526b1b9bdd08185c1c1c9bdd995960a21b6044820152606401610b46565b6118dc8786613e8a565b3410156119205760405162461bcd60e51b8152602060048201526012602482015271496e73756666696369656e742066756e647360701b6044820152606401610b46565b858761192b3361157d565b6119359190613ffe565b11156119755760405162461bcd60e51b815260206004820152600f60248201526e6d696e74656420746f6f206d616e7960881b6044820152606401610b46565b61197f33886129a8565b60005b878110156119d15760408051338152602081018490526001909301927f30385c845b448a36257a6a1716e6ad2e1bc2cbe333cde1e69fe849ad6511adfe910160405180910390a1600101611982565b5050505050505050565b60006119ef6018546001600160a01b031690565b6001600160a01b031603611a155760405162461bcd60e51b8152600401610b4690613c8a565b8115611a2357611a236129c2565b60005b815181101561137357611a51828281518110611a4457611a44613e45565b60200260200101516126c5565b611a5a81613e71565b9050611a26565b611a696127c4565b6011610e548282613f26565b606060038054610d8390613e0b565b6008546000906001600160a01b031615801590611aed57506000600854600160f81b900460ff166002811115611abc57611abc6133d0565b1480611aed5750808015611aed57506001600854600160f81b900460ff166002811115611aeb57611aeb6133d0565b145b80611b1e575080158015611b1e57506002600854600160f81b900460ff166002811115611b1c57611b1c6133d0565b145b15611bea576008546040516370a0823160e01b8152336004820152600160a01b82046001600160581b0316916001600160a01b0316906370a08231906024016020604051808303816000875af1158015611b7c573d6000803e3d6000fd5b505050506040513d601f19601f82011682018060405250810190611ba09190613fe5565b1015611bea5760405162461bcd60e51b81526020600482015260196024820152783237903737ba1037bbb7103932b8bab4b932b2103a37b5b2b760391b6044820152606401610b46565b600054600d544210801590611c015750600e544211155b611c455760405162461bcd60e51b815260206004820152601560248201527429b0b632b99030b932903737ba1030b1ba34bb329760591b6044820152606401610b46565b600f5460ff1615611c985760405162461bcd60e51b815260206004820152601b60248201527f53616c65206d7573742062652061637469766520746f206d696e7400000000006044820152606401610b46565b600a54611ca58483613ffe565b1115611cc35760405162461bcd60e51b8152600401610b4690614011565b600a54811115611d005760405162461bcd60e51b815260206004820152600860248201526714d3d3110813d55560c21b6044820152606401610b46565b82600b54611d0e9190613e8a565b341015611d525760405162461bcd60e51b8152602060048201526012602482015271496e73756666696369656e742066756e647360701b6044820152606401610b46565b600c5415611dac57600c54831115611dac5760405162461bcd60e51b815260206004820152601c60248201527f4578636565646564206d6178206e756d62657220706572206d696e74000000006044820152606401610b46565b611db633846129a8565b60005b83811015611e085760408051338152602081018490526001909301927f30385c845b448a36257a6a1716e6ad2e1bc2cbe333cde1e69fe849ad6511adfe910160405180910390a1600101611db9565b50505050565b610e548282612a76565b611e23848484610e6b565b6001600160a01b0383163b15611e0857611e3f84848484612a8a565b611e08576040516368d2bf6b60e11b815260040160405180910390fd5b611e646127c4565b600054600a54611e748383613ffe565b10611e915760405162461bcd60e51b8152600401610b4690614011565b60005b8281101561137357611eba33611eaa8385613ffe565b611eb5906001613ffe565b6129a8565b80611ec481613e71565b915050611e94565b6000611ee06018546001600160a01b031690565b6001600160a01b031603611f065760405162461bcd60e51b8152600401610b4690613c8a565b611f0e6129c2565b6017546001600160a01b03166001600160a01b031663e61cb05e611f3a6018546001600160a01b031690565b8888888888886040518863ffffffff1660e01b8152600401611f629796959493929190614046565b600060405180830381600087803b158015611f7c57600080fd5b505af1158015611f90573d6000803e3d6000fd5b50505050505050505050565b611fa46127c4565b600054600a548190611fb68483613ffe565b1115611fd45760405162461bcd60e51b8152600401610b4690614011565b8183015b80831015612089576120138585848603818110611ff757611ff7613e45565b905060200201602081019061200c9190613740565b60016129a8565b7f30385c845b448a36257a6a1716e6ad2e1bc2cbe333cde1e69fe849ad6511adfe858584860381811061204857612048613e45565b905060200201602081019061205d9190613740565b604080516001600160a01b039092168252602082018690520160405180910390a1600190920191611fd8565b5050505050565b6060610d6e82612b76565b600954610100900460ff16158080156120bb5750600954600160ff909116105b806120d55750303b1580156120d5575060095460ff166001145b6121385760405162461bcd60e51b815260206004820152602e60248201527f496e697469616c697a61626c653a20636f6e747261637420697320616c72656160448201526d191e481a5b9a5d1a585b1a5e995960921b6064820152608401610b46565b6009805460ff19166001179055801561215b576009805461ff0019166101001790555b61216487612936565b85516002906121739082613f26565b5060208601516003906121869082613f26565b5060008055606080870151600a556080870151600b5560a0870151600c55610120870151600d55610140870151600e5561016087015160135560408088015160098054911515600160b01b0260ff60b01b1990921691909117905590860151601980546001600160a01b039283166001600160a01b03199182161790915560178054868416921691909117905585516008805460208901516001600160581b0316600160a01b026001600160f81b031990911692909316919091179190911780825591860151869282906001600160f81b0316600160f81b836002811115612270576122706133d0565b0217905550505060c086015160165560e08601516014556101008601516015556001600160a01b038316158015906122ad57506000856040015151115b1561232b57601280546001600160a01b0319166001600160a01b03851690811790915560408681015190516342b53ffd60e11b815263856a7ffa916122f491600401613356565b600060405180830381600087803b15801561230e57600080fd5b505af1158015612322573d6000803e3d6000fd5b5050505061234f565b845160119061233a9082613f26565b50602085015160109061234d9082613f26565b505b8015611265576009805461ff0019169055604051600181527f7f26b83ff96e1f2b6a682f133852f6798a09c465da95921460cefb38474024989060200160405180910390a150505050505050565b6123a56127c4565b600954600160b01b900460ff1661240c5760405162461bcd60e51b815260206004820152602560248201527f63616e6e6f742061646a7573742073697a65206f66207468697320636f6c6c6560448201526431ba34b7b760d91b6064820152608401610b46565b8061241660005490565b111561245a5760405162461bcd60e51b8152602060048201526013602482015272063616e6e6f742064656372656173652063617606c1b6044820152606401610b46565b600a55565b600061246a846114e4565b9050336001600160a01b038216146124bb5761248681336125cf565b6124bb573361249485610e06565b6001600160a01b0316146124bb576040516309e3bb1d60e31b815260040160405180910390fd5b6000848152601a60209081526040918290206001600160a01b03861660a086901b67ffffffffffffffff60a01b16811790915591516001600160401b038516815286917f4e06b4e7000e659094299b3533b47b6aa8ad048e95e872d23d1f4ee55af89cfe910160405180910390a350505050565b6012546060906001600160a01b031661254f5760118054610d8390613e0b565b601260009054906101000a90046001600160a01b03166001600160a01b031663e8a3d4856040518163ffffffff1660e01b8152600401600060405180830381865afa1580156125a2573d6000803e3d6000fd5b505050506040513d6000823e601f3d908101601f191682016040526125ca919081019061409f565b905090565b6001600160a01b03918216600090815260076020908152604080832093909416825291909152205460ff1690565b6000600d5442101580156126135750600e544211155b80156125ca575050600f5460ff161590565b61262d6127c4565b6001600160a01b0381166126925760405162461bcd60e51b815260206004820152602660248201527f4f776e61626c653a206e6577206f776e657220697320746865207a65726f206160448201526564647265737360d01b6064820152608401610b46565b61149f81612936565b6126a36127c4565b601280546001600160a01b0319166001600160a01b0392909216919091179055565b6040516370a0823160e01b81523060048201526000906001600160a01b038316906370a0823190602401602060405180830381865afa15801561270c573d6000803e3d6000fd5b505050506040513d601f19601f820116820180604052508101906127309190613fe5565b9050816001600160a01b031663a9059cbb6127536018546001600160a01b031690565b6040516001600160e01b031960e084901b1681526001600160a01b039091166004820152602481018490526044016020604051808303816000875af11580156127a0573d6000803e3d6000fd5b505050506040513d601f19601f820116820180604052508101906113739190613ec3565b6009546001600160a01b03620100009091041633146115dd5760405162461bcd60e51b815260206004820181905260248201527f4f776e61626c653a2063616c6c6572206973206e6f7420746865206f776e65726044820152606401610b46565b600061283082612c29565b80610d6e5750506001600160e01b031916632b424ad760e21b1490565b6000805482108015610d6e575050600090815260046020526040902054600160e01b161590565b8161287e81612c4e565b6113738383612d07565b6000816000548110156128dd5760008181526004602052604081205490600160e01b821690036128db575b806000036128d45750600019016000818152600460205260409020546128b3565b9392505050565b505b604051636f96cda160e11b815260040160405180910390fd5b611e0884848484612da7565b601754604051636e5f691960e01b81526001600160a01b0390911690636e5f69199061123790869086908690600401614115565b600980546001600160a01b038381166201000081810262010000600160b01b031985161790945560405193909204169182907f8be0079c531659141344cd1fd0a4f28419497f9722a3daafe3b4186f6b6457e090600090a35050565b60008261299f8584612dc1565b14949350505050565b610e54828260405180602001604052806000815250612e0e565b60006129d66018546001600160a01b031690565b6001600160a01b03164760405160006040518083038185875af1925050503d8060008114612a20576040519150601f19603f3d011682016040523d82523d6000602084013e612a25565b606091505b505090508061149f5760405162461bcd60e51b815260206004820152601f60248201527f436f756c64206e6f74207472616e736665722045544820746f2073706c6974006044820152606401610b46565b81612a8081612c4e565b6113738383612e74565b604051630a85bd0160e11b81526000906001600160a01b0385169063150b7a0290612abf903390899088908890600401614178565b6020604051808303816000875af1925050508015612afa575060408051601f3d908101601f19168201909252612af7918101906141b5565b60015b612b58573d808015612b28576040519150601f19603f3d011682016040523d82523d6000602084013e612b2d565b606091505b508051600003612b50576040516368d2bf6b60e11b815260040160405180910390fd5b805181602001fd5b6001600160e01b031916630a85bd0160e11b1490505b949350505050565b6060612b818261284d565b612b9e57604051630a14c4b560e41b815260040160405180910390fd5b6012546001600160a01b031615612c205760125460405163c87b56dd60e01b8152600481018490526001600160a01b039091169063c87b56dd90602401600060405180830381865afa158015612bf8573d6000803e3d6000fd5b505050506040513d6000823e601f3d908101601f19168201604052610d6e919081019061409f565b610d6e82612ee0565b600063152a902d60e11b6001600160e01b031983161480610d6e5750610d6e82612f63565b6daaeb6d7670e522a718067333cd4e3b1561149f57604051633185c44d60e21b81523060048201526001600160a01b03821660248201526daaeb6d7670e522a718067333cd4e9063c617113490604401602060405180830381865afa158015612cbb573d6000803e3d6000fd5b505050506040513d601f19601f82011682018060405250810190612cdf9190613ec3565b61149f57604051633b79c77360e21b81526001600160a01b0382166004820152602401610b46565b6000612d12826114e4565b9050336001600160a01b03821614612d4b57612d2e81336125cf565b612d4b576040516367d9dca160e11b815260040160405180910390fd5b60008281526006602052604080822080546001600160a01b0319166001600160a01b0387811691821790925591518593918516917f8c5be1e5ebec7d5bd14f71427d1e84f3dd0314c0f7b2291e5b200ac8c7c3b92591a4505050565b836001600160a01b03811633146120895761208933612c4e565b600081815b8451811015612e0657612df282868381518110612de557612de5613e45565b6020026020010151612fb1565b915080612dfe81613e71565b915050612dc6565b509392505050565b612e188383612fdd565b6001600160a01b0383163b15611373576000548281035b612e426000868380600101945086612a8a565b612e5f576040516368d2bf6b60e11b815260040160405180910390fd5b818110612e2f57816000541461208957600080fd5b3360008181526007602090815260408083206001600160a01b03871680855290835292819020805460ff191686151590811790915590519081529192917f17307eab39ab6107e8899845ad3d59bd9653f200f220920489ca2b5937696c31910160405180910390a35050565b6060612eeb8261284d565b612f0857604051630a14c4b560e41b815260040160405180910390fd5b6000612f126130e8565b90508051600003612f3257604051806020016040528060008152506128d4565b80612f3c846130f7565b604051602001612f4d9291906141d2565b6040516020818303038152906040529392505050565b60006301ffc9a760e01b6001600160e01b031983161480612f9457506380ac58cd60e01b6001600160e01b03198316145b80610d6e5750506001600160e01b031916635b5e139f60e01b1490565b6000818310612fcd5760008281526020849052604090206128d4565b5060009182526020526040902090565b60008054908290036130025760405163b562e8dd60e01b815260040160405180910390fd5b61300f60008483856128f6565b6001600160a01b03831660008181526005602090815260408083208054680100000000000000018802019055848352600490915281206001851460e11b4260a01b178317905582840190839083907fddf252ad1be2c89b69c2b068fc378daa952ba7f163c4a11628f55a4df523b3ef8180a4600183015b8181146130be57808360007fddf252ad1be2c89b69c2b068fc378daa952ba7f163c4a11628f55a4df523b3ef600080a4600101613086565b50816000036130df57604051622e076360e81b815260040160405180910390fd5b60005550505050565b606060108054610d8390613e0b565b604080516080019081905280825b600183039250600a81066030018353600a9004806131055750819003601f19909101908152919050565b6001600160a01b038116811461149f57600080fd5b60008083601f84011261315657600080fd5b5081356001600160401b0381111561316d57600080fd5b6020830191508360208260051b850101111561116957600080fd5b803563ffffffff8116811461319c57600080fd5b919050565b803561319c8161312f565b600080600080600080600060a0888a0312156131c757600080fd5b87356131d28161312f565b965060208801356001600160401b03808211156131ee57600080fd5b6131fa8b838c01613144565b909850965060408a013591508082111561321357600080fd5b506132208a828b01613144565b9095509350613233905060608901613188565b915060808801356132438161312f565b8091505092959891949750929550565b60008060008060006060868803121561326b57600080fd5b85356001600160401b038082111561328257600080fd5b61328e89838a01613144565b909750955060208801359150808211156132a757600080fd5b506132b488828901613144565b90945092506132c7905060408701613188565b90509295509295909350565b6001600160e01b03198116811461149f57600080fd5b6000602082840312156132fb57600080fd5b81356128d4816132d3565b60005b83811015613321578181015183820152602001613309565b50506000910152565b60008151808452613342816020860160208601613306565b601f01601f19169290920160200192915050565b6020815260006128d4602083018461332a565b60006020828403121561337b57600080fd5b5035919050565b6000806040838503121561339557600080fd5b82356133a08161312f565b946020939093013593505050565b600080604083850312156133c157600080fd5b50508035926020909101359150565b634e487b7160e01b600052602160045260246000fd5b6001600160a01b03841681526001600160581b0383166020820152606081016003831061342357634e487b7160e01b600052602160045260246000fd5b826040830152949350505050565b60008060006060848603121561344657600080fd5b83356134518161312f565b925060208401356134618161312f565b929592945050506040919091013590565b634e487b7160e01b600052604160045260246000fd5b60405161018081016001600160401b03811182821017156134ab576134ab613472565b60405290565b604051601f8201601f191681016001600160401b03811182821017156134d9576134d9613472565b604052919050565b600082601f8301126134f257600080fd5b813560206001600160401b0382111561350d5761350d613472565b8160051b61351c8282016134b1565b928352848101820192828101908785111561353657600080fd5b83870192505b8483101561355e57823561354f8161312f565b8252918301919083019061353c565b979650505050505050565b600080600080600080600080600060e08a8c03121561358757600080fd5b89356135928161312f565b985060208a0135975060408a01356001600160401b03808211156135b557600080fd5b6135c18d838e016134e1565b985060608c01359150808211156135d757600080fd5b6135e38d838e01613144565b909850965060808c01359150808211156135fc57600080fd5b506136098c828d01613144565b909550935061361c905060a08b01613188565b915060c08a013561362c8161312f565b809150509295985092959850929598565b801515811461149f57600080fd5b803561319c8161363d565b6000806040838503121561366957600080fd5b82356136748161363d565b915060208301356136848161312f565b809150509250929050565b60006001600160401b038211156136a8576136a8613472565b50601f01601f191660200190565b600082601f8301126136c757600080fd5b81356136da6136d58261368f565b6134b1565b8181528460208386010111156136ef57600080fd5b816020850160208301376000918101602001919091529392505050565b60006020828403121561371e57600080fd5b81356001600160401b0381111561373457600080fd5b612b6e848285016136b6565b60006020828403121561375257600080fd5b81356128d48161312f565b60008060008060006080868803121561377557600080fd5b85359450602086013593506040860135925060608601356001600160401b038111156137a057600080fd5b6137ac88828901613144565b969995985093965092949392505050565b600080604083850312156137d057600080fd5b8235915060208301356001600160401b038111156137ed57600080fd5b611165858286016134e1565b6000806040838503121561380c57600080fd5b82356138178161312f565b915060208301356136848161363d565b6000806000806080858703121561383d57600080fd5b84356138488161312f565b935060208501356138588161312f565b92506040850135915060608501356001600160401b0381111561387a57600080fd5b613886878288016136b6565b91505092959194509250565b600080600080600080608087890312156138ab57600080fd5b86356001600160401b03808211156138c257600080fd5b6138ce8a838b01613144565b909850965060208901359150808211156138e757600080fd5b506138f489828a01613144565b9095509350613907905060408801613188565b915060608701356139178161312f565b809150509295509295509295565b6000806020838503121561393857600080fd5b82356001600160401b0381111561394e57600080fd5b61395a85828601613144565b90969095509350505050565b60006080828403121561397857600080fd5b604051608081016001600160401b03828210818311171561399b5761399b613472565b8160405282935084359150808211156139b357600080fd5b6139bf868387016136b6565b835260208501359150808211156139d557600080fd5b6139e1868387016136b6565b602084015260408501359150808211156139fa57600080fd5b50613a07858286016136b6565b6040830152506060830135613a1b8161312f565b6060919091015292915050565b600060608284031215613a3a57600080fd5b604051606081018181106001600160401b0382111715613a5c57613a5c613472565b6040529050808235613a6d8161312f565b815260208301356001600160581b0381168114613a8957600080fd5b6020820152604083013560038110613aa057600080fd5b6040919091015292915050565b60008060008060008061010080888a031215613ac857600080fd5b8735613ad38161312f565b965060208801356001600160401b0380821115613aef57600080fd5b90890190610180828c031215613b0457600080fd5b613b0c613488565b823582811115613b1b57600080fd5b613b278d8286016136b6565b825250602083013582811115613b3c57600080fd5b613b488d8286016136b6565b602083015250613b5a6040840161364b565b6040820152606083013560608201526080830135608082015260a083013560a082015260c083013560c082015260e083013560e082015283830135848201526101209350838301358482015261014093508383013584820152610160935083830135848201528098505060408a0135925080831115613bd857600080fd5b5050613be689828a01613966565b945050613bf68860608901613a28565b9250613c0460c088016131a1565b9150613c1260e088016131a1565b90509295509295509295565b600080600060608486031215613c3357600080fd5b833592506020840135613c458161312f565b915060408401356001600160401b0381168114613c6157600080fd5b809150509250925092565b60008060408385031215613c7f57600080fd5b82356136748161312f565b60208082526015908201527414dc1b1a5d081b9bdd0818dc99585d1959081e595d605a1b604082015260600190565b8183526000602080850194508260005b85811015613cf7578135613cdc8161312f565b6001600160a01b031687529582019590820190600101613cc9565b509495945050505050565b8183526000602080850194508260005b85811015613cf75763ffffffff613d2883613188565b1687529582019590820190600101613d12565b600060018060a01b03808b168352808a16602084015260c06040840152613d6660c08401898b613cb9565b8381036060850152613d7981888a613d02565b63ffffffff969096166080850152509290921660a090910152509695505050505050565b608081526000613db160808301888a613cb9565b8281036020840152613dc4818789613d02565b63ffffffff95909516604084015250506001600160a01b0391909116606090910152949350505050565b600060208284031215613e0057600080fd5b81516128d48161312f565b600181811c90821680613e1f57607f821691505b602082108103613e3f57634e487b7160e01b600052602260045260246000fd5b50919050565b634e487b7160e01b600052603260045260246000fd5b634e487b7160e01b600052601160045260246000fd5b600060018201613e8357613e83613e5b565b5060010190565b8082028115828204841417610d6e57610d6e613e5b565b600082613ebe57634e487b7160e01b600052601260045260246000fd5b500490565b600060208284031215613ed557600080fd5b81516128d48161363d565b601f82111561137357600081815260208120601f850160051c81016020861015613f075750805b601f850160051c820191505b81811015610d5b57828155600101613f13565b81516001600160401b03811115613f3f57613f3f613472565b613f5381613f4d8454613e0b565b84613ee0565b602080601f831160018114613f885760008415613f705750858301515b600019600386901b1c1916600185901b178555610d5b565b600085815260208120601f198616915b82811015613fb757888601518255948401946001909101908401613f98565b5085821015613fd55787850151600019600388901b60f8161c191681555b5050505050600190811b01905550565b600060208284031215613ff757600080fd5b5051919050565b80820180821115610d6e57610d6e613e5b565b6020808252818101527f507572636861736520776f756c6420657863656564206d617820737570706c79604082015260600190565b600060018060a01b03808a16835260a0602084015261406960a08401898b613cb9565b838103604085015261407c81888a613d02565b63ffffffff96909616606085015250929092166080909101525095945050505050565b6000602082840312156140b157600080fd5b81516001600160401b038111156140c757600080fd5b8201601f810184136140d857600080fd5b80516140e66136d58261368f565b8181528560208385010111156140fb57600080fd5b61410c826020830160208601613306565b95945050505050565b6001600160a01b038481168252602080830185905260606040840181905284519084018190526000928583019290916080860190855b8181101561416957855185168352948301949183019160010161414b565b50909998505050505050505050565b6001600160a01b03858116825284166020820152604081018390526080606082018190526000906141ab9083018461332a565b9695505050505050565b6000602082840312156141c757600080fd5b81516128d4816132d3565b600083516141e4818460208801613306565b8351908301906141f8818360208801613306565b0194935050505056fea26469706673582212207310e24a28c3524b250015063f2e59a6c0ba18e349e532fbe1732f3b95161a5564736f6c63430008110033",
  "linkReferences": {},
  "deployedLinkReferences": {}
}