{
  "_format": "hh-sol-artifact-1",
  "contractName": "FRST4907A",
  "sourceName": "contracts/FRST4907A.sol",
  "abi": [
    {
      "inputs": [],
      "name": "ApprovalCallerNotOwnerNorApproved",
      "type": "error"
    },
    {
      "inputs": [],
      "name": "ApprovalQueryForNonexistentToken",
      "type": "error"
    },
    {
      "inputs": [],
      "name": "BalanceQueryForZeroAddress",
      "type": "error"
    },
    {
      "inputs": [],
      "name": "MintERC2309QuantityExceedsLimit",
      "type": "error"
    },
    {
      "inputs": [],
      "name": "MintToZeroAddress",
      "type": "error"
    },
    {
      "inputs": [],
      "name": "MintZeroQuantity",
      "type": "error"
    },
    {
      "inputs": [],
      "name": "NotCompatibleWithSpotMints",
      "type": "error"
    },
    {
      "inputs": [
        {
          "internalType": "address",
          "name": "operator",
          "type": "address"
        }
      ],
      "name": "OperatorNotAllowed",
      "type": "error"
    },
    {
      "inputs": [],
      "name": "OwnerQueryForNonexistentToken",
      "type": "error"
    },
    {
      "inputs": [],
      "name": "OwnershipNotInitializedForExtraData",
      "type": "error"
    },
    {
      "inputs": [],
      "name": "SequentialMintExceedsLimit",
      "type": "error"
    },
    {
      "inputs": [],
      "name": "SequentialUpToTooSmall",
      "type": "error"
    },
    {
      "inputs": [],
      "name": "SetUserCallerNotOwnerNorApproved",
      "type": "error"
    },
    {
      "inputs": [],
      "name": "SpotMintTokenIdTooSmall",
      "type": "error"
    },
    {
      "inputs": [],
      "name": "TokenAlreadyExists",
      "type": "error"
    },
    {
      "inputs": [],
      "name": "TransferCallerNotOwnerNorApproved",
      "type": "error"
    },
    {
      "inputs": [],
      "name": "TransferFromIncorrectOwner",
      "type": "error"
    },
    {
      "inputs": [],
      "name": "TransferToNonERC721ReceiverImplementer",
      "type": "error"
    },
    {
      "inputs": [],
      "name": "TransferToZeroAddress",
      "type": "error"
    },
    {
      "inputs": [],
      "name": "URIQueryForNonexistentToken",
      "type": "error"
    },
    {
      "anonymous": false,
      "inputs": [
        {
          "indexed": true,
          "internalType": "address",
          "name": "owner",
          "type": "address"
        },
        {
          "indexed": true,
          "internalType": "address",
          "name": "approved",
          "type": "address"
        },
        {
          "indexed": true,
          "internalType": "uint256",
          "name": "tokenId",
          "type": "uint256"
        }
      ],
      "name": "Approval",
      "type": "event"
    },
    {
      "anonymous": false,
      "inputs": [
        {
          "indexed": true,
          "internalType": "address",
          "name": "owner",
          "type": "address"
        },
        {
          "indexed": true,
          "internalType": "address",
          "name": "operator",
          "type": "address"
        },
        {
          "indexed": false,
          "internalType": "bool",
          "name": "approved",
          "type": "bool"
        }
      ],
      "name": "ApprovalForAll",
      "type": "event"
    },
    {
      "anonymous": false,
      "inputs": [
        {
          "indexed": true,
          "internalType": "uint256",
          "name": "fromTokenId",
          "type": "uint256"
        },
        {
          "indexed": false,
          "internalType": "uint256",
          "name": "toTokenId",
          "type": "uint256"
        },
        {
          "indexed": true,
          "internalType": "address",
          "name": "from",
          "type": "address"
        },
        {
          "indexed": true,
          "internalType": "address",
          "name": "to",
          "type": "address"
        }
      ],
      "name": "ConsecutiveTransfer",
      "type": "event"
    },
    {
      "anonymous": false,
      "inputs": [
        {
          "indexed": false,
          "internalType": "uint8",
          "name": "version",
          "type": "uint8"
        }
      ],
      "name": "Initialized",
      "type": "event"
    },
    {
      "anonymous": false,
      "inputs": [
        {
          "indexed": false,
          "internalType": "address",
          "name": "sender",
          "type": "address"
        },
        {
          "indexed": false,
          "internalType": "uint256",
          "name": "tokenId_",
          "type": "uint256"
        }
      ],
      "name": "Minted",
      "type": "event"
    },
    {
      "anonymous": false,
      "inputs": [
        {
          "indexed": true,
          "internalType": "address",
          "name": "previousOwner",
          "type": "address"
        },
        {
          "indexed": true,
          "internalType": "address",
          "name": "newOwner",
          "type": "address"
        }
      ],
      "name": "OwnershipTransferred",
      "type": "event"
    },
    {
      "anonymous": false,
      "inputs": [
        {
          "indexed": true,
          "internalType": "address",
          "name": "from",
          "type": "address"
        },
        {
          "indexed": true,
          "internalType": "address",
          "name": "to",
          "type": "address"
        },
        {
          "indexed": true,
          "internalType": "uint256",
          "name": "tokenId",
          "type": "uint256"
        }
      ],
      "name": "Transfer",
      "type": "event"
    },
    {
      "anonymous": false,
      "inputs": [
        {
          "indexed": true,
          "internalType": "uint256",
          "name": "tokenId",
          "type": "uint256"
        },
        {
          "indexed": true,
          "internalType": "address",
          "name": "user",
          "type": "address"
        },
        {
          "indexed": false,
          "internalType": "uint64",
          "name": "expires",
          "type": "uint64"
        }
      ],
      "name": "UpdateUser",
      "type": "event"
    },
    {
      "inputs": [],
      "name": "MAX_TOKENS",
      "outputs": [
        {
          "internalType": "uint256",
          "name": "",
          "type": "uint256"
        }
      ],
      "stateMutability": "view",
      "type": "function"
    },
    {
      "inputs": [
        {
          "internalType": "uint256",
          "name": "newCap",
          "type": "uint256"
        }
      ],
      "name": "adjustCap",
      "outputs": [],
      "stateMutability": "nonpayable",
      "type": "function"
    },
    {
      "inputs": [
        {
          "internalType": "address",
          "name": "operator",
          "type": "address"
        },
        {
          "internalType": "uint256",
          "name": "tokenId",
          "type": "uint256"
        }
      ],
      "name": "approve",
      "outputs": [],
      "stateMutability": "payable",
      "type": "function"
    },
    {
      "inputs": [
        {
          "internalType": "address",
          "name": "owner",
          "type": "address"
        }
      ],
      "name": "balanceOf",
      "outputs": [
        {
          "internalType": "uint256",
          "name": "",
          "type": "uint256"
        }
      ],
      "stateMutability": "view",
      "type": "function"
    },
    {
      "inputs": [],
      "name": "baseURI",
      "outputs": [
        {
          "internalType": "string",
          "name": "",
          "type": "string"
        }
      ],
      "stateMutability": "view",
      "type": "function"
    },
    {
      "inputs": [],
      "name": "contractURI",
      "outputs": [
        {
          "internalType": "string",
          "name": "",
          "type": "string"
        }
      ],
      "stateMutability": "view",
      "type": "function"
    },
    {
      "inputs": [
        {
          "internalType": "address[]",
          "name": "accounts",
          "type": "address[]"
        },
        {
          "internalType": "uint32[]",
          "name": "percentAllocations",
          "type": "uint32[]"
        },
        {
          "internalType": "uint32",
          "name": "distributorFee",
          "type": "uint32"
        }
      ],
      "name": "createSplit",
      "outputs": [],
      "stateMutability": "nonpayable",
      "type": "function"
    },
    {
      "inputs": [
        {
          "internalType": "address",
          "name": "account",
          "type": "address"
        },
        {
          "internalType": "uint256",
          "name": "withdrawETH",
          "type": "uint256"
        },
        {
          "internalType": "contract ERC20[]",
          "name": "tokens",
          "type": "address[]"
        },
        {
          "internalType": "address[]",
          "name": "accounts",
          "type": "address[]"
        },
        {
          "internalType": "uint32[]",
          "name": "percentAllocations",
          "type": "uint32[]"
        },
        {
          "internalType": "uint32",
          "name": "distributorFee",
          "type": "uint32"
        },
        {
          "internalType": "address",
          "name": "distributorAddress",
          "type": "address"
        }
      ],
      "name": "distributeAndWithdraw",
      "outputs": [],
      "stateMutability": "nonpayable",
      "type": "function"
    },
    {
      "inputs": [
        {
          "internalType": "contract ERC20",
          "name": "token",
          "type": "address"
        },
        {
          "internalType": "address[]",
          "name": "accounts",
          "type": "address[]"
        },
        {
          "internalType": "uint32[]",
          "name": "percentAllocations",
          "type": "uint32[]"
        },
        {
          "internalType": "uint32",
          "name": "distributorFee",
          "type": "uint32"
        },
        {
          "internalType": "address",
          "name": "distributorAddress",
          "type": "address"
        }
      ],
      "name": "distributeERC20",
      "outputs": [],
      "stateMutability": "nonpayable",
      "type": "function"
    },
    {
      "inputs": [
        {
          "internalType": "address[]",
          "name": "accounts",
          "type": "address[]"
        },
        {
          "internalType": "uint32[]",
          "name": "percentAllocations",
          "type": "uint32[]"
        },
        {
          "internalType": "uint32",
          "name": "distributorFee",
          "type": "uint32"
        },
        {
          "internalType": "address",
          "name": "distributorAddress",
          "type": "address"
        }
      ],
      "name": "distributeETH",
      "outputs": [],
      "stateMutability": "nonpayable",
      "type": "function"
    },
    {
      "inputs": [],
      "name": "flipSaleState",
      "outputs": [],
      "stateMutability": "nonpayable",
      "type": "function"
    },
    {
      "inputs": [
        {
          "internalType": "uint256",
          "name": "tokenId",
          "type": "uint256"
        }
      ],
      "name": "getApproved",
      "outputs": [
        {
          "internalType": "address",
          "name": "",
          "type": "address"
        }
      ],
      "stateMutability": "view",
      "type": "function"
    },
    {
      "inputs": [],
      "name": "hasAdjustableCap",
      "outputs": [
        {
          "internalType": "bool",
          "name": "",
          "type": "bool"
        }
      ],
      "stateMutability": "view",
      "type": "function"
    },
    {
      "inputs": [
        {
          "internalType": "address",
          "name": "_owner",
          "type": "address"
        },
        {
          "components": [
            {
              "internalType": "string",
              "name": "name",
              "type": "string"
            },
            {
              "internalType": "string",
              "name": "symbol",
              "type": "string"
            },
            {
              "internalType": "bool",
              "name": "hasAdjustableCap",
              "type": "bool"
            },
            {
              "internalType": "uint256",
              "name": "maxTokens",
              "type": "uint256"
            },
            {
              "internalType": "uint256",
              "name": "tokenPrice",
              "type": "uint256"
            },
            {
              "internalType": "uint256",
              "name": "maxTokenPurchase",
              "type": "uint256"
            },
            {
              "internalType": "bytes32",
              "name": "presaleMerkleRoot",
              "type": "bytes32"
            },
            {
              "internalType": "uint256",
              "name": "presaleStart",
              "type": "uint256"
            },
            {
              "internalType": "uint256",
              "name": "presaleEnd",
              "type": "uint256"
            },
            {
              "internalType": "uint256",
              "name": "saleStart",
              "type": "uint256"
            },
            {
              "internalType": "uint256",
              "name": "saleEnd",
              "type": "uint256"
            },
            {
              "internalType": "uint256",
              "name": "royaltyBPS",
              "type": "uint256"
            }
          ],
          "internalType": "struct EditionConfig",
          "name": "_editionConfig",
          "type": "tuple"
        },
        {
          "components": [
            {
              "internalType": "string",
              "name": "contractURI",
              "type": "string"
            },
            {
              "internalType": "string",
              "name": "metadataURI",
              "type": "string"
            },
            {
              "internalType": "bytes",
              "name": "metadataRendererInit",
              "type": "bytes"
            },
            {
              "internalType": "address",
              "name": "parentIP",
              "type": "address"
            }
          ],
          "internalType": "struct MetadataConfig",
          "name": "_metadataConfig",
          "type": "tuple"
        },
        {
          "components": [
            {
              "internalType": "address",
              "name": "tokenAddress",
              "type": "address"
            },
            {
              "internalType": "uint88",
              "name": "minBalance",
              "type": "uint88"
            },
            {
              "internalType": "enum SaleType",
              "name": "saleType",
              "type": "uint8"
            }
          ],
          "internalType": "struct TokenGateConfig",
          "name": "_tokenGateConfig",
          "type": "tuple"
        },
        {
          "internalType": "address",
          "name": "_metadataRenderer",
          "type": "address"
        },
        {
          "internalType": "address",
          "name": "_splitMain",
          "type": "address"
        }
      ],
      "name": "initialize",
      "outputs": [],
      "stateMutability": "nonpayable",
      "type": "function"
    },
    {
      "inputs": [
        {
          "internalType": "address",
          "name": "owner",
          "type": "address"
        },
        {
          "internalType": "address",
          "name": "operator",
          "type": "address"
        }
      ],
      "name": "isApprovedForAll",
      "outputs": [
        {
          "internalType": "bool",
          "name": "",
          "type": "bool"
        }
      ],
      "stateMutability": "view",
      "type": "function"
    },
    {
      "inputs": [],
      "name": "maxTokenPurchase",
      "outputs": [
        {
          "internalType": "uint256",
          "name": "",
          "type": "uint256"
        }
      ],
      "stateMutability": "view",
      "type": "function"
    },
    {
      "inputs": [],
      "name": "metadataRenderer",
      "outputs": [
        {
          "internalType": "address",
          "name": "",
          "type": "address"
        }
      ],
      "stateMutability": "view",
      "type": "function"
    },
    {
      "inputs": [
        {
          "internalType": "uint256",
          "name": "numberOfTokens",
          "type": "uint256"
        }
      ],
      "name": "mint",
      "outputs": [],
      "stateMutability": "payable",
      "type": "function"
    },
    {
      "inputs": [
        {
          "internalType": "address[]",
          "name": "recipients",
          "type": "address[]"
        }
      ],
      "name": "mintAirdrop",
      "outputs": [],
      "stateMutability": "nonpayable",
      "type": "function"
    },
    {
      "inputs": [
        {
          "internalType": "uint256",
          "name": "quantity",
          "type": "uint256"
        },
        {
          "internalType": "uint256",
          "name": "maxQuantity",
          "type": "uint256"
        },
        {
          "internalType": "uint256",
          "name": "pricePerToken",
          "type": "uint256"
        },
        {
          "internalType": "bytes32[]",
          "name": "merkleProof",
          "type": "bytes32[]"
        }
      ],
      "name": "mintPresale",
      "outputs": [],
      "stateMutability": "payable",
      "type": "function"
    },
    {
      "inputs": [],
      "name": "name",
      "outputs": [
        {
          "internalType": "string",
          "name": "",
          "type": "string"
        }
      ],
      "stateMutability": "view",
      "type": "function"
    },
    {
      "inputs": [],
      "name": "operatorFilterRegistry",
      "outputs": [
        {
          "internalType": "contract IOperatorFilterRegistry",
          "name": "",
          "type": "address"
        }
      ],
      "stateMutability": "view",
      "type": "function"
    },
    {
      "inputs": [],
      "name": "owner",
      "outputs": [
        {
          "internalType": "address",
          "name": "",
          "type": "address"
        }
      ],
      "stateMutability": "view",
      "type": "function"
    },
    {
      "inputs": [
        {
          "internalType": "uint256",
          "name": "tokenId",
          "type": "uint256"
        }
      ],
      "name": "ownerOf",
      "outputs": [
        {
          "internalType": "address",
          "name": "",
          "type": "address"
        }
      ],
      "stateMutability": "view",
      "type": "function"
    },
    {
      "inputs": [],
      "name": "parentIP",
      "outputs": [
        {
          "internalType": "address",
          "name": "",
          "type": "address"
        }
      ],
      "stateMutability": "view",
      "type": "function"
    },
    {
      "inputs": [],
      "name": "presaleEnd",
      "outputs": [
        {
          "internalType": "uint256",
          "name": "",
          "type": "uint256"
        }
      ],
      "stateMutability": "view",
      "type": "function"
    },
    {
      "inputs": [],
      "name": "presaleStart",
      "outputs": [
        {
          "internalType": "uint256",
          "name": "",
          "type": "uint256"
        }
      ],
      "stateMutability": "view",
      "type": "function"
    },
    {
      "inputs": [],
      "name": "renounceOwnership",
      "outputs": [],
      "stateMutability": "nonpayable",
      "type": "function"
    },
    {
      "inputs": [
        {
          "internalType": "uint256",
          "name": "numReserved",
          "type": "uint256"
        }
      ],
      "name": "reserveFRST",
      "outputs": [],
      "stateMutability": "nonpayable",
      "type": "function"
    },
    {
      "inputs": [],
      "name": "royaltyBPS",
      "outputs": [
        {
          "internalType": "uint256",
          "name": "",
          "type": "uint256"
        }
      ],
      "stateMutability": "view",
      "type": "function"
    },
    {
      "inputs": [
        {
          "internalType": "uint256",
          "name": "tokenId",
          "type": "uint256"
        },
        {
          "internalType": "uint256",
          "name": "salePrice",
          "type": "uint256"
        }
      ],
      "name": "royaltyInfo",
      "outputs": [
        {
          "internalType": "address",
          "name": "receiver",
          "type": "address"
        },
        {
          "internalType": "uint256",
          "name": "royaltyAmount",
          "type": "uint256"
        }
      ],
      "stateMutability": "view",
      "type": "function"
    },
    {
      "inputs": [
        {
          "internalType": "address",
          "name": "from",
          "type": "address"
        },
        {
          "internalType": "address",
          "name": "to",
          "type": "address"
        },
        {
          "internalType": "uint256",
          "name": "tokenId",
          "type": "uint256"
        }
      ],
      "name": "safeTransferFrom",
      "outputs": [],
      "stateMutability": "payable",
      "type": "function"
    },
    {
      "inputs": [
        {
          "internalType": "address",
          "name": "from",
          "type": "address"
        },
        {
          "internalType": "address",
          "name": "to",
          "type": "address"
        },
        {
          "internalType": "uint256",
          "name": "tokenId",
          "type": "uint256"
        },
        {
          "internalType": "bytes",
          "name": "_data",
          "type": "bytes"
        }
      ],
      "name": "safeTransferFrom",
      "outputs": [],
      "stateMutability": "payable",
      "type": "function"
    },
    {
      "inputs": [],
      "name": "saleEnd",
      "outputs": [
        {
          "internalType": "uint256",
          "name": "",
          "type": "uint256"
        }
      ],
      "stateMutability": "view",
      "type": "function"
    },
    {
      "inputs": [],
      "name": "saleIsActive",
      "outputs": [
        {
          "internalType": "bool",
          "name": "_saleIsActive",
          "type": "bool"
        }
      ],
      "stateMutability": "view",
      "type": "function"
    },
    {
      "inputs": [],
      "name": "saleIsPaused",
      "outputs": [
        {
          "internalType": "bool",
          "name": "",
          "type": "bool"
        }
      ],
      "stateMutability": "view",
      "type": "function"
    },
    {
      "inputs": [],
      "name": "saleStart",
      "outputs": [
        {
          "internalType": "uint256",
          "name": "",
          "type": "uint256"
        }
      ],
      "stateMutability": "view",
      "type": "function"
    },
    {
      "inputs": [
        {
          "internalType": "address",
          "name": "operator",
          "type": "address"
        },
        {
          "internalType": "bool",
          "name": "approved",
          "type": "bool"
        }
      ],
      "name": "setApprovalForAll",
      "outputs": [],
      "stateMutability": "nonpayable",
      "type": "function"
    },
    {
      "inputs": [
        {
          "internalType": "string",
          "name": "uri",
          "type": "string"
        }
      ],
      "name": "setBaseURI",
      "outputs": [],
      "stateMutability": "nonpayable",
      "type": "function"
    },
    {
      "inputs": [
        {
          "internalType": "string",
          "name": "uri",
          "type": "string"
        }
      ],
      "name": "setContractURI",
      "outputs": [],
      "stateMutability": "nonpayable",
      "type": "function"
    },
    {
      "inputs": [
        {
          "internalType": "address",
          "name": "_metadataRenderer",
          "type": "address"
        }
      ],
      "name": "setMetadataRenderer",
      "outputs": [],
      "stateMutability": "nonpayable",
      "type": "function"
    },
    {
      "inputs": [
        {
          "internalType": "bytes32",
          "name": "_presaleMerkleRoot",
          "type": "bytes32"
        }
      ],
      "name": "setPresaleMerkleRoot",
      "outputs": [],
      "stateMutability": "nonpayable",
      "type": "function"
    },
    {
      "inputs": [
        {
          "internalType": "uint256",
          "name": "tokenId",
          "type": "uint256"
        },
        {
          "internalType": "address",
          "name": "user",
          "type": "address"
        },
        {
          "internalType": "uint64",
          "name": "expires",
          "type": "uint64"
        }
      ],
      "name": "setUser",
      "outputs": [],
      "stateMutability": "nonpayable",
      "type": "function"
    },
    {
      "inputs": [],
      "name": "splitMain",
      "outputs": [
        {
          "internalType": "address",
          "name": "",
          "type": "address"
        }
      ],
      "stateMutability": "view",
      "type": "function"
    },
    {
      "inputs": [],
      "name": "splitWallet",
      "outputs": [
        {
          "internalType": "address",
          "name": "",
          "type": "address"
        }
      ],
      "stateMutability": "view",
      "type": "function"
    },
    {
      "inputs": [
        {
          "internalType": "bytes4",
          "name": "interfaceId",
          "type": "bytes4"
        }
      ],
      "name": "supportsInterface",
      "outputs": [
        {
          "internalType": "bool",
          "name": "",
          "type": "bool"
        }
      ],
      "stateMutability": "view",
      "type": "function"
    },
    {
      "inputs": [],
      "name": "symbol",
      "outputs": [
        {
          "internalType": "string",
          "name": "",
          "type": "string"
        }
      ],
      "stateMutability": "view",
      "type": "function"
    },
    {
      "inputs": [],
      "name": "tokenGateConfig",
      "outputs": [
        {
          "internalType": "address",
          "name": "tokenAddress",
          "type": "address"
        },
        {
          "internalType": "uint88",
          "name": "minBalance",
          "type": "uint88"
        },
        {
          "internalType": "enum SaleType",
          "name": "saleType",
          "type": "uint8"
        }
      ],
      "stateMutability": "view",
      "type": "function"
    },
    {
      "inputs": [],
      "name": "tokenPrice",
      "outputs": [
        {
          "internalType": "uint256",
          "name": "",
          "type": "uint256"
        }
      ],
      "stateMutability": "view",
      "type": "function"
    },
    {
      "inputs": [
        {
          "internalType": "uint256",
          "name": "tokenId",
          "type": "uint256"
        }
      ],
      "name": "tokenURI",
      "outputs": [
        {
          "internalType": "string",
          "name": "",
          "type": "string"
        }
      ],
      "stateMutability": "view",
      "type": "function"
    },
    {
      "inputs": [],
      "name": "totalSupply",
      "outputs": [
        {
          "internalType": "uint256",
          "name": "",
          "type": "uint256"
        }
      ],
      "stateMutability": "view",
      "type": "function"
    },
    {
      "inputs": [
        {
          "internalType": "address",
          "name": "from",
          "type": "address"
        },
        {
          "internalType": "address",
          "name": "to",
          "type": "address"
        },
        {
          "internalType": "uint256",
          "name": "tokenId",
          "type": "uint256"
        }
      ],
      "name": "transferFrom",
      "outputs": [],
      "stateMutability": "payable",
      "type": "function"
    },
    {
      "inputs": [
        {
          "internalType": "address",
          "name": "newOwner",
          "type": "address"
        }
      ],
      "name": "transferOwnership",
      "outputs": [],
      "stateMutability": "nonpayable",
      "type": "function"
    },
    {
      "inputs": [
        {
          "internalType": "uint256",
          "name": "transferETH",
          "type": "uint256"
        },
        {
          "internalType": "contract ERC20[]",
          "name": "tokens",
          "type": "address[]"
        }
      ],
      "name": "transferToSplit",
      "outputs": [],
      "stateMutability": "nonpayable",
      "type": "function"
    },
    {
      "inputs": [
        {
          "internalType": "bool",
          "name": "enable",
          "type": "bool"
        },
        {
          "internalType": "address",
          "name": "operatorFilter",
          "type": "address"
        }
      ],
      "name": "updateOperatorFilter",
      "outputs": [],
      "stateMutability": "nonpayable",
      "type": "function"
    },
    {
      "inputs": [
        {
          "internalType": "uint256",
          "name": "newStart",
          "type": "uint256"
        },
        {
          "internalType": "uint256",
          "name": "newEnd",
          "type": "uint256"
        }
      ],
      "name": "updatePresaleStartEnd",
      "outputs": [],
      "stateMutability": "nonpayable",
      "type": "function"
    },
    {
      "inputs": [
        {
          "internalType": "uint256",
          "name": "newStart",
          "type": "uint256"
        },
        {
          "internalType": "uint256",
          "name": "newEnd",
          "type": "uint256"
        }
      ],
      "name": "updateSaleStartEnd",
      "outputs": [],
      "stateMutability": "nonpayable",
      "type": "function"
    },
    {
      "inputs": [
        {
          "internalType": "uint256",
          "name": "tokenId",
          "type": "uint256"
        }
      ],
      "name": "userExpires",
      "outputs": [
        {
          "internalType": "uint256",
          "name": "",
          "type": "uint256"
        }
      ],
      "stateMutability": "view",
      "type": "function"
    },
    {
      "inputs": [
        {
          "internalType": "uint256",
          "name": "tokenId",
          "type": "uint256"
        }
      ],
      "name": "userOf",
      "outputs": [
        {
          "internalType": "address",
          "name": "",
          "type": "address"
        }
      ],
      "stateMutability": "view",
      "type": "function"
    },
    {
      "inputs": [],
      "name": "withdraw",
      "outputs": [],
      "stateMutability": "nonpayable",
      "type": "function"
    }
  ],
  "bytecode": "0x60806040523480156200001157600080fd5b506200001d3362000023565b6200007f565b600980546001600160a01b038381166201000081810262010000600160b01b031985161790945560405193909204169182907f8be0079c531659141344cd1fd0a4f28419497f9722a3daafe3b4186f6b6457e090600090a35050565b614203806200008f6000396000f3fe6080604052600436106103965760003560e01c80637ff9b596116101dc578063c4559d5a11610102578063e6c350c1116100a0578063f0cc8b621161006f578063f0cc8b6214610a62578063f2fde38b14610a82578063f47c84c514610aa2578063fd4fe8a814610ab857600080fd5b8063e6c350c1146109fe578063e8a3d48514610a18578063e985e9c514610a2d578063eb8d244414610a4d57600080fd5b8063c9ef5eee116100dc578063c9ef5eee14610988578063d58d458a146109a8578063de8801e5146109c8578063e030565e146109de57600080fd5b8063c4559d5a14610928578063c595317014610948578063c87b56dd1461096857600080fd5b8063a22cb4651161017a578063b94356de11610149578063b94356de146108a8578063b9c9d93a146108c8578063c10b9358146108de578063c2f1f14a146108f457600080fd5b8063a22cb4651461083d578063ab0bcc411461085d578063b0ccc31e14610873578063b88d4fde1461089557600080fd5b8063931cf0f4116101b6578063931cf0f4146107d4578063938e3d7b146107f557806395d89b4114610815578063a0712d681461082a57600080fd5b80637ff9b5961461076a5780638da5cb5b146107805780638fc88c48146107a457600080fd5b80632a55205a116102c15780636352211e1161025f578063713b97871161022e578063713b978714610702578063715018a614610722578063727a612e1461073757806379ab7c8e1461074a57600080fd5b80636352211e1461068d5780636c0360eb146106ad57806370319970146106c257806370a08231146106e257600080fd5b80633ccfd60b1161029b5780633ccfd60b1461062557806342842e0e1461063a57806355f804b31461064d5780635799dbdd1461066d57600080fd5b80632a55205a146105b15780632d75fea6146105f057806334918dfd1461061057600080fd5b80630e769b2b11610339578063229f3e2911610308578063229f3e291461054857806323b872dd1461055e578063284a44a81461057157806328d7b2761461059157600080fd5b80630e769b2b146104a357806317dc2587146104c357806318160ddd146104e35780631dbdedbd146104fc57600080fd5b806306fdde031161037557806306fdde0314610412578063081812fc14610434578063095ea7b31461046c57806309aa3dcf1461047f57600080fd5b80625f16fb1461039b578063015893c5146103bd57806301ffc9a7146103dd575b600080fd5b3480156103a757600080fd5b506103bb6103b6366004613178565b610ad8565b005b3480156103c957600080fd5b506103bb6103d836600461321f565b610bb5565b3480156103e957600080fd5b506103fd6103f83660046132b5565b610d2f565b60405190151581526020015b60405180910390f35b34801561041e57600080fd5b50610427610d40565b6040516104099190613322565b34801561044057600080fd5b5061045461044f366004613335565b610dd2565b6040516001600160a01b039091168152602001610409565b6103bb61047a36600461334e565b610e16565b34801561048b57600080fd5b50610495600c5481565b604051908152602001610409565b3480156104af57600080fd5b50601754610454906001600160a01b031681565b3480156104cf57600080fd5b506103bb6104de36600461337a565b610e24565b3480156104ef57600080fd5b5060015460005403610495565b34801561050857600080fd5b50600854610539906001600160a01b03811690600160a01b81046001600160581b031690600160f81b900460ff1683565b604051610409939291906133b2565b34801561055457600080fd5b5061049560155481565b6103bb61056c3660046133fd565b610e37565b34801561057d57600080fd5b506103bb61058c366004613535565b610fd9565b34801561059d57600080fd5b506103bb6105ac366004613335565b611082565b3480156105bd57600080fd5b506105d16105cc36600461337a565b61108f565b604080516001600160a01b039093168352602083019190915201610409565b3480156105fc57600080fd5b506103bb61060b366004613622565b61113c565b34801561061c57600080fd5b506103bb611344565b34801561063157600080fd5b506103bb611360565b6103bb6106483660046133fd565b61146e565b34801561065957600080fd5b506103bb6106683660046136d8565b611489565b34801561067957600080fd5b506103bb61068836600461337a565b61149d565b34801561069957600080fd5b506104546106a8366004613335565b6114b0565b3480156106b957600080fd5b506104276114bb565b3480156106ce57600080fd5b50601254610454906001600160a01b031681565b3480156106ee57600080fd5b506104956106fd36600461370c565b611549565b34801561070e57600080fd5b50601854610454906001600160a01b031681565b34801561072e57600080fd5b506103bb611597565b6103bb610745366004613729565b6115ab565b34801561075657600080fd5b506103bb610765366004613789565b6119a7565b34801561077657600080fd5b50610495600b5481565b34801561078c57600080fd5b506009546201000090046001600160a01b0316610454565b3480156107b057600080fd5b506104956107bf366004613335565b6000908152601a602052604090205460a01c90565b3480156107e057600080fd5b506009546103fd90600160b01b900460ff1681565b34801561080157600080fd5b506103bb6108103660046136d8565b611a2d565b34801561082157600080fd5b50610427611a41565b6103bb610838366004613335565b611a50565b34801561084957600080fd5b506103bb6108583660046137c5565b611dda565b34801561086957600080fd5b50610495600d5481565b34801561087f57600080fd5b506104546daaeb6d7670e522a718067333cd4e81565b6103bb6108a33660046137f3565b611de4565b3480156108b457600080fd5b506103bb6108c3366004613335565b611e28565b3480156108d457600080fd5b5061049560135481565b3480156108ea57600080fd5b50610495600e5481565b34801561090057600080fd5b5061045461090f366004613335565b6000908152601a60205260409020544260a01b81110290565b34801561093457600080fd5b506103bb61094336600461385e565b611e98565b34801561095457600080fd5b506103bb6109633660046138f1565b611f68565b34801561097457600080fd5b50610427610983366004613335565b61205c565b34801561099457600080fd5b506103bb6109a3366004613a79565b612067565b3480156109b457600080fd5b506103bb6109c3366004613335565b612369565b3480156109d457600080fd5b5061049560145481565b3480156109ea57600080fd5b506103bb6109f9366004613bea565b61242b565b348015610a0a57600080fd5b50600f546103fd9060ff1681565b348015610a2457600080fd5b506104276124fb565b348015610a3957600080fd5b506103fd610a48366004613c38565b61259b565b348015610a5957600080fd5b506103fd6125c9565b348015610a6e57600080fd5b50601954610454906001600160a01b031681565b348015610a8e57600080fd5b506103bb610a9d36600461370c565b6125f1565b348015610aae57600080fd5b50610495600a5481565b348015610ac457600080fd5b506103bb610ad336600461370c565b612667565b6000610aec6018546001600160a01b031690565b6001600160a01b031603610b1b5760405162461bcd60e51b8152600401610b1290613c56565b60405180910390fd5b610b2487612691565b6017546001600160a01b03166001600160a01b03166315811302610b506018546001600160a01b031690565b898989898989896040518963ffffffff1660e01b8152600401610b7a989796959493929190613d07565b600060405180830381600087803b158015610b9457600080fd5b505af1158015610ba8573d6000803e3d6000fd5b5050505050505050505050565b610bbd612790565b6000610bd16017546001600160a01b031690565b6001600160a01b031603610c1b5760405162461bcd60e51b815260206004820152601160248201527014dc1b1a5d13585a5b881b9bdd081cd95d607a1b6044820152606401610b12565b6000610c2f6018546001600160a01b031690565b6001600160a01b031614610c7d5760405162461bcd60e51b815260206004820152601560248201527414dc1b1a5d08185b1c9958591e4818dc99585d1959605a1b6044820152606401610b12565b6000610c916017546001600160a01b031690565b6001600160a01b0316637601f7828787878787336040518763ffffffff1660e01b8152600401610cc696959493929190613d69565b6020604051808303816000875af1158015610ce5573d6000803e3d6000fd5b505050506040513d601f19601f82011682018060405250810190610d099190613dba565b601880546001600160a01b0319166001600160a01b03831617905590505b505050505050565b6000610d3a826127f1565b92915050565b606060028054610d4f90613dd7565b80601f0160208091040260200160405190810160405280929190818152602001828054610d7b90613dd7565b8015610dc85780601f10610d9d57610100808354040283529160200191610dc8565b820191906000526020600020905b815481529060010190602001808311610dab57829003601f168201915b5050505050905090565b6000610ddd82612819565b610dfa576040516333d1c03960e21b815260040160405180910390fd5b506000908152600660205260409020546001600160a01b031690565b610e208282612840565b5050565b610e2c612790565b600d91909155600e55565b6000610e4282612854565b9050836001600160a01b0316816001600160a01b031614610e755760405162a1148160e81b815260040160405180910390fd5b60008281526006602052604090208054338082146001600160a01b03881690911417610ec257610ea5863361259b565b610ec257604051632ce44b5f60e11b815260040160405180910390fd5b6001600160a01b038516610ee957604051633a954ecd60e21b815260040160405180910390fd5b610ef686868660016128c2565b8015610f0157600082555b6001600160a01b038681166000908152600560205260408082208054600019019055918716808252919020805460010190554260a01b17600160e11b17600085815260046020526040812091909155600160e11b84169003610f9357600184016000818152600460205260408120549003610f91576000548114610f915760008181526004602052604090208490555b505b83856001600160a01b0316876001600160a01b03167fddf252ad1be2c89b69c2b068fc378daa952ba7f163c4a11628f55a4df523b3ef60405160405180910390a4610d27565b6000610fed6018546001600160a01b031690565b6001600160a01b0316036110135760405162461bcd60e51b8152600401610b1290613c56565b871561102757611027868686868686611e98565b60005b875181101561106b5761105b88828151811061104857611048613e11565b6020026020010151888888888888610ad8565b61106481613e3d565b905061102a565b506110778989896128ce565b505050505050505050565b61108a612790565b601655565b60008061109b84612819565b6110db5760405162461bcd60e51b81526020600482015260116024820152702737b732bc34b9ba32b73a103a37b5b2b760791b6044820152606401610b12565b6018546001600160a01b0316156110ff576018546001600160a01b03169150611114565b6009546201000090046001600160a01b031691505b6000612710601354856111279190613e56565b6111319190613e6d565b9150505b9250929050565b611144612790565b60405163c3c5a54760e01b81523060048201819052906daaeb6d7670e522a718067333cd4e9063c3c5a547906024016020604051808303816000875af1158015611192573d6000803e3d6000fd5b505050506040513d601f19601f820116820180604052508101906111b69190613e8f565b1580156111c05750825b1561123a57604051633e9f1edf60e11b81526001600160a01b038083166004830152831660248201526daaeb6d7670e522a718067333cd4e90637d3e3dbe906044015b600060405180830381600087803b15801561121d57600080fd5b505af1158015611231573d6000803e3d6000fd5b50505050505050565b821561128257604051632cc5350560e21b81526001600160a01b038083166004830152831660248201526daaeb6d7670e522a718067333cd4e9063b314d41490604401611203565b60405163034a0dc160e41b81526001600160a01b0382166004820152600060248201526daaeb6d7670e522a718067333cd4e906334a0dc1090604401600060405180830381600087803b1580156112d857600080fd5b505af11580156112ec573d6000803e3d6000fd5b5050604051631761612360e11b81526001600160a01b03841660048201526daaeb6d7670e522a718067333cd4e9250632ec2c2469150602401600060405180830381600087803b15801561121d57600080fd5b505050565b61134c612790565b600f805460ff19811660ff90911615179055565b611368612790565b600061137c6018546001600160a01b031690565b6001600160a01b0316146113de5760405162461bcd60e51b8152602060048201526024808201527f43616e6e6f74207769746864726177207769746820616e2061637469766520736044820152631c1b1a5d60e21b6064820152608401610b12565b604051600090339047908381818185875af1925050503d8060008114611420576040519150601f19603f3d011682016040523d82523d6000602084013e611425565b606091505b505090508061146b5760405162461bcd60e51b8152602060048201526012602482015271436f756c64206e6f7420776974686472617760701b6044820152606401610b12565b50565b61133f83838360405180602001604052806000815250611de4565b611491612790565b6010610e208282613ef2565b6114a5612790565b601491909155601555565b6000610d3a82612854565b601080546114c890613dd7565b80601f01602080910402602001604051908101604052809291908181526020018280546114f490613dd7565b80156115415780601f1061151657610100808354040283529160200191611541565b820191906000526020600020905b81548152906001019060200180831161152457829003601f168201915b505050505081565b60006001600160a01b038216611572576040516323d3ad8160e21b815260040160405180910390fd5b506001600160a01b03166000908152600560205260409020546001600160401b031690565b61159f612790565b6115a96000612902565b565b6008546001906001600160a01b03161580159061161457506000600854600160f81b900460ff1660028111156115e3576115e361339c565b1480611614575080801561161457506001600854600160f81b900460ff1660028111156116125761161261339c565b145b8061164557508015801561164557506002600854600160f81b900460ff1660028111156116435761164361339c565b145b15611711576008546040516370a0823160e01b8152336004820152600160a01b82046001600160581b0316916001600160a01b0316906370a08231906024016020604051808303816000875af11580156116a3573d6000803e3d6000fd5b505050506040513d601f19601f820116820180604052508101906116c79190613fb1565b10156117115760405162461bcd60e51b81526020600482015260196024820152783237903737ba1037bbb7103932b8bab4b932b2103a37b5b2b760391b6044820152606401610b12565b601454421015801561172557506015544211155b61175f5760405162461bcd60e51b815260206004820152600b60248201526a6e6f742070726573616c6560a81b6044820152606401610b12565b600054600f5460ff16156117b55760405162461bcd60e51b815260206004820152601b60248201527f53616c65206d7573742062652061637469766520746f206d696e7400000000006044820152606401610b12565b600a546117c28883613fca565b11156117e05760405162461bcd60e51b8152600401610b1290613fdd565b611863848480806020026020016040519081016040528093929190818152602001838360200280828437600092019190915250506016546040516bffffffffffffffffffffffff193360601b166020820152603481018c9052605481018b905290925060740190506040516020818303038152906040528051906020012061295e565b61189e5760405162461bcd60e51b815260206004820152600c60248201526b1b9bdd08185c1c1c9bdd995960a21b6044820152606401610b12565b6118a88786613e56565b3410156118ec5760405162461bcd60e51b8152602060048201526012602482015271496e73756666696369656e742066756e647360701b6044820152606401610b12565b85876118f733611549565b6119019190613fca565b11156119415760405162461bcd60e51b815260206004820152600f60248201526e6d696e74656420746f6f206d616e7960881b6044820152606401610b12565b61194b3388612974565b60005b8781101561199d5760408051338152602081018490526001909301927f30385c845b448a36257a6a1716e6ad2e1bc2cbe333cde1e69fe849ad6511adfe910160405180910390a160010161194e565b5050505050505050565b60006119bb6018546001600160a01b031690565b6001600160a01b0316036119e15760405162461bcd60e51b8152600401610b1290613c56565b81156119ef576119ef61298e565b60005b815181101561133f57611a1d828281518110611a1057611a10613e11565b6020026020010151612691565b611a2681613e3d565b90506119f2565b611a35612790565b6011610e208282613ef2565b606060038054610d4f90613dd7565b6008546000906001600160a01b031615801590611ab957506000600854600160f81b900460ff166002811115611a8857611a8861339c565b1480611ab95750808015611ab957506001600854600160f81b900460ff166002811115611ab757611ab761339c565b145b80611aea575080158015611aea57506002600854600160f81b900460ff166002811115611ae857611ae861339c565b145b15611bb6576008546040516370a0823160e01b8152336004820152600160a01b82046001600160581b0316916001600160a01b0316906370a08231906024016020604051808303816000875af1158015611b48573d6000803e3d6000fd5b505050506040513d601f19601f82011682018060405250810190611b6c9190613fb1565b1015611bb65760405162461bcd60e51b81526020600482015260196024820152783237903737ba1037bbb7103932b8bab4b932b2103a37b5b2b760391b6044820152606401610b12565b600054600d544210801590611bcd5750600e544211155b611c115760405162461bcd60e51b815260206004820152601560248201527429b0b632b99030b932903737ba1030b1ba34bb329760591b6044820152606401610b12565b600f5460ff1615611c645760405162461bcd60e51b815260206004820152601b60248201527f53616c65206d7573742062652061637469766520746f206d696e7400000000006044820152606401610b12565b600a54611c718483613fca565b1115611c8f5760405162461bcd60e51b8152600401610b1290613fdd565b600a54811115611ccc5760405162461bcd60e51b815260206004820152600860248201526714d3d3110813d55560c21b6044820152606401610b12565b82600b54611cda9190613e56565b341015611d1e5760405162461bcd60e51b8152602060048201526012602482015271496e73756666696369656e742066756e647360701b6044820152606401610b12565b600c5415611d7857600c54831115611d785760405162461bcd60e51b815260206004820152601c60248201527f4578636565646564206d6178206e756d62657220706572206d696e74000000006044820152606401610b12565b611d823384612974565b60005b83811015611dd45760408051338152602081018490526001909301927f30385c845b448a36257a6a1716e6ad2e1bc2cbe333cde1e69fe849ad6511adfe910160405180910390a1600101611d85565b50505050565b610e208282612a42565b611def848484610e37565b6001600160a01b0383163b15611dd457611e0b84848484612a56565b611dd4576040516368d2bf6b60e11b815260040160405180910390fd5b611e30612790565b600054600a54611e408383613fca565b10611e5d5760405162461bcd60e51b8152600401610b1290613fdd565b60005b8281101561133f57611e8633611e768385613fca565b611e81906001613fca565b612974565b80611e9081613e3d565b915050611e60565b6000611eac6018546001600160a01b031690565b6001600160a01b031603611ed25760405162461bcd60e51b8152600401610b1290613c56565b611eda61298e565b6017546001600160a01b03166001600160a01b031663e61cb05e611f066018546001600160a01b031690565b8888888888886040518863ffffffff1660e01b8152600401611f2e9796959493929190614012565b600060405180830381600087803b158015611f4857600080fd5b505af1158015611f5c573d6000803e3d6000fd5b50505050505050505050565b611f70612790565b600054600a548190611f828483613fca565b1115611fa05760405162461bcd60e51b8152600401610b1290613fdd565b8183015b8083101561205557611fdf8585848603818110611fc357611fc3613e11565b9050602002016020810190611fd8919061370c565b6001612974565b7f30385c845b448a36257a6a1716e6ad2e1bc2cbe333cde1e69fe849ad6511adfe858584860381811061201457612014613e11565b9050602002016020810190612029919061370c565b604080516001600160a01b039092168252602082018690520160405180910390a1600190920191611fa4565b5050505050565b6060610d3a82612b42565b600954610100900460ff16158080156120875750600954600160ff909116105b806120a15750303b1580156120a1575060095460ff166001145b6121045760405162461bcd60e51b815260206004820152602e60248201527f496e697469616c697a61626c653a20636f6e747261637420697320616c72656160448201526d191e481a5b9a5d1a585b1a5e995960921b6064820152608401610b12565b6009805460ff191660011790558015612127576009805461ff0019166101001790555b61213087612902565b855160029061213f9082613ef2565b5060208601516003906121529082613ef2565b5060008055606080870151600a556080870151600b5560a0870151600c55610120870151600d55610140870151600e5561016087015160135560408088015160098054911515600160b01b0260ff60b01b1990921691909117905590860151601980546001600160a01b039283166001600160a01b03199182161790915560178054868416921691909117905585516008805460208901516001600160581b0316600160a01b026001600160f81b031990911692909316919091179190911780825591860151869282906001600160f81b0316600160f81b83600281111561223c5761223c61339c565b0217905550505060c086015160165560e08601516014556101008601516015556001600160a01b0383161580159061227957506000856040015151115b156122f757601280546001600160a01b0319166001600160a01b03851690811790915560408681015190516342b53ffd60e11b815263856a7ffa916122c091600401613322565b600060405180830381600087803b1580156122da57600080fd5b505af11580156122ee573d6000803e3d6000fd5b5050505061231b565b84516011906123069082613ef2565b5060208501516010906123199082613ef2565b505b8015611231576009805461ff0019169055604051600181527f7f26b83ff96e1f2b6a682f133852f6798a09c465da95921460cefb38474024989060200160405180910390a150505050505050565b612371612790565b600954600160b01b900460ff166123d85760405162461bcd60e51b815260206004820152602560248201527f63616e6e6f742061646a7573742073697a65206f66207468697320636f6c6c6560448201526431ba34b7b760d91b6064820152608401610b12565b806123e260005490565b11156124265760405162461bcd60e51b8152602060048201526013602482015272063616e6e6f742064656372656173652063617606c1b6044820152606401610b12565b600a55565b6000612436846114b0565b9050336001600160a01b0382161461248757612452813361259b565b612487573361246085610dd2565b6001600160a01b031614612487576040516309e3bb1d60e31b815260040160405180910390fd5b6000848152601a60209081526040918290206001600160a01b03861660a086901b67ffffffffffffffff60a01b16811790915591516001600160401b038516815286917f4e06b4e7000e659094299b3533b47b6aa8ad048e95e872d23d1f4ee55af89cfe910160405180910390a350505050565b6012546060906001600160a01b031661251b5760118054610d4f90613dd7565b601260009054906101000a90046001600160a01b03166001600160a01b031663e8a3d4856040518163ffffffff1660e01b8152600401600060405180830381865afa15801561256e573d6000803e3d6000fd5b505050506040513d6000823e601f3d908101601f19168201604052612596919081019061406b565b905090565b6001600160a01b03918216600090815260076020908152604080832093909416825291909152205460ff1690565b6000600d5442101580156125df5750600e544211155b8015612596575050600f5460ff161590565b6125f9612790565b6001600160a01b03811661265e5760405162461bcd60e51b815260206004820152602660248201527f4f776e61626c653a206e6577206f776e657220697320746865207a65726f206160448201526564647265737360d01b6064820152608401610b12565b61146b81612902565b61266f612790565b601280546001600160a01b0319166001600160a01b0392909216919091179055565b6040516370a0823160e01b81523060048201526000906001600160a01b038316906370a0823190602401602060405180830381865afa1580156126d8573d6000803e3d6000fd5b505050506040513d601f19601f820116820180604052508101906126fc9190613fb1565b9050816001600160a01b031663a9059cbb61271f6018546001600160a01b031690565b6040516001600160e01b031960e084901b1681526001600160a01b039091166004820152602481018490526044016020604051808303816000875af115801561276c573d6000803e3d6000fd5b505050506040513d601f19601f8201168201806040525081019061133f9190613e8f565b6009546001600160a01b03620100009091041633146115a95760405162461bcd60e51b815260206004820181905260248201527f4f776e61626c653a2063616c6c6572206973206e6f7420746865206f776e65726044820152606401610b12565b60006127fc82612bf5565b80610d3a5750506001600160e01b031916632b424ad760e21b1490565b6000805482108015610d3a575050600090815260046020526040902054600160e01b161590565b8161284a81612c1a565b61133f8383612cd3565b6000816000548110156128a95760008181526004602052604081205490600160e01b821690036128a7575b806000036128a057506000190160008181526004602052604090205461287f565b9392505050565b505b604051636f96cda160e11b815260040160405180910390fd5b611dd484848484612d73565b601754604051636e5f691960e01b81526001600160a01b0390911690636e5f691990611203908690869086906004016140e1565b600980546001600160a01b038381166201000081810262010000600160b01b031985161790945560405193909204169182907f8be0079c531659141344cd1fd0a4f28419497f9722a3daafe3b4186f6b6457e090600090a35050565b60008261296b8584612d8d565b14949350505050565b610e20828260405180602001604052806000815250612dda565b60006129a26018546001600160a01b031690565b6001600160a01b03164760405160006040518083038185875af1925050503d80600081146129ec576040519150601f19603f3d011682016040523d82523d6000602084013e6129f1565b606091505b505090508061146b5760405162461bcd60e51b815260206004820152601f60248201527f436f756c64206e6f74207472616e736665722045544820746f2073706c6974006044820152606401610b12565b81612a4c81612c1a565b61133f8383612e40565b604051630a85bd0160e11b81526000906001600160a01b0385169063150b7a0290612a8b903390899088908890600401614144565b6020604051808303816000875af1925050508015612ac6575060408051601f3d908101601f19168201909252612ac391810190614181565b60015b612b24573d808015612af4576040519150601f19603f3d011682016040523d82523d6000602084013e612af9565b606091505b508051600003612b1c576040516368d2bf6b60e11b815260040160405180910390fd5b805181602001fd5b6001600160e01b031916630a85bd0160e11b1490505b949350505050565b6060612b4d82612819565b612b6a57604051630a14c4b560e41b815260040160405180910390fd5b6012546001600160a01b031615612bec5760125460405163c87b56dd60e01b8152600481018490526001600160a01b039091169063c87b56dd90602401600060405180830381865afa158015612bc4573d6000803e3d6000fd5b505050506040513d6000823e601f3d908101601f19168201604052610d3a919081019061406b565b610d3a82612eac565b600063152a902d60e11b6001600160e01b031983161480610d3a5750610d3a82612f2f565b6daaeb6d7670e522a718067333cd4e3b1561146b57604051633185c44d60e21b81523060048201526001600160a01b03821660248201526daaeb6d7670e522a718067333cd4e9063c617113490604401602060405180830381865afa158015612c87573d6000803e3d6000fd5b505050506040513d601f19601f82011682018060405250810190612cab9190613e8f565b61146b57604051633b79c77360e21b81526001600160a01b0382166004820152602401610b12565b6000612cde826114b0565b9050336001600160a01b03821614612d1757612cfa813361259b565b612d17576040516367d9dca160e11b815260040160405180910390fd5b60008281526006602052604080822080546001600160a01b0319166001600160a01b0387811691821790925591518593918516917f8c5be1e5ebec7d5bd14f71427d1e84f3dd0314c0f7b2291e5b200ac8c7c3b92591a4505050565b836001600160a01b03811633146120555761205533612c1a565b600081815b8451811015612dd257612dbe82868381518110612db157612db1613e11565b6020026020010151612f7d565b915080612dca81613e3d565b915050612d92565b509392505050565b612de48383612fa9565b6001600160a01b0383163b1561133f576000548281035b612e0e6000868380600101945086612a56565b612e2b576040516368d2bf6b60e11b815260040160405180910390fd5b818110612dfb57816000541461205557600080fd5b3360008181526007602090815260408083206001600160a01b03871680855290835292819020805460ff191686151590811790915590519081529192917f17307eab39ab6107e8899845ad3d59bd9653f200f220920489ca2b5937696c31910160405180910390a35050565b6060612eb782612819565b612ed457604051630a14c4b560e41b815260040160405180910390fd5b6000612ede6130b4565b90508051600003612efe57604051806020016040528060008152506128a0565b80612f08846130c3565b604051602001612f1992919061419e565b6040516020818303038152906040529392505050565b60006301ffc9a760e01b6001600160e01b031983161480612f6057506380ac58cd60e01b6001600160e01b03198316145b80610d3a5750506001600160e01b031916635b5e139f60e01b1490565b6000818310612f995760008281526020849052604090206128a0565b5060009182526020526040902090565b6000805490829003612fce5760405163b562e8dd60e01b815260040160405180910390fd5b612fdb60008483856128c2565b6001600160a01b03831660008181526005602090815260408083208054680100000000000000018802019055848352600490915281206001851460e11b4260a01b178317905582840190839083907fddf252ad1be2c89b69c2b068fc378daa952ba7f163c4a11628f55a4df523b3ef8180a4600183015b81811461308a57808360007fddf252ad1be2c89b69c2b068fc378daa952ba7f163c4a11628f55a4df523b3ef600080a4600101613052565b50816000036130ab57604051622e076360e81b815260040160405180910390fd5b60005550505050565b606060108054610d4f90613dd7565b604080516080019081905280825b600183039250600a81066030018353600a9004806130d15750819003601f19909101908152919050565b6001600160a01b038116811461146b57600080fd5b60008083601f84011261312257600080fd5b5081356001600160401b0381111561313957600080fd5b6020830191508360208260051b850101111561113557600080fd5b803563ffffffff8116811461316857600080fd5b919050565b8035613168816130fb565b600080600080600080600060a0888a03121561319357600080fd5b873561319e816130fb565b965060208801356001600160401b03808211156131ba57600080fd5b6131c68b838c01613110565b909850965060408a01359150808211156131df57600080fd5b506131ec8a828b01613110565b90955093506131ff905060608901613154565b9150608088013561320f816130fb565b8091505092959891949750929550565b60008060008060006060868803121561323757600080fd5b85356001600160401b038082111561324e57600080fd5b61325a89838a01613110565b9097509550602088013591508082111561327357600080fd5b5061328088828901613110565b9094509250613293905060408701613154565b90509295509295909350565b6001600160e01b03198116811461146b57600080fd5b6000602082840312156132c757600080fd5b81356128a08161329f565b60005b838110156132ed5781810151838201526020016132d5565b50506000910152565b6000815180845261330e8160208601602086016132d2565b601f01601f19169290920160200192915050565b6020815260006128a060208301846132f6565b60006020828403121561334757600080fd5b5035919050565b6000806040838503121561336157600080fd5b823561336c816130fb565b946020939093013593505050565b6000806040838503121561338d57600080fd5b50508035926020909101359150565b634e487b7160e01b600052602160045260246000fd5b6001600160a01b03841681526001600160581b038316602082015260608101600383106133ef57634e487b7160e01b600052602160045260246000fd5b826040830152949350505050565b60008060006060848603121561341257600080fd5b833561341d816130fb565b9250602084013561342d816130fb565b929592945050506040919091013590565b634e487b7160e01b600052604160045260246000fd5b60405161018081016001600160401b03811182821017156134775761347761343e565b60405290565b604051601f8201601f191681016001600160401b03811182821017156134a5576134a561343e565b604052919050565b600082601f8301126134be57600080fd5b813560206001600160401b038211156134d9576134d961343e565b8160051b6134e882820161347d565b928352848101820192828101908785111561350257600080fd5b83870192505b8483101561352a57823561351b816130fb565b82529183019190830190613508565b979650505050505050565b600080600080600080600080600060e08a8c03121561355357600080fd5b893561355e816130fb565b985060208a0135975060408a01356001600160401b038082111561358157600080fd5b61358d8d838e016134ad565b985060608c01359150808211156135a357600080fd5b6135af8d838e01613110565b909850965060808c01359150808211156135c857600080fd5b506135d58c828d01613110565b90955093506135e8905060a08b01613154565b915060c08a01356135f8816130fb565b809150509295985092959850929598565b801515811461146b57600080fd5b803561316881613609565b6000806040838503121561363557600080fd5b823561364081613609565b91506020830135613650816130fb565b809150509250929050565b60006001600160401b038211156136745761367461343e565b50601f01601f191660200190565b600082601f83011261369357600080fd5b81356136a66136a18261365b565b61347d565b8181528460208386010111156136bb57600080fd5b816020850160208301376000918101602001919091529392505050565b6000602082840312156136ea57600080fd5b81356001600160401b0381111561370057600080fd5b612b3a84828501613682565b60006020828403121561371e57600080fd5b81356128a0816130fb565b60008060008060006080868803121561374157600080fd5b85359450602086013593506040860135925060608601356001600160401b0381111561376c57600080fd5b61377888828901613110565b969995985093965092949392505050565b6000806040838503121561379c57600080fd5b8235915060208301356001600160401b038111156137b957600080fd5b611131858286016134ad565b600080604083850312156137d857600080fd5b82356137e3816130fb565b9150602083013561365081613609565b6000806000806080858703121561380957600080fd5b8435613814816130fb565b93506020850135613824816130fb565b92506040850135915060608501356001600160401b0381111561384657600080fd5b61385287828801613682565b91505092959194509250565b6000806000806000806080878903121561387757600080fd5b86356001600160401b038082111561388e57600080fd5b61389a8a838b01613110565b909850965060208901359150808211156138b357600080fd5b506138c089828a01613110565b90955093506138d3905060408801613154565b915060608701356138e3816130fb565b809150509295509295509295565b6000806020838503121561390457600080fd5b82356001600160401b0381111561391a57600080fd5b61392685828601613110565b90969095509350505050565b60006080828403121561394457600080fd5b604051608081016001600160401b0382821081831117156139675761396761343e565b81604052829350843591508082111561397f57600080fd5b61398b86838701613682565b835260208501359150808211156139a157600080fd5b6139ad86838701613682565b602084015260408501359150808211156139c657600080fd5b506139d385828601613682565b60408301525060608301356139e7816130fb565b6060919091015292915050565b600060608284031215613a0657600080fd5b604051606081018181106001600160401b0382111715613a2857613a2861343e565b6040529050808235613a39816130fb565b815260208301356001600160581b0381168114613a5557600080fd5b6020820152604083013560038110613a6c57600080fd5b6040919091015292915050565b60008060008060008061010080888a031215613a9457600080fd5b8735613a9f816130fb565b965060208801356001600160401b0380821115613abb57600080fd5b90890190610180828c031215613ad057600080fd5b613ad8613454565b823582811115613ae757600080fd5b613af38d828601613682565b825250602083013582811115613b0857600080fd5b613b148d828601613682565b602083015250613b2660408401613617565b6040820152606083013560608201526080830135608082015260a083013560a082015260c083013560c082015260e083013560e082015283830135848201526101209350838301358482015261014093508383013584820152610160935083830135848201528098505060408a0135925080831115613ba457600080fd5b5050613bb289828a01613932565b945050613bc288606089016139f4565b9250613bd060c0880161316d565b9150613bde60e0880161316d565b90509295509295509295565b600080600060608486031215613bff57600080fd5b833592506020840135613c11816130fb565b915060408401356001600160401b0381168114613c2d57600080fd5b809150509250925092565b60008060408385031215613c4b57600080fd5b8235613640816130fb565b60208082526015908201527414dc1b1a5d081b9bdd0818dc99585d1959081e595d605a1b604082015260600190565b8183526000602080850194508260005b85811015613cc3578135613ca8816130fb565b6001600160a01b031687529582019590820190600101613c95565b509495945050505050565b8183526000602080850194508260005b85811015613cc35763ffffffff613cf483613154565b1687529582019590820190600101613cde565b600060018060a01b03808b168352808a16602084015260c06040840152613d3260c08401898b613c85565b8381036060850152613d4581888a613cce565b63ffffffff969096166080850152509290921660a090910152509695505050505050565b608081526000613d7d60808301888a613c85565b8281036020840152613d90818789613cce565b63ffffffff95909516604084015250506001600160a01b0391909116606090910152949350505050565b600060208284031215613dcc57600080fd5b81516128a0816130fb565b600181811c90821680613deb57607f821691505b602082108103613e0b57634e487b7160e01b600052602260045260246000fd5b50919050565b634e487b7160e01b600052603260045260246000fd5b634e487b7160e01b600052601160045260246000fd5b600060018201613e4f57613e4f613e27565b5060010190565b8082028115828204841417610d3a57610d3a613e27565b600082613e8a57634e487b7160e01b600052601260045260246000fd5b500490565b600060208284031215613ea157600080fd5b81516128a081613609565b601f82111561133f57600081815260208120601f850160051c81016020861015613ed35750805b601f850160051c820191505b81811015610d2757828155600101613edf565b81516001600160401b03811115613f0b57613f0b61343e565b613f1f81613f198454613dd7565b84613eac565b602080601f831160018114613f545760008415613f3c5750858301515b600019600386901b1c1916600185901b178555610d27565b600085815260208120601f198616915b82811015613f8357888601518255948401946001909101908401613f64565b5085821015613fa15787850151600019600388901b60f8161c191681555b5050505050600190811b01905550565b600060208284031215613fc357600080fd5b5051919050565b80820180821115610d3a57610d3a613e27565b6020808252818101527f507572636861736520776f756c6420657863656564206d617820737570706c79604082015260600190565b600060018060a01b03808a16835260a0602084015261403560a08401898b613c85565b838103604085015261404881888a613cce565b63ffffffff96909616606085015250929092166080909101525095945050505050565b60006020828403121561407d57600080fd5b81516001600160401b0381111561409357600080fd5b8201601f810184136140a457600080fd5b80516140b26136a18261365b565b8181528560208385010111156140c757600080fd5b6140d88260208301602086016132d2565b95945050505050565b6001600160a01b038481168252602080830185905260606040840181905284519084018190526000928583019290916080860190855b81811015614135578551851683529483019491830191600101614117565b50909998505050505050505050565b6001600160a01b0385811682528416602082015260408101839052608060608201819052600090614177908301846132f6565b9695505050505050565b60006020828403121561419357600080fd5b81516128a08161329f565b600083516141b08184602088016132d2565b8351908301906141c48183602088016132d2565b0194935050505056fea2646970667358221220d9388ab674b9ef21f4db625b89876c87f279bd196d7ed704b27923eaa15fa02264736f6c63430008110033",
  "linkReferences": {},
  "deployedLinkReferences": {}
}