{
  "_format": "hh-sol-artifact-1",
  "contractName": "FRST721A",
  "sourceName": "contracts/FRST721A.sol",
  "abi": [
    {
      "inputs": [],
      "name": "ApprovalCallerNotOwnerNorApproved",
      "type": "error"
    },
    {
      "inputs": [],
      "name": "ApprovalQueryForNonexistentToken",
      "type": "error"
    },
    {
      "inputs": [],
      "name": "ApproveToCaller",
      "type": "error"
    },
    {
      "inputs": [],
      "name": "BalanceQueryForZeroAddress",
      "type": "error"
    },
    {
      "inputs": [],
      "name": "MintERC2309QuantityExceedsLimit",
      "type": "error"
    },
    {
      "inputs": [],
      "name": "MintToZeroAddress",
      "type": "error"
    },
    {
      "inputs": [],
      "name": "MintZeroQuantity",
      "type": "error"
    },
    {
      "inputs": [
        {
          "internalType": "address",
          "name": "operator",
          "type": "address"
        }
      ],
      "name": "OperatorNotAllowed",
      "type": "error"
    },
    {
      "inputs": [],
      "name": "OwnerQueryForNonexistentToken",
      "type": "error"
    },
    {
      "inputs": [],
      "name": "OwnershipNotInitializedForExtraData",
      "type": "error"
    },
    {
      "inputs": [],
      "name": "TransferCallerNotOwnerNorApproved",
      "type": "error"
    },
    {
      "inputs": [],
      "name": "TransferFromIncorrectOwner",
      "type": "error"
    },
    {
      "inputs": [],
      "name": "TransferToNonERC721ReceiverImplementer",
      "type": "error"
    },
    {
      "inputs": [],
      "name": "TransferToZeroAddress",
      "type": "error"
    },
    {
      "inputs": [],
      "name": "URIQueryForNonexistentToken",
      "type": "error"
    },
    {
      "anonymous": false,
      "inputs": [
        {
          "indexed": true,
          "internalType": "address",
          "name": "owner",
          "type": "address"
        },
        {
          "indexed": true,
          "internalType": "address",
          "name": "approved",
          "type": "address"
        },
        {
          "indexed": true,
          "internalType": "uint256",
          "name": "tokenId",
          "type": "uint256"
        }
      ],
      "name": "Approval",
      "type": "event"
    },
    {
      "anonymous": false,
      "inputs": [
        {
          "indexed": true,
          "internalType": "address",
          "name": "owner",
          "type": "address"
        },
        {
          "indexed": true,
          "internalType": "address",
          "name": "operator",
          "type": "address"
        },
        {
          "indexed": false,
          "internalType": "bool",
          "name": "approved",
          "type": "bool"
        }
      ],
      "name": "ApprovalForAll",
      "type": "event"
    },
    {
      "anonymous": false,
      "inputs": [
        {
          "indexed": true,
          "internalType": "uint256",
          "name": "fromTokenId",
          "type": "uint256"
        },
        {
          "indexed": false,
          "internalType": "uint256",
          "name": "toTokenId",
          "type": "uint256"
        },
        {
          "indexed": true,
          "internalType": "address",
          "name": "from",
          "type": "address"
        },
        {
          "indexed": true,
          "internalType": "address",
          "name": "to",
          "type": "address"
        }
      ],
      "name": "ConsecutiveTransfer",
      "type": "event"
    },
    {
      "anonymous": false,
      "inputs": [
        {
          "indexed": false,
          "internalType": "uint8",
          "name": "version",
          "type": "uint8"
        }
      ],
      "name": "Initialized",
      "type": "event"
    },
    {
      "anonymous": false,
      "inputs": [
        {
          "indexed": false,
          "internalType": "address",
          "name": "sender",
          "type": "address"
        },
        {
          "indexed": false,
          "internalType": "uint256",
          "name": "tokenId_",
          "type": "uint256"
        }
      ],
      "name": "Minted",
      "type": "event"
    },
    {
      "anonymous": false,
      "inputs": [
        {
          "indexed": true,
          "internalType": "address",
          "name": "previousOwner",
          "type": "address"
        },
        {
          "indexed": true,
          "internalType": "address",
          "name": "newOwner",
          "type": "address"
        }
      ],
      "name": "OwnershipTransferred",
      "type": "event"
    },
    {
      "anonymous": false,
      "inputs": [
        {
          "indexed": true,
          "internalType": "address",
          "name": "from",
          "type": "address"
        },
        {
          "indexed": true,
          "internalType": "address",
          "name": "to",
          "type": "address"
        },
        {
          "indexed": true,
          "internalType": "uint256",
          "name": "tokenId",
          "type": "uint256"
        }
      ],
      "name": "Transfer",
      "type": "event"
    },
    {
      "inputs": [],
      "name": "MAX_TOKENS",
      "outputs": [
        {
          "internalType": "uint256",
          "name": "",
          "type": "uint256"
        }
      ],
      "stateMutability": "view",
      "type": "function"
    },
    {
      "inputs": [
        {
          "internalType": "uint256",
          "name": "newCap",
          "type": "uint256"
        }
      ],
      "name": "adjustCap",
      "outputs": [],
      "stateMutability": "nonpayable",
      "type": "function"
    },
    {
      "inputs": [
        {
          "internalType": "address",
          "name": "operator",
          "type": "address"
        },
        {
          "internalType": "uint256",
          "name": "tokenId",
          "type": "uint256"
        }
      ],
      "name": "approve",
      "outputs": [],
      "stateMutability": "nonpayable",
      "type": "function"
    },
    {
      "inputs": [
        {
          "internalType": "address",
          "name": "owner",
          "type": "address"
        }
      ],
      "name": "balanceOf",
      "outputs": [
        {
          "internalType": "uint256",
          "name": "",
          "type": "uint256"
        }
      ],
      "stateMutability": "view",
      "type": "function"
    },
    {
      "inputs": [],
      "name": "baseURI",
      "outputs": [
        {
          "internalType": "string",
          "name": "",
          "type": "string"
        }
      ],
      "stateMutability": "view",
      "type": "function"
    },
    {
      "inputs": [],
      "name": "contractURI",
      "outputs": [
        {
          "internalType": "string",
          "name": "",
          "type": "string"
        }
      ],
      "stateMutability": "view",
      "type": "function"
    },
    {
      "inputs": [
        {
          "internalType": "address[]",
          "name": "accounts",
          "type": "address[]"
        },
        {
          "internalType": "uint32[]",
          "name": "percentAllocations",
          "type": "uint32[]"
        },
        {
          "internalType": "uint32",
          "name": "distributorFee",
          "type": "uint32"
        }
      ],
      "name": "createSplit",
      "outputs": [],
      "stateMutability": "nonpayable",
      "type": "function"
    },
    {
      "inputs": [
        {
          "internalType": "address",
          "name": "account",
          "type": "address"
        },
        {
          "internalType": "uint256",
          "name": "withdrawETH",
          "type": "uint256"
        },
        {
          "internalType": "contract ERC20[]",
          "name": "tokens",
          "type": "address[]"
        },
        {
          "internalType": "address[]",
          "name": "accounts",
          "type": "address[]"
        },
        {
          "internalType": "uint32[]",
          "name": "percentAllocations",
          "type": "uint32[]"
        },
        {
          "internalType": "uint32",
          "name": "distributorFee",
          "type": "uint32"
        },
        {
          "internalType": "address",
          "name": "distributorAddress",
          "type": "address"
        }
      ],
      "name": "distributeAndWithdraw",
      "outputs": [],
      "stateMutability": "nonpayable",
      "type": "function"
    },
    {
      "inputs": [
        {
          "internalType": "contract ERC20",
          "name": "token",
          "type": "address"
        },
        {
          "internalType": "address[]",
          "name": "accounts",
          "type": "address[]"
        },
        {
          "internalType": "uint32[]",
          "name": "percentAllocations",
          "type": "uint32[]"
        },
        {
          "internalType": "uint32",
          "name": "distributorFee",
          "type": "uint32"
        },
        {
          "internalType": "address",
          "name": "distributorAddress",
          "type": "address"
        }
      ],
      "name": "distributeERC20",
      "outputs": [],
      "stateMutability": "nonpayable",
      "type": "function"
    },
    {
      "inputs": [
        {
          "internalType": "address[]",
          "name": "accounts",
          "type": "address[]"
        },
        {
          "internalType": "uint32[]",
          "name": "percentAllocations",
          "type": "uint32[]"
        },
        {
          "internalType": "uint32",
          "name": "distributorFee",
          "type": "uint32"
        },
        {
          "internalType": "address",
          "name": "distributorAddress",
          "type": "address"
        }
      ],
      "name": "distributeETH",
      "outputs": [],
      "stateMutability": "nonpayable",
      "type": "function"
    },
    {
      "inputs": [],
      "name": "flipSaleState",
      "outputs": [],
      "stateMutability": "nonpayable",
      "type": "function"
    },
    {
      "inputs": [
        {
          "internalType": "uint256",
          "name": "tokenId",
          "type": "uint256"
        }
      ],
      "name": "getApproved",
      "outputs": [
        {
          "internalType": "address",
          "name": "",
          "type": "address"
        }
      ],
      "stateMutability": "view",
      "type": "function"
    },
    {
      "inputs": [],
      "name": "hasAdjustableCap",
      "outputs": [
        {
          "internalType": "bool",
          "name": "",
          "type": "bool"
        }
      ],
      "stateMutability": "view",
      "type": "function"
    },
    {
      "inputs": [
        {
          "internalType": "address",
          "name": "_owner",
          "type": "address"
        },
        {
          "components": [
            {
              "internalType": "string",
              "name": "name",
              "type": "string"
            },
            {
              "internalType": "string",
              "name": "symbol",
              "type": "string"
            },
            {
              "internalType": "bool",
              "name": "hasAdjustableCap",
              "type": "bool"
            },
            {
              "internalType": "uint256",
              "name": "maxTokens",
              "type": "uint256"
            },
            {
              "internalType": "uint256",
              "name": "tokenPrice",
              "type": "uint256"
            },
            {
              "internalType": "uint256",
              "name": "maxTokenPurchase",
              "type": "uint256"
            },
            {
              "internalType": "bytes32",
              "name": "presaleMerkleRoot",
              "type": "bytes32"
            },
            {
              "internalType": "uint256",
              "name": "presaleStart",
              "type": "uint256"
            },
            {
              "internalType": "uint256",
              "name": "presaleEnd",
              "type": "uint256"
            },
            {
              "internalType": "uint256",
              "name": "saleStart",
              "type": "uint256"
            },
            {
              "internalType": "uint256",
              "name": "saleEnd",
              "type": "uint256"
            },
            {
              "internalType": "uint256",
              "name": "royaltyBPS",
              "type": "uint256"
            }
          ],
          "internalType": "struct EditionConfig",
          "name": "_editionConfig",
          "type": "tuple"
        },
        {
          "components": [
            {
              "internalType": "string",
              "name": "contractURI",
              "type": "string"
            },
            {
              "internalType": "string",
              "name": "metadataURI",
              "type": "string"
            },
            {
              "internalType": "bytes",
              "name": "metadataRendererInit",
              "type": "bytes"
            },
            {
              "internalType": "address",
              "name": "parentIP",
              "type": "address"
            }
          ],
          "internalType": "struct MetadataConfig",
          "name": "_metadataConfig",
          "type": "tuple"
        },
        {
          "components": [
            {
              "internalType": "address",
              "name": "tokenAddress",
              "type": "address"
            },
            {
              "internalType": "uint88",
              "name": "minBalance",
              "type": "uint88"
            },
            {
              "internalType": "enum SaleType",
              "name": "saleType",
              "type": "uint8"
            }
          ],
          "internalType": "struct TokenGateConfig",
          "name": "_tokenGateConfig",
          "type": "tuple"
        },
        {
          "internalType": "address",
          "name": "_metadataRenderer",
          "type": "address"
        },
        {
          "internalType": "address",
          "name": "_splitMain",
          "type": "address"
        }
      ],
      "name": "initialize",
      "outputs": [],
      "stateMutability": "nonpayable",
      "type": "function"
    },
    {
      "inputs": [
        {
          "internalType": "address",
          "name": "owner",
          "type": "address"
        },
        {
          "internalType": "address",
          "name": "operator",
          "type": "address"
        }
      ],
      "name": "isApprovedForAll",
      "outputs": [
        {
          "internalType": "bool",
          "name": "",
          "type": "bool"
        }
      ],
      "stateMutability": "view",
      "type": "function"
    },
    {
      "inputs": [],
      "name": "maxTokenPurchase",
      "outputs": [
        {
          "internalType": "uint256",
          "name": "",
          "type": "uint256"
        }
      ],
      "stateMutability": "view",
      "type": "function"
    },
    {
      "inputs": [],
      "name": "metadataRenderer",
      "outputs": [
        {
          "internalType": "address",
          "name": "",
          "type": "address"
        }
      ],
      "stateMutability": "view",
      "type": "function"
    },
    {
      "inputs": [
        {
          "internalType": "uint256",
          "name": "numberOfTokens",
          "type": "uint256"
        }
      ],
      "name": "mint",
      "outputs": [],
      "stateMutability": "payable",
      "type": "function"
    },
    {
      "inputs": [
        {
          "internalType": "address[]",
          "name": "recipients",
          "type": "address[]"
        }
      ],
      "name": "mintAirdrop",
      "outputs": [],
      "stateMutability": "nonpayable",
      "type": "function"
    },
    {
      "inputs": [
        {
          "internalType": "uint256",
          "name": "quantity",
          "type": "uint256"
        },
        {
          "internalType": "uint256",
          "name": "maxQuantity",
          "type": "uint256"
        },
        {
          "internalType": "uint256",
          "name": "pricePerToken",
          "type": "uint256"
        },
        {
          "internalType": "bytes32[]",
          "name": "merkleProof",
          "type": "bytes32[]"
        }
      ],
      "name": "mintPresale",
      "outputs": [],
      "stateMutability": "payable",
      "type": "function"
    },
    {
      "inputs": [],
      "name": "name",
      "outputs": [
        {
          "internalType": "string",
          "name": "",
          "type": "string"
        }
      ],
      "stateMutability": "view",
      "type": "function"
    },
    {
      "inputs": [],
      "name": "operatorFilterRegistry",
      "outputs": [
        {
          "internalType": "contract IOperatorFilterRegistry",
          "name": "",
          "type": "address"
        }
      ],
      "stateMutability": "view",
      "type": "function"
    },
    {
      "inputs": [],
      "name": "owner",
      "outputs": [
        {
          "internalType": "address",
          "name": "",
          "type": "address"
        }
      ],
      "stateMutability": "view",
      "type": "function"
    },
    {
      "inputs": [
        {
          "internalType": "uint256",
          "name": "tokenId",
          "type": "uint256"
        }
      ],
      "name": "ownerOf",
      "outputs": [
        {
          "internalType": "address",
          "name": "",
          "type": "address"
        }
      ],
      "stateMutability": "view",
      "type": "function"
    },
    {
      "inputs": [],
      "name": "parentIP",
      "outputs": [
        {
          "internalType": "address",
          "name": "",
          "type": "address"
        }
      ],
      "stateMutability": "view",
      "type": "function"
    },
    {
      "inputs": [],
      "name": "presaleEnd",
      "outputs": [
        {
          "internalType": "uint256",
          "name": "",
          "type": "uint256"
        }
      ],
      "stateMutability": "view",
      "type": "function"
    },
    {
      "inputs": [],
      "name": "presaleStart",
      "outputs": [
        {
          "internalType": "uint256",
          "name": "",
          "type": "uint256"
        }
      ],
      "stateMutability": "view",
      "type": "function"
    },
    {
      "inputs": [],
      "name": "renounceOwnership",
      "outputs": [],
      "stateMutability": "nonpayable",
      "type": "function"
    },
    {
      "inputs": [
        {
          "internalType": "uint256",
          "name": "numReserved",
          "type": "uint256"
        }
      ],
      "name": "reserveFRST",
      "outputs": [],
      "stateMutability": "nonpayable",
      "type": "function"
    },
    {
      "inputs": [],
      "name": "royaltyBPS",
      "outputs": [
        {
          "internalType": "uint256",
          "name": "",
          "type": "uint256"
        }
      ],
      "stateMutability": "view",
      "type": "function"
    },
    {
      "inputs": [
        {
          "internalType": "uint256",
          "name": "tokenId",
          "type": "uint256"
        },
        {
          "internalType": "uint256",
          "name": "salePrice",
          "type": "uint256"
        }
      ],
      "name": "royaltyInfo",
      "outputs": [
        {
          "internalType": "address",
          "name": "receiver",
          "type": "address"
        },
        {
          "internalType": "uint256",
          "name": "royaltyAmount",
          "type": "uint256"
        }
      ],
      "stateMutability": "view",
      "type": "function"
    },
    {
      "inputs": [
        {
          "internalType": "address",
          "name": "from",
          "type": "address"
        },
        {
          "internalType": "address",
          "name": "to",
          "type": "address"
        },
        {
          "internalType": "uint256",
          "name": "tokenId",
          "type": "uint256"
        }
      ],
      "name": "safeTransferFrom",
      "outputs": [],
      "stateMutability": "nonpayable",
      "type": "function"
    },
    {
      "inputs": [
        {
          "internalType": "address",
          "name": "from",
          "type": "address"
        },
        {
          "internalType": "address",
          "name": "to",
          "type": "address"
        },
        {
          "internalType": "uint256",
          "name": "tokenId",
          "type": "uint256"
        },
        {
          "internalType": "bytes",
          "name": "_data",
          "type": "bytes"
        }
      ],
      "name": "safeTransferFrom",
      "outputs": [],
      "stateMutability": "nonpayable",
      "type": "function"
    },
    {
      "inputs": [],
      "name": "saleEnd",
      "outputs": [
        {
          "internalType": "uint256",
          "name": "",
          "type": "uint256"
        }
      ],
      "stateMutability": "view",
      "type": "function"
    },
    {
      "inputs": [],
      "name": "saleIsActive",
      "outputs": [
        {
          "internalType": "bool",
          "name": "_saleIsActive",
          "type": "bool"
        }
      ],
      "stateMutability": "view",
      "type": "function"
    },
    {
      "inputs": [],
      "name": "saleIsPaused",
      "outputs": [
        {
          "internalType": "bool",
          "name": "",
          "type": "bool"
        }
      ],
      "stateMutability": "view",
      "type": "function"
    },
    {
      "inputs": [],
      "name": "saleStart",
      "outputs": [
        {
          "internalType": "uint256",
          "name": "",
          "type": "uint256"
        }
      ],
      "stateMutability": "view",
      "type": "function"
    },
    {
      "inputs": [
        {
          "internalType": "address",
          "name": "operator",
          "type": "address"
        },
        {
          "internalType": "bool",
          "name": "approved",
          "type": "bool"
        }
      ],
      "name": "setApprovalForAll",
      "outputs": [],
      "stateMutability": "nonpayable",
      "type": "function"
    },
    {
      "inputs": [
        {
          "internalType": "string",
          "name": "uri",
          "type": "string"
        }
      ],
      "name": "setBaseURI",
      "outputs": [],
      "stateMutability": "nonpayable",
      "type": "function"
    },
    {
      "inputs": [
        {
          "internalType": "string",
          "name": "uri",
          "type": "string"
        }
      ],
      "name": "setContractURI",
      "outputs": [],
      "stateMutability": "nonpayable",
      "type": "function"
    },
    {
      "inputs": [
        {
          "internalType": "address",
          "name": "_metadataRenderer",
          "type": "address"
        }
      ],
      "name": "setMetadataRenderer",
      "outputs": [],
      "stateMutability": "nonpayable",
      "type": "function"
    },
    {
      "inputs": [
        {
          "internalType": "bytes32",
          "name": "_presaleMerkleRoot",
          "type": "bytes32"
        }
      ],
      "name": "setPresaleMerkleRoot",
      "outputs": [],
      "stateMutability": "nonpayable",
      "type": "function"
    },
    {
      "inputs": [],
      "name": "splitMain",
      "outputs": [
        {
          "internalType": "address",
          "name": "",
          "type": "address"
        }
      ],
      "stateMutability": "view",
      "type": "function"
    },
    {
      "inputs": [],
      "name": "splitWallet",
      "outputs": [
        {
          "internalType": "address",
          "name": "",
          "type": "address"
        }
      ],
      "stateMutability": "view",
      "type": "function"
    },
    {
      "inputs": [
        {
          "internalType": "bytes4",
          "name": "interfaceId",
          "type": "bytes4"
        }
      ],
      "name": "supportsInterface",
      "outputs": [
        {
          "internalType": "bool",
          "name": "",
          "type": "bool"
        }
      ],
      "stateMutability": "view",
      "type": "function"
    },
    {
      "inputs": [],
      "name": "symbol",
      "outputs": [
        {
          "internalType": "string",
          "name": "",
          "type": "string"
        }
      ],
      "stateMutability": "view",
      "type": "function"
    },
    {
      "inputs": [],
      "name": "tokenGateConfig",
      "outputs": [
        {
          "internalType": "address",
          "name": "tokenAddress",
          "type": "address"
        },
        {
          "internalType": "uint88",
          "name": "minBalance",
          "type": "uint88"
        },
        {
          "internalType": "enum SaleType",
          "name": "saleType",
          "type": "uint8"
        }
      ],
      "stateMutability": "view",
      "type": "function"
    },
    {
      "inputs": [],
      "name": "tokenPrice",
      "outputs": [
        {
          "internalType": "uint256",
          "name": "",
          "type": "uint256"
        }
      ],
      "stateMutability": "view",
      "type": "function"
    },
    {
      "inputs": [
        {
          "internalType": "uint256",
          "name": "tokenId",
          "type": "uint256"
        }
      ],
      "name": "tokenURI",
      "outputs": [
        {
          "internalType": "string",
          "name": "",
          "type": "string"
        }
      ],
      "stateMutability": "view",
      "type": "function"
    },
    {
      "inputs": [],
      "name": "totalSupply",
      "outputs": [
        {
          "internalType": "uint256",
          "name": "",
          "type": "uint256"
        }
      ],
      "stateMutability": "view",
      "type": "function"
    },
    {
      "inputs": [
        {
          "internalType": "address",
          "name": "from",
          "type": "address"
        },
        {
          "internalType": "address",
          "name": "to",
          "type": "address"
        },
        {
          "internalType": "uint256",
          "name": "tokenId",
          "type": "uint256"
        }
      ],
      "name": "transferFrom",
      "outputs": [],
      "stateMutability": "nonpayable",
      "type": "function"
    },
    {
      "inputs": [
        {
          "internalType": "address",
          "name": "newOwner",
          "type": "address"
        }
      ],
      "name": "transferOwnership",
      "outputs": [],
      "stateMutability": "nonpayable",
      "type": "function"
    },
    {
      "inputs": [
        {
          "internalType": "uint256",
          "name": "transferETH",
          "type": "uint256"
        },
        {
          "internalType": "contract ERC20[]",
          "name": "tokens",
          "type": "address[]"
        }
      ],
      "name": "transferToSplit",
      "outputs": [],
      "stateMutability": "nonpayable",
      "type": "function"
    },
    {
      "inputs": [
        {
          "internalType": "bool",
          "name": "enable",
          "type": "bool"
        },
        {
          "internalType": "address",
          "name": "operatorFilter",
          "type": "address"
        }
      ],
      "name": "updateOperatorFilter",
      "outputs": [],
      "stateMutability": "nonpayable",
      "type": "function"
    },
    {
      "inputs": [
        {
          "internalType": "uint256",
          "name": "newStart",
          "type": "uint256"
        },
        {
          "internalType": "uint256",
          "name": "newEnd",
          "type": "uint256"
        }
      ],
      "name": "updatePresaleStartEnd",
      "outputs": [],
      "stateMutability": "nonpayable",
      "type": "function"
    },
    {
      "inputs": [
        {
          "internalType": "uint256",
          "name": "newStart",
          "type": "uint256"
        },
        {
          "internalType": "uint256",
          "name": "newEnd",
          "type": "uint256"
        }
      ],
      "name": "updateSaleStartEnd",
      "outputs": [],
      "stateMutability": "nonpayable",
      "type": "function"
    },
    {
      "inputs": [],
      "name": "withdraw",
      "outputs": [],
      "stateMutability": "nonpayable",
      "type": "function"
    }
  ],
  "bytecode": "0x60806040523480156200001157600080fd5b506200001d3362000023565b6200007f565b600980546001600160a01b038381166201000081810262010000600160b01b031985161790945560405193909204169182907f8be0079c531659141344cd1fd0a4f28419497f9722a3daafe3b4186f6b6457e090600090a35050565b614001806200008f6000396000f3fe6080604052600436106103755760003560e01c8063727a612e116101d1578063c10b935811610102578063e6c350c1116100a0578063f0cc8b621161006f578063f0cc8b62146109f1578063f2fde38b14610a11578063f47c84c514610a31578063fd4fe8a814610a4757600080fd5b8063e6c350c11461098d578063e8a3d485146109a7578063e985e9c5146109bc578063eb8d2444146109dc57600080fd5b8063c87b56dd116100dc578063c87b56dd14610917578063c9ef5eee14610937578063d58d458a14610957578063de8801e51461097757600080fd5b8063c10b9358146108c1578063c4559d5a146108d7578063c5953170146108f757600080fd5b8063a0712d681161016f578063b0ccc31e11610149578063b0ccc31e14610849578063b88d4fde1461086b578063b94356de1461088b578063b9c9d93a146108ab57600080fd5b8063a0712d6814610800578063a22cb46514610813578063ab0bcc411461083357600080fd5b80638da5cb5b116101ab5780638da5cb5b14610786578063931cf0f4146107aa578063938e3d7b146107cb57806395d89b41146107eb57600080fd5b8063727a612e1461073d57806379ab7c8e146107505780637ff9b5961461077057600080fd5b806328d7b276116102ab5780635799dbdd11610249578063703199701161022357806370319970146106c857806370a08231146106e8578063713b978714610708578063715018a61461072857600080fd5b80635799dbdd146106735780636352211e146106935780636c0360eb146106b357600080fd5b806334918dfd1161028557806334918dfd146106095780633ccfd60b1461061e57806342842e0e1461063357806355f804b31461065357600080fd5b806328d7b2761461058a5780632a55205a146105aa5780632d75fea6146105e957600080fd5b80630e769b2b116103185780631dbdedbd116102f25780631dbdedbd146104e8578063229f3e291461053457806323b872dd1461054a578063284a44a81461056a57600080fd5b80630e769b2b1461048f57806317dc2587146104af57806318160ddd146104cf57600080fd5b806306fdde031161035457806306fdde03146103f1578063081812fc14610413578063095ea7b31461044b57806309aa3dcf1461046b57600080fd5b80625f16fb1461037a578063015893c51461039c57806301ffc9a7146103bc575b600080fd5b34801561038657600080fd5b5061039a610395366004612fc4565b610a67565b005b3480156103a857600080fd5b5061039a6103b736600461306b565b610b44565b3480156103c857600080fd5b506103dc6103d7366004613101565b610cbe565b60405190151581526020015b60405180910390f35b3480156103fd57600080fd5b50610406610ce9565b6040516103e8919061316e565b34801561041f57600080fd5b5061043361042e366004613181565b610d7b565b6040516001600160a01b0390911681526020016103e8565b34801561045757600080fd5b5061039a61046636600461319a565b610dbf565b34801561047757600080fd5b50610481600c5481565b6040519081526020016103e8565b34801561049b57600080fd5b50601754610433906001600160a01b031681565b3480156104bb57600080fd5b5061039a6104ca3660046131c6565b610dd8565b3480156104db57600080fd5b5060015460005403610481565b3480156104f457600080fd5b50600854610525906001600160a01b03811690600160a01b81046001600160581b031690600160f81b900460ff1683565b6040516103e8939291906131fe565b34801561054057600080fd5b5061048160155481565b34801561055657600080fd5b5061039a610565366004613249565b610deb565b34801561057657600080fd5b5061039a610585366004613381565b610f8d565b34801561059657600080fd5b5061039a6105a5366004613181565b611036565b3480156105b657600080fd5b506105ca6105c53660046131c6565b611043565b604080516001600160a01b0390931683526020830191909152016103e8565b3480156105f557600080fd5b5061039a61060436600461346e565b6110f0565b34801561061557600080fd5b5061039a6112de565b34801561062a57600080fd5b5061039a6112fa565b34801561063f57600080fd5b5061039a61064e366004613249565b611408565b34801561065f57600080fd5b5061039a61066e366004613524565b611423565b34801561067f57600080fd5b5061039a61068e3660046131c6565b61143b565b34801561069f57600080fd5b506104336106ae366004613181565b61144e565b3480156106bf57600080fd5b50610406611459565b3480156106d457600080fd5b50601254610433906001600160a01b031681565b3480156106f457600080fd5b50610481610703366004613558565b6114e7565b34801561071457600080fd5b50601854610433906001600160a01b031681565b34801561073457600080fd5b5061039a611535565b61039a61074b366004613575565b611549565b34801561075c57600080fd5b5061039a61076b3660046135d5565b611945565b34801561077c57600080fd5b50610481600b5481565b34801561079257600080fd5b506009546201000090046001600160a01b0316610433565b3480156107b657600080fd5b506009546103dc90600160b01b900460ff1681565b3480156107d757600080fd5b5061039a6107e6366004613524565b6119cb565b3480156107f757600080fd5b506104066119df565b61039a61080e366004613181565b6119ee565b34801561081f57600080fd5b5061039a61082e366004613611565b611d78565b34801561083f57600080fd5b50610481600d5481565b34801561085557600080fd5b506104336daaeb6d7670e522a718067333cd4e81565b34801561087757600080fd5b5061039a61088636600461363f565b611d8c565b34801561089757600080fd5b5061039a6108a6366004613181565b611dd0565b3480156108b757600080fd5b5061048160135481565b3480156108cd57600080fd5b50610481600e5481565b3480156108e357600080fd5b5061039a6108f23660046136aa565b611e40565b34801561090357600080fd5b5061039a61091236600461373d565b611f10565b34801561092357600080fd5b50610406610932366004613181565b612004565b34801561094357600080fd5b5061039a6109523660046138c5565b6120b7565b34801561096357600080fd5b5061039a610972366004613181565b6123b9565b34801561098357600080fd5b5061048160145481565b34801561099957600080fd5b50600f546103dc9060ff1681565b3480156109b357600080fd5b5061040661247b565b3480156109c857600080fd5b506103dc6109d7366004613a36565b61251b565b3480156109e857600080fd5b506103dc612549565b3480156109fd57600080fd5b50601954610433906001600160a01b031681565b348015610a1d57600080fd5b5061039a610a2c366004613558565b612571565b348015610a3d57600080fd5b50610481600a5481565b348015610a5357600080fd5b5061039a610a62366004613558565b6125e7565b6000610a7b6018546001600160a01b031690565b6001600160a01b031603610aaa5760405162461bcd60e51b8152600401610aa190613a54565b60405180910390fd5b610ab387612611565b6017546001600160a01b03166001600160a01b03166315811302610adf6018546001600160a01b031690565b898989898989896040518963ffffffff1660e01b8152600401610b09989796959493929190613b05565b600060405180830381600087803b158015610b2357600080fd5b505af1158015610b37573d6000803e3d6000fd5b5050505050505050505050565b610b4c612710565b6000610b606017546001600160a01b031690565b6001600160a01b031603610baa5760405162461bcd60e51b815260206004820152601160248201527014dc1b1a5d13585a5b881b9bdd081cd95d607a1b6044820152606401610aa1565b6000610bbe6018546001600160a01b031690565b6001600160a01b031614610c0c5760405162461bcd60e51b815260206004820152601560248201527414dc1b1a5d08185b1c9958591e4818dc99585d1959605a1b6044820152606401610aa1565b6000610c206017546001600160a01b031690565b6001600160a01b0316637601f7828787878787336040518763ffffffff1660e01b8152600401610c5596959493929190613b67565b6020604051808303816000875af1158015610c74573d6000803e3d6000fd5b505050506040513d601f19601f82011682018060405250810190610c989190613bb8565b601880546001600160a01b0319166001600160a01b03831617905590505b505050505050565b600063152a902d60e11b6001600160e01b031983161480610ce35750610ce382612771565b92915050565b606060028054610cf890613bd5565b80601f0160208091040260200160405190810160405280929190818152602001828054610d2490613bd5565b8015610d715780601f10610d4657610100808354040283529160200191610d71565b820191906000526020600020905b815481529060010190602001808311610d5457829003601f168201915b5050505050905090565b6000610d86826127bf565b610da3576040516333d1c03960e21b815260040160405180910390fd5b506000908152600660205260409020546001600160a01b031690565b81610dc9816127e6565b610dd3838361289f565b505050565b610de0612710565b600d91909155600e55565b6000610df68261293f565b9050836001600160a01b0316816001600160a01b031614610e295760405162a1148160e81b815260040160405180910390fd5b60008281526006602052604090208054338082146001600160a01b03881690911417610e7657610e59863361251b565b610e7657604051632ce44b5f60e11b815260040160405180910390fd5b6001600160a01b038516610e9d57604051633a954ecd60e21b815260040160405180910390fd5b610eaa86868660016129ad565b8015610eb557600082555b6001600160a01b038681166000908152600560205260408082208054600019019055918716808252919020805460010190554260a01b17600160e11b17600085815260046020526040812091909155600160e11b84169003610f4757600184016000818152600460205260408120549003610f45576000548114610f455760008181526004602052604090208490555b505b83856001600160a01b0316876001600160a01b03167fddf252ad1be2c89b69c2b068fc378daa952ba7f163c4a11628f55a4df523b3ef60405160405180910390a4610cb6565b6000610fa16018546001600160a01b031690565b6001600160a01b031603610fc75760405162461bcd60e51b8152600401610aa190613a54565b8715610fdb57610fdb868686868686611e40565b60005b875181101561101f5761100f888281518110610ffc57610ffc613c0f565b6020026020010151888888888888610a67565b61101881613c3b565b9050610fde565b5061102b8989896129c7565b505050505050505050565b61103e612710565b601655565b60008061104f846127bf565b61108f5760405162461bcd60e51b81526020600482015260116024820152702737b732bc34b9ba32b73a103a37b5b2b760791b6044820152606401610aa1565b6018546001600160a01b0316156110b3576018546001600160a01b031691506110c8565b6009546201000090046001600160a01b031691505b6000612710601354856110db9190613c54565b6110e59190613c6b565b9150505b9250929050565b6110f8612710565b60405163c3c5a54760e01b81523060048201819052906daaeb6d7670e522a718067333cd4e9063c3c5a547906024016020604051808303816000875af1158015611146573d6000803e3d6000fd5b505050506040513d601f19601f8201168201806040525081019061116a9190613c8d565b1580156111745750825b156111ee57604051633e9f1edf60e11b81526001600160a01b038083166004830152831660248201526daaeb6d7670e522a718067333cd4e90637d3e3dbe906044015b600060405180830381600087803b1580156111d157600080fd5b505af11580156111e5573d6000803e3d6000fd5b50505050505050565b821561123657604051632cc5350560e21b81526001600160a01b038083166004830152831660248201526daaeb6d7670e522a718067333cd4e9063b314d414906044016111b7565b60405163034a0dc160e41b81526001600160a01b0382166004820152600060248201526daaeb6d7670e522a718067333cd4e906334a0dc1090604401600060405180830381600087803b15801561128c57600080fd5b505af11580156112a0573d6000803e3d6000fd5b5050604051631761612360e11b81526001600160a01b03841660048201526daaeb6d7670e522a718067333cd4e9250632ec2c24691506024016111b7565b6112e6612710565b600f805460ff19811660ff90911615179055565b611302612710565b60006113166018546001600160a01b031690565b6001600160a01b0316146113785760405162461bcd60e51b8152602060048201526024808201527f43616e6e6f74207769746864726177207769746820616e2061637469766520736044820152631c1b1a5d60e21b6064820152608401610aa1565b604051600090339047908381818185875af1925050503d80600081146113ba576040519150601f19603f3d011682016040523d82523d6000602084013e6113bf565b606091505b50509050806114055760405162461bcd60e51b8152602060048201526012602482015271436f756c64206e6f7420776974686472617760701b6044820152606401610aa1565b50565b610dd383838360405180602001604052806000815250611d8c565b61142b612710565b60106114378282613cf0565b5050565b611443612710565b601491909155601555565b6000610ce38261293f565b6010805461146690613bd5565b80601f016020809104026020016040519081016040528092919081815260200182805461149290613bd5565b80156114df5780601f106114b4576101008083540402835291602001916114df565b820191906000526020600020905b8154815290600101906020018083116114c257829003601f168201915b505050505081565b60006001600160a01b038216611510576040516323d3ad8160e21b815260040160405180910390fd5b506001600160a01b03166000908152600560205260409020546001600160401b031690565b61153d612710565b61154760006129fb565b565b6008546001906001600160a01b0316158015906115b257506000600854600160f81b900460ff166002811115611581576115816131e8565b14806115b257508080156115b257506001600854600160f81b900460ff1660028111156115b0576115b06131e8565b145b806115e35750801580156115e357506002600854600160f81b900460ff1660028111156115e1576115e16131e8565b145b156116af576008546040516370a0823160e01b8152336004820152600160a01b82046001600160581b0316916001600160a01b0316906370a08231906024016020604051808303816000875af1158015611641573d6000803e3d6000fd5b505050506040513d601f19601f820116820180604052508101906116659190613daf565b10156116af5760405162461bcd60e51b81526020600482015260196024820152783237903737ba1037bbb7103932b8bab4b932b2103a37b5b2b760391b6044820152606401610aa1565b60145442101580156116c357506015544211155b6116fd5760405162461bcd60e51b815260206004820152600b60248201526a6e6f742070726573616c6560a81b6044820152606401610aa1565b600054600f5460ff16156117535760405162461bcd60e51b815260206004820152601b60248201527f53616c65206d7573742062652061637469766520746f206d696e7400000000006044820152606401610aa1565b600a546117608883613dc8565b111561177e5760405162461bcd60e51b8152600401610aa190613ddb565b611801848480806020026020016040519081016040528093929190818152602001838360200280828437600092019190915250506016546040516bffffffffffffffffffffffff193360601b166020820152603481018c9052605481018b9052909250607401905060405160208183030381529060405280519060200120612a57565b61183c5760405162461bcd60e51b815260206004820152600c60248201526b1b9bdd08185c1c1c9bdd995960a21b6044820152606401610aa1565b6118468786613c54565b34101561188a5760405162461bcd60e51b8152602060048201526012602482015271496e73756666696369656e742066756e647360701b6044820152606401610aa1565b8587611895336114e7565b61189f9190613dc8565b11156118df5760405162461bcd60e51b815260206004820152600f60248201526e6d696e74656420746f6f206d616e7960881b6044820152606401610aa1565b6118e93388612a6d565b60005b8781101561193b5760408051338152602081018490526001909301927f30385c845b448a36257a6a1716e6ad2e1bc2cbe333cde1e69fe849ad6511adfe910160405180910390a16001016118ec565b5050505050505050565b60006119596018546001600160a01b031690565b6001600160a01b03160361197f5760405162461bcd60e51b8152600401610aa190613a54565b811561198d5761198d612a87565b60005b8151811015610dd3576119bb8282815181106119ae576119ae613c0f565b6020026020010151612611565b6119c481613c3b565b9050611990565b6119d3612710565b60116114378282613cf0565b606060038054610cf890613bd5565b6008546000906001600160a01b031615801590611a5757506000600854600160f81b900460ff166002811115611a2657611a266131e8565b1480611a575750808015611a5757506001600854600160f81b900460ff166002811115611a5557611a556131e8565b145b80611a88575080158015611a8857506002600854600160f81b900460ff166002811115611a8657611a866131e8565b145b15611b54576008546040516370a0823160e01b8152336004820152600160a01b82046001600160581b0316916001600160a01b0316906370a08231906024016020604051808303816000875af1158015611ae6573d6000803e3d6000fd5b505050506040513d601f19601f82011682018060405250810190611b0a9190613daf565b1015611b545760405162461bcd60e51b81526020600482015260196024820152783237903737ba1037bbb7103932b8bab4b932b2103a37b5b2b760391b6044820152606401610aa1565b600054600d544210801590611b6b5750600e544211155b611baf5760405162461bcd60e51b815260206004820152601560248201527429b0b632b99030b932903737ba1030b1ba34bb329760591b6044820152606401610aa1565b600f5460ff1615611c025760405162461bcd60e51b815260206004820152601b60248201527f53616c65206d7573742062652061637469766520746f206d696e7400000000006044820152606401610aa1565b600a54611c0f8483613dc8565b1115611c2d5760405162461bcd60e51b8152600401610aa190613ddb565b600a54811115611c6a5760405162461bcd60e51b815260206004820152600860248201526714d3d3110813d55560c21b6044820152606401610aa1565b82600b54611c789190613c54565b341015611cbc5760405162461bcd60e51b8152602060048201526012602482015271496e73756666696369656e742066756e647360701b6044820152606401610aa1565b600c5415611d1657600c54831115611d165760405162461bcd60e51b815260206004820152601c60248201527f4578636565646564206d6178206e756d62657220706572206d696e74000000006044820152606401610aa1565b611d203384612a6d565b60005b83811015611d725760408051338152602081018490526001909301927f30385c845b448a36257a6a1716e6ad2e1bc2cbe333cde1e69fe849ad6511adfe910160405180910390a1600101611d23565b50505050565b81611d82816127e6565b610dd38383612b3b565b611d97848484610deb565b6001600160a01b0383163b15611d7257611db384848484612ba7565b611d72576040516368d2bf6b60e11b815260040160405180910390fd5b611dd8612710565b600054600a54611de88383613dc8565b10611e055760405162461bcd60e51b8152600401610aa190613ddb565b60005b82811015610dd357611e2e33611e1e8385613dc8565b611e29906001613dc8565b612a6d565b80611e3881613c3b565b915050611e08565b6000611e546018546001600160a01b031690565b6001600160a01b031603611e7a5760405162461bcd60e51b8152600401610aa190613a54565b611e82612a87565b6017546001600160a01b03166001600160a01b031663e61cb05e611eae6018546001600160a01b031690565b8888888888886040518863ffffffff1660e01b8152600401611ed69796959493929190613e10565b600060405180830381600087803b158015611ef057600080fd5b505af1158015611f04573d6000803e3d6000fd5b50505050505050505050565b611f18612710565b600054600a548190611f2a8483613dc8565b1115611f485760405162461bcd60e51b8152600401610aa190613ddb565b8183015b80831015611ffd57611f878585848603818110611f6b57611f6b613c0f565b9050602002016020810190611f809190613558565b6001612a6d565b7f30385c845b448a36257a6a1716e6ad2e1bc2cbe333cde1e69fe849ad6511adfe8585848603818110611fbc57611fbc613c0f565b9050602002016020810190611fd19190613558565b604080516001600160a01b039092168252602082018690520160405180910390a1600190920191611f4c565b5050505050565b606061200f826127bf565b61202c57604051630a14c4b560e41b815260040160405180910390fd5b6012546001600160a01b0316156120ae5760125460405163c87b56dd60e01b8152600481018490526001600160a01b039091169063c87b56dd90602401600060405180830381865afa158015612086573d6000803e3d6000fd5b505050506040513d6000823e601f3d908101601f19168201604052610ce39190810190613e69565b610ce382612c93565b600954610100900460ff16158080156120d75750600954600160ff909116105b806120f15750303b1580156120f1575060095460ff166001145b6121545760405162461bcd60e51b815260206004820152602e60248201527f496e697469616c697a61626c653a20636f6e747261637420697320616c72656160448201526d191e481a5b9a5d1a585b1a5e995960921b6064820152608401610aa1565b6009805460ff191660011790558015612177576009805461ff0019166101001790555b612180876129fb565b855160029061218f9082613cf0565b5060208601516003906121a29082613cf0565b5060008055606080870151600a556080870151600b5560a0870151600c55610120870151600d55610140870151600e5561016087015160135560408088015160098054911515600160b01b0260ff60b01b1990921691909117905590860151601980546001600160a01b039283166001600160a01b03199182161790915560178054868416921691909117905585516008805460208901516001600160581b0316600160a01b026001600160f81b031990911692909316919091179190911780825591860151869282906001600160f81b0316600160f81b83600281111561228c5761228c6131e8565b0217905550505060c086015160165560e08601516014556101008601516015556001600160a01b038316158015906122c957506000856040015151115b1561234757601280546001600160a01b0319166001600160a01b03851690811790915560408681015190516342b53ffd60e11b815263856a7ffa916123109160040161316e565b600060405180830381600087803b15801561232a57600080fd5b505af115801561233e573d6000803e3d6000fd5b5050505061236b565b84516011906123569082613cf0565b5060208501516010906123699082613cf0565b505b80156111e5576009805461ff0019169055604051600181527f7f26b83ff96e1f2b6a682f133852f6798a09c465da95921460cefb38474024989060200160405180910390a150505050505050565b6123c1612710565b600954600160b01b900460ff166124285760405162461bcd60e51b815260206004820152602560248201527f63616e6e6f742061646a7573742073697a65206f66207468697320636f6c6c6560448201526431ba34b7b760d91b6064820152608401610aa1565b8061243260005490565b11156124765760405162461bcd60e51b8152602060048201526013602482015272063616e6e6f742064656372656173652063617606c1b6044820152606401610aa1565b600a55565b6012546060906001600160a01b031661249b5760118054610cf890613bd5565b601260009054906101000a90046001600160a01b03166001600160a01b031663e8a3d4856040518163ffffffff1660e01b8152600401600060405180830381865afa1580156124ee573d6000803e3d6000fd5b505050506040513d6000823e601f3d908101601f191682016040526125169190810190613e69565b905090565b6001600160a01b03918216600090815260076020908152604080832093909416825291909152205460ff1690565b6000600d54421015801561255f5750600e544211155b8015612516575050600f5460ff161590565b612579612710565b6001600160a01b0381166125de5760405162461bcd60e51b815260206004820152602660248201527f4f776e61626c653a206e6577206f776e657220697320746865207a65726f206160448201526564647265737360d01b6064820152608401610aa1565b611405816129fb565b6125ef612710565b601280546001600160a01b0319166001600160a01b0392909216919091179055565b6040516370a0823160e01b81523060048201526000906001600160a01b038316906370a0823190602401602060405180830381865afa158015612658573d6000803e3d6000fd5b505050506040513d601f19601f8201168201806040525081019061267c9190613daf565b9050816001600160a01b031663a9059cbb61269f6018546001600160a01b031690565b6040516001600160e01b031960e084901b1681526001600160a01b039091166004820152602481018490526044016020604051808303816000875af11580156126ec573d6000803e3d6000fd5b505050506040513d601f19601f82011682018060405250810190610dd39190613c8d565b6009546001600160a01b03620100009091041633146115475760405162461bcd60e51b815260206004820181905260248201527f4f776e61626c653a2063616c6c6572206973206e6f7420746865206f776e65726044820152606401610aa1565b60006301ffc9a760e01b6001600160e01b0319831614806127a257506380ac58cd60e01b6001600160e01b03198316145b80610ce35750506001600160e01b031916635b5e139f60e01b1490565b6000805482108015610ce3575050600090815260046020526040902054600160e01b161590565b6daaeb6d7670e522a718067333cd4e3b1561140557604051633185c44d60e21b81523060048201526001600160a01b03821660248201526daaeb6d7670e522a718067333cd4e9063c617113490604401602060405180830381865afa158015612853573d6000803e3d6000fd5b505050506040513d601f19601f820116820180604052508101906128779190613c8d565b61140557604051633b79c77360e21b81526001600160a01b0382166004820152602401610aa1565b60006128aa8261144e565b9050336001600160a01b038216146128e3576128c6813361251b565b6128e3576040516367d9dca160e11b815260040160405180910390fd5b60008281526006602052604080822080546001600160a01b0319166001600160a01b0387811691821790925591518593918516917f8c5be1e5ebec7d5bd14f71427d1e84f3dd0314c0f7b2291e5b200ac8c7c3b92591a4505050565b6000816000548110156129945760008181526004602052604081205490600160e01b82169003612992575b8060000361298b57506000190160008181526004602052604090205461296a565b9392505050565b505b604051636f96cda160e11b815260040160405180910390fd5b836001600160a01b0381163314611ffd57611ffd336127e6565b601754604051636e5f691960e01b81526001600160a01b0390911690636e5f6919906111b790869086908690600401613edf565b600980546001600160a01b038381166201000081810262010000600160b01b031985161790945560405193909204169182907f8be0079c531659141344cd1fd0a4f28419497f9722a3daafe3b4186f6b6457e090600090a35050565b600082612a648584612d16565b14949350505050565b611437828260405180602001604052806000815250612d63565b6000612a9b6018546001600160a01b031690565b6001600160a01b03164760405160006040518083038185875af1925050503d8060008114612ae5576040519150601f19603f3d011682016040523d82523d6000602084013e612aea565b606091505b50509050806114055760405162461bcd60e51b815260206004820152601f60248201527f436f756c64206e6f74207472616e736665722045544820746f2073706c6974006044820152606401610aa1565b3360008181526007602090815260408083206001600160a01b03871680855290835292819020805460ff191686151590811790915590519081529192917f17307eab39ab6107e8899845ad3d59bd9653f200f220920489ca2b5937696c31910160405180910390a35050565b604051630a85bd0160e11b81526000906001600160a01b0385169063150b7a0290612bdc903390899088908890600401613f42565b6020604051808303816000875af1925050508015612c17575060408051601f3d908101601f19168201909252612c1491810190613f7f565b60015b612c75573d808015612c45576040519150601f19603f3d011682016040523d82523d6000602084013e612c4a565b606091505b508051600003612c6d576040516368d2bf6b60e11b815260040160405180910390fd5b805181602001fd5b6001600160e01b031916630a85bd0160e11b1490505b949350505050565b6060612c9e826127bf565b612cbb57604051630a14c4b560e41b815260040160405180910390fd5b6000612cc5612dc9565b90508051600003612ce5576040518060200160405280600081525061298b565b80612cef84612dd8565b604051602001612d00929190613f9c565b6040516020818303038152906040529392505050565b600081815b8451811015612d5b57612d4782868381518110612d3a57612d3a613c0f565b6020026020010151612e10565b915080612d5381613c3b565b915050612d1b565b509392505050565b612d6d8383612e3c565b6001600160a01b0383163b15610dd3576000548281035b612d976000868380600101945086612ba7565b612db4576040516368d2bf6b60e11b815260040160405180910390fd5b818110612d84578160005414611ffd57600080fd5b606060108054610cf890613bd5565b604080516080019081905280825b600183039250600a81066030018353600a900480612de65750819003601f19909101908152919050565b6000818310612e2c57600082815260208490526040902061298b565b5060009182526020526040902090565b6000805490829003612e615760405163b562e8dd60e01b815260040160405180910390fd5b612e6e60008483856129ad565b6001600160a01b03831660008181526005602090815260408083208054680100000000000000018802019055848352600490915281206001851460e11b4260a01b178317905582840190839083907fddf252ad1be2c89b69c2b068fc378daa952ba7f163c4a11628f55a4df523b3ef8180a4600183015b818114612f1d57808360007fddf252ad1be2c89b69c2b068fc378daa952ba7f163c4a11628f55a4df523b3ef600080a4600101612ee5565b5081600003612f3e57604051622e076360e81b815260040160405180910390fd5b60005550505050565b6001600160a01b038116811461140557600080fd5b60008083601f840112612f6e57600080fd5b5081356001600160401b03811115612f8557600080fd5b6020830191508360208260051b85010111156110e957600080fd5b803563ffffffff81168114612fb457600080fd5b919050565b8035612fb481612f47565b600080600080600080600060a0888a031215612fdf57600080fd5b8735612fea81612f47565b965060208801356001600160401b038082111561300657600080fd5b6130128b838c01612f5c565b909850965060408a013591508082111561302b57600080fd5b506130388a828b01612f5c565b909550935061304b905060608901612fa0565b9150608088013561305b81612f47565b8091505092959891949750929550565b60008060008060006060868803121561308357600080fd5b85356001600160401b038082111561309a57600080fd5b6130a689838a01612f5c565b909750955060208801359150808211156130bf57600080fd5b506130cc88828901612f5c565b90945092506130df905060408701612fa0565b90509295509295909350565b6001600160e01b03198116811461140557600080fd5b60006020828403121561311357600080fd5b813561298b816130eb565b60005b83811015613139578181015183820152602001613121565b50506000910152565b6000815180845261315a81602086016020860161311e565b601f01601f19169290920160200192915050565b60208152600061298b6020830184613142565b60006020828403121561319357600080fd5b5035919050565b600080604083850312156131ad57600080fd5b82356131b881612f47565b946020939093013593505050565b600080604083850312156131d957600080fd5b50508035926020909101359150565b634e487b7160e01b600052602160045260246000fd5b6001600160a01b03841681526001600160581b0383166020820152606081016003831061323b57634e487b7160e01b600052602160045260246000fd5b826040830152949350505050565b60008060006060848603121561325e57600080fd5b833561326981612f47565b9250602084013561327981612f47565b929592945050506040919091013590565b634e487b7160e01b600052604160045260246000fd5b60405161018081016001600160401b03811182821017156132c3576132c361328a565b60405290565b604051601f8201601f191681016001600160401b03811182821017156132f1576132f161328a565b604052919050565b600082601f83011261330a57600080fd5b813560206001600160401b038211156133255761332561328a565b8160051b6133348282016132c9565b928352848101820192828101908785111561334e57600080fd5b83870192505b8483101561337657823561336781612f47565b82529183019190830190613354565b979650505050505050565b600080600080600080600080600060e08a8c03121561339f57600080fd5b89356133aa81612f47565b985060208a0135975060408a01356001600160401b03808211156133cd57600080fd5b6133d98d838e016132f9565b985060608c01359150808211156133ef57600080fd5b6133fb8d838e01612f5c565b909850965060808c013591508082111561341457600080fd5b506134218c828d01612f5c565b9095509350613434905060a08b01612fa0565b915060c08a013561344481612f47565b809150509295985092959850929598565b801515811461140557600080fd5b8035612fb481613455565b6000806040838503121561348157600080fd5b823561348c81613455565b9150602083013561349c81612f47565b809150509250929050565b60006001600160401b038211156134c0576134c061328a565b50601f01601f191660200190565b600082601f8301126134df57600080fd5b81356134f26134ed826134a7565b6132c9565b81815284602083860101111561350757600080fd5b816020850160208301376000918101602001919091529392505050565b60006020828403121561353657600080fd5b81356001600160401b0381111561354c57600080fd5b612c8b848285016134ce565b60006020828403121561356a57600080fd5b813561298b81612f47565b60008060008060006080868803121561358d57600080fd5b85359450602086013593506040860135925060608601356001600160401b038111156135b857600080fd5b6135c488828901612f5c565b969995985093965092949392505050565b600080604083850312156135e857600080fd5b8235915060208301356001600160401b0381111561360557600080fd5b6110e5858286016132f9565b6000806040838503121561362457600080fd5b823561362f81612f47565b9150602083013561349c81613455565b6000806000806080858703121561365557600080fd5b843561366081612f47565b9350602085013561367081612f47565b92506040850135915060608501356001600160401b0381111561369257600080fd5b61369e878288016134ce565b91505092959194509250565b600080600080600080608087890312156136c357600080fd5b86356001600160401b03808211156136da57600080fd5b6136e68a838b01612f5c565b909850965060208901359150808211156136ff57600080fd5b5061370c89828a01612f5c565b909550935061371f905060408801612fa0565b9150606087013561372f81612f47565b809150509295509295509295565b6000806020838503121561375057600080fd5b82356001600160401b0381111561376657600080fd5b61377285828601612f5c565b90969095509350505050565b60006080828403121561379057600080fd5b604051608081016001600160401b0382821081831117156137b3576137b361328a565b8160405282935084359150808211156137cb57600080fd5b6137d7868387016134ce565b835260208501359150808211156137ed57600080fd5b6137f9868387016134ce565b6020840152604085013591508082111561381257600080fd5b5061381f858286016134ce565b604083015250606083013561383381612f47565b6060919091015292915050565b60006060828403121561385257600080fd5b604051606081018181106001600160401b03821117156138745761387461328a565b604052905080823561388581612f47565b815260208301356001600160581b03811681146138a157600080fd5b60208201526040830135600381106138b857600080fd5b6040919091015292915050565b60008060008060008061010080888a0312156138e057600080fd5b87356138eb81612f47565b965060208801356001600160401b038082111561390757600080fd5b90890190610180828c03121561391c57600080fd5b6139246132a0565b82358281111561393357600080fd5b61393f8d8286016134ce565b82525060208301358281111561395457600080fd5b6139608d8286016134ce565b60208301525061397260408401613463565b6040820152606083013560608201526080830135608082015260a083013560a082015260c083013560c082015260e083013560e082015283830135848201526101209350838301358482015261014093508383013584820152610160935083830135848201528098505060408a01359250808311156139f057600080fd5b50506139fe89828a0161377e565b945050613a0e8860608901613840565b9250613a1c60c08801612fb9565b9150613a2a60e08801612fb9565b90509295509295509295565b60008060408385031215613a4957600080fd5b823561348c81612f47565b60208082526015908201527414dc1b1a5d081b9bdd0818dc99585d1959081e595d605a1b604082015260600190565b8183526000602080850194508260005b85811015613ac1578135613aa681612f47565b6001600160a01b031687529582019590820190600101613a93565b509495945050505050565b8183526000602080850194508260005b85811015613ac15763ffffffff613af283612fa0565b1687529582019590820190600101613adc565b600060018060a01b03808b168352808a16602084015260c06040840152613b3060c08401898b613a83565b8381036060850152613b4381888a613acc565b63ffffffff969096166080850152509290921660a090910152509695505050505050565b608081526000613b7b60808301888a613a83565b8281036020840152613b8e818789613acc565b63ffffffff95909516604084015250506001600160a01b0391909116606090910152949350505050565b600060208284031215613bca57600080fd5b815161298b81612f47565b600181811c90821680613be957607f821691505b602082108103613c0957634e487b7160e01b600052602260045260246000fd5b50919050565b634e487b7160e01b600052603260045260246000fd5b634e487b7160e01b600052601160045260246000fd5b600060018201613c4d57613c4d613c25565b5060010190565b8082028115828204841417610ce357610ce3613c25565b600082613c8857634e487b7160e01b600052601260045260246000fd5b500490565b600060208284031215613c9f57600080fd5b815161298b81613455565b601f821115610dd357600081815260208120601f850160051c81016020861015613cd15750805b601f850160051c820191505b81811015610cb657828155600101613cdd565b81516001600160401b03811115613d0957613d0961328a565b613d1d81613d178454613bd5565b84613caa565b602080601f831160018114613d525760008415613d3a5750858301515b600019600386901b1c1916600185901b178555610cb6565b600085815260208120601f198616915b82811015613d8157888601518255948401946001909101908401613d62565b5085821015613d9f5787850151600019600388901b60f8161c191681555b5050505050600190811b01905550565b600060208284031215613dc157600080fd5b5051919050565b80820180821115610ce357610ce3613c25565b6020808252818101527f507572636861736520776f756c6420657863656564206d617820737570706c79604082015260600190565b600060018060a01b03808a16835260a06020840152613e3360a08401898b613a83565b8381036040850152613e4681888a613acc565b63ffffffff96909616606085015250929092166080909101525095945050505050565b600060208284031215613e7b57600080fd5b81516001600160401b03811115613e9157600080fd5b8201601f81018413613ea257600080fd5b8051613eb06134ed826134a7565b818152856020838501011115613ec557600080fd5b613ed682602083016020860161311e565b95945050505050565b6001600160a01b038481168252602080830185905260606040840181905284519084018190526000928583019290916080860190855b81811015613f33578551851683529483019491830191600101613f15565b50909998505050505050505050565b6001600160a01b0385811682528416602082015260408101839052608060608201819052600090613f7590830184613142565b9695505050505050565b600060208284031215613f9157600080fd5b815161298b816130eb565b60008351613fae81846020880161311e565b835190830190613fc281836020880161311e565b0194935050505056fea264697066735822122030e894cd975d27e2bb64919f49eb5da7b585854ecdfece1e75e2c3e80842bdbf64736f6c63430008110033",
  "linkReferences": {},
  "deployedLinkReferences": {}
}