{
  "_format": "hh-sol-artifact-1",
  "contractName": "ZKEdition",
  "sourceName": "contracts/ZKEdition.sol",
  "abi": [
    {
      "inputs": [],
      "name": "ApprovalCallerNotOwnerNorApproved",
      "type": "error"
    },
    {
      "inputs": [],
      "name": "ApprovalQueryForNonexistentToken",
      "type": "error"
    },
    {
      "inputs": [],
      "name": "ApproveToCaller",
      "type": "error"
    },
    {
      "inputs": [],
      "name": "BalanceQueryForZeroAddress",
      "type": "error"
    },
    {
      "inputs": [],
      "name": "MintERC2309QuantityExceedsLimit",
      "type": "error"
    },
    {
      "inputs": [],
      "name": "MintToZeroAddress",
      "type": "error"
    },
    {
      "inputs": [],
      "name": "MintZeroQuantity",
      "type": "error"
    },
    {
      "inputs": [
        {
          "internalType": "address",
          "name": "operator",
          "type": "address"
        }
      ],
      "name": "OperatorNotAllowed",
      "type": "error"
    },
    {
      "inputs": [],
      "name": "OwnerQueryForNonexistentToken",
      "type": "error"
    },
    {
      "inputs": [],
      "name": "OwnershipNotInitializedForExtraData",
      "type": "error"
    },
    {
      "inputs": [],
      "name": "TransferCallerNotOwnerNorApproved",
      "type": "error"
    },
    {
      "inputs": [],
      "name": "TransferFromIncorrectOwner",
      "type": "error"
    },
    {
      "inputs": [],
      "name": "TransferToNonERC721ReceiverImplementer",
      "type": "error"
    },
    {
      "inputs": [],
      "name": "TransferToZeroAddress",
      "type": "error"
    },
    {
      "inputs": [],
      "name": "URIQueryForNonexistentToken",
      "type": "error"
    },
    {
      "anonymous": false,
      "inputs": [
        {
          "indexed": true,
          "internalType": "address",
          "name": "owner",
          "type": "address"
        },
        {
          "indexed": true,
          "internalType": "address",
          "name": "approved",
          "type": "address"
        },
        {
          "indexed": true,
          "internalType": "uint256",
          "name": "tokenId",
          "type": "uint256"
        }
      ],
      "name": "Approval",
      "type": "event"
    },
    {
      "anonymous": false,
      "inputs": [
        {
          "indexed": true,
          "internalType": "address",
          "name": "owner",
          "type": "address"
        },
        {
          "indexed": true,
          "internalType": "address",
          "name": "operator",
          "type": "address"
        },
        {
          "indexed": false,
          "internalType": "bool",
          "name": "approved",
          "type": "bool"
        }
      ],
      "name": "ApprovalForAll",
      "type": "event"
    },
    {
      "anonymous": false,
      "inputs": [
        {
          "indexed": true,
          "internalType": "uint256",
          "name": "fromTokenId",
          "type": "uint256"
        },
        {
          "indexed": false,
          "internalType": "uint256",
          "name": "toTokenId",
          "type": "uint256"
        },
        {
          "indexed": true,
          "internalType": "address",
          "name": "from",
          "type": "address"
        },
        {
          "indexed": true,
          "internalType": "address",
          "name": "to",
          "type": "address"
        }
      ],
      "name": "ConsecutiveTransfer",
      "type": "event"
    },
    {
      "anonymous": false,
      "inputs": [
        {
          "indexed": false,
          "internalType": "uint8",
          "name": "version",
          "type": "uint8"
        }
      ],
      "name": "Initialized",
      "type": "event"
    },
    {
      "anonymous": false,
      "inputs": [
        {
          "indexed": false,
          "internalType": "address",
          "name": "sender",
          "type": "address"
        },
        {
          "indexed": false,
          "internalType": "uint256",
          "name": "tokenId_",
          "type": "uint256"
        }
      ],
      "name": "Minted",
      "type": "event"
    },
    {
      "anonymous": false,
      "inputs": [
        {
          "indexed": true,
          "internalType": "address",
          "name": "previousOwner",
          "type": "address"
        },
        {
          "indexed": true,
          "internalType": "address",
          "name": "newOwner",
          "type": "address"
        }
      ],
      "name": "OwnershipTransferred",
      "type": "event"
    },
    {
      "anonymous": false,
      "inputs": [
        {
          "indexed": true,
          "internalType": "address",
          "name": "from",
          "type": "address"
        },
        {
          "indexed": true,
          "internalType": "address",
          "name": "to",
          "type": "address"
        },
        {
          "indexed": true,
          "internalType": "uint256",
          "name": "tokenId",
          "type": "uint256"
        }
      ],
      "name": "Transfer",
      "type": "event"
    },
    {
      "inputs": [],
      "name": "MAX_TOKENS",
      "outputs": [
        {
          "internalType": "uint256",
          "name": "",
          "type": "uint256"
        }
      ],
      "stateMutability": "view",
      "type": "function"
    },
    {
      "inputs": [
        {
          "internalType": "uint256",
          "name": "newCap",
          "type": "uint256"
        }
      ],
      "name": "adjustCap",
      "outputs": [],
      "stateMutability": "nonpayable",
      "type": "function"
    },
    {
      "inputs": [
        {
          "internalType": "address",
          "name": "operator",
          "type": "address"
        },
        {
          "internalType": "uint256",
          "name": "tokenId",
          "type": "uint256"
        }
      ],
      "name": "approve",
      "outputs": [],
      "stateMutability": "nonpayable",
      "type": "function"
    },
    {
      "inputs": [
        {
          "internalType": "address",
          "name": "owner",
          "type": "address"
        }
      ],
      "name": "balanceOf",
      "outputs": [
        {
          "internalType": "uint256",
          "name": "",
          "type": "uint256"
        }
      ],
      "stateMutability": "view",
      "type": "function"
    },
    {
      "inputs": [],
      "name": "baseURI",
      "outputs": [
        {
          "internalType": "string",
          "name": "",
          "type": "string"
        }
      ],
      "stateMutability": "view",
      "type": "function"
    },
    {
      "inputs": [],
      "name": "contractURI",
      "outputs": [
        {
          "internalType": "string",
          "name": "",
          "type": "string"
        }
      ],
      "stateMutability": "view",
      "type": "function"
    },
    {
      "inputs": [
        {
          "internalType": "address[]",
          "name": "accounts",
          "type": "address[]"
        },
        {
          "internalType": "uint32[]",
          "name": "percentAllocations",
          "type": "uint32[]"
        },
        {
          "internalType": "uint32",
          "name": "distributorFee",
          "type": "uint32"
        }
      ],
      "name": "createSplit",
      "outputs": [],
      "stateMutability": "nonpayable",
      "type": "function"
    },
    {
      "inputs": [
        {
          "internalType": "address",
          "name": "account",
          "type": "address"
        },
        {
          "internalType": "uint256",
          "name": "withdrawETH",
          "type": "uint256"
        },
        {
          "internalType": "contract ERC20[]",
          "name": "tokens",
          "type": "address[]"
        },
        {
          "internalType": "address[]",
          "name": "accounts",
          "type": "address[]"
        },
        {
          "internalType": "uint32[]",
          "name": "percentAllocations",
          "type": "uint32[]"
        },
        {
          "internalType": "uint32",
          "name": "distributorFee",
          "type": "uint32"
        },
        {
          "internalType": "address",
          "name": "distributorAddress",
          "type": "address"
        }
      ],
      "name": "distributeAndWithdraw",
      "outputs": [],
      "stateMutability": "nonpayable",
      "type": "function"
    },
    {
      "inputs": [
        {
          "internalType": "contract ERC20",
          "name": "token",
          "type": "address"
        },
        {
          "internalType": "address[]",
          "name": "accounts",
          "type": "address[]"
        },
        {
          "internalType": "uint32[]",
          "name": "percentAllocations",
          "type": "uint32[]"
        },
        {
          "internalType": "uint32",
          "name": "distributorFee",
          "type": "uint32"
        },
        {
          "internalType": "address",
          "name": "distributorAddress",
          "type": "address"
        }
      ],
      "name": "distributeERC20",
      "outputs": [],
      "stateMutability": "nonpayable",
      "type": "function"
    },
    {
      "inputs": [
        {
          "internalType": "address[]",
          "name": "accounts",
          "type": "address[]"
        },
        {
          "internalType": "uint32[]",
          "name": "percentAllocations",
          "type": "uint32[]"
        },
        {
          "internalType": "uint32",
          "name": "distributorFee",
          "type": "uint32"
        },
        {
          "internalType": "address",
          "name": "distributorAddress",
          "type": "address"
        }
      ],
      "name": "distributeETH",
      "outputs": [],
      "stateMutability": "nonpayable",
      "type": "function"
    },
    {
      "inputs": [],
      "name": "flipSaleState",
      "outputs": [],
      "stateMutability": "nonpayable",
      "type": "function"
    },
    {
      "inputs": [
        {
          "internalType": "uint256",
          "name": "tokenId",
          "type": "uint256"
        }
      ],
      "name": "getApproved",
      "outputs": [
        {
          "internalType": "address",
          "name": "",
          "type": "address"
        }
      ],
      "stateMutability": "view",
      "type": "function"
    },
    {
      "inputs": [],
      "name": "hasAdjustableCap",
      "outputs": [
        {
          "internalType": "bool",
          "name": "",
          "type": "bool"
        }
      ],
      "stateMutability": "view",
      "type": "function"
    },
    {
      "inputs": [
        {
          "internalType": "address",
          "name": "_owner",
          "type": "address"
        },
        {
          "components": [
            {
              "internalType": "string",
              "name": "name",
              "type": "string"
            },
            {
              "internalType": "string",
              "name": "symbol",
              "type": "string"
            },
            {
              "internalType": "bool",
              "name": "hasAdjustableCap",
              "type": "bool"
            },
            {
              "internalType": "uint256",
              "name": "maxTokens",
              "type": "uint256"
            },
            {
              "internalType": "uint256",
              "name": "tokenPrice",
              "type": "uint256"
            },
            {
              "internalType": "uint256",
              "name": "maxTokenPurchase",
              "type": "uint256"
            },
            {
              "internalType": "bytes32",
              "name": "presaleMerkleRoot",
              "type": "bytes32"
            },
            {
              "internalType": "uint256",
              "name": "presaleStart",
              "type": "uint256"
            },
            {
              "internalType": "uint256",
              "name": "presaleEnd",
              "type": "uint256"
            },
            {
              "internalType": "uint256",
              "name": "saleStart",
              "type": "uint256"
            },
            {
              "internalType": "uint256",
              "name": "saleEnd",
              "type": "uint256"
            },
            {
              "internalType": "uint256",
              "name": "royaltyBPS",
              "type": "uint256"
            }
          ],
          "internalType": "struct EditionConfig",
          "name": "_editionConfig",
          "type": "tuple"
        },
        {
          "components": [
            {
              "internalType": "string",
              "name": "contractURI",
              "type": "string"
            },
            {
              "internalType": "string",
              "name": "metadataURI",
              "type": "string"
            },
            {
              "internalType": "bytes",
              "name": "metadataRendererInit",
              "type": "bytes"
            },
            {
              "internalType": "address",
              "name": "parentIP",
              "type": "address"
            }
          ],
          "internalType": "struct MetadataConfig",
          "name": "_metadataConfig",
          "type": "tuple"
        },
        {
          "components": [
            {
              "internalType": "address",
              "name": "tokenAddress",
              "type": "address"
            },
            {
              "internalType": "uint88",
              "name": "minBalance",
              "type": "uint88"
            },
            {
              "internalType": "enum SaleType",
              "name": "saleType",
              "type": "uint8"
            }
          ],
          "internalType": "struct TokenGateConfig",
          "name": "_tokenGateConfig",
          "type": "tuple"
        },
        {
          "internalType": "address",
          "name": "_metadataRenderer",
          "type": "address"
        },
        {
          "internalType": "address",
          "name": "_splitMain",
          "type": "address"
        }
      ],
      "name": "initialize",
      "outputs": [],
      "stateMutability": "nonpayable",
      "type": "function"
    },
    {
      "inputs": [
        {
          "internalType": "address",
          "name": "_owner",
          "type": "address"
        },
        {
          "components": [
            {
              "internalType": "string",
              "name": "name",
              "type": "string"
            },
            {
              "internalType": "string",
              "name": "symbol",
              "type": "string"
            },
            {
              "internalType": "bool",
              "name": "hasAdjustableCap",
              "type": "bool"
            },
            {
              "internalType": "uint256",
              "name": "maxTokens",
              "type": "uint256"
            },
            {
              "internalType": "uint256",
              "name": "tokenPrice",
              "type": "uint256"
            },
            {
              "internalType": "uint256",
              "name": "maxTokenPurchase",
              "type": "uint256"
            },
            {
              "internalType": "bytes32",
              "name": "presaleMerkleRoot",
              "type": "bytes32"
            },
            {
              "internalType": "uint256",
              "name": "presaleStart",
              "type": "uint256"
            },
            {
              "internalType": "uint256",
              "name": "presaleEnd",
              "type": "uint256"
            },
            {
              "internalType": "uint256",
              "name": "saleStart",
              "type": "uint256"
            },
            {
              "internalType": "uint256",
              "name": "saleEnd",
              "type": "uint256"
            },
            {
              "internalType": "uint256",
              "name": "royaltyBPS",
              "type": "uint256"
            }
          ],
          "internalType": "struct EditionConfig",
          "name": "_editionConfig",
          "type": "tuple"
        },
        {
          "components": [
            {
              "internalType": "string",
              "name": "contractURI",
              "type": "string"
            },
            {
              "internalType": "string",
              "name": "metadataURI",
              "type": "string"
            },
            {
              "internalType": "bytes",
              "name": "metadataRendererInit",
              "type": "bytes"
            },
            {
              "internalType": "address",
              "name": "parentIP",
              "type": "address"
            }
          ],
          "internalType": "struct MetadataConfig",
          "name": "_metadataConfig",
          "type": "tuple"
        },
        {
          "components": [
            {
              "internalType": "address",
              "name": "tokenAddress",
              "type": "address"
            },
            {
              "internalType": "uint88",
              "name": "minBalance",
              "type": "uint88"
            },
            {
              "internalType": "enum SaleType",
              "name": "saleType",
              "type": "uint8"
            }
          ],
          "internalType": "struct TokenGateConfig",
          "name": "_tokenGateConfig",
          "type": "tuple"
        },
        {
          "internalType": "address",
          "name": "_metadataRenderer",
          "type": "address"
        },
        {
          "internalType": "address",
          "name": "_splitMain",
          "type": "address"
        },
        {
          "internalType": "address",
          "name": "_zkVerifier",
          "type": "address"
        }
      ],
      "name": "initialize",
      "outputs": [],
      "stateMutability": "nonpayable",
      "type": "function"
    },
    {
      "inputs": [
        {
          "internalType": "address",
          "name": "owner",
          "type": "address"
        },
        {
          "internalType": "address",
          "name": "operator",
          "type": "address"
        }
      ],
      "name": "isApprovedForAll",
      "outputs": [
        {
          "internalType": "bool",
          "name": "",
          "type": "bool"
        }
      ],
      "stateMutability": "view",
      "type": "function"
    },
    {
      "inputs": [],
      "name": "maxTokenPurchase",
      "outputs": [
        {
          "internalType": "uint256",
          "name": "",
          "type": "uint256"
        }
      ],
      "stateMutability": "view",
      "type": "function"
    },
    {
      "inputs": [],
      "name": "metadataRenderer",
      "outputs": [
        {
          "internalType": "address",
          "name": "",
          "type": "address"
        }
      ],
      "stateMutability": "view",
      "type": "function"
    },
    {
      "inputs": [
        {
          "internalType": "uint256",
          "name": "numberOfTokens",
          "type": "uint256"
        }
      ],
      "name": "mint",
      "outputs": [],
      "stateMutability": "payable",
      "type": "function"
    },
    {
      "inputs": [
        {
          "internalType": "address[]",
          "name": "recipients",
          "type": "address[]"
        }
      ],
      "name": "mintAirdrop",
      "outputs": [],
      "stateMutability": "nonpayable",
      "type": "function"
    },
    {
      "inputs": [
        {
          "internalType": "uint256",
          "name": "quantity",
          "type": "uint256"
        },
        {
          "internalType": "uint256",
          "name": "maxQuantity",
          "type": "uint256"
        },
        {
          "internalType": "uint256",
          "name": "pricePerToken",
          "type": "uint256"
        },
        {
          "internalType": "bytes32[]",
          "name": "merkleProof",
          "type": "bytes32[]"
        }
      ],
      "name": "mintPresale",
      "outputs": [],
      "stateMutability": "payable",
      "type": "function"
    },
    {
      "inputs": [],
      "name": "name",
      "outputs": [
        {
          "internalType": "string",
          "name": "",
          "type": "string"
        }
      ],
      "stateMutability": "view",
      "type": "function"
    },
    {
      "inputs": [],
      "name": "operatorFilterRegistry",
      "outputs": [
        {
          "internalType": "contract IOperatorFilterRegistry",
          "name": "",
          "type": "address"
        }
      ],
      "stateMutability": "view",
      "type": "function"
    },
    {
      "inputs": [],
      "name": "owner",
      "outputs": [
        {
          "internalType": "address",
          "name": "",
          "type": "address"
        }
      ],
      "stateMutability": "view",
      "type": "function"
    },
    {
      "inputs": [
        {
          "internalType": "uint256",
          "name": "tokenId",
          "type": "uint256"
        }
      ],
      "name": "ownerOf",
      "outputs": [
        {
          "internalType": "address",
          "name": "",
          "type": "address"
        }
      ],
      "stateMutability": "view",
      "type": "function"
    },
    {
      "inputs": [],
      "name": "parentIP",
      "outputs": [
        {
          "internalType": "address",
          "name": "",
          "type": "address"
        }
      ],
      "stateMutability": "view",
      "type": "function"
    },
    {
      "inputs": [],
      "name": "presaleEnd",
      "outputs": [
        {
          "internalType": "uint256",
          "name": "",
          "type": "uint256"
        }
      ],
      "stateMutability": "view",
      "type": "function"
    },
    {
      "inputs": [],
      "name": "presaleStart",
      "outputs": [
        {
          "internalType": "uint256",
          "name": "",
          "type": "uint256"
        }
      ],
      "stateMutability": "view",
      "type": "function"
    },
    {
      "inputs": [],
      "name": "renounceOwnership",
      "outputs": [],
      "stateMutability": "nonpayable",
      "type": "function"
    },
    {
      "inputs": [
        {
          "internalType": "uint256",
          "name": "numReserved",
          "type": "uint256"
        }
      ],
      "name": "reserveFRST",
      "outputs": [],
      "stateMutability": "nonpayable",
      "type": "function"
    },
    {
      "inputs": [],
      "name": "royaltyBPS",
      "outputs": [
        {
          "internalType": "uint256",
          "name": "",
          "type": "uint256"
        }
      ],
      "stateMutability": "view",
      "type": "function"
    },
    {
      "inputs": [
        {
          "internalType": "uint256",
          "name": "tokenId",
          "type": "uint256"
        },
        {
          "internalType": "uint256",
          "name": "salePrice",
          "type": "uint256"
        }
      ],
      "name": "royaltyInfo",
      "outputs": [
        {
          "internalType": "address",
          "name": "receiver",
          "type": "address"
        },
        {
          "internalType": "uint256",
          "name": "royaltyAmount",
          "type": "uint256"
        }
      ],
      "stateMutability": "view",
      "type": "function"
    },
    {
      "inputs": [
        {
          "internalType": "address",
          "name": "from",
          "type": "address"
        },
        {
          "internalType": "address",
          "name": "to",
          "type": "address"
        },
        {
          "internalType": "uint256",
          "name": "tokenId",
          "type": "uint256"
        }
      ],
      "name": "safeTransferFrom",
      "outputs": [],
      "stateMutability": "nonpayable",
      "type": "function"
    },
    {
      "inputs": [
        {
          "internalType": "address",
          "name": "from",
          "type": "address"
        },
        {
          "internalType": "address",
          "name": "to",
          "type": "address"
        },
        {
          "internalType": "uint256",
          "name": "tokenId",
          "type": "uint256"
        },
        {
          "internalType": "bytes",
          "name": "_data",
          "type": "bytes"
        }
      ],
      "name": "safeTransferFrom",
      "outputs": [],
      "stateMutability": "nonpayable",
      "type": "function"
    },
    {
      "inputs": [],
      "name": "saleEnd",
      "outputs": [
        {
          "internalType": "uint256",
          "name": "",
          "type": "uint256"
        }
      ],
      "stateMutability": "view",
      "type": "function"
    },
    {
      "inputs": [],
      "name": "saleIsActive",
      "outputs": [
        {
          "internalType": "bool",
          "name": "_saleIsActive",
          "type": "bool"
        }
      ],
      "stateMutability": "view",
      "type": "function"
    },
    {
      "inputs": [],
      "name": "saleIsPaused",
      "outputs": [
        {
          "internalType": "bool",
          "name": "",
          "type": "bool"
        }
      ],
      "stateMutability": "view",
      "type": "function"
    },
    {
      "inputs": [],
      "name": "saleStart",
      "outputs": [
        {
          "internalType": "uint256",
          "name": "",
          "type": "uint256"
        }
      ],
      "stateMutability": "view",
      "type": "function"
    },
    {
      "inputs": [
        {
          "internalType": "address",
          "name": "operator",
          "type": "address"
        },
        {
          "internalType": "bool",
          "name": "approved",
          "type": "bool"
        }
      ],
      "name": "setApprovalForAll",
      "outputs": [],
      "stateMutability": "nonpayable",
      "type": "function"
    },
    {
      "inputs": [
        {
          "internalType": "string",
          "name": "uri",
          "type": "string"
        }
      ],
      "name": "setBaseURI",
      "outputs": [],
      "stateMutability": "nonpayable",
      "type": "function"
    },
    {
      "inputs": [
        {
          "internalType": "string",
          "name": "uri",
          "type": "string"
        }
      ],
      "name": "setContractURI",
      "outputs": [],
      "stateMutability": "nonpayable",
      "type": "function"
    },
    {
      "inputs": [
        {
          "internalType": "address",
          "name": "_metadataRenderer",
          "type": "address"
        }
      ],
      "name": "setMetadataRenderer",
      "outputs": [],
      "stateMutability": "nonpayable",
      "type": "function"
    },
    {
      "inputs": [
        {
          "internalType": "bytes32",
          "name": "_presaleMerkleRoot",
          "type": "bytes32"
        }
      ],
      "name": "setPresaleMerkleRoot",
      "outputs": [],
      "stateMutability": "nonpayable",
      "type": "function"
    },
    {
      "inputs": [
        {
          "internalType": "address",
          "name": "_zkVerifier",
          "type": "address"
        }
      ],
      "name": "setZKVerifier",
      "outputs": [],
      "stateMutability": "nonpayable",
      "type": "function"
    },
    {
      "inputs": [],
      "name": "splitMain",
      "outputs": [
        {
          "internalType": "address",
          "name": "",
          "type": "address"
        }
      ],
      "stateMutability": "view",
      "type": "function"
    },
    {
      "inputs": [],
      "name": "splitWallet",
      "outputs": [
        {
          "internalType": "address",
          "name": "",
          "type": "address"
        }
      ],
      "stateMutability": "view",
      "type": "function"
    },
    {
      "inputs": [
        {
          "internalType": "bytes4",
          "name": "interfaceId",
          "type": "bytes4"
        }
      ],
      "name": "supportsInterface",
      "outputs": [
        {
          "internalType": "bool",
          "name": "",
          "type": "bool"
        }
      ],
      "stateMutability": "view",
      "type": "function"
    },
    {
      "inputs": [],
      "name": "symbol",
      "outputs": [
        {
          "internalType": "string",
          "name": "",
          "type": "string"
        }
      ],
      "stateMutability": "view",
      "type": "function"
    },
    {
      "inputs": [],
      "name": "tokenGateConfig",
      "outputs": [
        {
          "internalType": "address",
          "name": "tokenAddress",
          "type": "address"
        },
        {
          "internalType": "uint88",
          "name": "minBalance",
          "type": "uint88"
        },
        {
          "internalType": "enum SaleType",
          "name": "saleType",
          "type": "uint8"
        }
      ],
      "stateMutability": "view",
      "type": "function"
    },
    {
      "inputs": [],
      "name": "tokenPrice",
      "outputs": [
        {
          "internalType": "uint256",
          "name": "",
          "type": "uint256"
        }
      ],
      "stateMutability": "view",
      "type": "function"
    },
    {
      "inputs": [
        {
          "internalType": "uint256",
          "name": "tokenId",
          "type": "uint256"
        }
      ],
      "name": "tokenURI",
      "outputs": [
        {
          "internalType": "string",
          "name": "",
          "type": "string"
        }
      ],
      "stateMutability": "view",
      "type": "function"
    },
    {
      "inputs": [],
      "name": "totalSupply",
      "outputs": [
        {
          "internalType": "uint256",
          "name": "",
          "type": "uint256"
        }
      ],
      "stateMutability": "view",
      "type": "function"
    },
    {
      "inputs": [
        {
          "internalType": "address",
          "name": "from",
          "type": "address"
        },
        {
          "internalType": "address",
          "name": "to",
          "type": "address"
        },
        {
          "internalType": "uint256",
          "name": "tokenId",
          "type": "uint256"
        }
      ],
      "name": "transferFrom",
      "outputs": [],
      "stateMutability": "nonpayable",
      "type": "function"
    },
    {
      "inputs": [
        {
          "internalType": "address",
          "name": "newOwner",
          "type": "address"
        }
      ],
      "name": "transferOwnership",
      "outputs": [],
      "stateMutability": "nonpayable",
      "type": "function"
    },
    {
      "inputs": [
        {
          "internalType": "uint256",
          "name": "transferETH",
          "type": "uint256"
        },
        {
          "internalType": "contract ERC20[]",
          "name": "tokens",
          "type": "address[]"
        }
      ],
      "name": "transferToSplit",
      "outputs": [],
      "stateMutability": "nonpayable",
      "type": "function"
    },
    {
      "inputs": [
        {
          "internalType": "bool",
          "name": "enable",
          "type": "bool"
        },
        {
          "internalType": "address",
          "name": "operatorFilter",
          "type": "address"
        }
      ],
      "name": "updateOperatorFilter",
      "outputs": [],
      "stateMutability": "nonpayable",
      "type": "function"
    },
    {
      "inputs": [
        {
          "internalType": "uint256",
          "name": "newStart",
          "type": "uint256"
        },
        {
          "internalType": "uint256",
          "name": "newEnd",
          "type": "uint256"
        }
      ],
      "name": "updatePresaleStartEnd",
      "outputs": [],
      "stateMutability": "nonpayable",
      "type": "function"
    },
    {
      "inputs": [
        {
          "internalType": "uint256",
          "name": "newStart",
          "type": "uint256"
        },
        {
          "internalType": "uint256",
          "name": "newEnd",
          "type": "uint256"
        }
      ],
      "name": "updateSaleStartEnd",
      "outputs": [],
      "stateMutability": "nonpayable",
      "type": "function"
    },
    {
      "inputs": [],
      "name": "withdraw",
      "outputs": [],
      "stateMutability": "nonpayable",
      "type": "function"
    },
    {
      "inputs": [
        {
          "internalType": "address",
          "name": "recipient",
          "type": "address"
        }
      ],
      "name": "zkClaim",
      "outputs": [],
      "stateMutability": "nonpayable",
      "type": "function"
    },
    {
      "inputs": [],
      "name": "zkVerifier",
      "outputs": [
        {
          "internalType": "address",
          "name": "",
          "type": "address"
        }
      ],
      "stateMutability": "view",
      "type": "function"
    }
  ],
  "bytecode": "0x60806040523480156200001157600080fd5b506200001d3362000023565b6200007f565b600980546001600160a01b038381166201000081810262010000600160b01b031985161790945560405193909204169182907f8be0079c531659141344cd1fd0a4f28419497f9722a3daafe3b4186f6b6457e090600090a35050565b61451d806200008f6000396000f3fe6080604052600436106103a15760003560e01c80637ff9b596116101e7578063c50903461161010d578063e70aeefe116100a0578063f0cc8b621161006f578063f0cc8b6214610a9d578063f2fde38b14610abd578063f47c84c514610add578063fd4fe8a814610af357600080fd5b8063e70aeefe14610a33578063e8a3d48514610a53578063e985e9c514610a68578063eb8d244414610a8857600080fd5b8063d58d458a116100dc578063d58d458a146109c3578063d6df096d146109e3578063de8801e514610a03578063e6c350c114610a1957600080fd5b8063c509034614610943578063c595317014610963578063c87b56dd14610983578063c9ef5eee146109a357600080fd5b8063ab0bcc4111610185578063b94356de11610154578063b94356de146108d7578063b9c9d93a146108f7578063c10b93581461090d578063c4559d5a1461092357600080fd5b8063ab0bcc411461085f578063b0ccc31e14610875578063b88d4fde14610897578063b9139dcb146108b757600080fd5b8063938e3d7b116101c1578063938e3d7b146107f757806395d89b4114610817578063a0712d681461082c578063a22cb4651461083f57600080fd5b80637ff9b5961461079c5780638da5cb5b146107b2578063931cf0f4146107d657600080fd5b80632a55205a116102cc5780636352211e1161026a578063713b978711610239578063713b978714610734578063715018a614610754578063727a612e1461076957806379ab7c8e1461077c57600080fd5b80636352211e146106bf5780636c0360eb146106df57806370319970146106f457806370a082311461071457600080fd5b80633ccfd60b116102a65780633ccfd60b1461064a57806342842e0e1461065f57806355f804b31461067f5780635799dbdd1461069f57600080fd5b80632a55205a146105d65780632d75fea61461061557806334918dfd1461063557600080fd5b80630e769b2b11610344578063229f3e2911610313578063229f3e291461056057806323b872dd14610576578063284a44a81461059657806328d7b276146105b657600080fd5b80630e769b2b146104bb57806317dc2587146104db57806318160ddd146104fb5780631dbdedbd1461051457600080fd5b806306fdde031161038057806306fdde031461041d578063081812fc1461043f578063095ea7b31461047757806309aa3dcf1461049757600080fd5b80625f16fb146103a6578063015893c5146103c857806301ffc9a7146103e8575b600080fd5b3480156103b257600080fd5b506103c66103c13660046133ae565b610b13565b005b3480156103d457600080fd5b506103c66103e3366004613455565b610bf0565b3480156103f457600080fd5b506104086104033660046134eb565b610d6a565b60405190151581526020015b60405180910390f35b34801561042957600080fd5b50610432610d95565b6040516104149190613558565b34801561044b57600080fd5b5061045f61045a36600461356b565b610e27565b6040516001600160a01b039091168152602001610414565b34801561048357600080fd5b506103c6610492366004613584565b610e6b565b3480156104a357600080fd5b506104ad600c5481565b604051908152602001610414565b3480156104c757600080fd5b5060175461045f906001600160a01b031681565b3480156104e757600080fd5b506103c66104f63660046135b0565b610e84565b34801561050757600080fd5b50600154600054036104ad565b34801561052057600080fd5b50600854610551906001600160a01b03811690600160a01b81046001600160581b031690600160f81b900460ff1683565b604051610414939291906135e8565b34801561056c57600080fd5b506104ad60155481565b34801561058257600080fd5b506103c6610591366004613633565b610e97565b3480156105a257600080fd5b506103c66105b136600461376b565b611039565b3480156105c257600080fd5b506103c66105d136600461356b565b6110e2565b3480156105e257600080fd5b506105f66105f13660046135b0565b6110ef565b604080516001600160a01b039093168352602083019190915201610414565b34801561062157600080fd5b506103c6610630366004613858565b61119c565b34801561064157600080fd5b506103c661138a565b34801561065657600080fd5b506103c66113a6565b34801561066b57600080fd5b506103c661067a366004613633565b6114b4565b34801561068b57600080fd5b506103c661069a36600461390e565b6114cf565b3480156106ab57600080fd5b506103c66106ba3660046135b0565b6114e7565b3480156106cb57600080fd5b5061045f6106da36600461356b565b6114fa565b3480156106eb57600080fd5b50610432611505565b34801561070057600080fd5b5060125461045f906001600160a01b031681565b34801561072057600080fd5b506104ad61072f366004613942565b611593565b34801561074057600080fd5b5060185461045f906001600160a01b031681565b34801561076057600080fd5b506103c66115e1565b6103c661077736600461395f565b6115f5565b34801561078857600080fd5b506103c66107973660046139bf565b6119df565b3480156107a857600080fd5b506104ad600b5481565b3480156107be57600080fd5b506009546201000090046001600160a01b031661045f565b3480156107e257600080fd5b5060095461040890600160b01b900460ff1681565b34801561080357600080fd5b506103c661081236600461390e565b611a65565b34801561082357600080fd5b50610432611a79565b6103c661083a36600461356b565b611a88565b34801561084b57600080fd5b506103c661085a3660046139fb565b611e00565b34801561086b57600080fd5b506104ad600d5481565b34801561088157600080fd5b5061045f6daaeb6d7670e522a718067333cd4e81565b3480156108a357600080fd5b506103c66108b2366004613a29565b611e14565b3480156108c357600080fd5b506103c66108d2366004613942565b611e58565b3480156108e357600080fd5b506103c66108f236600461356b565b611f20565b34801561090357600080fd5b506104ad60135481565b34801561091957600080fd5b506104ad600e5481565b34801561092f57600080fd5b506103c661093e366004613a94565b611f90565b34801561094f57600080fd5b506103c661095e366004613942565b612060565b34801561096f57600080fd5b506103c661097e366004613b27565b61208a565b34801561098f57600080fd5b5061043261099e36600461356b565b61216c565b3480156109af57600080fd5b506103c66109be366004613d91565b61221f565b3480156109cf57600080fd5b506103c66109de36600461356b565b6124da565b3480156109ef57600080fd5b50601a5461045f906001600160a01b031681565b348015610a0f57600080fd5b506104ad60145481565b348015610a2557600080fd5b50600f546104089060ff1681565b348015610a3f57600080fd5b506103c6610a4e366004613e31565b61259c565b348015610a5f57600080fd5b50610432612870565b348015610a7457600080fd5b50610408610a83366004613ee4565b612910565b348015610a9457600080fd5b5061040861293e565b348015610aa957600080fd5b5060195461045f906001600160a01b031681565b348015610ac957600080fd5b506103c6610ad8366004613942565b612966565b348015610ae957600080fd5b506104ad600a5481565b348015610aff57600080fd5b506103c6610b0e366004613942565b6129dc565b6000610b276018546001600160a01b031690565b6001600160a01b031603610b565760405162461bcd60e51b8152600401610b4d90613f02565b60405180910390fd5b610b5f87612a06565b6017546001600160a01b03166001600160a01b03166315811302610b8b6018546001600160a01b031690565b898989898989896040518963ffffffff1660e01b8152600401610bb5989796959493929190613fb3565b600060405180830381600087803b158015610bcf57600080fd5b505af1158015610be3573d6000803e3d6000fd5b5050505050505050505050565b610bf8612b05565b6000610c0c6017546001600160a01b031690565b6001600160a01b031603610c565760405162461bcd60e51b815260206004820152601160248201527014dc1b1a5d13585a5b881b9bdd081cd95d607a1b6044820152606401610b4d565b6000610c6a6018546001600160a01b031690565b6001600160a01b031614610cb85760405162461bcd60e51b815260206004820152601560248201527414dc1b1a5d08185b1c9958591e4818dc99585d1959605a1b6044820152606401610b4d565b6000610ccc6017546001600160a01b031690565b6001600160a01b0316637601f7828787878787336040518763ffffffff1660e01b8152600401610d0196959493929190614015565b6020604051808303816000875af1158015610d20573d6000803e3d6000fd5b505050506040513d601f19601f82011682018060405250810190610d449190614066565b601880546001600160a01b0319166001600160a01b03831617905590505b505050505050565b600063152a902d60e11b6001600160e01b031983161480610d8f5750610d8f82612b66565b92915050565b606060028054610da490614083565b80601f0160208091040260200160405190810160405280929190818152602001828054610dd090614083565b8015610e1d5780601f10610df257610100808354040283529160200191610e1d565b820191906000526020600020905b815481529060010190602001808311610e0057829003601f168201915b5050505050905090565b6000610e3282612bb4565b610e4f576040516333d1c03960e21b815260040160405180910390fd5b506000908152600660205260409020546001600160a01b031690565b81610e7581612bdb565b610e7f8383612c94565b505050565b610e8c612b05565b600d91909155600e55565b6000610ea282612d34565b9050836001600160a01b0316816001600160a01b031614610ed55760405162a1148160e81b815260040160405180910390fd5b60008281526006602052604090208054338082146001600160a01b03881690911417610f2257610f058633612910565b610f2257604051632ce44b5f60e11b815260040160405180910390fd5b6001600160a01b038516610f4957604051633a954ecd60e21b815260040160405180910390fd5b610f568686866001612da2565b8015610f6157600082555b6001600160a01b038681166000908152600560205260408082208054600019019055918716808252919020805460010190554260a01b17600160e11b17600085815260046020526040812091909155600160e11b84169003610ff357600184016000818152600460205260408120549003610ff1576000548114610ff15760008181526004602052604090208490555b505b83856001600160a01b0316876001600160a01b03167fddf252ad1be2c89b69c2b068fc378daa952ba7f163c4a11628f55a4df523b3ef60405160405180910390a4610d62565b600061104d6018546001600160a01b031690565b6001600160a01b0316036110735760405162461bcd60e51b8152600401610b4d90613f02565b871561108757611087868686868686611f90565b60005b87518110156110cb576110bb8882815181106110a8576110a86140bd565b6020026020010151888888888888610b13565b6110c4816140e9565b905061108a565b506110d7898989612dbc565b505050505050505050565b6110ea612b05565b601655565b6000806110fb84612bb4565b61113b5760405162461bcd60e51b81526020600482015260116024820152702737b732bc34b9ba32b73a103a37b5b2b760791b6044820152606401610b4d565b6018546001600160a01b03161561115f576018546001600160a01b03169150611174565b6009546201000090046001600160a01b031691505b6000612710601354856111879190614102565b6111919190614119565b9150505b9250929050565b6111a4612b05565b60405163c3c5a54760e01b81523060048201819052906daaeb6d7670e522a718067333cd4e9063c3c5a547906024016020604051808303816000875af11580156111f2573d6000803e3d6000fd5b505050506040513d601f19601f82011682018060405250810190611216919061413b565b1580156112205750825b1561129a57604051633e9f1edf60e11b81526001600160a01b038083166004830152831660248201526daaeb6d7670e522a718067333cd4e90637d3e3dbe906044015b600060405180830381600087803b15801561127d57600080fd5b505af1158015611291573d6000803e3d6000fd5b50505050505050565b82156112e257604051632cc5350560e21b81526001600160a01b038083166004830152831660248201526daaeb6d7670e522a718067333cd4e9063b314d41490604401611263565b60405163034a0dc160e41b81526001600160a01b0382166004820152600060248201526daaeb6d7670e522a718067333cd4e906334a0dc1090604401600060405180830381600087803b15801561133857600080fd5b505af115801561134c573d6000803e3d6000fd5b5050604051631761612360e11b81526001600160a01b03841660048201526daaeb6d7670e522a718067333cd4e9250632ec2c2469150602401611263565b611392612b05565b600f805460ff19811660ff90911615179055565b6113ae612b05565b60006113c26018546001600160a01b031690565b6001600160a01b0316146114245760405162461bcd60e51b8152602060048201526024808201527f43616e6e6f74207769746864726177207769746820616e2061637469766520736044820152631c1b1a5d60e21b6064820152608401610b4d565b604051600090339047908381818185875af1925050503d8060008114611466576040519150601f19603f3d011682016040523d82523d6000602084013e61146b565b606091505b50509050806114b15760405162461bcd60e51b8152602060048201526012602482015271436f756c64206e6f7420776974686472617760701b6044820152606401610b4d565b50565b610e7f83838360405180602001604052806000815250611e14565b6114d7612b05565b60106114e3828261419e565b5050565b6114ef612b05565b601491909155601555565b6000610d8f82612d34565b6010805461151290614083565b80601f016020809104026020016040519081016040528092919081815260200182805461153e90614083565b801561158b5780601f106115605761010080835404028352916020019161158b565b820191906000526020600020905b81548152906001019060200180831161156e57829003601f168201915b505050505081565b60006001600160a01b0382166115bc576040516323d3ad8160e21b815260040160405180910390fd5b506001600160a01b03166000908152600560205260409020546001600160401b031690565b6115e9612b05565b6115f36000612df0565b565b6008546001906001600160a01b03161580159061165e57506000600854600160f81b900460ff16600281111561162d5761162d6135d2565b148061165e575080801561165e57506001600854600160f81b900460ff16600281111561165c5761165c6135d2565b145b8061168f57508015801561168f57506002600854600160f81b900460ff16600281111561168d5761168d6135d2565b145b1561175b576008546040516370a0823160e01b8152336004820152600160a01b82046001600160581b0316916001600160a01b0316906370a08231906024016020604051808303816000875af11580156116ed573d6000803e3d6000fd5b505050506040513d601f19601f82011682018060405250810190611711919061425d565b101561175b5760405162461bcd60e51b81526020600482015260196024820152783237903737ba1037bbb7103932b8bab4b932b2103a37b5b2b760391b6044820152606401610b4d565b601454421015801561176f57506015544211155b6117a95760405162461bcd60e51b815260206004820152600b60248201526a6e6f742070726573616c6560a81b6044820152606401610b4d565b600054600f5460ff16156117ff5760405162461bcd60e51b815260206004820152601b60248201527f53616c65206d7573742062652061637469766520746f206d696e7400000000006044820152606401610b4d565b600a5461180c8883614276565b111561182a5760405162461bcd60e51b8152600401610b4d90614289565b6118ad848480806020026020016040519081016040528093929190818152602001838360200280828437600092019190915250506016546040516bffffffffffffffffffffffff193360601b166020820152603481018c9052605481018b9052909250607401905060405160208183030381529060405280519060200120612e4c565b6118e85760405162461bcd60e51b815260206004820152600c60248201526b1b9bdd08185c1c1c9bdd995960a21b6044820152606401610b4d565b6118f28786614102565b3410156119365760405162461bcd60e51b8152602060048201526012602482015271496e73756666696369656e742066756e647360701b6044820152606401610b4d565b858761194133611593565b61194b9190614276565b111561198b5760405162461bcd60e51b815260206004820152600f60248201526e6d696e74656420746f6f206d616e7960881b6044820152606401610b4d565b6119953388612e62565b60005b878110156119d55760408051338152602081018490526001909301926000805160206144c8833981519152910160405180910390a1600101611998565b5050505050505050565b60006119f36018546001600160a01b031690565b6001600160a01b031603611a195760405162461bcd60e51b8152600401610b4d90613f02565b8115611a2757611a27612e7c565b60005b8151811015610e7f57611a55828281518110611a4857611a486140bd565b6020026020010151612a06565b611a5e816140e9565b9050611a2a565b611a6d612b05565b60116114e3828261419e565b606060038054610da490614083565b6008546000906001600160a01b031615801590611af157506000600854600160f81b900460ff166002811115611ac057611ac06135d2565b1480611af15750808015611af157506001600854600160f81b900460ff166002811115611aef57611aef6135d2565b145b80611b22575080158015611b2257506002600854600160f81b900460ff166002811115611b2057611b206135d2565b145b15611bee576008546040516370a0823160e01b8152336004820152600160a01b82046001600160581b0316916001600160a01b0316906370a08231906024016020604051808303816000875af1158015611b80573d6000803e3d6000fd5b505050506040513d601f19601f82011682018060405250810190611ba4919061425d565b1015611bee5760405162461bcd60e51b81526020600482015260196024820152783237903737ba1037bbb7103932b8bab4b932b2103a37b5b2b760391b6044820152606401610b4d565b600054600d544210801590611c055750600e544211155b611c495760405162461bcd60e51b815260206004820152601560248201527429b0b632b99030b932903737ba1030b1ba34bb329760591b6044820152606401610b4d565b600f5460ff1615611c9c5760405162461bcd60e51b815260206004820152601b60248201527f53616c65206d7573742062652061637469766520746f206d696e7400000000006044820152606401610b4d565b600a54611ca98483614276565b1115611cc75760405162461bcd60e51b8152600401610b4d90614289565b600a54811115611d045760405162461bcd60e51b815260206004820152600860248201526714d3d3110813d55560c21b6044820152606401610b4d565b82600b54611d129190614102565b341015611d565760405162461bcd60e51b8152602060048201526012602482015271496e73756666696369656e742066756e647360701b6044820152606401610b4d565b600c5415611db057600c54831115611db05760405162461bcd60e51b815260206004820152601c60248201527f4578636565646564206d6178206e756d62657220706572206d696e74000000006044820152606401610b4d565b611dba3384612e62565b60005b83811015611dfa5760408051338152602081018490526001909301926000805160206144c8833981519152910160405180910390a1600101611dbd565b50505050565b81611e0a81612bdb565b610e7f8383612f30565b611e1f848484610e97565b6001600160a01b0383163b15611dfa57611e3b84848484612f9c565b611dfa576040516368d2bf6b60e11b815260040160405180910390fd5b601a546001600160a01b03163314611eb25760405162461bcd60e51b815260206004820152601860248201527f4f6e6c79207a6b56657269666965722063616e2063616c6c00000000000000006044820152606401610b4d565b600054600a54611ec3826001614276565b1115611ee15760405162461bcd60e51b8152600401610b4d90614289565b611eec826001612e62565b604080516001600160a01b0384168152602081018390526000805160206144c8833981519152910160405180910390a15050565b611f28612b05565b600054600a54611f388383614276565b10611f555760405162461bcd60e51b8152600401610b4d90614289565b60005b82811015610e7f57611f7e33611f6e8385614276565b611f79906001614276565b612e62565b80611f88816140e9565b915050611f58565b6000611fa46018546001600160a01b031690565b6001600160a01b031603611fca5760405162461bcd60e51b8152600401610b4d90613f02565b611fd2612e7c565b6017546001600160a01b03166001600160a01b031663e61cb05e611ffe6018546001600160a01b031690565b8888888888886040518863ffffffff1660e01b815260040161202697969594939291906142be565b600060405180830381600087803b15801561204057600080fd5b505af1158015612054573d6000803e3d6000fd5b50505050505050505050565b612068612b05565b601a80546001600160a01b0319166001600160a01b0392909216919091179055565b612092612b05565b600054600a5481906120a48483614276565b11156120c25760405162461bcd60e51b8152600401610b4d90614289565b8183015b808310156121655761210185858486038181106120e5576120e56140bd565b90506020020160208101906120fa9190613942565b6001612e62565b6000805160206144c88339815191528585848603818110612124576121246140bd565b90506020020160208101906121399190613942565b604080516001600160a01b039092168252602082018690520160405180910390a16001909201916120c6565b5050505050565b606061217782612bb4565b61219457604051630a14c4b560e41b815260040160405180910390fd5b6012546001600160a01b0316156122165760125460405163c87b56dd60e01b8152600481018490526001600160a01b039091169063c87b56dd90602401600060405180830381865afa1580156121ee573d6000803e3d6000fd5b505050506040513d6000823e601f3d908101601f19168201604052610d8f9190810190614317565b610d8f82613088565b600954610100900460ff161580801561223f5750600954600160ff909116105b806122595750303b158015612259575060095460ff166001145b6122755760405162461bcd60e51b8152600401610b4d9061438d565b6009805460ff191660011790558015612298576009805461ff0019166101001790555b6122a187612df0565b85516002906122b0908261419e565b5060208601516003906122c3908261419e565b5060008055606080870151600a556080870151600b5560a0870151600c55610120870151600d55610140870151600e5561016087015160135560408088015160098054911515600160b01b0260ff60b01b1990921691909117905590860151601980546001600160a01b039283166001600160a01b03199182161790915560178054868416921691909117905585516008805460208901516001600160581b0316600160a01b026001600160f81b031990911692909316919091179190911780825591860151869282906001600160f81b0316600160f81b8360028111156123ad576123ad6135d2565b0217905550505060c086015160165560e08601516014556101008601516015556001600160a01b038316158015906123ea57506000856040015151115b1561246857601280546001600160a01b0319166001600160a01b03851690811790915560408681015190516342b53ffd60e11b815263856a7ffa9161243191600401613558565b600060405180830381600087803b15801561244b57600080fd5b505af115801561245f573d6000803e3d6000fd5b5050505061248c565b8451601190612477908261419e565b50602085015160109061248a908261419e565b505b8015611291576009805461ff0019169055604051600181527f7f26b83ff96e1f2b6a682f133852f6798a09c465da95921460cefb38474024989060200160405180910390a150505050505050565b6124e2612b05565b600954600160b01b900460ff166125495760405162461bcd60e51b815260206004820152602560248201527f63616e6e6f742061646a7573742073697a65206f66207468697320636f6c6c6560448201526431ba34b7b760d91b6064820152608401610b4d565b8061255360005490565b11156125975760405162461bcd60e51b8152602060048201526013602482015272063616e6e6f742064656372656173652063617606c1b6044820152606401610b4d565b600a55565b600954610100900460ff16158080156125bc5750600954600160ff909116105b806125d65750303b1580156125d6575060095460ff166001145b6125f25760405162461bcd60e51b8152600401610b4d9061438d565b6009805460ff191660011790558015612615576009805461ff0019166101001790555b61261e88612df0565b865160029061262d908261419e565b506020870151600390612640908261419e565b5060008055606080880151600a556080880151600b5560a0880151600c55610120880151600d55610140880151600e5561016088015160135560408089015160098054911515600160b01b0260ff60b01b1990921691909117905590870151601980546001600160a01b039283166001600160a01b03199182161790915560178054878416921691909117905586516008805460208a01516001600160581b0316600160a01b026001600160f81b031990911692909316919091179190911780825591870151879282906001600160f81b0316600160f81b83600281111561272a5761272a6135d2565b0217905550505060c087015160165560e0870151601455610100870151601555601a80546001600160a01b0319166001600160a01b038481169190911790915584161580159061277f57506000866040015151115b156127fd57601280546001600160a01b0319166001600160a01b03861690811790915560408781015190516342b53ffd60e11b815263856a7ffa916127c691600401613558565b600060405180830381600087803b1580156127e057600080fd5b505af11580156127f4573d6000803e3d6000fd5b50505050612821565b855160119061280c908261419e565b50602086015160109061281f908261419e565b505b80156119d5576009805461ff0019169055604051600181527f7f26b83ff96e1f2b6a682f133852f6798a09c465da95921460cefb38474024989060200160405180910390a15050505050505050565b6012546060906001600160a01b03166128905760118054610da490614083565b601260009054906101000a90046001600160a01b03166001600160a01b031663e8a3d4856040518163ffffffff1660e01b8152600401600060405180830381865afa1580156128e3573d6000803e3d6000fd5b505050506040513d6000823e601f3d908101601f1916820160405261290b9190810190614317565b905090565b6001600160a01b03918216600090815260076020908152604080832093909416825291909152205460ff1690565b6000600d5442101580156129545750600e544211155b801561290b575050600f5460ff161590565b61296e612b05565b6001600160a01b0381166129d35760405162461bcd60e51b815260206004820152602660248201527f4f776e61626c653a206e6577206f776e657220697320746865207a65726f206160448201526564647265737360d01b6064820152608401610b4d565b6114b181612df0565b6129e4612b05565b601280546001600160a01b0319166001600160a01b0392909216919091179055565b6040516370a0823160e01b81523060048201526000906001600160a01b038316906370a0823190602401602060405180830381865afa158015612a4d573d6000803e3d6000fd5b505050506040513d601f19601f82011682018060405250810190612a71919061425d565b9050816001600160a01b031663a9059cbb612a946018546001600160a01b031690565b6040516001600160e01b031960e084901b1681526001600160a01b039091166004820152602481018490526044016020604051808303816000875af1158015612ae1573d6000803e3d6000fd5b505050506040513d601f19601f82011682018060405250810190610e7f919061413b565b6009546001600160a01b03620100009091041633146115f35760405162461bcd60e51b815260206004820181905260248201527f4f776e61626c653a2063616c6c6572206973206e6f7420746865206f776e65726044820152606401610b4d565b60006301ffc9a760e01b6001600160e01b031983161480612b9757506380ac58cd60e01b6001600160e01b03198316145b80610d8f5750506001600160e01b031916635b5e139f60e01b1490565b6000805482108015610d8f575050600090815260046020526040902054600160e01b161590565b6daaeb6d7670e522a718067333cd4e3b156114b157604051633185c44d60e21b81523060048201526001600160a01b03821660248201526daaeb6d7670e522a718067333cd4e9063c617113490604401602060405180830381865afa158015612c48573d6000803e3d6000fd5b505050506040513d601f19601f82011682018060405250810190612c6c919061413b565b6114b157604051633b79c77360e21b81526001600160a01b0382166004820152602401610b4d565b6000612c9f826114fa565b9050336001600160a01b03821614612cd857612cbb8133612910565b612cd8576040516367d9dca160e11b815260040160405180910390fd5b60008281526006602052604080822080546001600160a01b0319166001600160a01b0387811691821790925591518593918516917f8c5be1e5ebec7d5bd14f71427d1e84f3dd0314c0f7b2291e5b200ac8c7c3b92591a4505050565b600081600054811015612d895760008181526004602052604081205490600160e01b82169003612d87575b80600003612d80575060001901600081815260046020526040902054612d5f565b9392505050565b505b604051636f96cda160e11b815260040160405180910390fd5b836001600160a01b03811633146121655761216533612bdb565b601754604051636e5f691960e01b81526001600160a01b0390911690636e5f691990611263908690869086906004016143db565b600980546001600160a01b038381166201000081810262010000600160b01b031985161790945560405193909204169182907f8be0079c531659141344cd1fd0a4f28419497f9722a3daafe3b4186f6b6457e090600090a35050565b600082612e59858461310b565b14949350505050565b6114e3828260405180602001604052806000815250613158565b6000612e906018546001600160a01b031690565b6001600160a01b03164760405160006040518083038185875af1925050503d8060008114612eda576040519150601f19603f3d011682016040523d82523d6000602084013e612edf565b606091505b50509050806114b15760405162461bcd60e51b815260206004820152601f60248201527f436f756c64206e6f74207472616e736665722045544820746f2073706c6974006044820152606401610b4d565b3360008181526007602090815260408083206001600160a01b03871680855290835292819020805460ff191686151590811790915590519081529192917f17307eab39ab6107e8899845ad3d59bd9653f200f220920489ca2b5937696c31910160405180910390a35050565b604051630a85bd0160e11b81526000906001600160a01b0385169063150b7a0290612fd190339089908890889060040161443e565b6020604051808303816000875af192505050801561300c575060408051601f3d908101601f191682019092526130099181019061447b565b60015b61306a573d80801561303a576040519150601f19603f3d011682016040523d82523d6000602084013e61303f565b606091505b508051600003613062576040516368d2bf6b60e11b815260040160405180910390fd5b805181602001fd5b6001600160e01b031916630a85bd0160e11b1490505b949350505050565b606061309382612bb4565b6130b057604051630a14c4b560e41b815260040160405180910390fd5b60006130ba6131be565b905080516000036130da5760405180602001604052806000815250612d80565b806130e4846131cd565b6040516020016130f5929190614498565b6040516020818303038152906040529392505050565b600081815b84518110156131505761313c8286838151811061312f5761312f6140bd565b6020026020010151613205565b915080613148816140e9565b915050613110565b509392505050565b6131628383613231565b6001600160a01b0383163b15610e7f576000548281035b61318c6000868380600101945086612f9c565b6131a9576040516368d2bf6b60e11b815260040160405180910390fd5b81811061317957816000541461216557600080fd5b606060108054610da490614083565b604080516080019081905280825b600183039250600a81066030018353600a9004806131db5750819003601f19909101908152919050565b6000818310613221576000828152602084905260409020612d80565b5060009182526020526040902090565b60008054908290036132565760405163b562e8dd60e01b815260040160405180910390fd5b6132636000848385612da2565b6001600160a01b03831660008181526005602090815260408083208054680100000000000000018802019055848352600490915281206001851460e11b4260a01b178317905582840190839083907fddf252ad1be2c89b69c2b068fc378daa952ba7f163c4a11628f55a4df523b3ef8180a4600183015b81811461331257808360007fddf252ad1be2c89b69c2b068fc378daa952ba7f163c4a11628f55a4df523b3ef600080a46001016132da565b508160000361333357604051622e076360e81b815260040160405180910390fd5b60005550505050565b6001600160a01b03811681146114b157600080fd5b60008083601f84011261336357600080fd5b5081356001600160401b0381111561337a57600080fd5b6020830191508360208260051b850101111561119557600080fd5b803563ffffffff811681146133a957600080fd5b919050565b600080600080600080600060a0888a0312156133c957600080fd5b87356133d48161333c565b965060208801356001600160401b03808211156133f057600080fd5b6133fc8b838c01613351565b909850965060408a013591508082111561341557600080fd5b506134228a828b01613351565b9095509350613435905060608901613395565b915060808801356134458161333c565b8091505092959891949750929550565b60008060008060006060868803121561346d57600080fd5b85356001600160401b038082111561348457600080fd5b61349089838a01613351565b909750955060208801359150808211156134a957600080fd5b506134b688828901613351565b90945092506134c9905060408701613395565b90509295509295909350565b6001600160e01b0319811681146114b157600080fd5b6000602082840312156134fd57600080fd5b8135612d80816134d5565b60005b8381101561352357818101518382015260200161350b565b50506000910152565b60008151808452613544816020860160208601613508565b601f01601f19169290920160200192915050565b602081526000612d80602083018461352c565b60006020828403121561357d57600080fd5b5035919050565b6000806040838503121561359757600080fd5b82356135a28161333c565b946020939093013593505050565b600080604083850312156135c357600080fd5b50508035926020909101359150565b634e487b7160e01b600052602160045260246000fd5b6001600160a01b03841681526001600160581b0383166020820152606081016003831061362557634e487b7160e01b600052602160045260246000fd5b826040830152949350505050565b60008060006060848603121561364857600080fd5b83356136538161333c565b925060208401356136638161333c565b929592945050506040919091013590565b634e487b7160e01b600052604160045260246000fd5b60405161018081016001600160401b03811182821017156136ad576136ad613674565b60405290565b604051601f8201601f191681016001600160401b03811182821017156136db576136db613674565b604052919050565b600082601f8301126136f457600080fd5b813560206001600160401b0382111561370f5761370f613674565b8160051b61371e8282016136b3565b928352848101820192828101908785111561373857600080fd5b83870192505b848310156137605782356137518161333c565b8252918301919083019061373e565b979650505050505050565b600080600080600080600080600060e08a8c03121561378957600080fd5b89356137948161333c565b985060208a0135975060408a01356001600160401b03808211156137b757600080fd5b6137c38d838e016136e3565b985060608c01359150808211156137d957600080fd5b6137e58d838e01613351565b909850965060808c01359150808211156137fe57600080fd5b5061380b8c828d01613351565b909550935061381e905060a08b01613395565b915060c08a013561382e8161333c565b809150509295985092959850929598565b80151581146114b157600080fd5b80356133a98161383f565b6000806040838503121561386b57600080fd5b82356138768161383f565b915060208301356138868161333c565b809150509250929050565b60006001600160401b038211156138aa576138aa613674565b50601f01601f191660200190565b600082601f8301126138c957600080fd5b81356138dc6138d782613891565b6136b3565b8181528460208386010111156138f157600080fd5b816020850160208301376000918101602001919091529392505050565b60006020828403121561392057600080fd5b81356001600160401b0381111561393657600080fd5b613080848285016138b8565b60006020828403121561395457600080fd5b8135612d808161333c565b60008060008060006080868803121561397757600080fd5b85359450602086013593506040860135925060608601356001600160401b038111156139a257600080fd5b6139ae88828901613351565b969995985093965092949392505050565b600080604083850312156139d257600080fd5b8235915060208301356001600160401b038111156139ef57600080fd5b611191858286016136e3565b60008060408385031215613a0e57600080fd5b8235613a198161333c565b915060208301356138868161383f565b60008060008060808587031215613a3f57600080fd5b8435613a4a8161333c565b93506020850135613a5a8161333c565b92506040850135915060608501356001600160401b03811115613a7c57600080fd5b613a88878288016138b8565b91505092959194509250565b60008060008060008060808789031215613aad57600080fd5b86356001600160401b0380821115613ac457600080fd5b613ad08a838b01613351565b90985096506020890135915080821115613ae957600080fd5b50613af689828a01613351565b9095509350613b09905060408801613395565b91506060870135613b198161333c565b809150509295509295509295565b60008060208385031215613b3a57600080fd5b82356001600160401b03811115613b5057600080fd5b613b5c85828601613351565b90969095509350505050565b60006101808284031215613b7b57600080fd5b613b8361368a565b905081356001600160401b0380821115613b9c57600080fd5b613ba8858386016138b8565b83526020840135915080821115613bbe57600080fd5b50613bcb848285016138b8565b602083015250613bdd6040830161384d565b6040820152606082013560608201526080820135608082015260a082013560a082015260c082013560c082015260e082013560e082015261010080830135818301525061012080830135818301525061014080830135818301525061016080830135818301525092915050565b600060808284031215613c5c57600080fd5b604051608081016001600160401b038282108183111715613c7f57613c7f613674565b816040528293508435915080821115613c9757600080fd5b613ca3868387016138b8565b83526020850135915080821115613cb957600080fd5b613cc5868387016138b8565b60208401526040850135915080821115613cde57600080fd5b50613ceb858286016138b8565b6040830152506060830135613cff8161333c565b6060919091015292915050565b600060608284031215613d1e57600080fd5b604051606081018181106001600160401b0382111715613d4057613d40613674565b6040529050808235613d518161333c565b815260208301356001600160581b0381168114613d6d57600080fd5b6020820152604083013560038110613d8457600080fd5b6040919091015292915050565b6000806000806000806101008789031215613dab57600080fd5b8635613db68161333c565b955060208701356001600160401b0380821115613dd257600080fd5b613dde8a838b01613b68565b96506040890135915080821115613df457600080fd5b50613e0189828a01613c4a565b945050613e118860608901613d0c565b925060c0870135613e218161333c565b915060e0870135613b198161333c565b6000806000806000806000610120888a031215613e4d57600080fd5b8735613e588161333c565b965060208801356001600160401b0380821115613e7457600080fd5b613e808b838c01613b68565b975060408a0135915080821115613e9657600080fd5b50613ea38a828b01613c4a565b955050613eb38960608a01613d0c565b935060c0880135613ec38161333c565b925060e0880135613ed38161333c565b91506101008801356134458161333c565b60008060408385031215613ef757600080fd5b82356138768161333c565b60208082526015908201527414dc1b1a5d081b9bdd0818dc99585d1959081e595d605a1b604082015260600190565b8183526000602080850194508260005b85811015613f6f578135613f548161333c565b6001600160a01b031687529582019590820190600101613f41565b509495945050505050565b8183526000602080850194508260005b85811015613f6f5763ffffffff613fa083613395565b1687529582019590820190600101613f8a565b600060018060a01b03808b168352808a16602084015260c06040840152613fde60c08401898b613f31565b8381036060850152613ff181888a613f7a565b63ffffffff969096166080850152509290921660a090910152509695505050505050565b60808152600061402960808301888a613f31565b828103602084015261403c818789613f7a565b63ffffffff95909516604084015250506001600160a01b0391909116606090910152949350505050565b60006020828403121561407857600080fd5b8151612d808161333c565b600181811c9082168061409757607f821691505b6020821081036140b757634e487b7160e01b600052602260045260246000fd5b50919050565b634e487b7160e01b600052603260045260246000fd5b634e487b7160e01b600052601160045260246000fd5b6000600182016140fb576140fb6140d3565b5060010190565b8082028115828204841417610d8f57610d8f6140d3565b60008261413657634e487b7160e01b600052601260045260246000fd5b500490565b60006020828403121561414d57600080fd5b8151612d808161383f565b601f821115610e7f57600081815260208120601f850160051c8101602086101561417f5750805b601f850160051c820191505b81811015610d625782815560010161418b565b81516001600160401b038111156141b7576141b7613674565b6141cb816141c58454614083565b84614158565b602080601f83116001811461420057600084156141e85750858301515b600019600386901b1c1916600185901b178555610d62565b600085815260208120601f198616915b8281101561422f57888601518255948401946001909101908401614210565b508582101561424d5787850151600019600388901b60f8161c191681555b5050505050600190811b01905550565b60006020828403121561426f57600080fd5b5051919050565b80820180821115610d8f57610d8f6140d3565b6020808252818101527f507572636861736520776f756c6420657863656564206d617820737570706c79604082015260600190565b600060018060a01b03808a16835260a060208401526142e160a08401898b613f31565b83810360408501526142f481888a613f7a565b63ffffffff96909616606085015250929092166080909101525095945050505050565b60006020828403121561432957600080fd5b81516001600160401b0381111561433f57600080fd5b8201601f8101841361435057600080fd5b805161435e6138d782613891565b81815285602083850101111561437357600080fd5b614384826020830160208601613508565b95945050505050565b6020808252602e908201527f496e697469616c697a61626c653a20636f6e747261637420697320616c72656160408201526d191e481a5b9a5d1a585b1a5e995960921b606082015260800190565b6001600160a01b038481168252602080830185905260606040840181905284519084018190526000928583019290916080860190855b8181101561442f578551851683529483019491830191600101614411565b50909998505050505050505050565b6001600160a01b03858116825284166020820152604081018390526080606082018190526000906144719083018461352c565b9695505050505050565b60006020828403121561448d57600080fd5b8151612d80816134d5565b600083516144aa818460208801613508565b8351908301906144be818360208801613508565b0194935050505056fe30385c845b448a36257a6a1716e6ad2e1bc2cbe333cde1e69fe849ad6511adfea264697066735822122082de9cc0231ff4483beef6cb5c156fedd107367d614877eb3dfc38ea1b08f67164736f6c63430008110033",
  "linkReferences": {},
  "deployedLinkReferences": {}
}