{
  "_format": "hh-sol-artifact-1",
  "contractName": "ZKEdition",
  "sourceName": "contracts/ZKEdition.sol",
  "abi": [
    {
      "inputs": [],
      "name": "ApprovalCallerNotOwnerNorApproved",
      "type": "error"
    },
    {
      "inputs": [],
      "name": "ApprovalQueryForNonexistentToken",
      "type": "error"
    },
    {
      "inputs": [],
      "name": "BalanceQueryForZeroAddress",
      "type": "error"
    },
    {
      "inputs": [],
      "name": "MintERC2309QuantityExceedsLimit",
      "type": "error"
    },
    {
      "inputs": [],
      "name": "MintToZeroAddress",
      "type": "error"
    },
    {
      "inputs": [],
      "name": "MintZeroQuantity",
      "type": "error"
    },
    {
      "inputs": [],
      "name": "NotCompatibleWithSpotMints",
      "type": "error"
    },
    {
      "inputs": [
        {
          "internalType": "address",
          "name": "operator",
          "type": "address"
        }
      ],
      "name": "OperatorNotAllowed",
      "type": "error"
    },
    {
      "inputs": [],
      "name": "OwnerQueryForNonexistentToken",
      "type": "error"
    },
    {
      "inputs": [],
      "name": "OwnershipNotInitializedForExtraData",
      "type": "error"
    },
    {
      "inputs": [],
      "name": "SequentialMintExceedsLimit",
      "type": "error"
    },
    {
      "inputs": [],
      "name": "SequentialUpToTooSmall",
      "type": "error"
    },
    {
      "inputs": [],
      "name": "SpotMintTokenIdTooSmall",
      "type": "error"
    },
    {
      "inputs": [],
      "name": "TokenAlreadyExists",
      "type": "error"
    },
    {
      "inputs": [],
      "name": "TransferCallerNotOwnerNorApproved",
      "type": "error"
    },
    {
      "inputs": [],
      "name": "TransferFromIncorrectOwner",
      "type": "error"
    },
    {
      "inputs": [],
      "name": "TransferToNonERC721ReceiverImplementer",
      "type": "error"
    },
    {
      "inputs": [],
      "name": "TransferToZeroAddress",
      "type": "error"
    },
    {
      "inputs": [],
      "name": "URIQueryForNonexistentToken",
      "type": "error"
    },
    {
      "anonymous": false,
      "inputs": [
        {
          "indexed": true,
          "internalType": "address",
          "name": "owner",
          "type": "address"
        },
        {
          "indexed": true,
          "internalType": "address",
          "name": "approved",
          "type": "address"
        },
        {
          "indexed": true,
          "internalType": "uint256",
          "name": "tokenId",
          "type": "uint256"
        }
      ],
      "name": "Approval",
      "type": "event"
    },
    {
      "anonymous": false,
      "inputs": [
        {
          "indexed": true,
          "internalType": "address",
          "name": "owner",
          "type": "address"
        },
        {
          "indexed": true,
          "internalType": "address",
          "name": "operator",
          "type": "address"
        },
        {
          "indexed": false,
          "internalType": "bool",
          "name": "approved",
          "type": "bool"
        }
      ],
      "name": "ApprovalForAll",
      "type": "event"
    },
    {
      "anonymous": false,
      "inputs": [
        {
          "indexed": true,
          "internalType": "uint256",
          "name": "fromTokenId",
          "type": "uint256"
        },
        {
          "indexed": false,
          "internalType": "uint256",
          "name": "toTokenId",
          "type": "uint256"
        },
        {
          "indexed": true,
          "internalType": "address",
          "name": "from",
          "type": "address"
        },
        {
          "indexed": true,
          "internalType": "address",
          "name": "to",
          "type": "address"
        }
      ],
      "name": "ConsecutiveTransfer",
      "type": "event"
    },
    {
      "anonymous": false,
      "inputs": [
        {
          "indexed": false,
          "internalType": "uint8",
          "name": "version",
          "type": "uint8"
        }
      ],
      "name": "Initialized",
      "type": "event"
    },
    {
      "anonymous": false,
      "inputs": [
        {
          "indexed": false,
          "internalType": "address",
          "name": "sender",
          "type": "address"
        },
        {
          "indexed": false,
          "internalType": "uint256",
          "name": "tokenId_",
          "type": "uint256"
        }
      ],
      "name": "Minted",
      "type": "event"
    },
    {
      "anonymous": false,
      "inputs": [
        {
          "indexed": true,
          "internalType": "address",
          "name": "previousOwner",
          "type": "address"
        },
        {
          "indexed": true,
          "internalType": "address",
          "name": "newOwner",
          "type": "address"
        }
      ],
      "name": "OwnershipTransferred",
      "type": "event"
    },
    {
      "anonymous": false,
      "inputs": [
        {
          "indexed": true,
          "internalType": "address",
          "name": "from",
          "type": "address"
        },
        {
          "indexed": true,
          "internalType": "address",
          "name": "to",
          "type": "address"
        },
        {
          "indexed": true,
          "internalType": "uint256",
          "name": "tokenId",
          "type": "uint256"
        }
      ],
      "name": "Transfer",
      "type": "event"
    },
    {
      "inputs": [],
      "name": "MAX_TOKENS",
      "outputs": [
        {
          "internalType": "uint256",
          "name": "",
          "type": "uint256"
        }
      ],
      "stateMutability": "view",
      "type": "function"
    },
    {
      "inputs": [
        {
          "internalType": "uint256",
          "name": "newCap",
          "type": "uint256"
        }
      ],
      "name": "adjustCap",
      "outputs": [],
      "stateMutability": "nonpayable",
      "type": "function"
    },
    {
      "inputs": [
        {
          "internalType": "address",
          "name": "operator",
          "type": "address"
        },
        {
          "internalType": "uint256",
          "name": "tokenId",
          "type": "uint256"
        }
      ],
      "name": "approve",
      "outputs": [],
      "stateMutability": "payable",
      "type": "function"
    },
    {
      "inputs": [
        {
          "internalType": "address",
          "name": "owner",
          "type": "address"
        }
      ],
      "name": "balanceOf",
      "outputs": [
        {
          "internalType": "uint256",
          "name": "",
          "type": "uint256"
        }
      ],
      "stateMutability": "view",
      "type": "function"
    },
    {
      "inputs": [],
      "name": "baseURI",
      "outputs": [
        {
          "internalType": "string",
          "name": "",
          "type": "string"
        }
      ],
      "stateMutability": "view",
      "type": "function"
    },
    {
      "inputs": [],
      "name": "contractURI",
      "outputs": [
        {
          "internalType": "string",
          "name": "",
          "type": "string"
        }
      ],
      "stateMutability": "view",
      "type": "function"
    },
    {
      "inputs": [
        {
          "internalType": "address[]",
          "name": "accounts",
          "type": "address[]"
        },
        {
          "internalType": "uint32[]",
          "name": "percentAllocations",
          "type": "uint32[]"
        },
        {
          "internalType": "uint32",
          "name": "distributorFee",
          "type": "uint32"
        }
      ],
      "name": "createSplit",
      "outputs": [],
      "stateMutability": "nonpayable",
      "type": "function"
    },
    {
      "inputs": [
        {
          "internalType": "address",
          "name": "account",
          "type": "address"
        },
        {
          "internalType": "uint256",
          "name": "withdrawETH",
          "type": "uint256"
        },
        {
          "internalType": "contract ERC20[]",
          "name": "tokens",
          "type": "address[]"
        },
        {
          "internalType": "address[]",
          "name": "accounts",
          "type": "address[]"
        },
        {
          "internalType": "uint32[]",
          "name": "percentAllocations",
          "type": "uint32[]"
        },
        {
          "internalType": "uint32",
          "name": "distributorFee",
          "type": "uint32"
        },
        {
          "internalType": "address",
          "name": "distributorAddress",
          "type": "address"
        }
      ],
      "name": "distributeAndWithdraw",
      "outputs": [],
      "stateMutability": "nonpayable",
      "type": "function"
    },
    {
      "inputs": [
        {
          "internalType": "contract ERC20",
          "name": "token",
          "type": "address"
        },
        {
          "internalType": "address[]",
          "name": "accounts",
          "type": "address[]"
        },
        {
          "internalType": "uint32[]",
          "name": "percentAllocations",
          "type": "uint32[]"
        },
        {
          "internalType": "uint32",
          "name": "distributorFee",
          "type": "uint32"
        },
        {
          "internalType": "address",
          "name": "distributorAddress",
          "type": "address"
        }
      ],
      "name": "distributeERC20",
      "outputs": [],
      "stateMutability": "nonpayable",
      "type": "function"
    },
    {
      "inputs": [
        {
          "internalType": "address[]",
          "name": "accounts",
          "type": "address[]"
        },
        {
          "internalType": "uint32[]",
          "name": "percentAllocations",
          "type": "uint32[]"
        },
        {
          "internalType": "uint32",
          "name": "distributorFee",
          "type": "uint32"
        },
        {
          "internalType": "address",
          "name": "distributorAddress",
          "type": "address"
        }
      ],
      "name": "distributeETH",
      "outputs": [],
      "stateMutability": "nonpayable",
      "type": "function"
    },
    {
      "inputs": [],
      "name": "flipSaleState",
      "outputs": [],
      "stateMutability": "nonpayable",
      "type": "function"
    },
    {
      "inputs": [
        {
          "internalType": "uint256",
          "name": "tokenId",
          "type": "uint256"
        }
      ],
      "name": "getApproved",
      "outputs": [
        {
          "internalType": "address",
          "name": "",
          "type": "address"
        }
      ],
      "stateMutability": "view",
      "type": "function"
    },
    {
      "inputs": [],
      "name": "hasAdjustableCap",
      "outputs": [
        {
          "internalType": "bool",
          "name": "",
          "type": "bool"
        }
      ],
      "stateMutability": "view",
      "type": "function"
    },
    {
      "inputs": [
        {
          "internalType": "address",
          "name": "_owner",
          "type": "address"
        },
        {
          "components": [
            {
              "internalType": "string",
              "name": "name",
              "type": "string"
            },
            {
              "internalType": "string",
              "name": "symbol",
              "type": "string"
            },
            {
              "internalType": "bool",
              "name": "hasAdjustableCap",
              "type": "bool"
            },
            {
              "internalType": "uint256",
              "name": "maxTokens",
              "type": "uint256"
            },
            {
              "internalType": "uint256",
              "name": "tokenPrice",
              "type": "uint256"
            },
            {
              "internalType": "uint256",
              "name": "maxTokenPurchase",
              "type": "uint256"
            },
            {
              "internalType": "bytes32",
              "name": "presaleMerkleRoot",
              "type": "bytes32"
            },
            {
              "internalType": "uint256",
              "name": "presaleStart",
              "type": "uint256"
            },
            {
              "internalType": "uint256",
              "name": "presaleEnd",
              "type": "uint256"
            },
            {
              "internalType": "uint256",
              "name": "saleStart",
              "type": "uint256"
            },
            {
              "internalType": "uint256",
              "name": "saleEnd",
              "type": "uint256"
            },
            {
              "internalType": "uint256",
              "name": "royaltyBPS",
              "type": "uint256"
            }
          ],
          "internalType": "struct EditionConfig",
          "name": "_editionConfig",
          "type": "tuple"
        },
        {
          "components": [
            {
              "internalType": "string",
              "name": "contractURI",
              "type": "string"
            },
            {
              "internalType": "string",
              "name": "metadataURI",
              "type": "string"
            },
            {
              "internalType": "bytes",
              "name": "metadataRendererInit",
              "type": "bytes"
            },
            {
              "internalType": "address",
              "name": "parentIP",
              "type": "address"
            }
          ],
          "internalType": "struct MetadataConfig",
          "name": "_metadataConfig",
          "type": "tuple"
        },
        {
          "components": [
            {
              "internalType": "address",
              "name": "tokenAddress",
              "type": "address"
            },
            {
              "internalType": "uint88",
              "name": "minBalance",
              "type": "uint88"
            },
            {
              "internalType": "enum SaleType",
              "name": "saleType",
              "type": "uint8"
            }
          ],
          "internalType": "struct TokenGateConfig",
          "name": "_tokenGateConfig",
          "type": "tuple"
        },
        {
          "internalType": "address",
          "name": "_metadataRenderer",
          "type": "address"
        },
        {
          "internalType": "address",
          "name": "_splitMain",
          "type": "address"
        }
      ],
      "name": "initialize",
      "outputs": [],
      "stateMutability": "nonpayable",
      "type": "function"
    },
    {
      "inputs": [
        {
          "internalType": "address",
          "name": "_owner",
          "type": "address"
        },
        {
          "components": [
            {
              "internalType": "string",
              "name": "name",
              "type": "string"
            },
            {
              "internalType": "string",
              "name": "symbol",
              "type": "string"
            },
            {
              "internalType": "bool",
              "name": "hasAdjustableCap",
              "type": "bool"
            },
            {
              "internalType": "uint256",
              "name": "maxTokens",
              "type": "uint256"
            },
            {
              "internalType": "uint256",
              "name": "tokenPrice",
              "type": "uint256"
            },
            {
              "internalType": "uint256",
              "name": "maxTokenPurchase",
              "type": "uint256"
            },
            {
              "internalType": "bytes32",
              "name": "presaleMerkleRoot",
              "type": "bytes32"
            },
            {
              "internalType": "uint256",
              "name": "presaleStart",
              "type": "uint256"
            },
            {
              "internalType": "uint256",
              "name": "presaleEnd",
              "type": "uint256"
            },
            {
              "internalType": "uint256",
              "name": "saleStart",
              "type": "uint256"
            },
            {
              "internalType": "uint256",
              "name": "saleEnd",
              "type": "uint256"
            },
            {
              "internalType": "uint256",
              "name": "royaltyBPS",
              "type": "uint256"
            }
          ],
          "internalType": "struct EditionConfig",
          "name": "_editionConfig",
          "type": "tuple"
        },
        {
          "components": [
            {
              "internalType": "string",
              "name": "contractURI",
              "type": "string"
            },
            {
              "internalType": "string",
              "name": "metadataURI",
              "type": "string"
            },
            {
              "internalType": "bytes",
              "name": "metadataRendererInit",
              "type": "bytes"
            },
            {
              "internalType": "address",
              "name": "parentIP",
              "type": "address"
            }
          ],
          "internalType": "struct MetadataConfig",
          "name": "_metadataConfig",
          "type": "tuple"
        },
        {
          "components": [
            {
              "internalType": "address",
              "name": "tokenAddress",
              "type": "address"
            },
            {
              "internalType": "uint88",
              "name": "minBalance",
              "type": "uint88"
            },
            {
              "internalType": "enum SaleType",
              "name": "saleType",
              "type": "uint8"
            }
          ],
          "internalType": "struct TokenGateConfig",
          "name": "_tokenGateConfig",
          "type": "tuple"
        },
        {
          "internalType": "address",
          "name": "_metadataRenderer",
          "type": "address"
        },
        {
          "internalType": "address",
          "name": "_splitMain",
          "type": "address"
        },
        {
          "internalType": "address",
          "name": "_zkVerifier",
          "type": "address"
        }
      ],
      "name": "initialize",
      "outputs": [],
      "stateMutability": "nonpayable",
      "type": "function"
    },
    {
      "inputs": [
        {
          "internalType": "address",
          "name": "owner",
          "type": "address"
        },
        {
          "internalType": "address",
          "name": "operator",
          "type": "address"
        }
      ],
      "name": "isApprovedForAll",
      "outputs": [
        {
          "internalType": "bool",
          "name": "",
          "type": "bool"
        }
      ],
      "stateMutability": "view",
      "type": "function"
    },
    {
      "inputs": [],
      "name": "maxTokenPurchase",
      "outputs": [
        {
          "internalType": "uint256",
          "name": "",
          "type": "uint256"
        }
      ],
      "stateMutability": "view",
      "type": "function"
    },
    {
      "inputs": [],
      "name": "metadataRenderer",
      "outputs": [
        {
          "internalType": "address",
          "name": "",
          "type": "address"
        }
      ],
      "stateMutability": "view",
      "type": "function"
    },
    {
      "inputs": [
        {
          "internalType": "uint256",
          "name": "numberOfTokens",
          "type": "uint256"
        }
      ],
      "name": "mint",
      "outputs": [],
      "stateMutability": "payable",
      "type": "function"
    },
    {
      "inputs": [
        {
          "internalType": "address[]",
          "name": "recipients",
          "type": "address[]"
        }
      ],
      "name": "mintAirdrop",
      "outputs": [],
      "stateMutability": "nonpayable",
      "type": "function"
    },
    {
      "inputs": [
        {
          "internalType": "uint256",
          "name": "quantity",
          "type": "uint256"
        },
        {
          "internalType": "uint256",
          "name": "maxQuantity",
          "type": "uint256"
        },
        {
          "internalType": "uint256",
          "name": "pricePerToken",
          "type": "uint256"
        },
        {
          "internalType": "bytes32[]",
          "name": "merkleProof",
          "type": "bytes32[]"
        }
      ],
      "name": "mintPresale",
      "outputs": [],
      "stateMutability": "payable",
      "type": "function"
    },
    {
      "inputs": [],
      "name": "name",
      "outputs": [
        {
          "internalType": "string",
          "name": "",
          "type": "string"
        }
      ],
      "stateMutability": "view",
      "type": "function"
    },
    {
      "inputs": [],
      "name": "operatorFilterRegistry",
      "outputs": [
        {
          "internalType": "contract IOperatorFilterRegistry",
          "name": "",
          "type": "address"
        }
      ],
      "stateMutability": "view",
      "type": "function"
    },
    {
      "inputs": [],
      "name": "owner",
      "outputs": [
        {
          "internalType": "address",
          "name": "",
          "type": "address"
        }
      ],
      "stateMutability": "view",
      "type": "function"
    },
    {
      "inputs": [
        {
          "internalType": "uint256",
          "name": "tokenId",
          "type": "uint256"
        }
      ],
      "name": "ownerOf",
      "outputs": [
        {
          "internalType": "address",
          "name": "",
          "type": "address"
        }
      ],
      "stateMutability": "view",
      "type": "function"
    },
    {
      "inputs": [],
      "name": "parentIP",
      "outputs": [
        {
          "internalType": "address",
          "name": "",
          "type": "address"
        }
      ],
      "stateMutability": "view",
      "type": "function"
    },
    {
      "inputs": [],
      "name": "presaleEnd",
      "outputs": [
        {
          "internalType": "uint256",
          "name": "",
          "type": "uint256"
        }
      ],
      "stateMutability": "view",
      "type": "function"
    },
    {
      "inputs": [],
      "name": "presaleStart",
      "outputs": [
        {
          "internalType": "uint256",
          "name": "",
          "type": "uint256"
        }
      ],
      "stateMutability": "view",
      "type": "function"
    },
    {
      "inputs": [],
      "name": "renounceOwnership",
      "outputs": [],
      "stateMutability": "nonpayable",
      "type": "function"
    },
    {
      "inputs": [
        {
          "internalType": "uint256",
          "name": "numReserved",
          "type": "uint256"
        }
      ],
      "name": "reserveFRST",
      "outputs": [],
      "stateMutability": "nonpayable",
      "type": "function"
    },
    {
      "inputs": [],
      "name": "royaltyBPS",
      "outputs": [
        {
          "internalType": "uint256",
          "name": "",
          "type": "uint256"
        }
      ],
      "stateMutability": "view",
      "type": "function"
    },
    {
      "inputs": [
        {
          "internalType": "uint256",
          "name": "tokenId",
          "type": "uint256"
        },
        {
          "internalType": "uint256",
          "name": "salePrice",
          "type": "uint256"
        }
      ],
      "name": "royaltyInfo",
      "outputs": [
        {
          "internalType": "address",
          "name": "receiver",
          "type": "address"
        },
        {
          "internalType": "uint256",
          "name": "royaltyAmount",
          "type": "uint256"
        }
      ],
      "stateMutability": "view",
      "type": "function"
    },
    {
      "inputs": [
        {
          "internalType": "address",
          "name": "from",
          "type": "address"
        },
        {
          "internalType": "address",
          "name": "to",
          "type": "address"
        },
        {
          "internalType": "uint256",
          "name": "tokenId",
          "type": "uint256"
        }
      ],
      "name": "safeTransferFrom",
      "outputs": [],
      "stateMutability": "payable",
      "type": "function"
    },
    {
      "inputs": [
        {
          "internalType": "address",
          "name": "from",
          "type": "address"
        },
        {
          "internalType": "address",
          "name": "to",
          "type": "address"
        },
        {
          "internalType": "uint256",
          "name": "tokenId",
          "type": "uint256"
        },
        {
          "internalType": "bytes",
          "name": "_data",
          "type": "bytes"
        }
      ],
      "name": "safeTransferFrom",
      "outputs": [],
      "stateMutability": "payable",
      "type": "function"
    },
    {
      "inputs": [],
      "name": "saleEnd",
      "outputs": [
        {
          "internalType": "uint256",
          "name": "",
          "type": "uint256"
        }
      ],
      "stateMutability": "view",
      "type": "function"
    },
    {
      "inputs": [],
      "name": "saleIsActive",
      "outputs": [
        {
          "internalType": "bool",
          "name": "_saleIsActive",
          "type": "bool"
        }
      ],
      "stateMutability": "view",
      "type": "function"
    },
    {
      "inputs": [],
      "name": "saleIsPaused",
      "outputs": [
        {
          "internalType": "bool",
          "name": "",
          "type": "bool"
        }
      ],
      "stateMutability": "view",
      "type": "function"
    },
    {
      "inputs": [],
      "name": "saleStart",
      "outputs": [
        {
          "internalType": "uint256",
          "name": "",
          "type": "uint256"
        }
      ],
      "stateMutability": "view",
      "type": "function"
    },
    {
      "inputs": [
        {
          "internalType": "address",
          "name": "operator",
          "type": "address"
        },
        {
          "internalType": "bool",
          "name": "approved",
          "type": "bool"
        }
      ],
      "name": "setApprovalForAll",
      "outputs": [],
      "stateMutability": "nonpayable",
      "type": "function"
    },
    {
      "inputs": [
        {
          "internalType": "string",
          "name": "uri",
          "type": "string"
        }
      ],
      "name": "setBaseURI",
      "outputs": [],
      "stateMutability": "nonpayable",
      "type": "function"
    },
    {
      "inputs": [
        {
          "internalType": "string",
          "name": "uri",
          "type": "string"
        }
      ],
      "name": "setContractURI",
      "outputs": [],
      "stateMutability": "nonpayable",
      "type": "function"
    },
    {
      "inputs": [
        {
          "internalType": "address",
          "name": "_metadataRenderer",
          "type": "address"
        }
      ],
      "name": "setMetadataRenderer",
      "outputs": [],
      "stateMutability": "nonpayable",
      "type": "function"
    },
    {
      "inputs": [
        {
          "internalType": "bytes32",
          "name": "_presaleMerkleRoot",
          "type": "bytes32"
        }
      ],
      "name": "setPresaleMerkleRoot",
      "outputs": [],
      "stateMutability": "nonpayable",
      "type": "function"
    },
    {
      "inputs": [
        {
          "internalType": "address",
          "name": "_zkVerifier",
          "type": "address"
        }
      ],
      "name": "setZKVerifier",
      "outputs": [],
      "stateMutability": "nonpayable",
      "type": "function"
    },
    {
      "inputs": [],
      "name": "splitMain",
      "outputs": [
        {
          "internalType": "address",
          "name": "",
          "type": "address"
        }
      ],
      "stateMutability": "view",
      "type": "function"
    },
    {
      "inputs": [],
      "name": "splitWallet",
      "outputs": [
        {
          "internalType": "address",
          "name": "",
          "type": "address"
        }
      ],
      "stateMutability": "view",
      "type": "function"
    },
    {
      "inputs": [
        {
          "internalType": "bytes4",
          "name": "interfaceId",
          "type": "bytes4"
        }
      ],
      "name": "supportsInterface",
      "outputs": [
        {
          "internalType": "bool",
          "name": "",
          "type": "bool"
        }
      ],
      "stateMutability": "view",
      "type": "function"
    },
    {
      "inputs": [],
      "name": "symbol",
      "outputs": [
        {
          "internalType": "string",
          "name": "",
          "type": "string"
        }
      ],
      "stateMutability": "view",
      "type": "function"
    },
    {
      "inputs": [],
      "name": "tokenGateConfig",
      "outputs": [
        {
          "internalType": "address",
          "name": "tokenAddress",
          "type": "address"
        },
        {
          "internalType": "uint88",
          "name": "minBalance",
          "type": "uint88"
        },
        {
          "internalType": "enum SaleType",
          "name": "saleType",
          "type": "uint8"
        }
      ],
      "stateMutability": "view",
      "type": "function"
    },
    {
      "inputs": [],
      "name": "tokenPrice",
      "outputs": [
        {
          "internalType": "uint256",
          "name": "",
          "type": "uint256"
        }
      ],
      "stateMutability": "view",
      "type": "function"
    },
    {
      "inputs": [
        {
          "internalType": "uint256",
          "name": "tokenId",
          "type": "uint256"
        }
      ],
      "name": "tokenURI",
      "outputs": [
        {
          "internalType": "string",
          "name": "",
          "type": "string"
        }
      ],
      "stateMutability": "view",
      "type": "function"
    },
    {
      "inputs": [],
      "name": "totalSupply",
      "outputs": [
        {
          "internalType": "uint256",
          "name": "",
          "type": "uint256"
        }
      ],
      "stateMutability": "view",
      "type": "function"
    },
    {
      "inputs": [
        {
          "internalType": "address",
          "name": "from",
          "type": "address"
        },
        {
          "internalType": "address",
          "name": "to",
          "type": "address"
        },
        {
          "internalType": "uint256",
          "name": "tokenId",
          "type": "uint256"
        }
      ],
      "name": "transferFrom",
      "outputs": [],
      "stateMutability": "payable",
      "type": "function"
    },
    {
      "inputs": [
        {
          "internalType": "address",
          "name": "newOwner",
          "type": "address"
        }
      ],
      "name": "transferOwnership",
      "outputs": [],
      "stateMutability": "nonpayable",
      "type": "function"
    },
    {
      "inputs": [
        {
          "internalType": "uint256",
          "name": "transferETH",
          "type": "uint256"
        },
        {
          "internalType": "contract ERC20[]",
          "name": "tokens",
          "type": "address[]"
        }
      ],
      "name": "transferToSplit",
      "outputs": [],
      "stateMutability": "nonpayable",
      "type": "function"
    },
    {
      "inputs": [
        {
          "internalType": "bool",
          "name": "enable",
          "type": "bool"
        },
        {
          "internalType": "address",
          "name": "operatorFilter",
          "type": "address"
        }
      ],
      "name": "updateOperatorFilter",
      "outputs": [],
      "stateMutability": "nonpayable",
      "type": "function"
    },
    {
      "inputs": [
        {
          "internalType": "uint256",
          "name": "newStart",
          "type": "uint256"
        },
        {
          "internalType": "uint256",
          "name": "newEnd",
          "type": "uint256"
        }
      ],
      "name": "updatePresaleStartEnd",
      "outputs": [],
      "stateMutability": "nonpayable",
      "type": "function"
    },
    {
      "inputs": [
        {
          "internalType": "uint256",
          "name": "newStart",
          "type": "uint256"
        },
        {
          "internalType": "uint256",
          "name": "newEnd",
          "type": "uint256"
        }
      ],
      "name": "updateSaleStartEnd",
      "outputs": [],
      "stateMutability": "nonpayable",
      "type": "function"
    },
    {
      "inputs": [],
      "name": "withdraw",
      "outputs": [],
      "stateMutability": "nonpayable",
      "type": "function"
    },
    {
      "inputs": [
        {
          "internalType": "address",
          "name": "recipient",
          "type": "address"
        }
      ],
      "name": "zkClaim",
      "outputs": [],
      "stateMutability": "nonpayable",
      "type": "function"
    },
    {
      "inputs": [],
      "name": "zkVerifier",
      "outputs": [
        {
          "internalType": "address",
          "name": "",
          "type": "address"
        }
      ],
      "stateMutability": "view",
      "type": "function"
    }
  ],
  "bytecode": "0x60806040523480156200001157600080fd5b506200001d3362000023565b6200007f565b600980546001600160a01b038381166201000081810262010000600160b01b031985161790945560405193909204169182907f8be0079c531659141344cd1fd0a4f28419497f9722a3daafe3b4186f6b6457e090600090a35050565b6144e9806200008f6000396000f3fe6080604052600436106103a15760003560e01c80637ff9b596116101e7578063c50903461161010d578063e70aeefe116100a0578063f0cc8b621161006f578063f0cc8b6214610a69578063f2fde38b14610a89578063f47c84c514610aa9578063fd4fe8a814610abf57600080fd5b8063e70aeefe146109ff578063e8a3d48514610a1f578063e985e9c514610a34578063eb8d244414610a5457600080fd5b8063d58d458a116100dc578063d58d458a1461098f578063d6df096d146109af578063de8801e5146109cf578063e6c350c1146109e557600080fd5b8063c50903461461090f578063c59531701461092f578063c87b56dd1461094f578063c9ef5eee1461096f57600080fd5b8063ab0bcc4111610185578063b94356de11610154578063b94356de146108a3578063b9c9d93a146108c3578063c10b9358146108d9578063c4559d5a146108ef57600080fd5b8063ab0bcc4114610838578063b0ccc31e1461084e578063b88d4fde14610870578063b9139dcb1461088357600080fd5b8063938e3d7b116101c1578063938e3d7b146107d057806395d89b41146107f0578063a0712d6814610805578063a22cb4651461081857600080fd5b80637ff9b596146107755780638da5cb5b1461078b578063931cf0f4146107af57600080fd5b80632a55205a116102cc5780636352211e1161026a578063713b978711610239578063713b97871461070d578063715018a61461072d578063727a612e1461074257806379ab7c8e1461075557600080fd5b80636352211e146106985780636c0360eb146106b857806370319970146106cd57806370a08231146106ed57600080fd5b80633ccfd60b116102a65780633ccfd60b1461063057806342842e0e1461064557806355f804b3146106585780635799dbdd1461067857600080fd5b80632a55205a146105bc5780632d75fea6146105fb57806334918dfd1461061b57600080fd5b80630e769b2b11610344578063229f3e2911610313578063229f3e291461055357806323b872dd14610569578063284a44a81461057c57806328d7b2761461059c57600080fd5b80630e769b2b146104ae57806317dc2587146104ce57806318160ddd146104ee5780631dbdedbd1461050757600080fd5b806306fdde031161038057806306fdde031461041d578063081812fc1461043f578063095ea7b31461047757806309aa3dcf1461048a57600080fd5b80625f16fb146103a6578063015893c5146103c857806301ffc9a7146103e8575b600080fd5b3480156103b257600080fd5b506103c66103c136600461337a565b610adf565b005b3480156103d457600080fd5b506103c66103e3366004613421565b610bbc565b3480156103f457600080fd5b506104086104033660046134b7565b610d36565b60405190151581526020015b60405180910390f35b34801561042957600080fd5b50610432610d61565b6040516104149190613524565b34801561044b57600080fd5b5061045f61045a366004613537565b610df3565b6040516001600160a01b039091168152602001610414565b6103c6610485366004613550565b610e37565b34801561049657600080fd5b506104a0600c5481565b604051908152602001610414565b3480156104ba57600080fd5b5060175461045f906001600160a01b031681565b3480156104da57600080fd5b506103c66104e936600461357c565b610e50565b3480156104fa57600080fd5b50600154600054036104a0565b34801561051357600080fd5b50600854610544906001600160a01b03811690600160a01b81046001600160581b031690600160f81b900460ff1683565b604051610414939291906135b4565b34801561055f57600080fd5b506104a060155481565b6103c66105773660046135ff565b610e63565b34801561058857600080fd5b506103c6610597366004613737565b611005565b3480156105a857600080fd5b506103c66105b7366004613537565b6110ae565b3480156105c857600080fd5b506105dc6105d736600461357c565b6110bb565b604080516001600160a01b039093168352602083019190915201610414565b34801561060757600080fd5b506103c6610616366004613824565b611168565b34801561062757600080fd5b506103c6611356565b34801561063c57600080fd5b506103c6611372565b6103c66106533660046135ff565b611480565b34801561066457600080fd5b506103c66106733660046138da565b61149b565b34801561068457600080fd5b506103c661069336600461357c565b6114b3565b3480156106a457600080fd5b5061045f6106b3366004613537565b6114c6565b3480156106c457600080fd5b506104326114d1565b3480156106d957600080fd5b5060125461045f906001600160a01b031681565b3480156106f957600080fd5b506104a061070836600461390e565b61155f565b34801561071957600080fd5b5060185461045f906001600160a01b031681565b34801561073957600080fd5b506103c66115ad565b6103c661075036600461392b565b6115c1565b34801561076157600080fd5b506103c661077036600461398b565b6119ab565b34801561078157600080fd5b506104a0600b5481565b34801561079757600080fd5b506009546201000090046001600160a01b031661045f565b3480156107bb57600080fd5b5060095461040890600160b01b900460ff1681565b3480156107dc57600080fd5b506103c66107eb3660046138da565b611a31565b3480156107fc57600080fd5b50610432611a45565b6103c6610813366004613537565b611a54565b34801561082457600080fd5b506103c66108333660046139c7565b611dcc565b34801561084457600080fd5b506104a0600d5481565b34801561085a57600080fd5b5061045f6daaeb6d7670e522a718067333cd4e81565b6103c661087e3660046139f5565b611de0565b34801561088f57600080fd5b506103c661089e36600461390e565b611e24565b3480156108af57600080fd5b506103c66108be366004613537565b611eec565b3480156108cf57600080fd5b506104a060135481565b3480156108e557600080fd5b506104a0600e5481565b3480156108fb57600080fd5b506103c661090a366004613a60565b611f5c565b34801561091b57600080fd5b506103c661092a36600461390e565b61202c565b34801561093b57600080fd5b506103c661094a366004613af3565b612056565b34801561095b57600080fd5b5061043261096a366004613537565b612138565b34801561097b57600080fd5b506103c661098a366004613d5d565b6121eb565b34801561099b57600080fd5b506103c66109aa366004613537565b6124a6565b3480156109bb57600080fd5b50601a5461045f906001600160a01b031681565b3480156109db57600080fd5b506104a060145481565b3480156109f157600080fd5b50600f546104089060ff1681565b348015610a0b57600080fd5b506103c6610a1a366004613dfd565b612568565b348015610a2b57600080fd5b5061043261283c565b348015610a4057600080fd5b50610408610a4f366004613eb0565b6128dc565b348015610a6057600080fd5b5061040861290a565b348015610a7557600080fd5b5060195461045f906001600160a01b031681565b348015610a9557600080fd5b506103c6610aa436600461390e565b612932565b348015610ab557600080fd5b506104a0600a5481565b348015610acb57600080fd5b506103c6610ada36600461390e565b6129a8565b6000610af36018546001600160a01b031690565b6001600160a01b031603610b225760405162461bcd60e51b8152600401610b1990613ece565b60405180910390fd5b610b2b876129d2565b6017546001600160a01b03166001600160a01b03166315811302610b576018546001600160a01b031690565b898989898989896040518963ffffffff1660e01b8152600401610b81989796959493929190613f7f565b600060405180830381600087803b158015610b9b57600080fd5b505af1158015610baf573d6000803e3d6000fd5b5050505050505050505050565b610bc4612ad1565b6000610bd86017546001600160a01b031690565b6001600160a01b031603610c225760405162461bcd60e51b815260206004820152601160248201527014dc1b1a5d13585a5b881b9bdd081cd95d607a1b6044820152606401610b19565b6000610c366018546001600160a01b031690565b6001600160a01b031614610c845760405162461bcd60e51b815260206004820152601560248201527414dc1b1a5d08185b1c9958591e4818dc99585d1959605a1b6044820152606401610b19565b6000610c986017546001600160a01b031690565b6001600160a01b0316637601f7828787878787336040518763ffffffff1660e01b8152600401610ccd96959493929190613fe1565b6020604051808303816000875af1158015610cec573d6000803e3d6000fd5b505050506040513d601f19601f82011682018060405250810190610d109190614032565b601880546001600160a01b0319166001600160a01b03831617905590505b505050505050565b600063152a902d60e11b6001600160e01b031983161480610d5b5750610d5b82612b32565b92915050565b606060028054610d709061404f565b80601f0160208091040260200160405190810160405280929190818152602001828054610d9c9061404f565b8015610de95780601f10610dbe57610100808354040283529160200191610de9565b820191906000526020600020905b815481529060010190602001808311610dcc57829003601f168201915b5050505050905090565b6000610dfe82612b80565b610e1b576040516333d1c03960e21b815260040160405180910390fd5b506000908152600660205260409020546001600160a01b031690565b81610e4181612ba7565b610e4b8383612c60565b505050565b610e58612ad1565b600d91909155600e55565b6000610e6e82612d00565b9050836001600160a01b0316816001600160a01b031614610ea15760405162a1148160e81b815260040160405180910390fd5b60008281526006602052604090208054338082146001600160a01b03881690911417610eee57610ed186336128dc565b610eee57604051632ce44b5f60e11b815260040160405180910390fd5b6001600160a01b038516610f1557604051633a954ecd60e21b815260040160405180910390fd5b610f228686866001612d6e565b8015610f2d57600082555b6001600160a01b038681166000908152600560205260408082208054600019019055918716808252919020805460010190554260a01b17600160e11b17600085815260046020526040812091909155600160e11b84169003610fbf57600184016000818152600460205260408120549003610fbd576000548114610fbd5760008181526004602052604090208490555b505b83856001600160a01b0316876001600160a01b03167fddf252ad1be2c89b69c2b068fc378daa952ba7f163c4a11628f55a4df523b3ef60405160405180910390a4610d2e565b60006110196018546001600160a01b031690565b6001600160a01b03160361103f5760405162461bcd60e51b8152600401610b1990613ece565b871561105357611053868686868686611f5c565b60005b87518110156110975761108788828151811061107457611074614089565b6020026020010151888888888888610adf565b611090816140b5565b9050611056565b506110a3898989612d88565b505050505050505050565b6110b6612ad1565b601655565b6000806110c784612b80565b6111075760405162461bcd60e51b81526020600482015260116024820152702737b732bc34b9ba32b73a103a37b5b2b760791b6044820152606401610b19565b6018546001600160a01b03161561112b576018546001600160a01b03169150611140565b6009546201000090046001600160a01b031691505b60006127106013548561115391906140ce565b61115d91906140e5565b9150505b9250929050565b611170612ad1565b60405163c3c5a54760e01b81523060048201819052906daaeb6d7670e522a718067333cd4e9063c3c5a547906024016020604051808303816000875af11580156111be573d6000803e3d6000fd5b505050506040513d601f19601f820116820180604052508101906111e29190614107565b1580156111ec5750825b1561126657604051633e9f1edf60e11b81526001600160a01b038083166004830152831660248201526daaeb6d7670e522a718067333cd4e90637d3e3dbe906044015b600060405180830381600087803b15801561124957600080fd5b505af115801561125d573d6000803e3d6000fd5b50505050505050565b82156112ae57604051632cc5350560e21b81526001600160a01b038083166004830152831660248201526daaeb6d7670e522a718067333cd4e9063b314d4149060440161122f565b60405163034a0dc160e41b81526001600160a01b0382166004820152600060248201526daaeb6d7670e522a718067333cd4e906334a0dc1090604401600060405180830381600087803b15801561130457600080fd5b505af1158015611318573d6000803e3d6000fd5b5050604051631761612360e11b81526001600160a01b03841660048201526daaeb6d7670e522a718067333cd4e9250632ec2c246915060240161122f565b61135e612ad1565b600f805460ff19811660ff90911615179055565b61137a612ad1565b600061138e6018546001600160a01b031690565b6001600160a01b0316146113f05760405162461bcd60e51b8152602060048201526024808201527f43616e6e6f74207769746864726177207769746820616e2061637469766520736044820152631c1b1a5d60e21b6064820152608401610b19565b604051600090339047908381818185875af1925050503d8060008114611432576040519150601f19603f3d011682016040523d82523d6000602084013e611437565b606091505b505090508061147d5760405162461bcd60e51b8152602060048201526012602482015271436f756c64206e6f7420776974686472617760701b6044820152606401610b19565b50565b610e4b83838360405180602001604052806000815250611de0565b6114a3612ad1565b60106114af828261416a565b5050565b6114bb612ad1565b601491909155601555565b6000610d5b82612d00565b601080546114de9061404f565b80601f016020809104026020016040519081016040528092919081815260200182805461150a9061404f565b80156115575780601f1061152c57610100808354040283529160200191611557565b820191906000526020600020905b81548152906001019060200180831161153a57829003601f168201915b505050505081565b60006001600160a01b038216611588576040516323d3ad8160e21b815260040160405180910390fd5b506001600160a01b03166000908152600560205260409020546001600160401b031690565b6115b5612ad1565b6115bf6000612dbc565b565b6008546001906001600160a01b03161580159061162a57506000600854600160f81b900460ff1660028111156115f9576115f961359e565b148061162a575080801561162a57506001600854600160f81b900460ff1660028111156116285761162861359e565b145b8061165b57508015801561165b57506002600854600160f81b900460ff1660028111156116595761165961359e565b145b15611727576008546040516370a0823160e01b8152336004820152600160a01b82046001600160581b0316916001600160a01b0316906370a08231906024016020604051808303816000875af11580156116b9573d6000803e3d6000fd5b505050506040513d601f19601f820116820180604052508101906116dd9190614229565b10156117275760405162461bcd60e51b81526020600482015260196024820152783237903737ba1037bbb7103932b8bab4b932b2103a37b5b2b760391b6044820152606401610b19565b601454421015801561173b57506015544211155b6117755760405162461bcd60e51b815260206004820152600b60248201526a6e6f742070726573616c6560a81b6044820152606401610b19565b600054600f5460ff16156117cb5760405162461bcd60e51b815260206004820152601b60248201527f53616c65206d7573742062652061637469766520746f206d696e7400000000006044820152606401610b19565b600a546117d88883614242565b11156117f65760405162461bcd60e51b8152600401610b1990614255565b611879848480806020026020016040519081016040528093929190818152602001838360200280828437600092019190915250506016546040516bffffffffffffffffffffffff193360601b166020820152603481018c9052605481018b9052909250607401905060405160208183030381529060405280519060200120612e18565b6118b45760405162461bcd60e51b815260206004820152600c60248201526b1b9bdd08185c1c1c9bdd995960a21b6044820152606401610b19565b6118be87866140ce565b3410156119025760405162461bcd60e51b8152602060048201526012602482015271496e73756666696369656e742066756e647360701b6044820152606401610b19565b858761190d3361155f565b6119179190614242565b11156119575760405162461bcd60e51b815260206004820152600f60248201526e6d696e74656420746f6f206d616e7960881b6044820152606401610b19565b6119613388612e2e565b60005b878110156119a1576040805133815260208101849052600190930192600080516020614494833981519152910160405180910390a1600101611964565b5050505050505050565b60006119bf6018546001600160a01b031690565b6001600160a01b0316036119e55760405162461bcd60e51b8152600401610b1990613ece565b81156119f3576119f3612e48565b60005b8151811015610e4b57611a21828281518110611a1457611a14614089565b60200260200101516129d2565b611a2a816140b5565b90506119f6565b611a39612ad1565b60116114af828261416a565b606060038054610d709061404f565b6008546000906001600160a01b031615801590611abd57506000600854600160f81b900460ff166002811115611a8c57611a8c61359e565b1480611abd5750808015611abd57506001600854600160f81b900460ff166002811115611abb57611abb61359e565b145b80611aee575080158015611aee57506002600854600160f81b900460ff166002811115611aec57611aec61359e565b145b15611bba576008546040516370a0823160e01b8152336004820152600160a01b82046001600160581b0316916001600160a01b0316906370a08231906024016020604051808303816000875af1158015611b4c573d6000803e3d6000fd5b505050506040513d601f19601f82011682018060405250810190611b709190614229565b1015611bba5760405162461bcd60e51b81526020600482015260196024820152783237903737ba1037bbb7103932b8bab4b932b2103a37b5b2b760391b6044820152606401610b19565b600054600d544210801590611bd15750600e544211155b611c155760405162461bcd60e51b815260206004820152601560248201527429b0b632b99030b932903737ba1030b1ba34bb329760591b6044820152606401610b19565b600f5460ff1615611c685760405162461bcd60e51b815260206004820152601b60248201527f53616c65206d7573742062652061637469766520746f206d696e7400000000006044820152606401610b19565b600a54611c758483614242565b1115611c935760405162461bcd60e51b8152600401610b1990614255565b600a54811115611cd05760405162461bcd60e51b815260206004820152600860248201526714d3d3110813d55560c21b6044820152606401610b19565b82600b54611cde91906140ce565b341015611d225760405162461bcd60e51b8152602060048201526012602482015271496e73756666696369656e742066756e647360701b6044820152606401610b19565b600c5415611d7c57600c54831115611d7c5760405162461bcd60e51b815260206004820152601c60248201527f4578636565646564206d6178206e756d62657220706572206d696e74000000006044820152606401610b19565b611d863384612e2e565b60005b83811015611dc6576040805133815260208101849052600190930192600080516020614494833981519152910160405180910390a1600101611d89565b50505050565b81611dd681612ba7565b610e4b8383612efc565b611deb848484610e63565b6001600160a01b0383163b15611dc657611e0784848484612f68565b611dc6576040516368d2bf6b60e11b815260040160405180910390fd5b601a546001600160a01b03163314611e7e5760405162461bcd60e51b815260206004820152601860248201527f4f6e6c79207a6b56657269666965722063616e2063616c6c00000000000000006044820152606401610b19565b600054600a54611e8f826001614242565b1115611ead5760405162461bcd60e51b8152600401610b1990614255565b611eb8826001612e2e565b604080516001600160a01b038416815260208101839052600080516020614494833981519152910160405180910390a15050565b611ef4612ad1565b600054600a54611f048383614242565b10611f215760405162461bcd60e51b8152600401610b1990614255565b60005b82811015610e4b57611f4a33611f3a8385614242565b611f45906001614242565b612e2e565b80611f54816140b5565b915050611f24565b6000611f706018546001600160a01b031690565b6001600160a01b031603611f965760405162461bcd60e51b8152600401610b1990613ece565b611f9e612e48565b6017546001600160a01b03166001600160a01b031663e61cb05e611fca6018546001600160a01b031690565b8888888888886040518863ffffffff1660e01b8152600401611ff2979695949392919061428a565b600060405180830381600087803b15801561200c57600080fd5b505af1158015612020573d6000803e3d6000fd5b50505050505050505050565b612034612ad1565b601a80546001600160a01b0319166001600160a01b0392909216919091179055565b61205e612ad1565b600054600a5481906120708483614242565b111561208e5760405162461bcd60e51b8152600401610b1990614255565b8183015b80831015612131576120cd85858486038181106120b1576120b1614089565b90506020020160208101906120c6919061390e565b6001612e2e565b60008051602061449483398151915285858486038181106120f0576120f0614089565b9050602002016020810190612105919061390e565b604080516001600160a01b039092168252602082018690520160405180910390a1600190920191612092565b5050505050565b606061214382612b80565b61216057604051630a14c4b560e41b815260040160405180910390fd5b6012546001600160a01b0316156121e25760125460405163c87b56dd60e01b8152600481018490526001600160a01b039091169063c87b56dd90602401600060405180830381865afa1580156121ba573d6000803e3d6000fd5b505050506040513d6000823e601f3d908101601f19168201604052610d5b91908101906142e3565b610d5b82613054565b600954610100900460ff161580801561220b5750600954600160ff909116105b806122255750303b158015612225575060095460ff166001145b6122415760405162461bcd60e51b8152600401610b1990614359565b6009805460ff191660011790558015612264576009805461ff0019166101001790555b61226d87612dbc565b855160029061227c908261416a565b50602086015160039061228f908261416a565b5060008055606080870151600a556080870151600b5560a0870151600c55610120870151600d55610140870151600e5561016087015160135560408088015160098054911515600160b01b0260ff60b01b1990921691909117905590860151601980546001600160a01b039283166001600160a01b03199182161790915560178054868416921691909117905585516008805460208901516001600160581b0316600160a01b026001600160f81b031990911692909316919091179190911780825591860151869282906001600160f81b0316600160f81b8360028111156123795761237961359e565b0217905550505060c086015160165560e08601516014556101008601516015556001600160a01b038316158015906123b657506000856040015151115b1561243457601280546001600160a01b0319166001600160a01b03851690811790915560408681015190516342b53ffd60e11b815263856a7ffa916123fd91600401613524565b600060405180830381600087803b15801561241757600080fd5b505af115801561242b573d6000803e3d6000fd5b50505050612458565b8451601190612443908261416a565b506020850151601090612456908261416a565b505b801561125d576009805461ff0019169055604051600181527f7f26b83ff96e1f2b6a682f133852f6798a09c465da95921460cefb38474024989060200160405180910390a150505050505050565b6124ae612ad1565b600954600160b01b900460ff166125155760405162461bcd60e51b815260206004820152602560248201527f63616e6e6f742061646a7573742073697a65206f66207468697320636f6c6c6560448201526431ba34b7b760d91b6064820152608401610b19565b8061251f60005490565b11156125635760405162461bcd60e51b8152602060048201526013602482015272063616e6e6f742064656372656173652063617606c1b6044820152606401610b19565b600a55565b600954610100900460ff16158080156125885750600954600160ff909116105b806125a25750303b1580156125a2575060095460ff166001145b6125be5760405162461bcd60e51b8152600401610b1990614359565b6009805460ff1916600117905580156125e1576009805461ff0019166101001790555b6125ea88612dbc565b86516002906125f9908261416a565b50602087015160039061260c908261416a565b5060008055606080880151600a556080880151600b5560a0880151600c55610120880151600d55610140880151600e5561016088015160135560408089015160098054911515600160b01b0260ff60b01b1990921691909117905590870151601980546001600160a01b039283166001600160a01b03199182161790915560178054878416921691909117905586516008805460208a01516001600160581b0316600160a01b026001600160f81b031990911692909316919091179190911780825591870151879282906001600160f81b0316600160f81b8360028111156126f6576126f661359e565b0217905550505060c087015160165560e0870151601455610100870151601555601a80546001600160a01b0319166001600160a01b038481169190911790915584161580159061274b57506000866040015151115b156127c957601280546001600160a01b0319166001600160a01b03861690811790915560408781015190516342b53ffd60e11b815263856a7ffa9161279291600401613524565b600060405180830381600087803b1580156127ac57600080fd5b505af11580156127c0573d6000803e3d6000fd5b505050506127ed565b85516011906127d8908261416a565b5060208601516010906127eb908261416a565b505b80156119a1576009805461ff0019169055604051600181527f7f26b83ff96e1f2b6a682f133852f6798a09c465da95921460cefb38474024989060200160405180910390a15050505050505050565b6012546060906001600160a01b031661285c5760118054610d709061404f565b601260009054906101000a90046001600160a01b03166001600160a01b031663e8a3d4856040518163ffffffff1660e01b8152600401600060405180830381865afa1580156128af573d6000803e3d6000fd5b505050506040513d6000823e601f3d908101601f191682016040526128d791908101906142e3565b905090565b6001600160a01b03918216600090815260076020908152604080832093909416825291909152205460ff1690565b6000600d5442101580156129205750600e544211155b80156128d7575050600f5460ff161590565b61293a612ad1565b6001600160a01b03811661299f5760405162461bcd60e51b815260206004820152602660248201527f4f776e61626c653a206e6577206f776e657220697320746865207a65726f206160448201526564647265737360d01b6064820152608401610b19565b61147d81612dbc565b6129b0612ad1565b601280546001600160a01b0319166001600160a01b0392909216919091179055565b6040516370a0823160e01b81523060048201526000906001600160a01b038316906370a0823190602401602060405180830381865afa158015612a19573d6000803e3d6000fd5b505050506040513d601f19601f82011682018060405250810190612a3d9190614229565b9050816001600160a01b031663a9059cbb612a606018546001600160a01b031690565b6040516001600160e01b031960e084901b1681526001600160a01b039091166004820152602481018490526044016020604051808303816000875af1158015612aad573d6000803e3d6000fd5b505050506040513d601f19601f82011682018060405250810190610e4b9190614107565b6009546001600160a01b03620100009091041633146115bf5760405162461bcd60e51b815260206004820181905260248201527f4f776e61626c653a2063616c6c6572206973206e6f7420746865206f776e65726044820152606401610b19565b60006301ffc9a760e01b6001600160e01b031983161480612b6357506380ac58cd60e01b6001600160e01b03198316145b80610d5b5750506001600160e01b031916635b5e139f60e01b1490565b6000805482108015610d5b575050600090815260046020526040902054600160e01b161590565b6daaeb6d7670e522a718067333cd4e3b1561147d57604051633185c44d60e21b81523060048201526001600160a01b03821660248201526daaeb6d7670e522a718067333cd4e9063c617113490604401602060405180830381865afa158015612c14573d6000803e3d6000fd5b505050506040513d601f19601f82011682018060405250810190612c389190614107565b61147d57604051633b79c77360e21b81526001600160a01b0382166004820152602401610b19565b6000612c6b826114c6565b9050336001600160a01b03821614612ca457612c8781336128dc565b612ca4576040516367d9dca160e11b815260040160405180910390fd5b60008281526006602052604080822080546001600160a01b0319166001600160a01b0387811691821790925591518593918516917f8c5be1e5ebec7d5bd14f71427d1e84f3dd0314c0f7b2291e5b200ac8c7c3b92591a4505050565b600081600054811015612d555760008181526004602052604081205490600160e01b82169003612d53575b80600003612d4c575060001901600081815260046020526040902054612d2b565b9392505050565b505b604051636f96cda160e11b815260040160405180910390fd5b836001600160a01b03811633146121315761213133612ba7565b601754604051636e5f691960e01b81526001600160a01b0390911690636e5f69199061122f908690869086906004016143a7565b600980546001600160a01b038381166201000081810262010000600160b01b031985161790945560405193909204169182907f8be0079c531659141344cd1fd0a4f28419497f9722a3daafe3b4186f6b6457e090600090a35050565b600082612e2585846130d7565b14949350505050565b6114af828260405180602001604052806000815250613124565b6000612e5c6018546001600160a01b031690565b6001600160a01b03164760405160006040518083038185875af1925050503d8060008114612ea6576040519150601f19603f3d011682016040523d82523d6000602084013e612eab565b606091505b505090508061147d5760405162461bcd60e51b815260206004820152601f60248201527f436f756c64206e6f74207472616e736665722045544820746f2073706c6974006044820152606401610b19565b3360008181526007602090815260408083206001600160a01b03871680855290835292819020805460ff191686151590811790915590519081529192917f17307eab39ab6107e8899845ad3d59bd9653f200f220920489ca2b5937696c31910160405180910390a35050565b604051630a85bd0160e11b81526000906001600160a01b0385169063150b7a0290612f9d90339089908890889060040161440a565b6020604051808303816000875af1925050508015612fd8575060408051601f3d908101601f19168201909252612fd591810190614447565b60015b613036573d808015613006576040519150601f19603f3d011682016040523d82523d6000602084013e61300b565b606091505b50805160000361302e576040516368d2bf6b60e11b815260040160405180910390fd5b805181602001fd5b6001600160e01b031916630a85bd0160e11b1490505b949350505050565b606061305f82612b80565b61307c57604051630a14c4b560e41b815260040160405180910390fd5b600061308661318a565b905080516000036130a65760405180602001604052806000815250612d4c565b806130b084613199565b6040516020016130c1929190614464565b6040516020818303038152906040529392505050565b600081815b845181101561311c57613108828683815181106130fb576130fb614089565b60200260200101516131d1565b915080613114816140b5565b9150506130dc565b509392505050565b61312e83836131fd565b6001600160a01b0383163b15610e4b576000548281035b6131586000868380600101945086612f68565b613175576040516368d2bf6b60e11b815260040160405180910390fd5b81811061314557816000541461213157600080fd5b606060108054610d709061404f565b604080516080019081905280825b600183039250600a81066030018353600a9004806131a75750819003601f19909101908152919050565b60008183106131ed576000828152602084905260409020612d4c565b5060009182526020526040902090565b60008054908290036132225760405163b562e8dd60e01b815260040160405180910390fd5b61322f6000848385612d6e565b6001600160a01b03831660008181526005602090815260408083208054680100000000000000018802019055848352600490915281206001851460e11b4260a01b178317905582840190839083907fddf252ad1be2c89b69c2b068fc378daa952ba7f163c4a11628f55a4df523b3ef8180a4600183015b8181146132de57808360007fddf252ad1be2c89b69c2b068fc378daa952ba7f163c4a11628f55a4df523b3ef600080a46001016132a6565b50816000036132ff57604051622e076360e81b815260040160405180910390fd5b60005550505050565b6001600160a01b038116811461147d57600080fd5b60008083601f84011261332f57600080fd5b5081356001600160401b0381111561334657600080fd5b6020830191508360208260051b850101111561116157600080fd5b803563ffffffff8116811461337557600080fd5b919050565b600080600080600080600060a0888a03121561339557600080fd5b87356133a081613308565b965060208801356001600160401b03808211156133bc57600080fd5b6133c88b838c0161331d565b909850965060408a01359150808211156133e157600080fd5b506133ee8a828b0161331d565b9095509350613401905060608901613361565b9150608088013561341181613308565b8091505092959891949750929550565b60008060008060006060868803121561343957600080fd5b85356001600160401b038082111561345057600080fd5b61345c89838a0161331d565b9097509550602088013591508082111561347557600080fd5b506134828882890161331d565b9094509250613495905060408701613361565b90509295509295909350565b6001600160e01b03198116811461147d57600080fd5b6000602082840312156134c957600080fd5b8135612d4c816134a1565b60005b838110156134ef5781810151838201526020016134d7565b50506000910152565b600081518084526135108160208601602086016134d4565b601f01601f19169290920160200192915050565b602081526000612d4c60208301846134f8565b60006020828403121561354957600080fd5b5035919050565b6000806040838503121561356357600080fd5b823561356e81613308565b946020939093013593505050565b6000806040838503121561358f57600080fd5b50508035926020909101359150565b634e487b7160e01b600052602160045260246000fd5b6001600160a01b03841681526001600160581b038316602082015260608101600383106135f157634e487b7160e01b600052602160045260246000fd5b826040830152949350505050565b60008060006060848603121561361457600080fd5b833561361f81613308565b9250602084013561362f81613308565b929592945050506040919091013590565b634e487b7160e01b600052604160045260246000fd5b60405161018081016001600160401b038111828210171561367957613679613640565b60405290565b604051601f8201601f191681016001600160401b03811182821017156136a7576136a7613640565b604052919050565b600082601f8301126136c057600080fd5b813560206001600160401b038211156136db576136db613640565b8160051b6136ea82820161367f565b928352848101820192828101908785111561370457600080fd5b83870192505b8483101561372c57823561371d81613308565b8252918301919083019061370a565b979650505050505050565b600080600080600080600080600060e08a8c03121561375557600080fd5b893561376081613308565b985060208a0135975060408a01356001600160401b038082111561378357600080fd5b61378f8d838e016136af565b985060608c01359150808211156137a557600080fd5b6137b18d838e0161331d565b909850965060808c01359150808211156137ca57600080fd5b506137d78c828d0161331d565b90955093506137ea905060a08b01613361565b915060c08a01356137fa81613308565b809150509295985092959850929598565b801515811461147d57600080fd5b80356133758161380b565b6000806040838503121561383757600080fd5b82356138428161380b565b9150602083013561385281613308565b809150509250929050565b60006001600160401b0382111561387657613876613640565b50601f01601f191660200190565b600082601f83011261389557600080fd5b81356138a86138a38261385d565b61367f565b8181528460208386010111156138bd57600080fd5b816020850160208301376000918101602001919091529392505050565b6000602082840312156138ec57600080fd5b81356001600160401b0381111561390257600080fd5b61304c84828501613884565b60006020828403121561392057600080fd5b8135612d4c81613308565b60008060008060006080868803121561394357600080fd5b85359450602086013593506040860135925060608601356001600160401b0381111561396e57600080fd5b61397a8882890161331d565b969995985093965092949392505050565b6000806040838503121561399e57600080fd5b8235915060208301356001600160401b038111156139bb57600080fd5b61115d858286016136af565b600080604083850312156139da57600080fd5b82356139e581613308565b915060208301356138528161380b565b60008060008060808587031215613a0b57600080fd5b8435613a1681613308565b93506020850135613a2681613308565b92506040850135915060608501356001600160401b03811115613a4857600080fd5b613a5487828801613884565b91505092959194509250565b60008060008060008060808789031215613a7957600080fd5b86356001600160401b0380821115613a9057600080fd5b613a9c8a838b0161331d565b90985096506020890135915080821115613ab557600080fd5b50613ac289828a0161331d565b9095509350613ad5905060408801613361565b91506060870135613ae581613308565b809150509295509295509295565b60008060208385031215613b0657600080fd5b82356001600160401b03811115613b1c57600080fd5b613b288582860161331d565b90969095509350505050565b60006101808284031215613b4757600080fd5b613b4f613656565b905081356001600160401b0380821115613b6857600080fd5b613b7485838601613884565b83526020840135915080821115613b8a57600080fd5b50613b9784828501613884565b602083015250613ba960408301613819565b6040820152606082013560608201526080820135608082015260a082013560a082015260c082013560c082015260e082013560e082015261010080830135818301525061012080830135818301525061014080830135818301525061016080830135818301525092915050565b600060808284031215613c2857600080fd5b604051608081016001600160401b038282108183111715613c4b57613c4b613640565b816040528293508435915080821115613c6357600080fd5b613c6f86838701613884565b83526020850135915080821115613c8557600080fd5b613c9186838701613884565b60208401526040850135915080821115613caa57600080fd5b50613cb785828601613884565b6040830152506060830135613ccb81613308565b6060919091015292915050565b600060608284031215613cea57600080fd5b604051606081018181106001600160401b0382111715613d0c57613d0c613640565b6040529050808235613d1d81613308565b815260208301356001600160581b0381168114613d3957600080fd5b6020820152604083013560038110613d5057600080fd5b6040919091015292915050565b6000806000806000806101008789031215613d7757600080fd5b8635613d8281613308565b955060208701356001600160401b0380821115613d9e57600080fd5b613daa8a838b01613b34565b96506040890135915080821115613dc057600080fd5b50613dcd89828a01613c16565b945050613ddd8860608901613cd8565b925060c0870135613ded81613308565b915060e0870135613ae581613308565b6000806000806000806000610120888a031215613e1957600080fd5b8735613e2481613308565b965060208801356001600160401b0380821115613e4057600080fd5b613e4c8b838c01613b34565b975060408a0135915080821115613e6257600080fd5b50613e6f8a828b01613c16565b955050613e7f8960608a01613cd8565b935060c0880135613e8f81613308565b925060e0880135613e9f81613308565b915061010088013561341181613308565b60008060408385031215613ec357600080fd5b823561384281613308565b60208082526015908201527414dc1b1a5d081b9bdd0818dc99585d1959081e595d605a1b604082015260600190565b8183526000602080850194508260005b85811015613f3b578135613f2081613308565b6001600160a01b031687529582019590820190600101613f0d565b509495945050505050565b8183526000602080850194508260005b85811015613f3b5763ffffffff613f6c83613361565b1687529582019590820190600101613f56565b600060018060a01b03808b168352808a16602084015260c06040840152613faa60c08401898b613efd565b8381036060850152613fbd81888a613f46565b63ffffffff969096166080850152509290921660a090910152509695505050505050565b608081526000613ff560808301888a613efd565b8281036020840152614008818789613f46565b63ffffffff95909516604084015250506001600160a01b0391909116606090910152949350505050565b60006020828403121561404457600080fd5b8151612d4c81613308565b600181811c9082168061406357607f821691505b60208210810361408357634e487b7160e01b600052602260045260246000fd5b50919050565b634e487b7160e01b600052603260045260246000fd5b634e487b7160e01b600052601160045260246000fd5b6000600182016140c7576140c761409f565b5060010190565b8082028115828204841417610d5b57610d5b61409f565b60008261410257634e487b7160e01b600052601260045260246000fd5b500490565b60006020828403121561411957600080fd5b8151612d4c8161380b565b601f821115610e4b57600081815260208120601f850160051c8101602086101561414b5750805b601f850160051c820191505b81811015610d2e57828155600101614157565b81516001600160401b0381111561418357614183613640565b61419781614191845461404f565b84614124565b602080601f8311600181146141cc57600084156141b45750858301515b600019600386901b1c1916600185901b178555610d2e565b600085815260208120601f198616915b828110156141fb578886015182559484019460019091019084016141dc565b50858210156142195787850151600019600388901b60f8161c191681555b5050505050600190811b01905550565b60006020828403121561423b57600080fd5b5051919050565b80820180821115610d5b57610d5b61409f565b6020808252818101527f507572636861736520776f756c6420657863656564206d617820737570706c79604082015260600190565b600060018060a01b03808a16835260a060208401526142ad60a08401898b613efd565b83810360408501526142c081888a613f46565b63ffffffff96909616606085015250929092166080909101525095945050505050565b6000602082840312156142f557600080fd5b81516001600160401b0381111561430b57600080fd5b8201601f8101841361431c57600080fd5b805161432a6138a38261385d565b81815285602083850101111561433f57600080fd5b6143508260208301602086016134d4565b95945050505050565b6020808252602e908201527f496e697469616c697a61626c653a20636f6e747261637420697320616c72656160408201526d191e481a5b9a5d1a585b1a5e995960921b606082015260800190565b6001600160a01b038481168252602080830185905260606040840181905284519084018190526000928583019290916080860190855b818110156143fb5785518516835294830194918301916001016143dd565b50909998505050505050505050565b6001600160a01b038581168252841660208201526040810183905260806060820181905260009061443d908301846134f8565b9695505050505050565b60006020828403121561445957600080fd5b8151612d4c816134a1565b600083516144768184602088016134d4565b83519083019061448a8183602088016134d4565b0194935050505056fe30385c845b448a36257a6a1716e6ad2e1bc2cbe333cde1e69fe849ad6511adfea2646970667358221220fc7ce1dbb2b7d4add670e83d20aa316126720eb1511966af0b5850320c1ff96264736f6c63430008110033",
  "linkReferences": {},
  "deployedLinkReferences": {}
}